{
	"compilerInput": "{\"language\":\"Solidity\",\"sources\":{\"contracts/DPolls.sol\":{\"content\":\"// SPDX-License-Identifier: MIT\\npragma solidity ^0.8.26;\\n\\ncontract PollsDApp {\\n    struct Poll {\\n        address creator;\\n        string question;\\n        string[] options;\\n        uint256 rewardPerResponse;\\n        uint256 maxResponses;\\n        uint256 endTime;\\n        bool isOpen;\\n        uint256 totalResponses;\\n        uint256 funds;\\n    }\\n\\n    uint256 public pollCounter;\\n    uint256[] public pollIds;\\n    mapping(uint256 => Poll) public polls;\\n    mapping(address => Poll[]) private userPolls;\\n\\n    event PollCreated(uint256 pollId, address creator, string question);\\n    event PollClosed(uint256 pollId);\\n\\n    function createPoll(\\n        string memory question,\\n        string[] memory options,\\n        uint256 rewardPerResponse,\\n        uint256 durationDays,\\n        uint256 maxResponses\\n    ) external payable {\\n        require(options.length >= 2, \\\"Need at least 2 options\\\");\\n        require(durationDays > 0, \\\"Invalid duration\\\");\\n\\n        Poll storage p = polls[pollCounter];\\n        p.creator = msg.sender;\\n        p.question = question;\\n        p.options = options;\\n        p.rewardPerResponse = rewardPerResponse;\\n        p.maxResponses = maxResponses;\\n        p.endTime = block.timestamp + (durationDays * 1 days);\\n        p.isOpen = true;\\n        p.funds = msg.value;\\n\\n        pollIds.push(pollCounter);\\n\\n        userPolls[msg.sender].push(p);\\n\\n        emit PollCreated(pollCounter, msg.sender, question);\\n        pollCounter++;\\n    }\\n\\n    function closePoll(uint256 pollId) external {\\n        Poll storage p = polls[pollId];\\n        require(msg.sender == p.creator, \\\"Not creator\\\");\\n        require(p.isOpen, \\\"Already closed\\\");\\n        require(block.timestamp >= p.endTime || p.totalResponses >= p.maxResponses, \\\"Too early\\\");\\n\\n        p.isOpen = false;\\n        emit PollClosed(pollId);\\n    }\\n\\n    function getOptions(uint256 pollId) external view returns (string[] memory) {\\n        return polls[pollId].options;\\n    }\\n\\n    function getPollStatus(uint256 pollId) external view returns (bool, uint256, uint256) {\\n        Poll storage p = polls[pollId];\\n        return (p.isOpen, p.endTime, p.totalResponses);\\n    }\\n\\n    function getAllPollIds() external view returns (uint256[] memory) {\\n        return pollIds;\\n    }\\n\\n    function getPoll(uint256 pollId) external view returns (\\n        address creator,\\n        string memory question,\\n        string[] memory options,\\n        uint256 rewardPerResponse,\\n        uint256 maxResponses,\\n        uint256 endTime,\\n        bool isOpen,\\n        uint256 totalResponses,\\n        uint256 funds\\n    ) {\\n        Poll storage p = polls[pollId];\\n        return (\\n            p.creator,\\n            p.question,\\n            p.options,\\n            p.rewardPerResponse,\\n            p.maxResponses,\\n            p.endTime,\\n            p.isOpen,\\n            p.totalResponses,\\n            p.funds\\n        );\\n    }\\n\\n}\\n\"}},\"settings\":{\"optimizer\":{\"enabled\":false,\"runs\":200},\"outputSelection\":{\"*\":{\"\":[\"ast\"],\"*\":[\"abi\",\"metadata\",\"devdoc\",\"userdoc\",\"storageLayout\",\"evm.legacyAssembly\",\"evm.bytecode\",\"evm.deployedBytecode\",\"evm.methodIdentifiers\",\"evm.gasEstimates\",\"evm.assembly\"]}},\"remappings\":[]}}",
	"name": "PollsDApp",
	"bytecode": {
		"linkReferences": {},
		"object": "6080604052348015600e575f80fd5b50611b718061001c5f395ff3fe608060405260043610610085575f3560e01c80639534e637116100585780639534e63714610161578063ac2f007414610189578063b0c095e3146101cc578063d02eed381461020a578063ee0ca5171461023457610085565b80631a8cbcaa146100895780634b117094146100cd57806373a5c08d146100e95780638915b3fb14610125575b5f80fd5b348015610094575f80fd5b506100af60048036038101906100aa9190610d28565b61025e565b6040516100c499989796959493929190610f2e565b60405180910390f35b6100e760048036038101906100e291906111d5565b610449565b005b3480156100f4575f80fd5b5061010f600480360381019061010a9190610d28565b61077d565b60405161011c9190611284565b60405180910390f35b348015610130575f80fd5b5061014b60048036038101906101469190610d28565b61079d565b604051610158919061129d565b60405180910390f35b34801561016c575f80fd5b5061018760048036038101906101829190610d28565b610885565b005b348015610194575f80fd5b506101af60048036038101906101aa9190610d28565b610a29565b6040516101c39897969594939291906112bd565b60405180910390f35b3480156101d7575f80fd5b506101f260048036038101906101ed9190610d28565b610b1e565b60405161020193929190611340565b60405180910390f35b348015610215575f80fd5b5061021e610b5e565b60405161022b9190611284565b60405180910390f35b34801561023f575f80fd5b50610248610b63565b604051610255919061142c565b60405180910390f35b5f6060805f805f805f805f60025f8c81526020019081526020015f209050805f015f9054906101000a900473ffffffffffffffffffffffffffffffffffffffff168160010182600201836003015484600401548560050154866006015f9054906101000a900460ff16876007015488600801548780546102dd90611479565b80601f016020809104026020016040519081016040528092919081815260200182805461030990611479565b80156103545780601f1061032b57610100808354040283529160200191610354565b820191905f5260205f20905b81548152906001019060200180831161033757829003601f168201915b5050505050975086805480602002602001604051908101604052809291908181526020015f905b82821015610423578382905f5260205f2001805461039890611479565b80601f01602080910402602001604051908101604052809291908181526020018280546103c490611479565b801561040f5780601f106103e65761010080835404028352916020019161040f565b820191905f5260205f20905b8154815290600101906020018083116103f257829003601f168201915b50505050508152602001906001019061037b565b505050509650995099509950995099509950995099509950509193959799909294969850565b60028451101561048e576040517f08c379a0000000000000000000000000000000000000000000000000000000008152600401610485906114f3565b60405180910390fd5b5f82116104d0576040517f08c379a00000000000000000000000000000000000000000000000000000000081526004016104c79061155b565b60405180910390fd5b5f60025f805481526020019081526020015f20905033815f015f6101000a81548173ffffffffffffffffffffffffffffffffffffffff021916908373ffffffffffffffffffffffffffffffffffffffff160217905550858160010190816105379190611716565b5084816002019080519060200190610550929190610bb9565b5083816003018190555081816004018190555062015180836105729190611812565b4261057d9190611853565b81600501819055506001816006015f6101000a81548160ff02191690831515021790555034816008018190555060015f54908060018154018082558091505060019003905f5260205f20015f909190919091505560035f3373ffffffffffffffffffffffffffffffffffffffff1673ffffffffffffffffffffffffffffffffffffffff1681526020019081526020015f2081908060018154018082558091505060019003905f5260205f2090600902015f909190919091505f82015f9054906101000a900473ffffffffffffffffffffffffffffffffffffffff16815f015f6101000a81548173ffffffffffffffffffffffffffffffffffffffff021916908373ffffffffffffffffffffffffffffffffffffffff160217905550600182018160010190816106ac919061189b565b5060028201816002019080546106c3929190610c10565b50600382015481600301556004820154816004015560058201548160050155600682015f9054906101000a900460ff16816006015f6101000a81548160ff021916908315150217905550600782015481600701556008820154816008015550507f7cf84e937b660a86b8d03903abf94c2e2976b2273da8dfbef2d89b7ac560463e5f54338860405161075793929190611980565b60405180910390a15f80815480929190610770906119bc565b9190505550505050505050565b6001818154811061078c575f80fd5b905f5260205f20015f915090505481565b606060025f8381526020019081526020015f20600201805480602002602001604051908101604052809291908181526020015f905b8282101561087a578382905f5260205f200180546107ef90611479565b80601f016020809104026020016040519081016040528092919081815260200182805461081b90611479565b80156108665780601f1061083d57610100808354040283529160200191610866565b820191905f5260205f20905b81548152906001019060200180831161084957829003601f168201915b5050505050815260200190600101906107d2565b505050509050919050565b5f60025f8381526020019081526020015f209050805f015f9054906101000a900473ffffffffffffffffffffffffffffffffffffffff1673ffffffffffffffffffffffffffffffffffffffff163373ffffffffffffffffffffffffffffffffffffffff1614610929576040517f08c379a000000000000000000000000000000000000000000000000000000000815260040161092090611a4d565b60405180910390fd5b806006015f9054906101000a900460ff16610979576040517f08c379a000000000000000000000000000000000000000000000000000000000815260040161097090611ab5565b60405180910390fd5b80600501544210158061099457508060040154816007015410155b6109d3576040517f08c379a00000000000000000000000000000000000000000000000000000000081526004016109ca90611b1d565b60405180910390fd5b5f816006015f6101000a81548160ff0219169083151502179055507f703c67c157a1afb7d386ce5212ee88bf0a690bca998060e9595ebdfd747100ce82604051610a1d9190611284565b60405180910390a15050565b6002602052805f5260405f205f91509050805f015f9054906101000a900473ffffffffffffffffffffffffffffffffffffffff1690806001018054610a6d90611479565b80601f0160208091040260200160405190810160405280929190818152602001828054610a9990611479565b8015610ae45780601f10610abb57610100808354040283529160200191610ae4565b820191905f5260205f20905b815481529060010190602001808311610ac757829003601f168201915b505050505090806003015490806004015490806005015490806006015f9054906101000a900460ff16908060070154908060080154905088565b5f805f8060025f8681526020019081526020015f209050806006015f9054906101000a900460ff1681600501548260070154935093509350509193909250565b5f5481565b60606001805480602002602001604051908101604052809291908181526020018280548015610baf57602002820191905f5260205f20905b815481526020019060010190808311610b9b575b5050505050905090565b828054828255905f5260205f20908101928215610bff579160200282015b82811115610bfe578251829081610bee9190611716565b5091602001919060010190610bd7565b5b509050610c0c9190610c69565b5090565b828054828255905f5260205f20908101928215610c58575f5260205f209182015b82811115610c575782829081610c47919061189b565b5091600101919060010190610c31565b5b509050610c659190610c69565b5090565b5b80821115610c88575f8181610c7f9190610c8c565b50600101610c6a565b5090565b508054610c9890611479565b5f825580601f10610ca95750610cc6565b601f0160209004905f5260205f2090810190610cc59190610cc9565b5b50565b5b80821115610ce0575f815f905550600101610cca565b5090565b5f604051905090565b5f80fd5b5f80fd5b5f819050919050565b610d0781610cf5565b8114610d11575f80fd5b50565b5f81359050610d2281610cfe565b92915050565b5f60208284031215610d3d57610d3c610ced565b5b5f610d4a84828501610d14565b91505092915050565b5f73ffffffffffffffffffffffffffffffffffffffff82169050919050565b5f610d7c82610d53565b9050919050565b610d8c81610d72565b82525050565b5f81519050919050565b5f82825260208201905092915050565b8281835e5f83830152505050565b5f601f19601f8301169050919050565b5f610dd482610d92565b610dde8185610d9c565b9350610dee818560208601610dac565b610df781610dba565b840191505092915050565b5f81519050919050565b5f82825260208201905092915050565b5f819050602082019050919050565b5f82825260208201905092915050565b5f610e4582610d92565b610e4f8185610e2b565b9350610e5f818560208601610dac565b610e6881610dba565b840191505092915050565b5f610e7e8383610e3b565b905092915050565b5f602082019050919050565b5f610e9c82610e02565b610ea68185610e0c565b935083602082028501610eb885610e1c565b805f5b85811015610ef35784840389528151610ed48582610e73565b9450610edf83610e86565b925060208a01995050600181019050610ebb565b50829750879550505050505092915050565b610f0e81610cf5565b82525050565b5f8115159050919050565b610f2881610f14565b82525050565b5f61012082019050610f425f83018c610d83565b8181036020830152610f54818b610dca565b90508181036040830152610f68818a610e92565b9050610f776060830189610f05565b610f846080830188610f05565b610f9160a0830187610f05565b610f9e60c0830186610f1f565b610fab60e0830185610f05565b610fb9610100830184610f05565b9a9950505050505050505050565b5f80fd5b5f80fd5b7f4e487b71000000000000000000000000000000000000000000000000000000005f52604160045260245ffd5b61100582610dba565b810181811067ffffffffffffffff8211171561102457611023610fcf565b5b80604052505050565b5f611036610ce4565b90506110428282610ffc565b919050565b5f67ffffffffffffffff82111561106157611060610fcf565b5b61106a82610dba565b9050602081019050919050565b828183375f83830152505050565b5f61109761109284611047565b61102d565b9050828152602081018484840111156110b3576110b2610fcb565b5b6110be848285611077565b509392505050565b5f82601f8301126110da576110d9610fc7565b5b81356110ea848260208601611085565b91505092915050565b5f67ffffffffffffffff82111561110d5761110c610fcf565b5b602082029050602081019050919050565b5f80fd5b5f61113461112f846110f3565b61102d565b905080838252602082019050602084028301858111156111575761115661111e565b5b835b8181101561119e57803567ffffffffffffffff81111561117c5761117b610fc7565b5b80860161118989826110c6565b85526020850194505050602081019050611159565b5050509392505050565b5f82601f8301126111bc576111bb610fc7565b5b81356111cc848260208601611122565b91505092915050565b5f805f805f60a086880312156111ee576111ed610ced565b5b5f86013567ffffffffffffffff81111561120b5761120a610cf1565b5b611217888289016110c6565b955050602086013567ffffffffffffffff81111561123857611237610cf1565b5b611244888289016111a8565b945050604061125588828901610d14565b935050606061126688828901610d14565b925050608061127788828901610d14565b9150509295509295909350565b5f6020820190506112975f830184610f05565b92915050565b5f6020820190508181035f8301526112b58184610e92565b905092915050565b5f610100820190506112d15f83018b610d83565b81810360208301526112e3818a610dca565b90506112f26040830189610f05565b6112ff6060830188610f05565b61130c6080830187610f05565b61131960a0830186610f1f565b61132660c0830185610f05565b61133360e0830184610f05565b9998505050505050505050565b5f6060820190506113535f830186610f1f565b6113606020830185610f05565b61136d6040830184610f05565b949350505050565b5f81519050919050565b5f82825260208201905092915050565b5f819050602082019050919050565b6113a781610cf5565b82525050565b5f6113b8838361139e565b60208301905092915050565b5f602082019050919050565b5f6113da82611375565b6113e4818561137f565b93506113ef8361138f565b805f5b8381101561141f57815161140688826113ad565b9750611411836113c4565b9250506001810190506113f2565b5085935050505092915050565b5f6020820190508181035f83015261144481846113d0565b905092915050565b7f4e487b71000000000000000000000000000000000000000000000000000000005f52602260045260245ffd5b5f600282049050600182168061149057607f821691505b6020821081036114a3576114a261144c565b5b50919050565b7f4e656564206174206c656173742032206f7074696f6e730000000000000000005f82015250565b5f6114dd601783610d9c565b91506114e8826114a9565b602082019050919050565b5f6020820190508181035f83015261150a816114d1565b9050919050565b7f496e76616c6964206475726174696f6e000000000000000000000000000000005f82015250565b5f611545601083610d9c565b915061155082611511565b602082019050919050565b5f6020820190508181035f83015261157281611539565b9050919050565b5f819050815f5260205f209050919050565b5f6020601f8301049050919050565b5f82821b905092915050565b5f600883026115d57fffffffffffffffffffffffffffffffffffffffffffffffffffffffffffffffff8261159a565b6115df868361159a565b95508019841693508086168417925050509392505050565b5f819050919050565b5f61161a61161561161084610cf5565b6115f7565b610cf5565b9050919050565b5f819050919050565b61163383611600565b61164761163f82611621565b8484546115a6565b825550505050565b5f90565b61165b61164f565b61166681848461162a565b505050565b5b818110156116895761167e5f82611653565b60018101905061166c565b5050565b601f8211156116ce5761169f81611579565b6116a88461158b565b810160208510156116b7578190505b6116cb6116c38561158b565b83018261166b565b50505b505050565b5f82821c905092915050565b5f6116ee5f19846008026116d3565b1980831691505092915050565b5f61170683836116df565b9150826002028217905092915050565b61171f82610d92565b67ffffffffffffffff81111561173857611737610fcf565b5b6117428254611479565b61174d82828561168d565b5f60209050601f83116001811461177e575f841561176c578287015190505b61177685826116fb565b8655506117dd565b601f19841661178c86611579565b5f5b828110156117b35784890151825560018201915060208501945060208101905061178e565b868310156117d057848901516117cc601f8916826116df565b8355505b6001600288020188555050505b505050505050565b7f4e487b71000000000000000000000000000000000000000000000000000000005f52601160045260245ffd5b5f61181c82610cf5565b915061182783610cf5565b925082820261183581610cf5565b9150828204841483151761184c5761184b6117e5565b5b5092915050565b5f61185d82610cf5565b915061186883610cf5565b92508282019050808211156118805761187f6117e5565b5b92915050565b5f8154905061189481611479565b9050919050565b8181036118a957505061197e565b6118b282611886565b67ffffffffffffffff8111156118cb576118ca610fcf565b5b6118d58254611479565b6118e082828561168d565b5f601f83116001811461190d575f84156118fb578287015490505b61190585826116fb565b865550611977565b601f19841661191b87611579565b965061192686611579565b5f5b8281101561194d57848901548255600182019150600185019450602081019050611928565b8683101561196a5784890154611966601f8916826116df565b8355505b6001600288020188555050505b5050505050505b565b5f6060820190506119935f830186610f05565b6119a06020830185610d83565b81810360408301526119b28184610dca565b9050949350505050565b5f6119c682610cf5565b91507fffffffffffffffffffffffffffffffffffffffffffffffffffffffffffffffff82036119f8576119f76117e5565b5b600182019050919050565b7f4e6f742063726561746f720000000000000000000000000000000000000000005f82015250565b5f611a37600b83610d9c565b9150611a4282611a03565b602082019050919050565b5f6020820190508181035f830152611a6481611a2b565b9050919050565b7f416c726561647920636c6f7365640000000000000000000000000000000000005f82015250565b5f611a9f600e83610d9c565b9150611aaa82611a6b565b602082019050919050565b5f6020820190508181035f830152611acc81611a93565b9050919050565b7f546f6f206561726c7900000000000000000000000000000000000000000000005f82015250565b5f611b07600983610d9c565b9150611b1282611ad3565b602082019050919050565b5f6020820190508181035f830152611b3481611afb565b905091905056fea26469706673582212208699157c9ba57a58cf39eab349e718c3c67a81e7b99f02f1331f1dcff7446b9464736f6c634300081a0033",
		"opcodes": "PUSH1 0x80 PUSH1 0x40 MSTORE CALLVALUE DUP1 ISZERO PUSH1 0xE JUMPI PUSH0 DUP1 REVERT JUMPDEST POP PUSH2 0x1B71 DUP1 PUSH2 0x1C PUSH0 CODECOPY PUSH0 RETURN INVALID PUSH1 0x80 PUSH1 0x40 MSTORE PUSH1 0x4 CALLDATASIZE LT PUSH2 0x85 JUMPI PUSH0 CALLDATALOAD PUSH1 0xE0 SHR DUP1 PUSH4 0x9534E637 GT PUSH2 0x58 JUMPI DUP1 PUSH4 0x9534E637 EQ PUSH2 0x161 JUMPI DUP1 PUSH4 0xAC2F0074 EQ PUSH2 0x189 JUMPI DUP1 PUSH4 0xB0C095E3 EQ PUSH2 0x1CC JUMPI DUP1 PUSH4 0xD02EED38 EQ PUSH2 0x20A JUMPI DUP1 PUSH4 0xEE0CA517 EQ PUSH2 0x234 JUMPI PUSH2 0x85 JUMP JUMPDEST DUP1 PUSH4 0x1A8CBCAA EQ PUSH2 0x89 JUMPI DUP1 PUSH4 0x4B117094 EQ PUSH2 0xCD JUMPI DUP1 PUSH4 0x73A5C08D EQ PUSH2 0xE9 JUMPI DUP1 PUSH4 0x8915B3FB EQ PUSH2 0x125 JUMPI JUMPDEST PUSH0 DUP1 REVERT JUMPDEST CALLVALUE DUP1 ISZERO PUSH2 0x94 JUMPI PUSH0 DUP1 REVERT JUMPDEST POP PUSH2 0xAF PUSH1 0x4 DUP1 CALLDATASIZE SUB DUP2 ADD SWAP1 PUSH2 0xAA SWAP2 SWAP1 PUSH2 0xD28 JUMP JUMPDEST PUSH2 0x25E JUMP JUMPDEST PUSH1 0x40 MLOAD PUSH2 0xC4 SWAP10 SWAP9 SWAP8 SWAP7 SWAP6 SWAP5 SWAP4 SWAP3 SWAP2 SWAP1 PUSH2 0xF2E JUMP JUMPDEST PUSH1 0x40 MLOAD DUP1 SWAP2 SUB SWAP1 RETURN JUMPDEST PUSH2 0xE7 PUSH1 0x4 DUP1 CALLDATASIZE SUB DUP2 ADD SWAP1 PUSH2 0xE2 SWAP2 SWAP1 PUSH2 0x11D5 JUMP JUMPDEST PUSH2 0x449 JUMP JUMPDEST STOP JUMPDEST CALLVALUE DUP1 ISZERO PUSH2 0xF4 JUMPI PUSH0 DUP1 REVERT JUMPDEST POP PUSH2 0x10F PUSH1 0x4 DUP1 CALLDATASIZE SUB DUP2 ADD SWAP1 PUSH2 0x10A SWAP2 SWAP1 PUSH2 0xD28 JUMP JUMPDEST PUSH2 0x77D JUMP JUMPDEST PUSH1 0x40 MLOAD PUSH2 0x11C SWAP2 SWAP1 PUSH2 0x1284 JUMP JUMPDEST PUSH1 0x40 MLOAD DUP1 SWAP2 SUB SWAP1 RETURN JUMPDEST CALLVALUE DUP1 ISZERO PUSH2 0x130 JUMPI PUSH0 DUP1 REVERT JUMPDEST POP PUSH2 0x14B PUSH1 0x4 DUP1 CALLDATASIZE SUB DUP2 ADD SWAP1 PUSH2 0x146 SWAP2 SWAP1 PUSH2 0xD28 JUMP JUMPDEST PUSH2 0x79D JUMP JUMPDEST PUSH1 0x40 MLOAD PUSH2 0x158 SWAP2 SWAP1 PUSH2 0x129D JUMP JUMPDEST PUSH1 0x40 MLOAD DUP1 SWAP2 SUB SWAP1 RETURN JUMPDEST CALLVALUE DUP1 ISZERO PUSH2 0x16C JUMPI PUSH0 DUP1 REVERT JUMPDEST POP PUSH2 0x187 PUSH1 0x4 DUP1 CALLDATASIZE SUB DUP2 ADD SWAP1 PUSH2 0x182 SWAP2 SWAP1 PUSH2 0xD28 JUMP JUMPDEST PUSH2 0x885 JUMP JUMPDEST STOP JUMPDEST CALLVALUE DUP1 ISZERO PUSH2 0x194 JUMPI PUSH0 DUP1 REVERT JUMPDEST POP PUSH2 0x1AF PUSH1 0x4 DUP1 CALLDATASIZE SUB DUP2 ADD SWAP1 PUSH2 0x1AA SWAP2 SWAP1 PUSH2 0xD28 JUMP JUMPDEST PUSH2 0xA29 JUMP JUMPDEST PUSH1 0x40 MLOAD PUSH2 0x1C3 SWAP9 SWAP8 SWAP7 SWAP6 SWAP5 SWAP4 SWAP3 SWAP2 SWAP1 PUSH2 0x12BD JUMP JUMPDEST PUSH1 0x40 MLOAD DUP1 SWAP2 SUB SWAP1 RETURN JUMPDEST CALLVALUE DUP1 ISZERO PUSH2 0x1D7 JUMPI PUSH0 DUP1 REVERT JUMPDEST POP PUSH2 0x1F2 PUSH1 0x4 DUP1 CALLDATASIZE SUB DUP2 ADD SWAP1 PUSH2 0x1ED SWAP2 SWAP1 PUSH2 0xD28 JUMP JUMPDEST PUSH2 0xB1E JUMP JUMPDEST PUSH1 0x40 MLOAD PUSH2 0x201 SWAP4 SWAP3 SWAP2 SWAP1 PUSH2 0x1340 JUMP JUMPDEST PUSH1 0x40 MLOAD DUP1 SWAP2 SUB SWAP1 RETURN JUMPDEST CALLVALUE DUP1 ISZERO PUSH2 0x215 JUMPI PUSH0 DUP1 REVERT JUMPDEST POP PUSH2 0x21E PUSH2 0xB5E JUMP JUMPDEST PUSH1 0x40 MLOAD PUSH2 0x22B SWAP2 SWAP1 PUSH2 0x1284 JUMP JUMPDEST PUSH1 0x40 MLOAD DUP1 SWAP2 SUB SWAP1 RETURN JUMPDEST CALLVALUE DUP1 ISZERO PUSH2 0x23F JUMPI PUSH0 DUP1 REVERT JUMPDEST POP PUSH2 0x248 PUSH2 0xB63 JUMP JUMPDEST PUSH1 0x40 MLOAD PUSH2 0x255 SWAP2 SWAP1 PUSH2 0x142C JUMP JUMPDEST PUSH1 0x40 MLOAD DUP1 SWAP2 SUB SWAP1 RETURN JUMPDEST PUSH0 PUSH1 0x60 DUP1 PUSH0 DUP1 PUSH0 DUP1 PUSH0 DUP1 PUSH0 PUSH1 0x2 PUSH0 DUP13 DUP2 MSTORE PUSH1 0x20 ADD SWAP1 DUP2 MSTORE PUSH1 0x20 ADD PUSH0 KECCAK256 SWAP1 POP DUP1 PUSH0 ADD PUSH0 SWAP1 SLOAD SWAP1 PUSH2 0x100 EXP SWAP1 DIV PUSH20 0xFFFFFFFFFFFFFFFFFFFFFFFFFFFFFFFFFFFFFFFF AND DUP2 PUSH1 0x1 ADD DUP3 PUSH1 0x2 ADD DUP4 PUSH1 0x3 ADD SLOAD DUP5 PUSH1 0x4 ADD SLOAD DUP6 PUSH1 0x5 ADD SLOAD DUP7 PUSH1 0x6 ADD PUSH0 SWAP1 SLOAD SWAP1 PUSH2 0x100 EXP SWAP1 DIV PUSH1 0xFF AND DUP8 PUSH1 0x7 ADD SLOAD DUP9 PUSH1 0x8 ADD SLOAD DUP8 DUP1 SLOAD PUSH2 0x2DD SWAP1 PUSH2 0x1479 JUMP JUMPDEST DUP1 PUSH1 0x1F ADD PUSH1 0x20 DUP1 SWAP2 DIV MUL PUSH1 0x20 ADD PUSH1 0x40 MLOAD SWAP1 DUP2 ADD PUSH1 0x40 MSTORE DUP1 SWAP3 SWAP2 SWAP1 DUP2 DUP2 MSTORE PUSH1 0x20 ADD DUP3 DUP1 SLOAD PUSH2 0x309 SWAP1 PUSH2 0x1479 JUMP JUMPDEST DUP1 ISZERO PUSH2 0x354 JUMPI DUP1 PUSH1 0x1F LT PUSH2 0x32B JUMPI PUSH2 0x100 DUP1 DUP4 SLOAD DIV MUL DUP4 MSTORE SWAP2 PUSH1 0x20 ADD SWAP2 PUSH2 0x354 JUMP JUMPDEST DUP3 ADD SWAP2 SWAP1 PUSH0 MSTORE PUSH1 0x20 PUSH0 KECCAK256 SWAP1 JUMPDEST DUP2 SLOAD DUP2 MSTORE SWAP1 PUSH1 0x1 ADD SWAP1 PUSH1 0x20 ADD DUP1 DUP4 GT PUSH2 0x337 JUMPI DUP3 SWAP1 SUB PUSH1 0x1F AND DUP3 ADD SWAP2 JUMPDEST POP POP POP POP POP SWAP8 POP DUP7 DUP1 SLOAD DUP1 PUSH1 0x20 MUL PUSH1 0x20 ADD PUSH1 0x40 MLOAD SWAP1 DUP2 ADD PUSH1 0x40 MSTORE DUP1 SWAP3 SWAP2 SWAP1 DUP2 DUP2 MSTORE PUSH1 0x20 ADD PUSH0 SWAP1 JUMPDEST DUP3 DUP3 LT ISZERO PUSH2 0x423 JUMPI DUP4 DUP3 SWAP1 PUSH0 MSTORE PUSH1 0x20 PUSH0 KECCAK256 ADD DUP1 SLOAD PUSH2 0x398 SWAP1 PUSH2 0x1479 JUMP JUMPDEST DUP1 PUSH1 0x1F ADD PUSH1 0x20 DUP1 SWAP2 DIV MUL PUSH1 0x20 ADD PUSH1 0x40 MLOAD SWAP1 DUP2 ADD PUSH1 0x40 MSTORE DUP1 SWAP3 SWAP2 SWAP1 DUP2 DUP2 MSTORE PUSH1 0x20 ADD DUP3 DUP1 SLOAD PUSH2 0x3C4 SWAP1 PUSH2 0x1479 JUMP JUMPDEST DUP1 ISZERO PUSH2 0x40F JUMPI DUP1 PUSH1 0x1F LT PUSH2 0x3E6 JUMPI PUSH2 0x100 DUP1 DUP4 SLOAD DIV MUL DUP4 MSTORE SWAP2 PUSH1 0x20 ADD SWAP2 PUSH2 0x40F JUMP JUMPDEST DUP3 ADD SWAP2 SWAP1 PUSH0 MSTORE PUSH1 0x20 PUSH0 KECCAK256 SWAP1 JUMPDEST DUP2 SLOAD DUP2 MSTORE SWAP1 PUSH1 0x1 ADD SWAP1 PUSH1 0x20 ADD DUP1 DUP4 GT PUSH2 0x3F2 JUMPI DUP3 SWAP1 SUB PUSH1 0x1F AND DUP3 ADD SWAP2 JUMPDEST POP POP POP POP POP DUP2 MSTORE PUSH1 0x20 ADD SWAP1 PUSH1 0x1 ADD SWAP1 PUSH2 0x37B JUMP JUMPDEST POP POP POP POP SWAP7 POP SWAP10 POP SWAP10 POP SWAP10 POP SWAP10 POP SWAP10 POP SWAP10 POP SWAP10 POP SWAP10 POP SWAP10 POP POP SWAP2 SWAP4 SWAP6 SWAP8 SWAP10 SWAP1 SWAP3 SWAP5 SWAP7 SWAP9 POP JUMP JUMPDEST PUSH1 0x2 DUP5 MLOAD LT ISZERO PUSH2 0x48E JUMPI PUSH1 0x40 MLOAD PUSH32 0x8C379A000000000000000000000000000000000000000000000000000000000 DUP2 MSTORE PUSH1 0x4 ADD PUSH2 0x485 SWAP1 PUSH2 0x14F3 JUMP JUMPDEST PUSH1 0x40 MLOAD DUP1 SWAP2 SUB SWAP1 REVERT JUMPDEST PUSH0 DUP3 GT PUSH2 0x4D0 JUMPI PUSH1 0x40 MLOAD PUSH32 0x8C379A000000000000000000000000000000000000000000000000000000000 DUP2 MSTORE PUSH1 0x4 ADD PUSH2 0x4C7 SWAP1 PUSH2 0x155B JUMP JUMPDEST PUSH1 0x40 MLOAD DUP1 SWAP2 SUB SWAP1 REVERT JUMPDEST PUSH0 PUSH1 0x2 PUSH0 DUP1 SLOAD DUP2 MSTORE PUSH1 0x20 ADD SWAP1 DUP2 MSTORE PUSH1 0x20 ADD PUSH0 KECCAK256 SWAP1 POP CALLER DUP2 PUSH0 ADD PUSH0 PUSH2 0x100 EXP DUP2 SLOAD DUP2 PUSH20 0xFFFFFFFFFFFFFFFFFFFFFFFFFFFFFFFFFFFFFFFF MUL NOT AND SWAP1 DUP4 PUSH20 0xFFFFFFFFFFFFFFFFFFFFFFFFFFFFFFFFFFFFFFFF AND MUL OR SWAP1 SSTORE POP DUP6 DUP2 PUSH1 0x1 ADD SWAP1 DUP2 PUSH2 0x537 SWAP2 SWAP1 PUSH2 0x1716 JUMP JUMPDEST POP DUP5 DUP2 PUSH1 0x2 ADD SWAP1 DUP1 MLOAD SWAP1 PUSH1 0x20 ADD SWAP1 PUSH2 0x550 SWAP3 SWAP2 SWAP1 PUSH2 0xBB9 JUMP JUMPDEST POP DUP4 DUP2 PUSH1 0x3 ADD DUP2 SWAP1 SSTORE POP DUP2 DUP2 PUSH1 0x4 ADD DUP2 SWAP1 SSTORE POP PUSH3 0x15180 DUP4 PUSH2 0x572 SWAP2 SWAP1 PUSH2 0x1812 JUMP JUMPDEST TIMESTAMP PUSH2 0x57D SWAP2 SWAP1 PUSH2 0x1853 JUMP JUMPDEST DUP2 PUSH1 0x5 ADD DUP2 SWAP1 SSTORE POP PUSH1 0x1 DUP2 PUSH1 0x6 ADD PUSH0 PUSH2 0x100 EXP DUP2 SLOAD DUP2 PUSH1 0xFF MUL NOT AND SWAP1 DUP4 ISZERO ISZERO MUL OR SWAP1 SSTORE POP CALLVALUE DUP2 PUSH1 0x8 ADD DUP2 SWAP1 SSTORE POP PUSH1 0x1 PUSH0 SLOAD SWAP1 DUP1 PUSH1 0x1 DUP2 SLOAD ADD DUP1 DUP3 SSTORE DUP1 SWAP2 POP POP PUSH1 0x1 SWAP1 SUB SWAP1 PUSH0 MSTORE PUSH1 0x20 PUSH0 KECCAK256 ADD PUSH0 SWAP1 SWAP2 SWAP1 SWAP2 SWAP1 SWAP2 POP SSTORE PUSH1 0x3 PUSH0 CALLER PUSH20 0xFFFFFFFFFFFFFFFFFFFFFFFFFFFFFFFFFFFFFFFF AND PUSH20 0xFFFFFFFFFFFFFFFFFFFFFFFFFFFFFFFFFFFFFFFF AND DUP2 MSTORE PUSH1 0x20 ADD SWAP1 DUP2 MSTORE PUSH1 0x20 ADD PUSH0 KECCAK256 DUP2 SWAP1 DUP1 PUSH1 0x1 DUP2 SLOAD ADD DUP1 DUP3 SSTORE DUP1 SWAP2 POP POP PUSH1 0x1 SWAP1 SUB SWAP1 PUSH0 MSTORE PUSH1 0x20 PUSH0 KECCAK256 SWAP1 PUSH1 0x9 MUL ADD PUSH0 SWAP1 SWAP2 SWAP1 SWAP2 SWAP1 SWAP2 POP PUSH0 DUP3 ADD PUSH0 SWAP1 SLOAD SWAP1 PUSH2 0x100 EXP SWAP1 DIV PUSH20 0xFFFFFFFFFFFFFFFFFFFFFFFFFFFFFFFFFFFFFFFF AND DUP2 PUSH0 ADD PUSH0 PUSH2 0x100 EXP DUP2 SLOAD DUP2 PUSH20 0xFFFFFFFFFFFFFFFFFFFFFFFFFFFFFFFFFFFFFFFF MUL NOT AND SWAP1 DUP4 PUSH20 0xFFFFFFFFFFFFFFFFFFFFFFFFFFFFFFFFFFFFFFFF AND MUL OR SWAP1 SSTORE POP PUSH1 0x1 DUP3 ADD DUP2 PUSH1 0x1 ADD SWAP1 DUP2 PUSH2 0x6AC SWAP2 SWAP1 PUSH2 0x189B JUMP JUMPDEST POP PUSH1 0x2 DUP3 ADD DUP2 PUSH1 0x2 ADD SWAP1 DUP1 SLOAD PUSH2 0x6C3 SWAP3 SWAP2 SWAP1 PUSH2 0xC10 JUMP JUMPDEST POP PUSH1 0x3 DUP3 ADD SLOAD DUP2 PUSH1 0x3 ADD SSTORE PUSH1 0x4 DUP3 ADD SLOAD DUP2 PUSH1 0x4 ADD SSTORE PUSH1 0x5 DUP3 ADD SLOAD DUP2 PUSH1 0x5 ADD SSTORE PUSH1 0x6 DUP3 ADD PUSH0 SWAP1 SLOAD SWAP1 PUSH2 0x100 EXP SWAP1 DIV PUSH1 0xFF AND DUP2 PUSH1 0x6 ADD PUSH0 PUSH2 0x100 EXP DUP2 SLOAD DUP2 PUSH1 0xFF MUL NOT AND SWAP1 DUP4 ISZERO ISZERO MUL OR SWAP1 SSTORE POP PUSH1 0x7 DUP3 ADD SLOAD DUP2 PUSH1 0x7 ADD SSTORE PUSH1 0x8 DUP3 ADD SLOAD DUP2 PUSH1 0x8 ADD SSTORE POP POP PUSH32 0x7CF84E937B660A86B8D03903ABF94C2E2976B2273DA8DFBEF2D89B7AC560463E PUSH0 SLOAD CALLER DUP9 PUSH1 0x40 MLOAD PUSH2 0x757 SWAP4 SWAP3 SWAP2 SWAP1 PUSH2 0x1980 JUMP JUMPDEST PUSH1 0x40 MLOAD DUP1 SWAP2 SUB SWAP1 LOG1 PUSH0 DUP1 DUP2 SLOAD DUP1 SWAP3 SWAP2 SWAP1 PUSH2 0x770 SWAP1 PUSH2 0x19BC JUMP JUMPDEST SWAP2 SWAP1 POP SSTORE POP POP POP POP POP POP POP JUMP JUMPDEST PUSH1 0x1 DUP2 DUP2 SLOAD DUP2 LT PUSH2 0x78C JUMPI PUSH0 DUP1 REVERT JUMPDEST SWAP1 PUSH0 MSTORE PUSH1 0x20 PUSH0 KECCAK256 ADD PUSH0 SWAP2 POP SWAP1 POP SLOAD DUP2 JUMP JUMPDEST PUSH1 0x60 PUSH1 0x2 PUSH0 DUP4 DUP2 MSTORE PUSH1 0x20 ADD SWAP1 DUP2 MSTORE PUSH1 0x20 ADD PUSH0 KECCAK256 PUSH1 0x2 ADD DUP1 SLOAD DUP1 PUSH1 0x20 MUL PUSH1 0x20 ADD PUSH1 0x40 MLOAD SWAP1 DUP2 ADD PUSH1 0x40 MSTORE DUP1 SWAP3 SWAP2 SWAP1 DUP2 DUP2 MSTORE PUSH1 0x20 ADD PUSH0 SWAP1 JUMPDEST DUP3 DUP3 LT ISZERO PUSH2 0x87A JUMPI DUP4 DUP3 SWAP1 PUSH0 MSTORE PUSH1 0x20 PUSH0 KECCAK256 ADD DUP1 SLOAD PUSH2 0x7EF SWAP1 PUSH2 0x1479 JUMP JUMPDEST DUP1 PUSH1 0x1F ADD PUSH1 0x20 DUP1 SWAP2 DIV MUL PUSH1 0x20 ADD PUSH1 0x40 MLOAD SWAP1 DUP2 ADD PUSH1 0x40 MSTORE DUP1 SWAP3 SWAP2 SWAP1 DUP2 DUP2 MSTORE PUSH1 0x20 ADD DUP3 DUP1 SLOAD PUSH2 0x81B SWAP1 PUSH2 0x1479 JUMP JUMPDEST DUP1 ISZERO PUSH2 0x866 JUMPI DUP1 PUSH1 0x1F LT PUSH2 0x83D JUMPI PUSH2 0x100 DUP1 DUP4 SLOAD DIV MUL DUP4 MSTORE SWAP2 PUSH1 0x20 ADD SWAP2 PUSH2 0x866 JUMP JUMPDEST DUP3 ADD SWAP2 SWAP1 PUSH0 MSTORE PUSH1 0x20 PUSH0 KECCAK256 SWAP1 JUMPDEST DUP2 SLOAD DUP2 MSTORE SWAP1 PUSH1 0x1 ADD SWAP1 PUSH1 0x20 ADD DUP1 DUP4 GT PUSH2 0x849 JUMPI DUP3 SWAP1 SUB PUSH1 0x1F AND DUP3 ADD SWAP2 JUMPDEST POP POP POP POP POP DUP2 MSTORE PUSH1 0x20 ADD SWAP1 PUSH1 0x1 ADD SWAP1 PUSH2 0x7D2 JUMP JUMPDEST POP POP POP POP SWAP1 POP SWAP2 SWAP1 POP JUMP JUMPDEST PUSH0 PUSH1 0x2 PUSH0 DUP4 DUP2 MSTORE PUSH1 0x20 ADD SWAP1 DUP2 MSTORE PUSH1 0x20 ADD PUSH0 KECCAK256 SWAP1 POP DUP1 PUSH0 ADD PUSH0 SWAP1 SLOAD SWAP1 PUSH2 0x100 EXP SWAP1 DIV PUSH20 0xFFFFFFFFFFFFFFFFFFFFFFFFFFFFFFFFFFFFFFFF AND PUSH20 0xFFFFFFFFFFFFFFFFFFFFFFFFFFFFFFFFFFFFFFFF AND CALLER PUSH20 0xFFFFFFFFFFFFFFFFFFFFFFFFFFFFFFFFFFFFFFFF AND EQ PUSH2 0x929 JUMPI PUSH1 0x40 MLOAD PUSH32 0x8C379A000000000000000000000000000000000000000000000000000000000 DUP2 MSTORE PUSH1 0x4 ADD PUSH2 0x920 SWAP1 PUSH2 0x1A4D JUMP JUMPDEST PUSH1 0x40 MLOAD DUP1 SWAP2 SUB SWAP1 REVERT JUMPDEST DUP1 PUSH1 0x6 ADD PUSH0 SWAP1 SLOAD SWAP1 PUSH2 0x100 EXP SWAP1 DIV PUSH1 0xFF AND PUSH2 0x979 JUMPI PUSH1 0x40 MLOAD PUSH32 0x8C379A000000000000000000000000000000000000000000000000000000000 DUP2 MSTORE PUSH1 0x4 ADD PUSH2 0x970 SWAP1 PUSH2 0x1AB5 JUMP JUMPDEST PUSH1 0x40 MLOAD DUP1 SWAP2 SUB SWAP1 REVERT JUMPDEST DUP1 PUSH1 0x5 ADD SLOAD TIMESTAMP LT ISZERO DUP1 PUSH2 0x994 JUMPI POP DUP1 PUSH1 0x4 ADD SLOAD DUP2 PUSH1 0x7 ADD SLOAD LT ISZERO JUMPDEST PUSH2 0x9D3 JUMPI PUSH1 0x40 MLOAD PUSH32 0x8C379A000000000000000000000000000000000000000000000000000000000 DUP2 MSTORE PUSH1 0x4 ADD PUSH2 0x9CA SWAP1 PUSH2 0x1B1D JUMP JUMPDEST PUSH1 0x40 MLOAD DUP1 SWAP2 SUB SWAP1 REVERT JUMPDEST PUSH0 DUP2 PUSH1 0x6 ADD PUSH0 PUSH2 0x100 EXP DUP2 SLOAD DUP2 PUSH1 0xFF MUL NOT AND SWAP1 DUP4 ISZERO ISZERO MUL OR SWAP1 SSTORE POP PUSH32 0x703C67C157A1AFB7D386CE5212EE88BF0A690BCA998060E9595EBDFD747100CE DUP3 PUSH1 0x40 MLOAD PUSH2 0xA1D SWAP2 SWAP1 PUSH2 0x1284 JUMP JUMPDEST PUSH1 0x40 MLOAD DUP1 SWAP2 SUB SWAP1 LOG1 POP POP JUMP JUMPDEST PUSH1 0x2 PUSH1 0x20 MSTORE DUP1 PUSH0 MSTORE PUSH1 0x40 PUSH0 KECCAK256 PUSH0 SWAP2 POP SWAP1 POP DUP1 PUSH0 ADD PUSH0 SWAP1 SLOAD SWAP1 PUSH2 0x100 EXP SWAP1 DIV PUSH20 0xFFFFFFFFFFFFFFFFFFFFFFFFFFFFFFFFFFFFFFFF AND SWAP1 DUP1 PUSH1 0x1 ADD DUP1 SLOAD PUSH2 0xA6D SWAP1 PUSH2 0x1479 JUMP JUMPDEST DUP1 PUSH1 0x1F ADD PUSH1 0x20 DUP1 SWAP2 DIV MUL PUSH1 0x20 ADD PUSH1 0x40 MLOAD SWAP1 DUP2 ADD PUSH1 0x40 MSTORE DUP1 SWAP3 SWAP2 SWAP1 DUP2 DUP2 MSTORE PUSH1 0x20 ADD DUP3 DUP1 SLOAD PUSH2 0xA99 SWAP1 PUSH2 0x1479 JUMP JUMPDEST DUP1 ISZERO PUSH2 0xAE4 JUMPI DUP1 PUSH1 0x1F LT PUSH2 0xABB JUMPI PUSH2 0x100 DUP1 DUP4 SLOAD DIV MUL DUP4 MSTORE SWAP2 PUSH1 0x20 ADD SWAP2 PUSH2 0xAE4 JUMP JUMPDEST DUP3 ADD SWAP2 SWAP1 PUSH0 MSTORE PUSH1 0x20 PUSH0 KECCAK256 SWAP1 JUMPDEST DUP2 SLOAD DUP2 MSTORE SWAP1 PUSH1 0x1 ADD SWAP1 PUSH1 0x20 ADD DUP1 DUP4 GT PUSH2 0xAC7 JUMPI DUP3 SWAP1 SUB PUSH1 0x1F AND DUP3 ADD SWAP2 JUMPDEST POP POP POP POP POP SWAP1 DUP1 PUSH1 0x3 ADD SLOAD SWAP1 DUP1 PUSH1 0x4 ADD SLOAD SWAP1 DUP1 PUSH1 0x5 ADD SLOAD SWAP1 DUP1 PUSH1 0x6 ADD PUSH0 SWAP1 SLOAD SWAP1 PUSH2 0x100 EXP SWAP1 DIV PUSH1 0xFF AND SWAP1 DUP1 PUSH1 0x7 ADD SLOAD SWAP1 DUP1 PUSH1 0x8 ADD SLOAD SWAP1 POP DUP9 JUMP JUMPDEST PUSH0 DUP1 PUSH0 DUP1 PUSH1 0x2 PUSH0 DUP7 DUP2 MSTORE PUSH1 0x20 ADD SWAP1 DUP2 MSTORE PUSH1 0x20 ADD PUSH0 KECCAK256 SWAP1 POP DUP1 PUSH1 0x6 ADD PUSH0 SWAP1 SLOAD SWAP1 PUSH2 0x100 EXP SWAP1 DIV PUSH1 0xFF AND DUP2 PUSH1 0x5 ADD SLOAD DUP3 PUSH1 0x7 ADD SLOAD SWAP4 POP SWAP4 POP SWAP4 POP POP SWAP2 SWAP4 SWAP1 SWAP3 POP JUMP JUMPDEST PUSH0 SLOAD DUP2 JUMP JUMPDEST PUSH1 0x60 PUSH1 0x1 DUP1 SLOAD DUP1 PUSH1 0x20 MUL PUSH1 0x20 ADD PUSH1 0x40 MLOAD SWAP1 DUP2 ADD PUSH1 0x40 MSTORE DUP1 SWAP3 SWAP2 SWAP1 DUP2 DUP2 MSTORE PUSH1 0x20 ADD DUP3 DUP1 SLOAD DUP1 ISZERO PUSH2 0xBAF JUMPI PUSH1 0x20 MUL DUP3 ADD SWAP2 SWAP1 PUSH0 MSTORE PUSH1 0x20 PUSH0 KECCAK256 SWAP1 JUMPDEST DUP2 SLOAD DUP2 MSTORE PUSH1 0x20 ADD SWAP1 PUSH1 0x1 ADD SWAP1 DUP1 DUP4 GT PUSH2 0xB9B JUMPI JUMPDEST POP POP POP POP POP SWAP1 POP SWAP1 JUMP JUMPDEST DUP3 DUP1 SLOAD DUP3 DUP3 SSTORE SWAP1 PUSH0 MSTORE PUSH1 0x20 PUSH0 KECCAK256 SWAP1 DUP2 ADD SWAP3 DUP3 ISZERO PUSH2 0xBFF JUMPI SWAP2 PUSH1 0x20 MUL DUP3 ADD JUMPDEST DUP3 DUP2 GT ISZERO PUSH2 0xBFE JUMPI DUP3 MLOAD DUP3 SWAP1 DUP2 PUSH2 0xBEE SWAP2 SWAP1 PUSH2 0x1716 JUMP JUMPDEST POP SWAP2 PUSH1 0x20 ADD SWAP2 SWAP1 PUSH1 0x1 ADD SWAP1 PUSH2 0xBD7 JUMP JUMPDEST JUMPDEST POP SWAP1 POP PUSH2 0xC0C SWAP2 SWAP1 PUSH2 0xC69 JUMP JUMPDEST POP SWAP1 JUMP JUMPDEST DUP3 DUP1 SLOAD DUP3 DUP3 SSTORE SWAP1 PUSH0 MSTORE PUSH1 0x20 PUSH0 KECCAK256 SWAP1 DUP2 ADD SWAP3 DUP3 ISZERO PUSH2 0xC58 JUMPI PUSH0 MSTORE PUSH1 0x20 PUSH0 KECCAK256 SWAP2 DUP3 ADD JUMPDEST DUP3 DUP2 GT ISZERO PUSH2 0xC57 JUMPI DUP3 DUP3 SWAP1 DUP2 PUSH2 0xC47 SWAP2 SWAP1 PUSH2 0x189B JUMP JUMPDEST POP SWAP2 PUSH1 0x1 ADD SWAP2 SWAP1 PUSH1 0x1 ADD SWAP1 PUSH2 0xC31 JUMP JUMPDEST JUMPDEST POP SWAP1 POP PUSH2 0xC65 SWAP2 SWAP1 PUSH2 0xC69 JUMP JUMPDEST POP SWAP1 JUMP JUMPDEST JUMPDEST DUP1 DUP3 GT ISZERO PUSH2 0xC88 JUMPI PUSH0 DUP2 DUP2 PUSH2 0xC7F SWAP2 SWAP1 PUSH2 0xC8C JUMP JUMPDEST POP PUSH1 0x1 ADD PUSH2 0xC6A JUMP JUMPDEST POP SWAP1 JUMP JUMPDEST POP DUP1 SLOAD PUSH2 0xC98 SWAP1 PUSH2 0x1479 JUMP JUMPDEST PUSH0 DUP3 SSTORE DUP1 PUSH1 0x1F LT PUSH2 0xCA9 JUMPI POP PUSH2 0xCC6 JUMP JUMPDEST PUSH1 0x1F ADD PUSH1 0x20 SWAP1 DIV SWAP1 PUSH0 MSTORE PUSH1 0x20 PUSH0 KECCAK256 SWAP1 DUP2 ADD SWAP1 PUSH2 0xCC5 SWAP2 SWAP1 PUSH2 0xCC9 JUMP JUMPDEST JUMPDEST POP JUMP JUMPDEST JUMPDEST DUP1 DUP3 GT ISZERO PUSH2 0xCE0 JUMPI PUSH0 DUP2 PUSH0 SWAP1 SSTORE POP PUSH1 0x1 ADD PUSH2 0xCCA JUMP JUMPDEST POP SWAP1 JUMP JUMPDEST PUSH0 PUSH1 0x40 MLOAD SWAP1 POP SWAP1 JUMP JUMPDEST PUSH0 DUP1 REVERT JUMPDEST PUSH0 DUP1 REVERT JUMPDEST PUSH0 DUP2 SWAP1 POP SWAP2 SWAP1 POP JUMP JUMPDEST PUSH2 0xD07 DUP2 PUSH2 0xCF5 JUMP JUMPDEST DUP2 EQ PUSH2 0xD11 JUMPI PUSH0 DUP1 REVERT JUMPDEST POP JUMP JUMPDEST PUSH0 DUP2 CALLDATALOAD SWAP1 POP PUSH2 0xD22 DUP2 PUSH2 0xCFE JUMP JUMPDEST SWAP3 SWAP2 POP POP JUMP JUMPDEST PUSH0 PUSH1 0x20 DUP3 DUP5 SUB SLT ISZERO PUSH2 0xD3D JUMPI PUSH2 0xD3C PUSH2 0xCED JUMP JUMPDEST JUMPDEST PUSH0 PUSH2 0xD4A DUP5 DUP3 DUP6 ADD PUSH2 0xD14 JUMP JUMPDEST SWAP2 POP POP SWAP3 SWAP2 POP POP JUMP JUMPDEST PUSH0 PUSH20 0xFFFFFFFFFFFFFFFFFFFFFFFFFFFFFFFFFFFFFFFF DUP3 AND SWAP1 POP SWAP2 SWAP1 POP JUMP JUMPDEST PUSH0 PUSH2 0xD7C DUP3 PUSH2 0xD53 JUMP JUMPDEST SWAP1 POP SWAP2 SWAP1 POP JUMP JUMPDEST PUSH2 0xD8C DUP2 PUSH2 0xD72 JUMP JUMPDEST DUP3 MSTORE POP POP JUMP JUMPDEST PUSH0 DUP2 MLOAD SWAP1 POP SWAP2 SWAP1 POP JUMP JUMPDEST PUSH0 DUP3 DUP3 MSTORE PUSH1 0x20 DUP3 ADD SWAP1 POP SWAP3 SWAP2 POP POP JUMP JUMPDEST DUP3 DUP2 DUP4 MCOPY PUSH0 DUP4 DUP4 ADD MSTORE POP POP POP JUMP JUMPDEST PUSH0 PUSH1 0x1F NOT PUSH1 0x1F DUP4 ADD AND SWAP1 POP SWAP2 SWAP1 POP JUMP JUMPDEST PUSH0 PUSH2 0xDD4 DUP3 PUSH2 0xD92 JUMP JUMPDEST PUSH2 0xDDE DUP2 DUP6 PUSH2 0xD9C JUMP JUMPDEST SWAP4 POP PUSH2 0xDEE DUP2 DUP6 PUSH1 0x20 DUP7 ADD PUSH2 0xDAC JUMP JUMPDEST PUSH2 0xDF7 DUP2 PUSH2 0xDBA JUMP JUMPDEST DUP5 ADD SWAP2 POP POP SWAP3 SWAP2 POP POP JUMP JUMPDEST PUSH0 DUP2 MLOAD SWAP1 POP SWAP2 SWAP1 POP JUMP JUMPDEST PUSH0 DUP3 DUP3 MSTORE PUSH1 0x20 DUP3 ADD SWAP1 POP SWAP3 SWAP2 POP POP JUMP JUMPDEST PUSH0 DUP2 SWAP1 POP PUSH1 0x20 DUP3 ADD SWAP1 POP SWAP2 SWAP1 POP JUMP JUMPDEST PUSH0 DUP3 DUP3 MSTORE PUSH1 0x20 DUP3 ADD SWAP1 POP SWAP3 SWAP2 POP POP JUMP JUMPDEST PUSH0 PUSH2 0xE45 DUP3 PUSH2 0xD92 JUMP JUMPDEST PUSH2 0xE4F DUP2 DUP6 PUSH2 0xE2B JUMP JUMPDEST SWAP4 POP PUSH2 0xE5F DUP2 DUP6 PUSH1 0x20 DUP7 ADD PUSH2 0xDAC JUMP JUMPDEST PUSH2 0xE68 DUP2 PUSH2 0xDBA JUMP JUMPDEST DUP5 ADD SWAP2 POP POP SWAP3 SWAP2 POP POP JUMP JUMPDEST PUSH0 PUSH2 0xE7E DUP4 DUP4 PUSH2 0xE3B JUMP JUMPDEST SWAP1 POP SWAP3 SWAP2 POP POP JUMP JUMPDEST PUSH0 PUSH1 0x20 DUP3 ADD SWAP1 POP SWAP2 SWAP1 POP JUMP JUMPDEST PUSH0 PUSH2 0xE9C DUP3 PUSH2 0xE02 JUMP JUMPDEST PUSH2 0xEA6 DUP2 DUP6 PUSH2 0xE0C JUMP JUMPDEST SWAP4 POP DUP4 PUSH1 0x20 DUP3 MUL DUP6 ADD PUSH2 0xEB8 DUP6 PUSH2 0xE1C JUMP JUMPDEST DUP1 PUSH0 JUMPDEST DUP6 DUP2 LT ISZERO PUSH2 0xEF3 JUMPI DUP5 DUP5 SUB DUP10 MSTORE DUP2 MLOAD PUSH2 0xED4 DUP6 DUP3 PUSH2 0xE73 JUMP JUMPDEST SWAP5 POP PUSH2 0xEDF DUP4 PUSH2 0xE86 JUMP JUMPDEST SWAP3 POP PUSH1 0x20 DUP11 ADD SWAP10 POP POP PUSH1 0x1 DUP2 ADD SWAP1 POP PUSH2 0xEBB JUMP JUMPDEST POP DUP3 SWAP8 POP DUP8 SWAP6 POP POP POP POP POP POP SWAP3 SWAP2 POP POP JUMP JUMPDEST PUSH2 0xF0E DUP2 PUSH2 0xCF5 JUMP JUMPDEST DUP3 MSTORE POP POP JUMP JUMPDEST PUSH0 DUP2 ISZERO ISZERO SWAP1 POP SWAP2 SWAP1 POP JUMP JUMPDEST PUSH2 0xF28 DUP2 PUSH2 0xF14 JUMP JUMPDEST DUP3 MSTORE POP POP JUMP JUMPDEST PUSH0 PUSH2 0x120 DUP3 ADD SWAP1 POP PUSH2 0xF42 PUSH0 DUP4 ADD DUP13 PUSH2 0xD83 JUMP JUMPDEST DUP2 DUP2 SUB PUSH1 0x20 DUP4 ADD MSTORE PUSH2 0xF54 DUP2 DUP12 PUSH2 0xDCA JUMP JUMPDEST SWAP1 POP DUP2 DUP2 SUB PUSH1 0x40 DUP4 ADD MSTORE PUSH2 0xF68 DUP2 DUP11 PUSH2 0xE92 JUMP JUMPDEST SWAP1 POP PUSH2 0xF77 PUSH1 0x60 DUP4 ADD DUP10 PUSH2 0xF05 JUMP JUMPDEST PUSH2 0xF84 PUSH1 0x80 DUP4 ADD DUP9 PUSH2 0xF05 JUMP JUMPDEST PUSH2 0xF91 PUSH1 0xA0 DUP4 ADD DUP8 PUSH2 0xF05 JUMP JUMPDEST PUSH2 0xF9E PUSH1 0xC0 DUP4 ADD DUP7 PUSH2 0xF1F JUMP JUMPDEST PUSH2 0xFAB PUSH1 0xE0 DUP4 ADD DUP6 PUSH2 0xF05 JUMP JUMPDEST PUSH2 0xFB9 PUSH2 0x100 DUP4 ADD DUP5 PUSH2 0xF05 JUMP JUMPDEST SWAP11 SWAP10 POP POP POP POP POP POP POP POP POP POP JUMP JUMPDEST PUSH0 DUP1 REVERT JUMPDEST PUSH0 DUP1 REVERT JUMPDEST PUSH32 0x4E487B7100000000000000000000000000000000000000000000000000000000 PUSH0 MSTORE PUSH1 0x41 PUSH1 0x4 MSTORE PUSH1 0x24 PUSH0 REVERT JUMPDEST PUSH2 0x1005 DUP3 PUSH2 0xDBA JUMP JUMPDEST DUP2 ADD DUP2 DUP2 LT PUSH8 0xFFFFFFFFFFFFFFFF DUP3 GT OR ISZERO PUSH2 0x1024 JUMPI PUSH2 0x1023 PUSH2 0xFCF JUMP JUMPDEST JUMPDEST DUP1 PUSH1 0x40 MSTORE POP POP POP JUMP JUMPDEST PUSH0 PUSH2 0x1036 PUSH2 0xCE4 JUMP JUMPDEST SWAP1 POP PUSH2 0x1042 DUP3 DUP3 PUSH2 0xFFC JUMP JUMPDEST SWAP2 SWAP1 POP JUMP JUMPDEST PUSH0 PUSH8 0xFFFFFFFFFFFFFFFF DUP3 GT ISZERO PUSH2 0x1061 JUMPI PUSH2 0x1060 PUSH2 0xFCF JUMP JUMPDEST JUMPDEST PUSH2 0x106A DUP3 PUSH2 0xDBA JUMP JUMPDEST SWAP1 POP PUSH1 0x20 DUP2 ADD SWAP1 POP SWAP2 SWAP1 POP JUMP JUMPDEST DUP3 DUP2 DUP4 CALLDATACOPY PUSH0 DUP4 DUP4 ADD MSTORE POP POP POP JUMP JUMPDEST PUSH0 PUSH2 0x1097 PUSH2 0x1092 DUP5 PUSH2 0x1047 JUMP JUMPDEST PUSH2 0x102D JUMP JUMPDEST SWAP1 POP DUP3 DUP2 MSTORE PUSH1 0x20 DUP2 ADD DUP5 DUP5 DUP5 ADD GT ISZERO PUSH2 0x10B3 JUMPI PUSH2 0x10B2 PUSH2 0xFCB JUMP JUMPDEST JUMPDEST PUSH2 0x10BE DUP5 DUP3 DUP6 PUSH2 0x1077 JUMP JUMPDEST POP SWAP4 SWAP3 POP POP POP JUMP JUMPDEST PUSH0 DUP3 PUSH1 0x1F DUP4 ADD SLT PUSH2 0x10DA JUMPI PUSH2 0x10D9 PUSH2 0xFC7 JUMP JUMPDEST JUMPDEST DUP2 CALLDATALOAD PUSH2 0x10EA DUP5 DUP3 PUSH1 0x20 DUP7 ADD PUSH2 0x1085 JUMP JUMPDEST SWAP2 POP POP SWAP3 SWAP2 POP POP JUMP JUMPDEST PUSH0 PUSH8 0xFFFFFFFFFFFFFFFF DUP3 GT ISZERO PUSH2 0x110D JUMPI PUSH2 0x110C PUSH2 0xFCF JUMP JUMPDEST JUMPDEST PUSH1 0x20 DUP3 MUL SWAP1 POP PUSH1 0x20 DUP2 ADD SWAP1 POP SWAP2 SWAP1 POP JUMP JUMPDEST PUSH0 DUP1 REVERT JUMPDEST PUSH0 PUSH2 0x1134 PUSH2 0x112F DUP5 PUSH2 0x10F3 JUMP JUMPDEST PUSH2 0x102D JUMP JUMPDEST SWAP1 POP DUP1 DUP4 DUP3 MSTORE PUSH1 0x20 DUP3 ADD SWAP1 POP PUSH1 0x20 DUP5 MUL DUP4 ADD DUP6 DUP2 GT ISZERO PUSH2 0x1157 JUMPI PUSH2 0x1156 PUSH2 0x111E JUMP JUMPDEST JUMPDEST DUP4 JUMPDEST DUP2 DUP2 LT ISZERO PUSH2 0x119E JUMPI DUP1 CALLDATALOAD PUSH8 0xFFFFFFFFFFFFFFFF DUP2 GT ISZERO PUSH2 0x117C JUMPI PUSH2 0x117B PUSH2 0xFC7 JUMP JUMPDEST JUMPDEST DUP1 DUP7 ADD PUSH2 0x1189 DUP10 DUP3 PUSH2 0x10C6 JUMP JUMPDEST DUP6 MSTORE PUSH1 0x20 DUP6 ADD SWAP5 POP POP POP PUSH1 0x20 DUP2 ADD SWAP1 POP PUSH2 0x1159 JUMP JUMPDEST POP POP POP SWAP4 SWAP3 POP POP POP JUMP JUMPDEST PUSH0 DUP3 PUSH1 0x1F DUP4 ADD SLT PUSH2 0x11BC JUMPI PUSH2 0x11BB PUSH2 0xFC7 JUMP JUMPDEST JUMPDEST DUP2 CALLDATALOAD PUSH2 0x11CC DUP5 DUP3 PUSH1 0x20 DUP7 ADD PUSH2 0x1122 JUMP JUMPDEST SWAP2 POP POP SWAP3 SWAP2 POP POP JUMP JUMPDEST PUSH0 DUP1 PUSH0 DUP1 PUSH0 PUSH1 0xA0 DUP7 DUP9 SUB SLT ISZERO PUSH2 0x11EE JUMPI PUSH2 0x11ED PUSH2 0xCED JUMP JUMPDEST JUMPDEST PUSH0 DUP7 ADD CALLDATALOAD PUSH8 0xFFFFFFFFFFFFFFFF DUP2 GT ISZERO PUSH2 0x120B JUMPI PUSH2 0x120A PUSH2 0xCF1 JUMP JUMPDEST JUMPDEST PUSH2 0x1217 DUP9 DUP3 DUP10 ADD PUSH2 0x10C6 JUMP JUMPDEST SWAP6 POP POP PUSH1 0x20 DUP7 ADD CALLDATALOAD PUSH8 0xFFFFFFFFFFFFFFFF DUP2 GT ISZERO PUSH2 0x1238 JUMPI PUSH2 0x1237 PUSH2 0xCF1 JUMP JUMPDEST JUMPDEST PUSH2 0x1244 DUP9 DUP3 DUP10 ADD PUSH2 0x11A8 JUMP JUMPDEST SWAP5 POP POP PUSH1 0x40 PUSH2 0x1255 DUP9 DUP3 DUP10 ADD PUSH2 0xD14 JUMP JUMPDEST SWAP4 POP POP PUSH1 0x60 PUSH2 0x1266 DUP9 DUP3 DUP10 ADD PUSH2 0xD14 JUMP JUMPDEST SWAP3 POP POP PUSH1 0x80 PUSH2 0x1277 DUP9 DUP3 DUP10 ADD PUSH2 0xD14 JUMP JUMPDEST SWAP2 POP POP SWAP3 SWAP6 POP SWAP3 SWAP6 SWAP1 SWAP4 POP JUMP JUMPDEST PUSH0 PUSH1 0x20 DUP3 ADD SWAP1 POP PUSH2 0x1297 PUSH0 DUP4 ADD DUP5 PUSH2 0xF05 JUMP JUMPDEST SWAP3 SWAP2 POP POP JUMP JUMPDEST PUSH0 PUSH1 0x20 DUP3 ADD SWAP1 POP DUP2 DUP2 SUB PUSH0 DUP4 ADD MSTORE PUSH2 0x12B5 DUP2 DUP5 PUSH2 0xE92 JUMP JUMPDEST SWAP1 POP SWAP3 SWAP2 POP POP JUMP JUMPDEST PUSH0 PUSH2 0x100 DUP3 ADD SWAP1 POP PUSH2 0x12D1 PUSH0 DUP4 ADD DUP12 PUSH2 0xD83 JUMP JUMPDEST DUP2 DUP2 SUB PUSH1 0x20 DUP4 ADD MSTORE PUSH2 0x12E3 DUP2 DUP11 PUSH2 0xDCA JUMP JUMPDEST SWAP1 POP PUSH2 0x12F2 PUSH1 0x40 DUP4 ADD DUP10 PUSH2 0xF05 JUMP JUMPDEST PUSH2 0x12FF PUSH1 0x60 DUP4 ADD DUP9 PUSH2 0xF05 JUMP JUMPDEST PUSH2 0x130C PUSH1 0x80 DUP4 ADD DUP8 PUSH2 0xF05 JUMP JUMPDEST PUSH2 0x1319 PUSH1 0xA0 DUP4 ADD DUP7 PUSH2 0xF1F JUMP JUMPDEST PUSH2 0x1326 PUSH1 0xC0 DUP4 ADD DUP6 PUSH2 0xF05 JUMP JUMPDEST PUSH2 0x1333 PUSH1 0xE0 DUP4 ADD DUP5 PUSH2 0xF05 JUMP JUMPDEST SWAP10 SWAP9 POP POP POP POP POP POP POP POP POP JUMP JUMPDEST PUSH0 PUSH1 0x60 DUP3 ADD SWAP1 POP PUSH2 0x1353 PUSH0 DUP4 ADD DUP7 PUSH2 0xF1F JUMP JUMPDEST PUSH2 0x1360 PUSH1 0x20 DUP4 ADD DUP6 PUSH2 0xF05 JUMP JUMPDEST PUSH2 0x136D PUSH1 0x40 DUP4 ADD DUP5 PUSH2 0xF05 JUMP JUMPDEST SWAP5 SWAP4 POP POP POP POP JUMP JUMPDEST PUSH0 DUP2 MLOAD SWAP1 POP SWAP2 SWAP1 POP JUMP JUMPDEST PUSH0 DUP3 DUP3 MSTORE PUSH1 0x20 DUP3 ADD SWAP1 POP SWAP3 SWAP2 POP POP JUMP JUMPDEST PUSH0 DUP2 SWAP1 POP PUSH1 0x20 DUP3 ADD SWAP1 POP SWAP2 SWAP1 POP JUMP JUMPDEST PUSH2 0x13A7 DUP2 PUSH2 0xCF5 JUMP JUMPDEST DUP3 MSTORE POP POP JUMP JUMPDEST PUSH0 PUSH2 0x13B8 DUP4 DUP4 PUSH2 0x139E JUMP JUMPDEST PUSH1 0x20 DUP4 ADD SWAP1 POP SWAP3 SWAP2 POP POP JUMP JUMPDEST PUSH0 PUSH1 0x20 DUP3 ADD SWAP1 POP SWAP2 SWAP1 POP JUMP JUMPDEST PUSH0 PUSH2 0x13DA DUP3 PUSH2 0x1375 JUMP JUMPDEST PUSH2 0x13E4 DUP2 DUP6 PUSH2 0x137F JUMP JUMPDEST SWAP4 POP PUSH2 0x13EF DUP4 PUSH2 0x138F JUMP JUMPDEST DUP1 PUSH0 JUMPDEST DUP4 DUP2 LT ISZERO PUSH2 0x141F JUMPI DUP2 MLOAD PUSH2 0x1406 DUP9 DUP3 PUSH2 0x13AD JUMP JUMPDEST SWAP8 POP PUSH2 0x1411 DUP4 PUSH2 0x13C4 JUMP JUMPDEST SWAP3 POP POP PUSH1 0x1 DUP2 ADD SWAP1 POP PUSH2 0x13F2 JUMP JUMPDEST POP DUP6 SWAP4 POP POP POP POP SWAP3 SWAP2 POP POP JUMP JUMPDEST PUSH0 PUSH1 0x20 DUP3 ADD SWAP1 POP DUP2 DUP2 SUB PUSH0 DUP4 ADD MSTORE PUSH2 0x1444 DUP2 DUP5 PUSH2 0x13D0 JUMP JUMPDEST SWAP1 POP SWAP3 SWAP2 POP POP JUMP JUMPDEST PUSH32 0x4E487B7100000000000000000000000000000000000000000000000000000000 PUSH0 MSTORE PUSH1 0x22 PUSH1 0x4 MSTORE PUSH1 0x24 PUSH0 REVERT JUMPDEST PUSH0 PUSH1 0x2 DUP3 DIV SWAP1 POP PUSH1 0x1 DUP3 AND DUP1 PUSH2 0x1490 JUMPI PUSH1 0x7F DUP3 AND SWAP2 POP JUMPDEST PUSH1 0x20 DUP3 LT DUP2 SUB PUSH2 0x14A3 JUMPI PUSH2 0x14A2 PUSH2 0x144C JUMP JUMPDEST JUMPDEST POP SWAP2 SWAP1 POP JUMP JUMPDEST PUSH32 0x4E656564206174206C656173742032206F7074696F6E73000000000000000000 PUSH0 DUP3 ADD MSTORE POP JUMP JUMPDEST PUSH0 PUSH2 0x14DD PUSH1 0x17 DUP4 PUSH2 0xD9C JUMP JUMPDEST SWAP2 POP PUSH2 0x14E8 DUP3 PUSH2 0x14A9 JUMP JUMPDEST PUSH1 0x20 DUP3 ADD SWAP1 POP SWAP2 SWAP1 POP JUMP JUMPDEST PUSH0 PUSH1 0x20 DUP3 ADD SWAP1 POP DUP2 DUP2 SUB PUSH0 DUP4 ADD MSTORE PUSH2 0x150A DUP2 PUSH2 0x14D1 JUMP JUMPDEST SWAP1 POP SWAP2 SWAP1 POP JUMP JUMPDEST PUSH32 0x496E76616C6964206475726174696F6E00000000000000000000000000000000 PUSH0 DUP3 ADD MSTORE POP JUMP JUMPDEST PUSH0 PUSH2 0x1545 PUSH1 0x10 DUP4 PUSH2 0xD9C JUMP JUMPDEST SWAP2 POP PUSH2 0x1550 DUP3 PUSH2 0x1511 JUMP JUMPDEST PUSH1 0x20 DUP3 ADD SWAP1 POP SWAP2 SWAP1 POP JUMP JUMPDEST PUSH0 PUSH1 0x20 DUP3 ADD SWAP1 POP DUP2 DUP2 SUB PUSH0 DUP4 ADD MSTORE PUSH2 0x1572 DUP2 PUSH2 0x1539 JUMP JUMPDEST SWAP1 POP SWAP2 SWAP1 POP JUMP JUMPDEST PUSH0 DUP2 SWAP1 POP DUP2 PUSH0 MSTORE PUSH1 0x20 PUSH0 KECCAK256 SWAP1 POP SWAP2 SWAP1 POP JUMP JUMPDEST PUSH0 PUSH1 0x20 PUSH1 0x1F DUP4 ADD DIV SWAP1 POP SWAP2 SWAP1 POP JUMP JUMPDEST PUSH0 DUP3 DUP3 SHL SWAP1 POP SWAP3 SWAP2 POP POP JUMP JUMPDEST PUSH0 PUSH1 0x8 DUP4 MUL PUSH2 0x15D5 PUSH32 0xFFFFFFFFFFFFFFFFFFFFFFFFFFFFFFFFFFFFFFFFFFFFFFFFFFFFFFFFFFFFFFFF DUP3 PUSH2 0x159A JUMP JUMPDEST PUSH2 0x15DF DUP7 DUP4 PUSH2 0x159A JUMP JUMPDEST SWAP6 POP DUP1 NOT DUP5 AND SWAP4 POP DUP1 DUP7 AND DUP5 OR SWAP3 POP POP POP SWAP4 SWAP3 POP POP POP JUMP JUMPDEST PUSH0 DUP2 SWAP1 POP SWAP2 SWAP1 POP JUMP JUMPDEST PUSH0 PUSH2 0x161A PUSH2 0x1615 PUSH2 0x1610 DUP5 PUSH2 0xCF5 JUMP JUMPDEST PUSH2 0x15F7 JUMP JUMPDEST PUSH2 0xCF5 JUMP JUMPDEST SWAP1 POP SWAP2 SWAP1 POP JUMP JUMPDEST PUSH0 DUP2 SWAP1 POP SWAP2 SWAP1 POP JUMP JUMPDEST PUSH2 0x1633 DUP4 PUSH2 0x1600 JUMP JUMPDEST PUSH2 0x1647 PUSH2 0x163F DUP3 PUSH2 0x1621 JUMP JUMPDEST DUP5 DUP5 SLOAD PUSH2 0x15A6 JUMP JUMPDEST DUP3 SSTORE POP POP POP POP JUMP JUMPDEST PUSH0 SWAP1 JUMP JUMPDEST PUSH2 0x165B PUSH2 0x164F JUMP JUMPDEST PUSH2 0x1666 DUP2 DUP5 DUP5 PUSH2 0x162A JUMP JUMPDEST POP POP POP JUMP JUMPDEST JUMPDEST DUP2 DUP2 LT ISZERO PUSH2 0x1689 JUMPI PUSH2 0x167E PUSH0 DUP3 PUSH2 0x1653 JUMP JUMPDEST PUSH1 0x1 DUP2 ADD SWAP1 POP PUSH2 0x166C JUMP JUMPDEST POP POP JUMP JUMPDEST PUSH1 0x1F DUP3 GT ISZERO PUSH2 0x16CE JUMPI PUSH2 0x169F DUP2 PUSH2 0x1579 JUMP JUMPDEST PUSH2 0x16A8 DUP5 PUSH2 0x158B JUMP JUMPDEST DUP2 ADD PUSH1 0x20 DUP6 LT ISZERO PUSH2 0x16B7 JUMPI DUP2 SWAP1 POP JUMPDEST PUSH2 0x16CB PUSH2 0x16C3 DUP6 PUSH2 0x158B JUMP JUMPDEST DUP4 ADD DUP3 PUSH2 0x166B JUMP JUMPDEST POP POP JUMPDEST POP POP POP JUMP JUMPDEST PUSH0 DUP3 DUP3 SHR SWAP1 POP SWAP3 SWAP2 POP POP JUMP JUMPDEST PUSH0 PUSH2 0x16EE PUSH0 NOT DUP5 PUSH1 0x8 MUL PUSH2 0x16D3 JUMP JUMPDEST NOT DUP1 DUP4 AND SWAP2 POP POP SWAP3 SWAP2 POP POP JUMP JUMPDEST PUSH0 PUSH2 0x1706 DUP4 DUP4 PUSH2 0x16DF JUMP JUMPDEST SWAP2 POP DUP3 PUSH1 0x2 MUL DUP3 OR SWAP1 POP SWAP3 SWAP2 POP POP JUMP JUMPDEST PUSH2 0x171F DUP3 PUSH2 0xD92 JUMP JUMPDEST PUSH8 0xFFFFFFFFFFFFFFFF DUP2 GT ISZERO PUSH2 0x1738 JUMPI PUSH2 0x1737 PUSH2 0xFCF JUMP JUMPDEST JUMPDEST PUSH2 0x1742 DUP3 SLOAD PUSH2 0x1479 JUMP JUMPDEST PUSH2 0x174D DUP3 DUP3 DUP6 PUSH2 0x168D JUMP JUMPDEST PUSH0 PUSH1 0x20 SWAP1 POP PUSH1 0x1F DUP4 GT PUSH1 0x1 DUP2 EQ PUSH2 0x177E JUMPI PUSH0 DUP5 ISZERO PUSH2 0x176C JUMPI DUP3 DUP8 ADD MLOAD SWAP1 POP JUMPDEST PUSH2 0x1776 DUP6 DUP3 PUSH2 0x16FB JUMP JUMPDEST DUP7 SSTORE POP PUSH2 0x17DD JUMP JUMPDEST PUSH1 0x1F NOT DUP5 AND PUSH2 0x178C DUP7 PUSH2 0x1579 JUMP JUMPDEST PUSH0 JUMPDEST DUP3 DUP2 LT ISZERO PUSH2 0x17B3 JUMPI DUP5 DUP10 ADD MLOAD DUP3 SSTORE PUSH1 0x1 DUP3 ADD SWAP2 POP PUSH1 0x20 DUP6 ADD SWAP5 POP PUSH1 0x20 DUP2 ADD SWAP1 POP PUSH2 0x178E JUMP JUMPDEST DUP7 DUP4 LT ISZERO PUSH2 0x17D0 JUMPI DUP5 DUP10 ADD MLOAD PUSH2 0x17CC PUSH1 0x1F DUP10 AND DUP3 PUSH2 0x16DF JUMP JUMPDEST DUP4 SSTORE POP JUMPDEST PUSH1 0x1 PUSH1 0x2 DUP9 MUL ADD DUP9 SSTORE POP POP POP JUMPDEST POP POP POP POP POP POP JUMP JUMPDEST PUSH32 0x4E487B7100000000000000000000000000000000000000000000000000000000 PUSH0 MSTORE PUSH1 0x11 PUSH1 0x4 MSTORE PUSH1 0x24 PUSH0 REVERT JUMPDEST PUSH0 PUSH2 0x181C DUP3 PUSH2 0xCF5 JUMP JUMPDEST SWAP2 POP PUSH2 0x1827 DUP4 PUSH2 0xCF5 JUMP JUMPDEST SWAP3 POP DUP3 DUP3 MUL PUSH2 0x1835 DUP2 PUSH2 0xCF5 JUMP JUMPDEST SWAP2 POP DUP3 DUP3 DIV DUP5 EQ DUP4 ISZERO OR PUSH2 0x184C JUMPI PUSH2 0x184B PUSH2 0x17E5 JUMP JUMPDEST JUMPDEST POP SWAP3 SWAP2 POP POP JUMP JUMPDEST PUSH0 PUSH2 0x185D DUP3 PUSH2 0xCF5 JUMP JUMPDEST SWAP2 POP PUSH2 0x1868 DUP4 PUSH2 0xCF5 JUMP JUMPDEST SWAP3 POP DUP3 DUP3 ADD SWAP1 POP DUP1 DUP3 GT ISZERO PUSH2 0x1880 JUMPI PUSH2 0x187F PUSH2 0x17E5 JUMP JUMPDEST JUMPDEST SWAP3 SWAP2 POP POP JUMP JUMPDEST PUSH0 DUP2 SLOAD SWAP1 POP PUSH2 0x1894 DUP2 PUSH2 0x1479 JUMP JUMPDEST SWAP1 POP SWAP2 SWAP1 POP JUMP JUMPDEST DUP2 DUP2 SUB PUSH2 0x18A9 JUMPI POP POP PUSH2 0x197E JUMP JUMPDEST PUSH2 0x18B2 DUP3 PUSH2 0x1886 JUMP JUMPDEST PUSH8 0xFFFFFFFFFFFFFFFF DUP2 GT ISZERO PUSH2 0x18CB JUMPI PUSH2 0x18CA PUSH2 0xFCF JUMP JUMPDEST JUMPDEST PUSH2 0x18D5 DUP3 SLOAD PUSH2 0x1479 JUMP JUMPDEST PUSH2 0x18E0 DUP3 DUP3 DUP6 PUSH2 0x168D JUMP JUMPDEST PUSH0 PUSH1 0x1F DUP4 GT PUSH1 0x1 DUP2 EQ PUSH2 0x190D JUMPI PUSH0 DUP5 ISZERO PUSH2 0x18FB JUMPI DUP3 DUP8 ADD SLOAD SWAP1 POP JUMPDEST PUSH2 0x1905 DUP6 DUP3 PUSH2 0x16FB JUMP JUMPDEST DUP7 SSTORE POP PUSH2 0x1977 JUMP JUMPDEST PUSH1 0x1F NOT DUP5 AND PUSH2 0x191B DUP8 PUSH2 0x1579 JUMP JUMPDEST SWAP7 POP PUSH2 0x1926 DUP7 PUSH2 0x1579 JUMP JUMPDEST PUSH0 JUMPDEST DUP3 DUP2 LT ISZERO PUSH2 0x194D JUMPI DUP5 DUP10 ADD SLOAD DUP3 SSTORE PUSH1 0x1 DUP3 ADD SWAP2 POP PUSH1 0x1 DUP6 ADD SWAP5 POP PUSH1 0x20 DUP2 ADD SWAP1 POP PUSH2 0x1928 JUMP JUMPDEST DUP7 DUP4 LT ISZERO PUSH2 0x196A JUMPI DUP5 DUP10 ADD SLOAD PUSH2 0x1966 PUSH1 0x1F DUP10 AND DUP3 PUSH2 0x16DF JUMP JUMPDEST DUP4 SSTORE POP JUMPDEST PUSH1 0x1 PUSH1 0x2 DUP9 MUL ADD DUP9 SSTORE POP POP POP JUMPDEST POP POP POP POP POP POP JUMPDEST JUMP JUMPDEST PUSH0 PUSH1 0x60 DUP3 ADD SWAP1 POP PUSH2 0x1993 PUSH0 DUP4 ADD DUP7 PUSH2 0xF05 JUMP JUMPDEST PUSH2 0x19A0 PUSH1 0x20 DUP4 ADD DUP6 PUSH2 0xD83 JUMP JUMPDEST DUP2 DUP2 SUB PUSH1 0x40 DUP4 ADD MSTORE PUSH2 0x19B2 DUP2 DUP5 PUSH2 0xDCA JUMP JUMPDEST SWAP1 POP SWAP5 SWAP4 POP POP POP POP JUMP JUMPDEST PUSH0 PUSH2 0x19C6 DUP3 PUSH2 0xCF5 JUMP JUMPDEST SWAP2 POP PUSH32 0xFFFFFFFFFFFFFFFFFFFFFFFFFFFFFFFFFFFFFFFFFFFFFFFFFFFFFFFFFFFFFFFF DUP3 SUB PUSH2 0x19F8 JUMPI PUSH2 0x19F7 PUSH2 0x17E5 JUMP JUMPDEST JUMPDEST PUSH1 0x1 DUP3 ADD SWAP1 POP SWAP2 SWAP1 POP JUMP JUMPDEST PUSH32 0x4E6F742063726561746F72000000000000000000000000000000000000000000 PUSH0 DUP3 ADD MSTORE POP JUMP JUMPDEST PUSH0 PUSH2 0x1A37 PUSH1 0xB DUP4 PUSH2 0xD9C JUMP JUMPDEST SWAP2 POP PUSH2 0x1A42 DUP3 PUSH2 0x1A03 JUMP JUMPDEST PUSH1 0x20 DUP3 ADD SWAP1 POP SWAP2 SWAP1 POP JUMP JUMPDEST PUSH0 PUSH1 0x20 DUP3 ADD SWAP1 POP DUP2 DUP2 SUB PUSH0 DUP4 ADD MSTORE PUSH2 0x1A64 DUP2 PUSH2 0x1A2B JUMP JUMPDEST SWAP1 POP SWAP2 SWAP1 POP JUMP JUMPDEST PUSH32 0x416C726561647920636C6F736564000000000000000000000000000000000000 PUSH0 DUP3 ADD MSTORE POP JUMP JUMPDEST PUSH0 PUSH2 0x1A9F PUSH1 0xE DUP4 PUSH2 0xD9C JUMP JUMPDEST SWAP2 POP PUSH2 0x1AAA DUP3 PUSH2 0x1A6B JUMP JUMPDEST PUSH1 0x20 DUP3 ADD SWAP1 POP SWAP2 SWAP1 POP JUMP JUMPDEST PUSH0 PUSH1 0x20 DUP3 ADD SWAP1 POP DUP2 DUP2 SUB PUSH0 DUP4 ADD MSTORE PUSH2 0x1ACC DUP2 PUSH2 0x1A93 JUMP JUMPDEST SWAP1 POP SWAP2 SWAP1 POP JUMP JUMPDEST PUSH32 0x546F6F206561726C790000000000000000000000000000000000000000000000 PUSH0 DUP3 ADD MSTORE POP JUMP JUMPDEST PUSH0 PUSH2 0x1B07 PUSH1 0x9 DUP4 PUSH2 0xD9C JUMP JUMPDEST SWAP2 POP PUSH2 0x1B12 DUP3 PUSH2 0x1AD3 JUMP JUMPDEST PUSH1 0x20 DUP3 ADD SWAP1 POP SWAP2 SWAP1 POP JUMP JUMPDEST PUSH0 PUSH1 0x20 DUP3 ADD SWAP1 POP DUP2 DUP2 SUB PUSH0 DUP4 ADD MSTORE PUSH2 0x1B34 DUP2 PUSH2 0x1AFB JUMP JUMPDEST SWAP1 POP SWAP2 SWAP1 POP JUMP INVALID LOG2 PUSH5 0x6970667358 0x22 SLT KECCAK256 DUP7 SWAP10 ISZERO PUSH29 0x9BA57A58CF39EAB349E718C3C67A81E7B99F02F1331F1DCFF7446B9464 PUSH20 0x6F6C634300081A00330000000000000000000000 "
	},
	"abi": [
		{
			"inputs": [
				{
					"internalType": "uint256",
					"name": "pollId",
					"type": "uint256"
				}
			],
			"name": "closePoll",
			"outputs": [],
			"stateMutability": "nonpayable",
			"type": "function"
		},
		{
			"inputs": [
				{
					"internalType": "string",
					"name": "question",
					"type": "string"
				},
				{
					"internalType": "string[]",
					"name": "options",
					"type": "string[]"
				},
				{
					"internalType": "uint256",
					"name": "rewardPerResponse",
					"type": "uint256"
				},
				{
					"internalType": "uint256",
					"name": "durationDays",
					"type": "uint256"
				},
				{
					"internalType": "uint256",
					"name": "maxResponses",
					"type": "uint256"
				}
			],
			"name": "createPoll",
			"outputs": [],
			"stateMutability": "payable",
			"type": "function"
		},
		{
			"anonymous": false,
			"inputs": [
				{
					"indexed": false,
					"internalType": "uint256",
					"name": "pollId",
					"type": "uint256"
				}
			],
			"name": "PollClosed",
			"type": "event"
		},
		{
			"anonymous": false,
			"inputs": [
				{
					"indexed": false,
					"internalType": "uint256",
					"name": "pollId",
					"type": "uint256"
				},
				{
					"indexed": false,
					"internalType": "address",
					"name": "creator",
					"type": "address"
				},
				{
					"indexed": false,
					"internalType": "string",
					"name": "question",
					"type": "string"
				}
			],
			"name": "PollCreated",
			"type": "event"
		},
		{
			"inputs": [],
			"name": "getAllPollIds",
			"outputs": [
				{
					"internalType": "uint256[]",
					"name": "",
					"type": "uint256[]"
				}
			],
			"stateMutability": "view",
			"type": "function"
		},
		{
			"inputs": [
				{
					"internalType": "uint256",
					"name": "pollId",
					"type": "uint256"
				}
			],
			"name": "getOptions",
			"outputs": [
				{
					"internalType": "string[]",
					"name": "",
					"type": "string[]"
				}
			],
			"stateMutability": "view",
			"type": "function"
		},
		{
			"inputs": [
				{
					"internalType": "uint256",
					"name": "pollId",
					"type": "uint256"
				}
			],
			"name": "getPoll",
			"outputs": [
				{
					"internalType": "address",
					"name": "creator",
					"type": "address"
				},
				{
					"internalType": "string",
					"name": "question",
					"type": "string"
				},
				{
					"internalType": "string[]",
					"name": "options",
					"type": "string[]"
				},
				{
					"internalType": "uint256",
					"name": "rewardPerResponse",
					"type": "uint256"
				},
				{
					"internalType": "uint256",
					"name": "maxResponses",
					"type": "uint256"
				},
				{
					"internalType": "uint256",
					"name": "endTime",
					"type": "uint256"
				},
				{
					"internalType": "bool",
					"name": "isOpen",
					"type": "bool"
				},
				{
					"internalType": "uint256",
					"name": "totalResponses",
					"type": "uint256"
				},
				{
					"internalType": "uint256",
					"name": "funds",
					"type": "uint256"
				}
			],
			"stateMutability": "view",
			"type": "function"
		},
		{
			"inputs": [
				{
					"internalType": "uint256",
					"name": "pollId",
					"type": "uint256"
				}
			],
			"name": "getPollStatus",
			"outputs": [
				{
					"internalType": "bool",
					"name": "",
					"type": "bool"
				},
				{
					"internalType": "uint256",
					"name": "",
					"type": "uint256"
				},
				{
					"internalType": "uint256",
					"name": "",
					"type": "uint256"
				}
			],
			"stateMutability": "view",
			"type": "function"
		},
		{
			"inputs": [],
			"name": "pollCounter",
			"outputs": [
				{
					"internalType": "uint256",
					"name": "",
					"type": "uint256"
				}
			],
			"stateMutability": "view",
			"type": "function"
		},
		{
			"inputs": [
				{
					"internalType": "uint256",
					"name": "",
					"type": "uint256"
				}
			],
			"name": "pollIds",
			"outputs": [
				{
					"internalType": "uint256",
					"name": "",
					"type": "uint256"
				}
			],
			"stateMutability": "view",
			"type": "function"
		},
		{
			"inputs": [
				{
					"internalType": "uint256",
					"name": "",
					"type": "uint256"
				}
			],
			"name": "polls",
			"outputs": [
				{
					"internalType": "address",
					"name": "creator",
					"type": "address"
				},
				{
					"internalType": "string",
					"name": "question",
					"type": "string"
				},
				{
					"internalType": "uint256",
					"name": "rewardPerResponse",
					"type": "uint256"
				},
				{
					"internalType": "uint256",
					"name": "maxResponses",
					"type": "uint256"
				},
				{
					"internalType": "uint256",
					"name": "endTime",
					"type": "uint256"
				},
				{
					"internalType": "bool",
					"name": "isOpen",
					"type": "bool"
				},
				{
					"internalType": "uint256",
					"name": "totalResponses",
					"type": "uint256"
				},
				{
					"internalType": "uint256",
					"name": "funds",
					"type": "uint256"
				}
			],
			"stateMutability": "view",
			"type": "function"
		}
	],
	"storageLayout": {
		"storage": [
			{
				"astId": 23,
				"contract": "contracts/DPolls.sol:PollsDApp",
				"label": "pollCounter",
				"offset": 0,
				"slot": "0",
				"type": "t_uint256"
			},
			{
				"astId": 26,
				"contract": "contracts/DPolls.sol:PollsDApp",
				"label": "pollIds",
				"offset": 0,
				"slot": "1",
				"type": "t_array(t_uint256)dyn_storage"
			},
			{
				"astId": 31,
				"contract": "contracts/DPolls.sol:PollsDApp",
				"label": "polls",
				"offset": 0,
				"slot": "2",
				"type": "t_mapping(t_uint256,t_struct(Poll)21_storage)"
			},
			{
				"astId": 37,
				"contract": "contracts/DPolls.sol:PollsDApp",
				"label": "userPolls",
				"offset": 0,
				"slot": "3",
				"type": "t_mapping(t_address,t_array(t_struct(Poll)21_storage)dyn_storage)"
			}
		],
		"types": {
			"t_address": {
				"encoding": "inplace",
				"label": "address",
				"numberOfBytes": "20"
			},
			"t_array(t_string_storage)dyn_storage": {
				"base": "t_string_storage",
				"encoding": "dynamic_array",
				"label": "string[]",
				"numberOfBytes": "32"
			},
			"t_array(t_struct(Poll)21_storage)dyn_storage": {
				"base": "t_struct(Poll)21_storage",
				"encoding": "dynamic_array",
				"label": "struct PollsDApp.Poll[]",
				"numberOfBytes": "32"
			},
			"t_array(t_uint256)dyn_storage": {
				"base": "t_uint256",
				"encoding": "dynamic_array",
				"label": "uint256[]",
				"numberOfBytes": "32"
			},
			"t_bool": {
				"encoding": "inplace",
				"label": "bool",
				"numberOfBytes": "1"
			},
			"t_mapping(t_address,t_array(t_struct(Poll)21_storage)dyn_storage)": {
				"encoding": "mapping",
				"key": "t_address",
				"label": "mapping(address => struct PollsDApp.Poll[])",
				"numberOfBytes": "32",
				"value": "t_array(t_struct(Poll)21_storage)dyn_storage"
			},
			"t_mapping(t_uint256,t_struct(Poll)21_storage)": {
				"encoding": "mapping",
				"key": "t_uint256",
				"label": "mapping(uint256 => struct PollsDApp.Poll)",
				"numberOfBytes": "32",
				"value": "t_struct(Poll)21_storage"
			},
			"t_string_storage": {
				"encoding": "bytes",
				"label": "string",
				"numberOfBytes": "32"
			},
			"t_struct(Poll)21_storage": {
				"encoding": "inplace",
				"label": "struct PollsDApp.Poll",
				"members": [
					{
						"astId": 3,
						"contract": "contracts/DPolls.sol:PollsDApp",
						"label": "creator",
						"offset": 0,
						"slot": "0",
						"type": "t_address"
					},
					{
						"astId": 5,
						"contract": "contracts/DPolls.sol:PollsDApp",
						"label": "question",
						"offset": 0,
						"slot": "1",
						"type": "t_string_storage"
					},
					{
						"astId": 8,
						"contract": "contracts/DPolls.sol:PollsDApp",
						"label": "options",
						"offset": 0,
						"slot": "2",
						"type": "t_array(t_string_storage)dyn_storage"
					},
					{
						"astId": 10,
						"contract": "contracts/DPolls.sol:PollsDApp",
						"label": "rewardPerResponse",
						"offset": 0,
						"slot": "3",
						"type": "t_uint256"
					},
					{
						"astId": 12,
						"contract": "contracts/DPolls.sol:PollsDApp",
						"label": "maxResponses",
						"offset": 0,
						"slot": "4",
						"type": "t_uint256"
					},
					{
						"astId": 14,
						"contract": "contracts/DPolls.sol:PollsDApp",
						"label": "endTime",
						"offset": 0,
						"slot": "5",
						"type": "t_uint256"
					},
					{
						"astId": 16,
						"contract": "contracts/DPolls.sol:PollsDApp",
						"label": "isOpen",
						"offset": 0,
						"slot": "6",
						"type": "t_bool"
					},
					{
						"astId": 18,
						"contract": "contracts/DPolls.sol:PollsDApp",
						"label": "totalResponses",
						"offset": 0,
						"slot": "7",
						"type": "t_uint256"
					},
					{
						"astId": 20,
						"contract": "contracts/DPolls.sol:PollsDApp",
						"label": "funds",
						"offset": 0,
						"slot": "8",
						"type": "t_uint256"
					}
				],
				"numberOfBytes": "288"
			},
			"t_uint256": {
				"encoding": "inplace",
				"label": "uint256",
				"numberOfBytes": "32"
			}
		}
	},
	"web3Deploy": "var pollsdappContract = new web3.eth.Contract([{\"anonymous\":false,\"inputs\":[{\"indexed\":false,\"internalType\":\"uint256\",\"name\":\"pollId\",\"type\":\"uint256\"}],\"name\":\"PollClosed\",\"type\":\"event\"},{\"anonymous\":false,\"inputs\":[{\"indexed\":false,\"internalType\":\"uint256\",\"name\":\"pollId\",\"type\":\"uint256\"},{\"indexed\":false,\"internalType\":\"address\",\"name\":\"creator\",\"type\":\"address\"},{\"indexed\":false,\"internalType\":\"string\",\"name\":\"question\",\"type\":\"string\"}],\"name\":\"PollCreated\",\"type\":\"event\"},{\"inputs\":[{\"internalType\":\"uint256\",\"name\":\"pollId\",\"type\":\"uint256\"}],\"name\":\"closePoll\",\"outputs\":[],\"stateMutability\":\"nonpayable\",\"type\":\"function\"},{\"inputs\":[{\"internalType\":\"string\",\"name\":\"question\",\"type\":\"string\"},{\"internalType\":\"string[]\",\"name\":\"options\",\"type\":\"string[]\"},{\"internalType\":\"uint256\",\"name\":\"rewardPerResponse\",\"type\":\"uint256\"},{\"internalType\":\"uint256\",\"name\":\"durationDays\",\"type\":\"uint256\"},{\"internalType\":\"uint256\",\"name\":\"maxResponses\",\"type\":\"uint256\"}],\"name\":\"createPoll\",\"outputs\":[],\"stateMutability\":\"payable\",\"type\":\"function\"},{\"inputs\":[],\"name\":\"getAllPollIds\",\"outputs\":[{\"internalType\":\"uint256[]\",\"name\":\"\",\"type\":\"uint256[]\"}],\"stateMutability\":\"view\",\"type\":\"function\"},{\"inputs\":[{\"internalType\":\"uint256\",\"name\":\"pollId\",\"type\":\"uint256\"}],\"name\":\"getOptions\",\"outputs\":[{\"internalType\":\"string[]\",\"name\":\"\",\"type\":\"string[]\"}],\"stateMutability\":\"view\",\"type\":\"function\"},{\"inputs\":[{\"internalType\":\"uint256\",\"name\":\"pollId\",\"type\":\"uint256\"}],\"name\":\"getPoll\",\"outputs\":[{\"internalType\":\"address\",\"name\":\"creator\",\"type\":\"address\"},{\"internalType\":\"string\",\"name\":\"question\",\"type\":\"string\"},{\"internalType\":\"string[]\",\"name\":\"options\",\"type\":\"string[]\"},{\"internalType\":\"uint256\",\"name\":\"rewardPerResponse\",\"type\":\"uint256\"},{\"internalType\":\"uint256\",\"name\":\"maxResponses\",\"type\":\"uint256\"},{\"internalType\":\"uint256\",\"name\":\"endTime\",\"type\":\"uint256\"},{\"internalType\":\"bool\",\"name\":\"isOpen\",\"type\":\"bool\"},{\"internalType\":\"uint256\",\"name\":\"totalResponses\",\"type\":\"uint256\"},{\"internalType\":\"uint256\",\"name\":\"funds\",\"type\":\"uint256\"}],\"stateMutability\":\"view\",\"type\":\"function\"},{\"inputs\":[{\"internalType\":\"uint256\",\"name\":\"pollId\",\"type\":\"uint256\"}],\"name\":\"getPollStatus\",\"outputs\":[{\"internalType\":\"bool\",\"name\":\"\",\"type\":\"bool\"},{\"internalType\":\"uint256\",\"name\":\"\",\"type\":\"uint256\"},{\"internalType\":\"uint256\",\"name\":\"\",\"type\":\"uint256\"}],\"stateMutability\":\"view\",\"type\":\"function\"},{\"inputs\":[],\"name\":\"pollCounter\",\"outputs\":[{\"internalType\":\"uint256\",\"name\":\"\",\"type\":\"uint256\"}],\"stateMutability\":\"view\",\"type\":\"function\"},{\"inputs\":[{\"internalType\":\"uint256\",\"name\":\"\",\"type\":\"uint256\"}],\"name\":\"pollIds\",\"outputs\":[{\"internalType\":\"uint256\",\"name\":\"\",\"type\":\"uint256\"}],\"stateMutability\":\"view\",\"type\":\"function\"},{\"inputs\":[{\"internalType\":\"uint256\",\"name\":\"\",\"type\":\"uint256\"}],\"name\":\"polls\",\"outputs\":[{\"internalType\":\"address\",\"name\":\"creator\",\"type\":\"address\"},{\"internalType\":\"string\",\"name\":\"question\",\"type\":\"string\"},{\"internalType\":\"uint256\",\"name\":\"rewardPerResponse\",\"type\":\"uint256\"},{\"internalType\":\"uint256\",\"name\":\"maxResponses\",\"type\":\"uint256\"},{\"internalType\":\"uint256\",\"name\":\"endTime\",\"type\":\"uint256\"},{\"internalType\":\"bool\",\"name\":\"isOpen\",\"type\":\"bool\"},{\"internalType\":\"uint256\",\"name\":\"totalResponses\",\"type\":\"uint256\"},{\"internalType\":\"uint256\",\"name\":\"funds\",\"type\":\"uint256\"}],\"stateMutability\":\"view\",\"type\":\"function\"}]);\nvar pollsdapp = pollsdappContract.deploy({\n     data: '0x6080604052348015600e575f80fd5b50611b718061001c5f395ff3fe608060405260043610610085575f3560e01c80639534e637116100585780639534e63714610161578063ac2f007414610189578063b0c095e3146101cc578063d02eed381461020a578063ee0ca5171461023457610085565b80631a8cbcaa146100895780634b117094146100cd57806373a5c08d146100e95780638915b3fb14610125575b5f80fd5b348015610094575f80fd5b506100af60048036038101906100aa9190610d28565b61025e565b6040516100c499989796959493929190610f2e565b60405180910390f35b6100e760048036038101906100e291906111d5565b610449565b005b3480156100f4575f80fd5b5061010f600480360381019061010a9190610d28565b61077d565b60405161011c9190611284565b60405180910390f35b348015610130575f80fd5b5061014b60048036038101906101469190610d28565b61079d565b604051610158919061129d565b60405180910390f35b34801561016c575f80fd5b5061018760048036038101906101829190610d28565b610885565b005b348015610194575f80fd5b506101af60048036038101906101aa9190610d28565b610a29565b6040516101c39897969594939291906112bd565b60405180910390f35b3480156101d7575f80fd5b506101f260048036038101906101ed9190610d28565b610b1e565b60405161020193929190611340565b60405180910390f35b348015610215575f80fd5b5061021e610b5e565b60405161022b9190611284565b60405180910390f35b34801561023f575f80fd5b50610248610b63565b604051610255919061142c565b60405180910390f35b5f6060805f805f805f805f60025f8c81526020019081526020015f209050805f015f9054906101000a900473ffffffffffffffffffffffffffffffffffffffff168160010182600201836003015484600401548560050154866006015f9054906101000a900460ff16876007015488600801548780546102dd90611479565b80601f016020809104026020016040519081016040528092919081815260200182805461030990611479565b80156103545780601f1061032b57610100808354040283529160200191610354565b820191905f5260205f20905b81548152906001019060200180831161033757829003601f168201915b5050505050975086805480602002602001604051908101604052809291908181526020015f905b82821015610423578382905f5260205f2001805461039890611479565b80601f01602080910402602001604051908101604052809291908181526020018280546103c490611479565b801561040f5780601f106103e65761010080835404028352916020019161040f565b820191905f5260205f20905b8154815290600101906020018083116103f257829003601f168201915b50505050508152602001906001019061037b565b505050509650995099509950995099509950995099509950509193959799909294969850565b60028451101561048e576040517f08c379a0000000000000000000000000000000000000000000000000000000008152600401610485906114f3565b60405180910390fd5b5f82116104d0576040517f08c379a00000000000000000000000000000000000000000000000000000000081526004016104c79061155b565b60405180910390fd5b5f60025f805481526020019081526020015f20905033815f015f6101000a81548173ffffffffffffffffffffffffffffffffffffffff021916908373ffffffffffffffffffffffffffffffffffffffff160217905550858160010190816105379190611716565b5084816002019080519060200190610550929190610bb9565b5083816003018190555081816004018190555062015180836105729190611812565b4261057d9190611853565b81600501819055506001816006015f6101000a81548160ff02191690831515021790555034816008018190555060015f54908060018154018082558091505060019003905f5260205f20015f909190919091505560035f3373ffffffffffffffffffffffffffffffffffffffff1673ffffffffffffffffffffffffffffffffffffffff1681526020019081526020015f2081908060018154018082558091505060019003905f5260205f2090600902015f909190919091505f82015f9054906101000a900473ffffffffffffffffffffffffffffffffffffffff16815f015f6101000a81548173ffffffffffffffffffffffffffffffffffffffff021916908373ffffffffffffffffffffffffffffffffffffffff160217905550600182018160010190816106ac919061189b565b5060028201816002019080546106c3929190610c10565b50600382015481600301556004820154816004015560058201548160050155600682015f9054906101000a900460ff16816006015f6101000a81548160ff021916908315150217905550600782015481600701556008820154816008015550507f7cf84e937b660a86b8d03903abf94c2e2976b2273da8dfbef2d89b7ac560463e5f54338860405161075793929190611980565b60405180910390a15f80815480929190610770906119bc565b9190505550505050505050565b6001818154811061078c575f80fd5b905f5260205f20015f915090505481565b606060025f8381526020019081526020015f20600201805480602002602001604051908101604052809291908181526020015f905b8282101561087a578382905f5260205f200180546107ef90611479565b80601f016020809104026020016040519081016040528092919081815260200182805461081b90611479565b80156108665780601f1061083d57610100808354040283529160200191610866565b820191905f5260205f20905b81548152906001019060200180831161084957829003601f168201915b5050505050815260200190600101906107d2565b505050509050919050565b5f60025f8381526020019081526020015f209050805f015f9054906101000a900473ffffffffffffffffffffffffffffffffffffffff1673ffffffffffffffffffffffffffffffffffffffff163373ffffffffffffffffffffffffffffffffffffffff1614610929576040517f08c379a000000000000000000000000000000000000000000000000000000000815260040161092090611a4d565b60405180910390fd5b806006015f9054906101000a900460ff16610979576040517f08c379a000000000000000000000000000000000000000000000000000000000815260040161097090611ab5565b60405180910390fd5b80600501544210158061099457508060040154816007015410155b6109d3576040517f08c379a00000000000000000000000000000000000000000000000000000000081526004016109ca90611b1d565b60405180910390fd5b5f816006015f6101000a81548160ff0219169083151502179055507f703c67c157a1afb7d386ce5212ee88bf0a690bca998060e9595ebdfd747100ce82604051610a1d9190611284565b60405180910390a15050565b6002602052805f5260405f205f91509050805f015f9054906101000a900473ffffffffffffffffffffffffffffffffffffffff1690806001018054610a6d90611479565b80601f0160208091040260200160405190810160405280929190818152602001828054610a9990611479565b8015610ae45780601f10610abb57610100808354040283529160200191610ae4565b820191905f5260205f20905b815481529060010190602001808311610ac757829003601f168201915b505050505090806003015490806004015490806005015490806006015f9054906101000a900460ff16908060070154908060080154905088565b5f805f8060025f8681526020019081526020015f209050806006015f9054906101000a900460ff1681600501548260070154935093509350509193909250565b5f5481565b60606001805480602002602001604051908101604052809291908181526020018280548015610baf57602002820191905f5260205f20905b815481526020019060010190808311610b9b575b5050505050905090565b828054828255905f5260205f20908101928215610bff579160200282015b82811115610bfe578251829081610bee9190611716565b5091602001919060010190610bd7565b5b509050610c0c9190610c69565b5090565b828054828255905f5260205f20908101928215610c58575f5260205f209182015b82811115610c575782829081610c47919061189b565b5091600101919060010190610c31565b5b509050610c659190610c69565b5090565b5b80821115610c88575f8181610c7f9190610c8c565b50600101610c6a565b5090565b508054610c9890611479565b5f825580601f10610ca95750610cc6565b601f0160209004905f5260205f2090810190610cc59190610cc9565b5b50565b5b80821115610ce0575f815f905550600101610cca565b5090565b5f604051905090565b5f80fd5b5f80fd5b5f819050919050565b610d0781610cf5565b8114610d11575f80fd5b50565b5f81359050610d2281610cfe565b92915050565b5f60208284031215610d3d57610d3c610ced565b5b5f610d4a84828501610d14565b91505092915050565b5f73ffffffffffffffffffffffffffffffffffffffff82169050919050565b5f610d7c82610d53565b9050919050565b610d8c81610d72565b82525050565b5f81519050919050565b5f82825260208201905092915050565b8281835e5f83830152505050565b5f601f19601f8301169050919050565b5f610dd482610d92565b610dde8185610d9c565b9350610dee818560208601610dac565b610df781610dba565b840191505092915050565b5f81519050919050565b5f82825260208201905092915050565b5f819050602082019050919050565b5f82825260208201905092915050565b5f610e4582610d92565b610e4f8185610e2b565b9350610e5f818560208601610dac565b610e6881610dba565b840191505092915050565b5f610e7e8383610e3b565b905092915050565b5f602082019050919050565b5f610e9c82610e02565b610ea68185610e0c565b935083602082028501610eb885610e1c565b805f5b85811015610ef35784840389528151610ed48582610e73565b9450610edf83610e86565b925060208a01995050600181019050610ebb565b50829750879550505050505092915050565b610f0e81610cf5565b82525050565b5f8115159050919050565b610f2881610f14565b82525050565b5f61012082019050610f425f83018c610d83565b8181036020830152610f54818b610dca565b90508181036040830152610f68818a610e92565b9050610f776060830189610f05565b610f846080830188610f05565b610f9160a0830187610f05565b610f9e60c0830186610f1f565b610fab60e0830185610f05565b610fb9610100830184610f05565b9a9950505050505050505050565b5f80fd5b5f80fd5b7f4e487b71000000000000000000000000000000000000000000000000000000005f52604160045260245ffd5b61100582610dba565b810181811067ffffffffffffffff8211171561102457611023610fcf565b5b80604052505050565b5f611036610ce4565b90506110428282610ffc565b919050565b5f67ffffffffffffffff82111561106157611060610fcf565b5b61106a82610dba565b9050602081019050919050565b828183375f83830152505050565b5f61109761109284611047565b61102d565b9050828152602081018484840111156110b3576110b2610fcb565b5b6110be848285611077565b509392505050565b5f82601f8301126110da576110d9610fc7565b5b81356110ea848260208601611085565b91505092915050565b5f67ffffffffffffffff82111561110d5761110c610fcf565b5b602082029050602081019050919050565b5f80fd5b5f61113461112f846110f3565b61102d565b905080838252602082019050602084028301858111156111575761115661111e565b5b835b8181101561119e57803567ffffffffffffffff81111561117c5761117b610fc7565b5b80860161118989826110c6565b85526020850194505050602081019050611159565b5050509392505050565b5f82601f8301126111bc576111bb610fc7565b5b81356111cc848260208601611122565b91505092915050565b5f805f805f60a086880312156111ee576111ed610ced565b5b5f86013567ffffffffffffffff81111561120b5761120a610cf1565b5b611217888289016110c6565b955050602086013567ffffffffffffffff81111561123857611237610cf1565b5b611244888289016111a8565b945050604061125588828901610d14565b935050606061126688828901610d14565b925050608061127788828901610d14565b9150509295509295909350565b5f6020820190506112975f830184610f05565b92915050565b5f6020820190508181035f8301526112b58184610e92565b905092915050565b5f610100820190506112d15f83018b610d83565b81810360208301526112e3818a610dca565b90506112f26040830189610f05565b6112ff6060830188610f05565b61130c6080830187610f05565b61131960a0830186610f1f565b61132660c0830185610f05565b61133360e0830184610f05565b9998505050505050505050565b5f6060820190506113535f830186610f1f565b6113606020830185610f05565b61136d6040830184610f05565b949350505050565b5f81519050919050565b5f82825260208201905092915050565b5f819050602082019050919050565b6113a781610cf5565b82525050565b5f6113b8838361139e565b60208301905092915050565b5f602082019050919050565b5f6113da82611375565b6113e4818561137f565b93506113ef8361138f565b805f5b8381101561141f57815161140688826113ad565b9750611411836113c4565b9250506001810190506113f2565b5085935050505092915050565b5f6020820190508181035f83015261144481846113d0565b905092915050565b7f4e487b71000000000000000000000000000000000000000000000000000000005f52602260045260245ffd5b5f600282049050600182168061149057607f821691505b6020821081036114a3576114a261144c565b5b50919050565b7f4e656564206174206c656173742032206f7074696f6e730000000000000000005f82015250565b5f6114dd601783610d9c565b91506114e8826114a9565b602082019050919050565b5f6020820190508181035f83015261150a816114d1565b9050919050565b7f496e76616c6964206475726174696f6e000000000000000000000000000000005f82015250565b5f611545601083610d9c565b915061155082611511565b602082019050919050565b5f6020820190508181035f83015261157281611539565b9050919050565b5f819050815f5260205f209050919050565b5f6020601f8301049050919050565b5f82821b905092915050565b5f600883026115d57fffffffffffffffffffffffffffffffffffffffffffffffffffffffffffffffff8261159a565b6115df868361159a565b95508019841693508086168417925050509392505050565b5f819050919050565b5f61161a61161561161084610cf5565b6115f7565b610cf5565b9050919050565b5f819050919050565b61163383611600565b61164761163f82611621565b8484546115a6565b825550505050565b5f90565b61165b61164f565b61166681848461162a565b505050565b5b818110156116895761167e5f82611653565b60018101905061166c565b5050565b601f8211156116ce5761169f81611579565b6116a88461158b565b810160208510156116b7578190505b6116cb6116c38561158b565b83018261166b565b50505b505050565b5f82821c905092915050565b5f6116ee5f19846008026116d3565b1980831691505092915050565b5f61170683836116df565b9150826002028217905092915050565b61171f82610d92565b67ffffffffffffffff81111561173857611737610fcf565b5b6117428254611479565b61174d82828561168d565b5f60209050601f83116001811461177e575f841561176c578287015190505b61177685826116fb565b8655506117dd565b601f19841661178c86611579565b5f5b828110156117b35784890151825560018201915060208501945060208101905061178e565b868310156117d057848901516117cc601f8916826116df565b8355505b6001600288020188555050505b505050505050565b7f4e487b71000000000000000000000000000000000000000000000000000000005f52601160045260245ffd5b5f61181c82610cf5565b915061182783610cf5565b925082820261183581610cf5565b9150828204841483151761184c5761184b6117e5565b5b5092915050565b5f61185d82610cf5565b915061186883610cf5565b92508282019050808211156118805761187f6117e5565b5b92915050565b5f8154905061189481611479565b9050919050565b8181036118a957505061197e565b6118b282611886565b67ffffffffffffffff8111156118cb576118ca610fcf565b5b6118d58254611479565b6118e082828561168d565b5f601f83116001811461190d575f84156118fb578287015490505b61190585826116fb565b865550611977565b601f19841661191b87611579565b965061192686611579565b5f5b8281101561194d57848901548255600182019150600185019450602081019050611928565b8683101561196a5784890154611966601f8916826116df565b8355505b6001600288020188555050505b5050505050505b565b5f6060820190506119935f830186610f05565b6119a06020830185610d83565b81810360408301526119b28184610dca565b9050949350505050565b5f6119c682610cf5565b91507fffffffffffffffffffffffffffffffffffffffffffffffffffffffffffffffff82036119f8576119f76117e5565b5b600182019050919050565b7f4e6f742063726561746f720000000000000000000000000000000000000000005f82015250565b5f611a37600b83610d9c565b9150611a4282611a03565b602082019050919050565b5f6020820190508181035f830152611a6481611a2b565b9050919050565b7f416c726561647920636c6f7365640000000000000000000000000000000000005f82015250565b5f611a9f600e83610d9c565b9150611aaa82611a6b565b602082019050919050565b5f6020820190508181035f830152611acc81611a93565b9050919050565b7f546f6f206561726c7900000000000000000000000000000000000000000000005f82015250565b5f611b07600983610d9c565b9150611b1282611ad3565b602082019050919050565b5f6020820190508181035f830152611b3481611afb565b905091905056fea26469706673582212208699157c9ba57a58cf39eab349e718c3c67a81e7b99f02f1331f1dcff7446b9464736f6c634300081a0033', \n     arguments: [\n     ]\n}).send({\n     from: web3.eth.accounts[0], \n     gas: '4700000'\n   }, function (e, contract){\n    console.log(e, contract);\n    if (typeof contract.address !== 'undefined') {\n         console.log('Contract mined! address: ' + contract.address + ' transactionHash: ' + contract.transactionHash);\n    }\n })",
	"functionHashes": {
		"9534e637": "closePoll(uint256)",
		"4b117094": "createPoll(string,string[],uint256,uint256,uint256)",
		"ee0ca517": "getAllPollIds()",
		"8915b3fb": "getOptions(uint256)",
		"1a8cbcaa": "getPoll(uint256)",
		"b0c095e3": "getPollStatus(uint256)",
		"d02eed38": "pollCounter()",
		"73a5c08d": "pollIds(uint256)",
		"ac2f0074": "polls(uint256)"
	},
	"gasEstimates": {
		"Creation": {
			"codeDepositCost": "1405000",
			"executionCost": "1463",
			"totalCost": "1406463"
		},
		"External": {
			"closePoll(uint256)": "infinite",
			"createPoll(string,string[],uint256,uint256,uint256)": "infinite",
			"getAllPollIds()": "infinite",
			"getOptions(uint256)": "infinite",
			"getPoll(uint256)": "infinite",
			"getPollStatus(uint256)": "infinite",
			"pollCounter()": "2490",
			"pollIds(uint256)": "infinite",
			"polls(uint256)": "infinite"
		}
	},
	"devdoc": {
		"kind": "dev",
		"methods": {},
		"version": 1
	},
	"userdoc": {
		"kind": "user",
		"methods": {},
		"version": 1
	},
	"Runtime Bytecode": {
		"immutableReferences": {},
		"linkReferences": {},
		"object": "608060405260043610610085575f3560e01c80639534e637116100585780639534e63714610161578063ac2f007414610189578063b0c095e3146101cc578063d02eed381461020a578063ee0ca5171461023457610085565b80631a8cbcaa146100895780634b117094146100cd57806373a5c08d146100e95780638915b3fb14610125575b5f80fd5b348015610094575f80fd5b506100af60048036038101906100aa9190610d28565b61025e565b6040516100c499989796959493929190610f2e565b60405180910390f35b6100e760048036038101906100e291906111d5565b610449565b005b3480156100f4575f80fd5b5061010f600480360381019061010a9190610d28565b61077d565b60405161011c9190611284565b60405180910390f35b348015610130575f80fd5b5061014b60048036038101906101469190610d28565b61079d565b604051610158919061129d565b60405180910390f35b34801561016c575f80fd5b5061018760048036038101906101829190610d28565b610885565b005b348015610194575f80fd5b506101af60048036038101906101aa9190610d28565b610a29565b6040516101c39897969594939291906112bd565b60405180910390f35b3480156101d7575f80fd5b506101f260048036038101906101ed9190610d28565b610b1e565b60405161020193929190611340565b60405180910390f35b348015610215575f80fd5b5061021e610b5e565b60405161022b9190611284565b60405180910390f35b34801561023f575f80fd5b50610248610b63565b604051610255919061142c565b60405180910390f35b5f6060805f805f805f805f60025f8c81526020019081526020015f209050805f015f9054906101000a900473ffffffffffffffffffffffffffffffffffffffff168160010182600201836003015484600401548560050154866006015f9054906101000a900460ff16876007015488600801548780546102dd90611479565b80601f016020809104026020016040519081016040528092919081815260200182805461030990611479565b80156103545780601f1061032b57610100808354040283529160200191610354565b820191905f5260205f20905b81548152906001019060200180831161033757829003601f168201915b5050505050975086805480602002602001604051908101604052809291908181526020015f905b82821015610423578382905f5260205f2001805461039890611479565b80601f01602080910402602001604051908101604052809291908181526020018280546103c490611479565b801561040f5780601f106103e65761010080835404028352916020019161040f565b820191905f5260205f20905b8154815290600101906020018083116103f257829003601f168201915b50505050508152602001906001019061037b565b505050509650995099509950995099509950995099509950509193959799909294969850565b60028451101561048e576040517f08c379a0000000000000000000000000000000000000000000000000000000008152600401610485906114f3565b60405180910390fd5b5f82116104d0576040517f08c379a00000000000000000000000000000000000000000000000000000000081526004016104c79061155b565b60405180910390fd5b5f60025f805481526020019081526020015f20905033815f015f6101000a81548173ffffffffffffffffffffffffffffffffffffffff021916908373ffffffffffffffffffffffffffffffffffffffff160217905550858160010190816105379190611716565b5084816002019080519060200190610550929190610bb9565b5083816003018190555081816004018190555062015180836105729190611812565b4261057d9190611853565b81600501819055506001816006015f6101000a81548160ff02191690831515021790555034816008018190555060015f54908060018154018082558091505060019003905f5260205f20015f909190919091505560035f3373ffffffffffffffffffffffffffffffffffffffff1673ffffffffffffffffffffffffffffffffffffffff1681526020019081526020015f2081908060018154018082558091505060019003905f5260205f2090600902015f909190919091505f82015f9054906101000a900473ffffffffffffffffffffffffffffffffffffffff16815f015f6101000a81548173ffffffffffffffffffffffffffffffffffffffff021916908373ffffffffffffffffffffffffffffffffffffffff160217905550600182018160010190816106ac919061189b565b5060028201816002019080546106c3929190610c10565b50600382015481600301556004820154816004015560058201548160050155600682015f9054906101000a900460ff16816006015f6101000a81548160ff021916908315150217905550600782015481600701556008820154816008015550507f7cf84e937b660a86b8d03903abf94c2e2976b2273da8dfbef2d89b7ac560463e5f54338860405161075793929190611980565b60405180910390a15f80815480929190610770906119bc565b9190505550505050505050565b6001818154811061078c575f80fd5b905f5260205f20015f915090505481565b606060025f8381526020019081526020015f20600201805480602002602001604051908101604052809291908181526020015f905b8282101561087a578382905f5260205f200180546107ef90611479565b80601f016020809104026020016040519081016040528092919081815260200182805461081b90611479565b80156108665780601f1061083d57610100808354040283529160200191610866565b820191905f5260205f20905b81548152906001019060200180831161084957829003601f168201915b5050505050815260200190600101906107d2565b505050509050919050565b5f60025f8381526020019081526020015f209050805f015f9054906101000a900473ffffffffffffffffffffffffffffffffffffffff1673ffffffffffffffffffffffffffffffffffffffff163373ffffffffffffffffffffffffffffffffffffffff1614610929576040517f08c379a000000000000000000000000000000000000000000000000000000000815260040161092090611a4d565b60405180910390fd5b806006015f9054906101000a900460ff16610979576040517f08c379a000000000000000000000000000000000000000000000000000000000815260040161097090611ab5565b60405180910390fd5b80600501544210158061099457508060040154816007015410155b6109d3576040517f08c379a00000000000000000000000000000000000000000000000000000000081526004016109ca90611b1d565b60405180910390fd5b5f816006015f6101000a81548160ff0219169083151502179055507f703c67c157a1afb7d386ce5212ee88bf0a690bca998060e9595ebdfd747100ce82604051610a1d9190611284565b60405180910390a15050565b6002602052805f5260405f205f91509050805f015f9054906101000a900473ffffffffffffffffffffffffffffffffffffffff1690806001018054610a6d90611479565b80601f0160208091040260200160405190810160405280929190818152602001828054610a9990611479565b8015610ae45780601f10610abb57610100808354040283529160200191610ae4565b820191905f5260205f20905b815481529060010190602001808311610ac757829003601f168201915b505050505090806003015490806004015490806005015490806006015f9054906101000a900460ff16908060070154908060080154905088565b5f805f8060025f8681526020019081526020015f209050806006015f9054906101000a900460ff1681600501548260070154935093509350509193909250565b5f5481565b60606001805480602002602001604051908101604052809291908181526020018280548015610baf57602002820191905f5260205f20905b815481526020019060010190808311610b9b575b5050505050905090565b828054828255905f5260205f20908101928215610bff579160200282015b82811115610bfe578251829081610bee9190611716565b5091602001919060010190610bd7565b5b509050610c0c9190610c69565b5090565b828054828255905f5260205f20908101928215610c58575f5260205f209182015b82811115610c575782829081610c47919061189b565b5091600101919060010190610c31565b5b509050610c659190610c69565b5090565b5b80821115610c88575f8181610c7f9190610c8c565b50600101610c6a565b5090565b508054610c9890611479565b5f825580601f10610ca95750610cc6565b601f0160209004905f5260205f2090810190610cc59190610cc9565b5b50565b5b80821115610ce0575f815f905550600101610cca565b5090565b5f604051905090565b5f80fd5b5f80fd5b5f819050919050565b610d0781610cf5565b8114610d11575f80fd5b50565b5f81359050610d2281610cfe565b92915050565b5f60208284031215610d3d57610d3c610ced565b5b5f610d4a84828501610d14565b91505092915050565b5f73ffffffffffffffffffffffffffffffffffffffff82169050919050565b5f610d7c82610d53565b9050919050565b610d8c81610d72565b82525050565b5f81519050919050565b5f82825260208201905092915050565b8281835e5f83830152505050565b5f601f19601f8301169050919050565b5f610dd482610d92565b610dde8185610d9c565b9350610dee818560208601610dac565b610df781610dba565b840191505092915050565b5f81519050919050565b5f82825260208201905092915050565b5f819050602082019050919050565b5f82825260208201905092915050565b5f610e4582610d92565b610e4f8185610e2b565b9350610e5f818560208601610dac565b610e6881610dba565b840191505092915050565b5f610e7e8383610e3b565b905092915050565b5f602082019050919050565b5f610e9c82610e02565b610ea68185610e0c565b935083602082028501610eb885610e1c565b805f5b85811015610ef35784840389528151610ed48582610e73565b9450610edf83610e86565b925060208a01995050600181019050610ebb565b50829750879550505050505092915050565b610f0e81610cf5565b82525050565b5f8115159050919050565b610f2881610f14565b82525050565b5f61012082019050610f425f83018c610d83565b8181036020830152610f54818b610dca565b90508181036040830152610f68818a610e92565b9050610f776060830189610f05565b610f846080830188610f05565b610f9160a0830187610f05565b610f9e60c0830186610f1f565b610fab60e0830185610f05565b610fb9610100830184610f05565b9a9950505050505050505050565b5f80fd5b5f80fd5b7f4e487b71000000000000000000000000000000000000000000000000000000005f52604160045260245ffd5b61100582610dba565b810181811067ffffffffffffffff8211171561102457611023610fcf565b5b80604052505050565b5f611036610ce4565b90506110428282610ffc565b919050565b5f67ffffffffffffffff82111561106157611060610fcf565b5b61106a82610dba565b9050602081019050919050565b828183375f83830152505050565b5f61109761109284611047565b61102d565b9050828152602081018484840111156110b3576110b2610fcb565b5b6110be848285611077565b509392505050565b5f82601f8301126110da576110d9610fc7565b5b81356110ea848260208601611085565b91505092915050565b5f67ffffffffffffffff82111561110d5761110c610fcf565b5b602082029050602081019050919050565b5f80fd5b5f61113461112f846110f3565b61102d565b905080838252602082019050602084028301858111156111575761115661111e565b5b835b8181101561119e57803567ffffffffffffffff81111561117c5761117b610fc7565b5b80860161118989826110c6565b85526020850194505050602081019050611159565b5050509392505050565b5f82601f8301126111bc576111bb610fc7565b5b81356111cc848260208601611122565b91505092915050565b5f805f805f60a086880312156111ee576111ed610ced565b5b5f86013567ffffffffffffffff81111561120b5761120a610cf1565b5b611217888289016110c6565b955050602086013567ffffffffffffffff81111561123857611237610cf1565b5b611244888289016111a8565b945050604061125588828901610d14565b935050606061126688828901610d14565b925050608061127788828901610d14565b9150509295509295909350565b5f6020820190506112975f830184610f05565b92915050565b5f6020820190508181035f8301526112b58184610e92565b905092915050565b5f610100820190506112d15f83018b610d83565b81810360208301526112e3818a610dca565b90506112f26040830189610f05565b6112ff6060830188610f05565b61130c6080830187610f05565b61131960a0830186610f1f565b61132660c0830185610f05565b61133360e0830184610f05565b9998505050505050505050565b5f6060820190506113535f830186610f1f565b6113606020830185610f05565b61136d6040830184610f05565b949350505050565b5f81519050919050565b5f82825260208201905092915050565b5f819050602082019050919050565b6113a781610cf5565b82525050565b5f6113b8838361139e565b60208301905092915050565b5f602082019050919050565b5f6113da82611375565b6113e4818561137f565b93506113ef8361138f565b805f5b8381101561141f57815161140688826113ad565b9750611411836113c4565b9250506001810190506113f2565b5085935050505092915050565b5f6020820190508181035f83015261144481846113d0565b905092915050565b7f4e487b71000000000000000000000000000000000000000000000000000000005f52602260045260245ffd5b5f600282049050600182168061149057607f821691505b6020821081036114a3576114a261144c565b5b50919050565b7f4e656564206174206c656173742032206f7074696f6e730000000000000000005f82015250565b5f6114dd601783610d9c565b91506114e8826114a9565b602082019050919050565b5f6020820190508181035f83015261150a816114d1565b9050919050565b7f496e76616c6964206475726174696f6e000000000000000000000000000000005f82015250565b5f611545601083610d9c565b915061155082611511565b602082019050919050565b5f6020820190508181035f83015261157281611539565b9050919050565b5f819050815f5260205f209050919050565b5f6020601f8301049050919050565b5f82821b905092915050565b5f600883026115d57fffffffffffffffffffffffffffffffffffffffffffffffffffffffffffffffff8261159a565b6115df868361159a565b95508019841693508086168417925050509392505050565b5f819050919050565b5f61161a61161561161084610cf5565b6115f7565b610cf5565b9050919050565b5f819050919050565b61163383611600565b61164761163f82611621565b8484546115a6565b825550505050565b5f90565b61165b61164f565b61166681848461162a565b505050565b5b818110156116895761167e5f82611653565b60018101905061166c565b5050565b601f8211156116ce5761169f81611579565b6116a88461158b565b810160208510156116b7578190505b6116cb6116c38561158b565b83018261166b565b50505b505050565b5f82821c905092915050565b5f6116ee5f19846008026116d3565b1980831691505092915050565b5f61170683836116df565b9150826002028217905092915050565b61171f82610d92565b67ffffffffffffffff81111561173857611737610fcf565b5b6117428254611479565b61174d82828561168d565b5f60209050601f83116001811461177e575f841561176c578287015190505b61177685826116fb565b8655506117dd565b601f19841661178c86611579565b5f5b828110156117b35784890151825560018201915060208501945060208101905061178e565b868310156117d057848901516117cc601f8916826116df565b8355505b6001600288020188555050505b505050505050565b7f4e487b71000000000000000000000000000000000000000000000000000000005f52601160045260245ffd5b5f61181c82610cf5565b915061182783610cf5565b925082820261183581610cf5565b9150828204841483151761184c5761184b6117e5565b5b5092915050565b5f61185d82610cf5565b915061186883610cf5565b92508282019050808211156118805761187f6117e5565b5b92915050565b5f8154905061189481611479565b9050919050565b8181036118a957505061197e565b6118b282611886565b67ffffffffffffffff8111156118cb576118ca610fcf565b5b6118d58254611479565b6118e082828561168d565b5f601f83116001811461190d575f84156118fb578287015490505b61190585826116fb565b865550611977565b601f19841661191b87611579565b965061192686611579565b5f5b8281101561194d57848901548255600182019150600185019450602081019050611928565b8683101561196a5784890154611966601f8916826116df565b8355505b6001600288020188555050505b5050505050505b565b5f6060820190506119935f830186610f05565b6119a06020830185610d83565b81810360408301526119b28184610dca565b9050949350505050565b5f6119c682610cf5565b91507fffffffffffffffffffffffffffffffffffffffffffffffffffffffffffffffff82036119f8576119f76117e5565b5b600182019050919050565b7f4e6f742063726561746f720000000000000000000000000000000000000000005f82015250565b5f611a37600b83610d9c565b9150611a4282611a03565b602082019050919050565b5f6020820190508181035f830152611a6481611a2b565b9050919050565b7f416c726561647920636c6f7365640000000000000000000000000000000000005f82015250565b5f611a9f600e83610d9c565b9150611aaa82611a6b565b602082019050919050565b5f6020820190508181035f830152611acc81611a93565b9050919050565b7f546f6f206561726c7900000000000000000000000000000000000000000000005f82015250565b5f611b07600983610d9c565b9150611b1282611ad3565b602082019050919050565b5f6020820190508181035f830152611b3481611afb565b905091905056fea26469706673582212208699157c9ba57a58cf39eab349e718c3c67a81e7b99f02f1331f1dcff7446b9464736f6c634300081a0033",
		"opcodes": "PUSH1 0x80 PUSH1 0x40 MSTORE PUSH1 0x4 CALLDATASIZE LT PUSH2 0x85 JUMPI PUSH0 CALLDATALOAD PUSH1 0xE0 SHR DUP1 PUSH4 0x9534E637 GT PUSH2 0x58 JUMPI DUP1 PUSH4 0x9534E637 EQ PUSH2 0x161 JUMPI DUP1 PUSH4 0xAC2F0074 EQ PUSH2 0x189 JUMPI DUP1 PUSH4 0xB0C095E3 EQ PUSH2 0x1CC JUMPI DUP1 PUSH4 0xD02EED38 EQ PUSH2 0x20A JUMPI DUP1 PUSH4 0xEE0CA517 EQ PUSH2 0x234 JUMPI PUSH2 0x85 JUMP JUMPDEST DUP1 PUSH4 0x1A8CBCAA EQ PUSH2 0x89 JUMPI DUP1 PUSH4 0x4B117094 EQ PUSH2 0xCD JUMPI DUP1 PUSH4 0x73A5C08D EQ PUSH2 0xE9 JUMPI DUP1 PUSH4 0x8915B3FB EQ PUSH2 0x125 JUMPI JUMPDEST PUSH0 DUP1 REVERT JUMPDEST CALLVALUE DUP1 ISZERO PUSH2 0x94 JUMPI PUSH0 DUP1 REVERT JUMPDEST POP PUSH2 0xAF PUSH1 0x4 DUP1 CALLDATASIZE SUB DUP2 ADD SWAP1 PUSH2 0xAA SWAP2 SWAP1 PUSH2 0xD28 JUMP JUMPDEST PUSH2 0x25E JUMP JUMPDEST PUSH1 0x40 MLOAD PUSH2 0xC4 SWAP10 SWAP9 SWAP8 SWAP7 SWAP6 SWAP5 SWAP4 SWAP3 SWAP2 SWAP1 PUSH2 0xF2E JUMP JUMPDEST PUSH1 0x40 MLOAD DUP1 SWAP2 SUB SWAP1 RETURN JUMPDEST PUSH2 0xE7 PUSH1 0x4 DUP1 CALLDATASIZE SUB DUP2 ADD SWAP1 PUSH2 0xE2 SWAP2 SWAP1 PUSH2 0x11D5 JUMP JUMPDEST PUSH2 0x449 JUMP JUMPDEST STOP JUMPDEST CALLVALUE DUP1 ISZERO PUSH2 0xF4 JUMPI PUSH0 DUP1 REVERT JUMPDEST POP PUSH2 0x10F PUSH1 0x4 DUP1 CALLDATASIZE SUB DUP2 ADD SWAP1 PUSH2 0x10A SWAP2 SWAP1 PUSH2 0xD28 JUMP JUMPDEST PUSH2 0x77D JUMP JUMPDEST PUSH1 0x40 MLOAD PUSH2 0x11C SWAP2 SWAP1 PUSH2 0x1284 JUMP JUMPDEST PUSH1 0x40 MLOAD DUP1 SWAP2 SUB SWAP1 RETURN JUMPDEST CALLVALUE DUP1 ISZERO PUSH2 0x130 JUMPI PUSH0 DUP1 REVERT JUMPDEST POP PUSH2 0x14B PUSH1 0x4 DUP1 CALLDATASIZE SUB DUP2 ADD SWAP1 PUSH2 0x146 SWAP2 SWAP1 PUSH2 0xD28 JUMP JUMPDEST PUSH2 0x79D JUMP JUMPDEST PUSH1 0x40 MLOAD PUSH2 0x158 SWAP2 SWAP1 PUSH2 0x129D JUMP JUMPDEST PUSH1 0x40 MLOAD DUP1 SWAP2 SUB SWAP1 RETURN JUMPDEST CALLVALUE DUP1 ISZERO PUSH2 0x16C JUMPI PUSH0 DUP1 REVERT JUMPDEST POP PUSH2 0x187 PUSH1 0x4 DUP1 CALLDATASIZE SUB DUP2 ADD SWAP1 PUSH2 0x182 SWAP2 SWAP1 PUSH2 0xD28 JUMP JUMPDEST PUSH2 0x885 JUMP JUMPDEST STOP JUMPDEST CALLVALUE DUP1 ISZERO PUSH2 0x194 JUMPI PUSH0 DUP1 REVERT JUMPDEST POP PUSH2 0x1AF PUSH1 0x4 DUP1 CALLDATASIZE SUB DUP2 ADD SWAP1 PUSH2 0x1AA SWAP2 SWAP1 PUSH2 0xD28 JUMP JUMPDEST PUSH2 0xA29 JUMP JUMPDEST PUSH1 0x40 MLOAD PUSH2 0x1C3 SWAP9 SWAP8 SWAP7 SWAP6 SWAP5 SWAP4 SWAP3 SWAP2 SWAP1 PUSH2 0x12BD JUMP JUMPDEST PUSH1 0x40 MLOAD DUP1 SWAP2 SUB SWAP1 RETURN JUMPDEST CALLVALUE DUP1 ISZERO PUSH2 0x1D7 JUMPI PUSH0 DUP1 REVERT JUMPDEST POP PUSH2 0x1F2 PUSH1 0x4 DUP1 CALLDATASIZE SUB DUP2 ADD SWAP1 PUSH2 0x1ED SWAP2 SWAP1 PUSH2 0xD28 JUMP JUMPDEST PUSH2 0xB1E JUMP JUMPDEST PUSH1 0x40 MLOAD PUSH2 0x201 SWAP4 SWAP3 SWAP2 SWAP1 PUSH2 0x1340 JUMP JUMPDEST PUSH1 0x40 MLOAD DUP1 SWAP2 SUB SWAP1 RETURN JUMPDEST CALLVALUE DUP1 ISZERO PUSH2 0x215 JUMPI PUSH0 DUP1 REVERT JUMPDEST POP PUSH2 0x21E PUSH2 0xB5E JUMP JUMPDEST PUSH1 0x40 MLOAD PUSH2 0x22B SWAP2 SWAP1 PUSH2 0x1284 JUMP JUMPDEST PUSH1 0x40 MLOAD DUP1 SWAP2 SUB SWAP1 RETURN JUMPDEST CALLVALUE DUP1 ISZERO PUSH2 0x23F JUMPI PUSH0 DUP1 REVERT JUMPDEST POP PUSH2 0x248 PUSH2 0xB63 JUMP JUMPDEST PUSH1 0x40 MLOAD PUSH2 0x255 SWAP2 SWAP1 PUSH2 0x142C JUMP JUMPDEST PUSH1 0x40 MLOAD DUP1 SWAP2 SUB SWAP1 RETURN JUMPDEST PUSH0 PUSH1 0x60 DUP1 PUSH0 DUP1 PUSH0 DUP1 PUSH0 DUP1 PUSH0 PUSH1 0x2 PUSH0 DUP13 DUP2 MSTORE PUSH1 0x20 ADD SWAP1 DUP2 MSTORE PUSH1 0x20 ADD PUSH0 KECCAK256 SWAP1 POP DUP1 PUSH0 ADD PUSH0 SWAP1 SLOAD SWAP1 PUSH2 0x100 EXP SWAP1 DIV PUSH20 0xFFFFFFFFFFFFFFFFFFFFFFFFFFFFFFFFFFFFFFFF AND DUP2 PUSH1 0x1 ADD DUP3 PUSH1 0x2 ADD DUP4 PUSH1 0x3 ADD SLOAD DUP5 PUSH1 0x4 ADD SLOAD DUP6 PUSH1 0x5 ADD SLOAD DUP7 PUSH1 0x6 ADD PUSH0 SWAP1 SLOAD SWAP1 PUSH2 0x100 EXP SWAP1 DIV PUSH1 0xFF AND DUP8 PUSH1 0x7 ADD SLOAD DUP9 PUSH1 0x8 ADD SLOAD DUP8 DUP1 SLOAD PUSH2 0x2DD SWAP1 PUSH2 0x1479 JUMP JUMPDEST DUP1 PUSH1 0x1F ADD PUSH1 0x20 DUP1 SWAP2 DIV MUL PUSH1 0x20 ADD PUSH1 0x40 MLOAD SWAP1 DUP2 ADD PUSH1 0x40 MSTORE DUP1 SWAP3 SWAP2 SWAP1 DUP2 DUP2 MSTORE PUSH1 0x20 ADD DUP3 DUP1 SLOAD PUSH2 0x309 SWAP1 PUSH2 0x1479 JUMP JUMPDEST DUP1 ISZERO PUSH2 0x354 JUMPI DUP1 PUSH1 0x1F LT PUSH2 0x32B JUMPI PUSH2 0x100 DUP1 DUP4 SLOAD DIV MUL DUP4 MSTORE SWAP2 PUSH1 0x20 ADD SWAP2 PUSH2 0x354 JUMP JUMPDEST DUP3 ADD SWAP2 SWAP1 PUSH0 MSTORE PUSH1 0x20 PUSH0 KECCAK256 SWAP1 JUMPDEST DUP2 SLOAD DUP2 MSTORE SWAP1 PUSH1 0x1 ADD SWAP1 PUSH1 0x20 ADD DUP1 DUP4 GT PUSH2 0x337 JUMPI DUP3 SWAP1 SUB PUSH1 0x1F AND DUP3 ADD SWAP2 JUMPDEST POP POP POP POP POP SWAP8 POP DUP7 DUP1 SLOAD DUP1 PUSH1 0x20 MUL PUSH1 0x20 ADD PUSH1 0x40 MLOAD SWAP1 DUP2 ADD PUSH1 0x40 MSTORE DUP1 SWAP3 SWAP2 SWAP1 DUP2 DUP2 MSTORE PUSH1 0x20 ADD PUSH0 SWAP1 JUMPDEST DUP3 DUP3 LT ISZERO PUSH2 0x423 JUMPI DUP4 DUP3 SWAP1 PUSH0 MSTORE PUSH1 0x20 PUSH0 KECCAK256 ADD DUP1 SLOAD PUSH2 0x398 SWAP1 PUSH2 0x1479 JUMP JUMPDEST DUP1 PUSH1 0x1F ADD PUSH1 0x20 DUP1 SWAP2 DIV MUL PUSH1 0x20 ADD PUSH1 0x40 MLOAD SWAP1 DUP2 ADD PUSH1 0x40 MSTORE DUP1 SWAP3 SWAP2 SWAP1 DUP2 DUP2 MSTORE PUSH1 0x20 ADD DUP3 DUP1 SLOAD PUSH2 0x3C4 SWAP1 PUSH2 0x1479 JUMP JUMPDEST DUP1 ISZERO PUSH2 0x40F JUMPI DUP1 PUSH1 0x1F LT PUSH2 0x3E6 JUMPI PUSH2 0x100 DUP1 DUP4 SLOAD DIV MUL DUP4 MSTORE SWAP2 PUSH1 0x20 ADD SWAP2 PUSH2 0x40F JUMP JUMPDEST DUP3 ADD SWAP2 SWAP1 PUSH0 MSTORE PUSH1 0x20 PUSH0 KECCAK256 SWAP1 JUMPDEST DUP2 SLOAD DUP2 MSTORE SWAP1 PUSH1 0x1 ADD SWAP1 PUSH1 0x20 ADD DUP1 DUP4 GT PUSH2 0x3F2 JUMPI DUP3 SWAP1 SUB PUSH1 0x1F AND DUP3 ADD SWAP2 JUMPDEST POP POP POP POP POP DUP2 MSTORE PUSH1 0x20 ADD SWAP1 PUSH1 0x1 ADD SWAP1 PUSH2 0x37B JUMP JUMPDEST POP POP POP POP SWAP7 POP SWAP10 POP SWAP10 POP SWAP10 POP SWAP10 POP SWAP10 POP SWAP10 POP SWAP10 POP SWAP10 POP SWAP10 POP POP SWAP2 SWAP4 SWAP6 SWAP8 SWAP10 SWAP1 SWAP3 SWAP5 SWAP7 SWAP9 POP JUMP JUMPDEST PUSH1 0x2 DUP5 MLOAD LT ISZERO PUSH2 0x48E JUMPI PUSH1 0x40 MLOAD PUSH32 0x8C379A000000000000000000000000000000000000000000000000000000000 DUP2 MSTORE PUSH1 0x4 ADD PUSH2 0x485 SWAP1 PUSH2 0x14F3 JUMP JUMPDEST PUSH1 0x40 MLOAD DUP1 SWAP2 SUB SWAP1 REVERT JUMPDEST PUSH0 DUP3 GT PUSH2 0x4D0 JUMPI PUSH1 0x40 MLOAD PUSH32 0x8C379A000000000000000000000000000000000000000000000000000000000 DUP2 MSTORE PUSH1 0x4 ADD PUSH2 0x4C7 SWAP1 PUSH2 0x155B JUMP JUMPDEST PUSH1 0x40 MLOAD DUP1 SWAP2 SUB SWAP1 REVERT JUMPDEST PUSH0 PUSH1 0x2 PUSH0 DUP1 SLOAD DUP2 MSTORE PUSH1 0x20 ADD SWAP1 DUP2 MSTORE PUSH1 0x20 ADD PUSH0 KECCAK256 SWAP1 POP CALLER DUP2 PUSH0 ADD PUSH0 PUSH2 0x100 EXP DUP2 SLOAD DUP2 PUSH20 0xFFFFFFFFFFFFFFFFFFFFFFFFFFFFFFFFFFFFFFFF MUL NOT AND SWAP1 DUP4 PUSH20 0xFFFFFFFFFFFFFFFFFFFFFFFFFFFFFFFFFFFFFFFF AND MUL OR SWAP1 SSTORE POP DUP6 DUP2 PUSH1 0x1 ADD SWAP1 DUP2 PUSH2 0x537 SWAP2 SWAP1 PUSH2 0x1716 JUMP JUMPDEST POP DUP5 DUP2 PUSH1 0x2 ADD SWAP1 DUP1 MLOAD SWAP1 PUSH1 0x20 ADD SWAP1 PUSH2 0x550 SWAP3 SWAP2 SWAP1 PUSH2 0xBB9 JUMP JUMPDEST POP DUP4 DUP2 PUSH1 0x3 ADD DUP2 SWAP1 SSTORE POP DUP2 DUP2 PUSH1 0x4 ADD DUP2 SWAP1 SSTORE POP PUSH3 0x15180 DUP4 PUSH2 0x572 SWAP2 SWAP1 PUSH2 0x1812 JUMP JUMPDEST TIMESTAMP PUSH2 0x57D SWAP2 SWAP1 PUSH2 0x1853 JUMP JUMPDEST DUP2 PUSH1 0x5 ADD DUP2 SWAP1 SSTORE POP PUSH1 0x1 DUP2 PUSH1 0x6 ADD PUSH0 PUSH2 0x100 EXP DUP2 SLOAD DUP2 PUSH1 0xFF MUL NOT AND SWAP1 DUP4 ISZERO ISZERO MUL OR SWAP1 SSTORE POP CALLVALUE DUP2 PUSH1 0x8 ADD DUP2 SWAP1 SSTORE POP PUSH1 0x1 PUSH0 SLOAD SWAP1 DUP1 PUSH1 0x1 DUP2 SLOAD ADD DUP1 DUP3 SSTORE DUP1 SWAP2 POP POP PUSH1 0x1 SWAP1 SUB SWAP1 PUSH0 MSTORE PUSH1 0x20 PUSH0 KECCAK256 ADD PUSH0 SWAP1 SWAP2 SWAP1 SWAP2 SWAP1 SWAP2 POP SSTORE PUSH1 0x3 PUSH0 CALLER PUSH20 0xFFFFFFFFFFFFFFFFFFFFFFFFFFFFFFFFFFFFFFFF AND PUSH20 0xFFFFFFFFFFFFFFFFFFFFFFFFFFFFFFFFFFFFFFFF AND DUP2 MSTORE PUSH1 0x20 ADD SWAP1 DUP2 MSTORE PUSH1 0x20 ADD PUSH0 KECCAK256 DUP2 SWAP1 DUP1 PUSH1 0x1 DUP2 SLOAD ADD DUP1 DUP3 SSTORE DUP1 SWAP2 POP POP PUSH1 0x1 SWAP1 SUB SWAP1 PUSH0 MSTORE PUSH1 0x20 PUSH0 KECCAK256 SWAP1 PUSH1 0x9 MUL ADD PUSH0 SWAP1 SWAP2 SWAP1 SWAP2 SWAP1 SWAP2 POP PUSH0 DUP3 ADD PUSH0 SWAP1 SLOAD SWAP1 PUSH2 0x100 EXP SWAP1 DIV PUSH20 0xFFFFFFFFFFFFFFFFFFFFFFFFFFFFFFFFFFFFFFFF AND DUP2 PUSH0 ADD PUSH0 PUSH2 0x100 EXP DUP2 SLOAD DUP2 PUSH20 0xFFFFFFFFFFFFFFFFFFFFFFFFFFFFFFFFFFFFFFFF MUL NOT AND SWAP1 DUP4 PUSH20 0xFFFFFFFFFFFFFFFFFFFFFFFFFFFFFFFFFFFFFFFF AND MUL OR SWAP1 SSTORE POP PUSH1 0x1 DUP3 ADD DUP2 PUSH1 0x1 ADD SWAP1 DUP2 PUSH2 0x6AC SWAP2 SWAP1 PUSH2 0x189B JUMP JUMPDEST POP PUSH1 0x2 DUP3 ADD DUP2 PUSH1 0x2 ADD SWAP1 DUP1 SLOAD PUSH2 0x6C3 SWAP3 SWAP2 SWAP1 PUSH2 0xC10 JUMP JUMPDEST POP PUSH1 0x3 DUP3 ADD SLOAD DUP2 PUSH1 0x3 ADD SSTORE PUSH1 0x4 DUP3 ADD SLOAD DUP2 PUSH1 0x4 ADD SSTORE PUSH1 0x5 DUP3 ADD SLOAD DUP2 PUSH1 0x5 ADD SSTORE PUSH1 0x6 DUP3 ADD PUSH0 SWAP1 SLOAD SWAP1 PUSH2 0x100 EXP SWAP1 DIV PUSH1 0xFF AND DUP2 PUSH1 0x6 ADD PUSH0 PUSH2 0x100 EXP DUP2 SLOAD DUP2 PUSH1 0xFF MUL NOT AND SWAP1 DUP4 ISZERO ISZERO MUL OR SWAP1 SSTORE POP PUSH1 0x7 DUP3 ADD SLOAD DUP2 PUSH1 0x7 ADD SSTORE PUSH1 0x8 DUP3 ADD SLOAD DUP2 PUSH1 0x8 ADD SSTORE POP POP PUSH32 0x7CF84E937B660A86B8D03903ABF94C2E2976B2273DA8DFBEF2D89B7AC560463E PUSH0 SLOAD CALLER DUP9 PUSH1 0x40 MLOAD PUSH2 0x757 SWAP4 SWAP3 SWAP2 SWAP1 PUSH2 0x1980 JUMP JUMPDEST PUSH1 0x40 MLOAD DUP1 SWAP2 SUB SWAP1 LOG1 PUSH0 DUP1 DUP2 SLOAD DUP1 SWAP3 SWAP2 SWAP1 PUSH2 0x770 SWAP1 PUSH2 0x19BC JUMP JUMPDEST SWAP2 SWAP1 POP SSTORE POP POP POP POP POP POP POP JUMP JUMPDEST PUSH1 0x1 DUP2 DUP2 SLOAD DUP2 LT PUSH2 0x78C JUMPI PUSH0 DUP1 REVERT JUMPDEST SWAP1 PUSH0 MSTORE PUSH1 0x20 PUSH0 KECCAK256 ADD PUSH0 SWAP2 POP SWAP1 POP SLOAD DUP2 JUMP JUMPDEST PUSH1 0x60 PUSH1 0x2 PUSH0 DUP4 DUP2 MSTORE PUSH1 0x20 ADD SWAP1 DUP2 MSTORE PUSH1 0x20 ADD PUSH0 KECCAK256 PUSH1 0x2 ADD DUP1 SLOAD DUP1 PUSH1 0x20 MUL PUSH1 0x20 ADD PUSH1 0x40 MLOAD SWAP1 DUP2 ADD PUSH1 0x40 MSTORE DUP1 SWAP3 SWAP2 SWAP1 DUP2 DUP2 MSTORE PUSH1 0x20 ADD PUSH0 SWAP1 JUMPDEST DUP3 DUP3 LT ISZERO PUSH2 0x87A JUMPI DUP4 DUP3 SWAP1 PUSH0 MSTORE PUSH1 0x20 PUSH0 KECCAK256 ADD DUP1 SLOAD PUSH2 0x7EF SWAP1 PUSH2 0x1479 JUMP JUMPDEST DUP1 PUSH1 0x1F ADD PUSH1 0x20 DUP1 SWAP2 DIV MUL PUSH1 0x20 ADD PUSH1 0x40 MLOAD SWAP1 DUP2 ADD PUSH1 0x40 MSTORE DUP1 SWAP3 SWAP2 SWAP1 DUP2 DUP2 MSTORE PUSH1 0x20 ADD DUP3 DUP1 SLOAD PUSH2 0x81B SWAP1 PUSH2 0x1479 JUMP JUMPDEST DUP1 ISZERO PUSH2 0x866 JUMPI DUP1 PUSH1 0x1F LT PUSH2 0x83D JUMPI PUSH2 0x100 DUP1 DUP4 SLOAD DIV MUL DUP4 MSTORE SWAP2 PUSH1 0x20 ADD SWAP2 PUSH2 0x866 JUMP JUMPDEST DUP3 ADD SWAP2 SWAP1 PUSH0 MSTORE PUSH1 0x20 PUSH0 KECCAK256 SWAP1 JUMPDEST DUP2 SLOAD DUP2 MSTORE SWAP1 PUSH1 0x1 ADD SWAP1 PUSH1 0x20 ADD DUP1 DUP4 GT PUSH2 0x849 JUMPI DUP3 SWAP1 SUB PUSH1 0x1F AND DUP3 ADD SWAP2 JUMPDEST POP POP POP POP POP DUP2 MSTORE PUSH1 0x20 ADD SWAP1 PUSH1 0x1 ADD SWAP1 PUSH2 0x7D2 JUMP JUMPDEST POP POP POP POP SWAP1 POP SWAP2 SWAP1 POP JUMP JUMPDEST PUSH0 PUSH1 0x2 PUSH0 DUP4 DUP2 MSTORE PUSH1 0x20 ADD SWAP1 DUP2 MSTORE PUSH1 0x20 ADD PUSH0 KECCAK256 SWAP1 POP DUP1 PUSH0 ADD PUSH0 SWAP1 SLOAD SWAP1 PUSH2 0x100 EXP SWAP1 DIV PUSH20 0xFFFFFFFFFFFFFFFFFFFFFFFFFFFFFFFFFFFFFFFF AND PUSH20 0xFFFFFFFFFFFFFFFFFFFFFFFFFFFFFFFFFFFFFFFF AND CALLER PUSH20 0xFFFFFFFFFFFFFFFFFFFFFFFFFFFFFFFFFFFFFFFF AND EQ PUSH2 0x929 JUMPI PUSH1 0x40 MLOAD PUSH32 0x8C379A000000000000000000000000000000000000000000000000000000000 DUP2 MSTORE PUSH1 0x4 ADD PUSH2 0x920 SWAP1 PUSH2 0x1A4D JUMP JUMPDEST PUSH1 0x40 MLOAD DUP1 SWAP2 SUB SWAP1 REVERT JUMPDEST DUP1 PUSH1 0x6 ADD PUSH0 SWAP1 SLOAD SWAP1 PUSH2 0x100 EXP SWAP1 DIV PUSH1 0xFF AND PUSH2 0x979 JUMPI PUSH1 0x40 MLOAD PUSH32 0x8C379A000000000000000000000000000000000000000000000000000000000 DUP2 MSTORE PUSH1 0x4 ADD PUSH2 0x970 SWAP1 PUSH2 0x1AB5 JUMP JUMPDEST PUSH1 0x40 MLOAD DUP1 SWAP2 SUB SWAP1 REVERT JUMPDEST DUP1 PUSH1 0x5 ADD SLOAD TIMESTAMP LT ISZERO DUP1 PUSH2 0x994 JUMPI POP DUP1 PUSH1 0x4 ADD SLOAD DUP2 PUSH1 0x7 ADD SLOAD LT ISZERO JUMPDEST PUSH2 0x9D3 JUMPI PUSH1 0x40 MLOAD PUSH32 0x8C379A000000000000000000000000000000000000000000000000000000000 DUP2 MSTORE PUSH1 0x4 ADD PUSH2 0x9CA SWAP1 PUSH2 0x1B1D JUMP JUMPDEST PUSH1 0x40 MLOAD DUP1 SWAP2 SUB SWAP1 REVERT JUMPDEST PUSH0 DUP2 PUSH1 0x6 ADD PUSH0 PUSH2 0x100 EXP DUP2 SLOAD DUP2 PUSH1 0xFF MUL NOT AND SWAP1 DUP4 ISZERO ISZERO MUL OR SWAP1 SSTORE POP PUSH32 0x703C67C157A1AFB7D386CE5212EE88BF0A690BCA998060E9595EBDFD747100CE DUP3 PUSH1 0x40 MLOAD PUSH2 0xA1D SWAP2 SWAP1 PUSH2 0x1284 JUMP JUMPDEST PUSH1 0x40 MLOAD DUP1 SWAP2 SUB SWAP1 LOG1 POP POP JUMP JUMPDEST PUSH1 0x2 PUSH1 0x20 MSTORE DUP1 PUSH0 MSTORE PUSH1 0x40 PUSH0 KECCAK256 PUSH0 SWAP2 POP SWAP1 POP DUP1 PUSH0 ADD PUSH0 SWAP1 SLOAD SWAP1 PUSH2 0x100 EXP SWAP1 DIV PUSH20 0xFFFFFFFFFFFFFFFFFFFFFFFFFFFFFFFFFFFFFFFF AND SWAP1 DUP1 PUSH1 0x1 ADD DUP1 SLOAD PUSH2 0xA6D SWAP1 PUSH2 0x1479 JUMP JUMPDEST DUP1 PUSH1 0x1F ADD PUSH1 0x20 DUP1 SWAP2 DIV MUL PUSH1 0x20 ADD PUSH1 0x40 MLOAD SWAP1 DUP2 ADD PUSH1 0x40 MSTORE DUP1 SWAP3 SWAP2 SWAP1 DUP2 DUP2 MSTORE PUSH1 0x20 ADD DUP3 DUP1 SLOAD PUSH2 0xA99 SWAP1 PUSH2 0x1479 JUMP JUMPDEST DUP1 ISZERO PUSH2 0xAE4 JUMPI DUP1 PUSH1 0x1F LT PUSH2 0xABB JUMPI PUSH2 0x100 DUP1 DUP4 SLOAD DIV MUL DUP4 MSTORE SWAP2 PUSH1 0x20 ADD SWAP2 PUSH2 0xAE4 JUMP JUMPDEST DUP3 ADD SWAP2 SWAP1 PUSH0 MSTORE PUSH1 0x20 PUSH0 KECCAK256 SWAP1 JUMPDEST DUP2 SLOAD DUP2 MSTORE SWAP1 PUSH1 0x1 ADD SWAP1 PUSH1 0x20 ADD DUP1 DUP4 GT PUSH2 0xAC7 JUMPI DUP3 SWAP1 SUB PUSH1 0x1F AND DUP3 ADD SWAP2 JUMPDEST POP POP POP POP POP SWAP1 DUP1 PUSH1 0x3 ADD SLOAD SWAP1 DUP1 PUSH1 0x4 ADD SLOAD SWAP1 DUP1 PUSH1 0x5 ADD SLOAD SWAP1 DUP1 PUSH1 0x6 ADD PUSH0 SWAP1 SLOAD SWAP1 PUSH2 0x100 EXP SWAP1 DIV PUSH1 0xFF AND SWAP1 DUP1 PUSH1 0x7 ADD SLOAD SWAP1 DUP1 PUSH1 0x8 ADD SLOAD SWAP1 POP DUP9 JUMP JUMPDEST PUSH0 DUP1 PUSH0 DUP1 PUSH1 0x2 PUSH0 DUP7 DUP2 MSTORE PUSH1 0x20 ADD SWAP1 DUP2 MSTORE PUSH1 0x20 ADD PUSH0 KECCAK256 SWAP1 POP DUP1 PUSH1 0x6 ADD PUSH0 SWAP1 SLOAD SWAP1 PUSH2 0x100 EXP SWAP1 DIV PUSH1 0xFF AND DUP2 PUSH1 0x5 ADD SLOAD DUP3 PUSH1 0x7 ADD SLOAD SWAP4 POP SWAP4 POP SWAP4 POP POP SWAP2 SWAP4 SWAP1 SWAP3 POP JUMP JUMPDEST PUSH0 SLOAD DUP2 JUMP JUMPDEST PUSH1 0x60 PUSH1 0x1 DUP1 SLOAD DUP1 PUSH1 0x20 MUL PUSH1 0x20 ADD PUSH1 0x40 MLOAD SWAP1 DUP2 ADD PUSH1 0x40 MSTORE DUP1 SWAP3 SWAP2 SWAP1 DUP2 DUP2 MSTORE PUSH1 0x20 ADD DUP3 DUP1 SLOAD DUP1 ISZERO PUSH2 0xBAF JUMPI PUSH1 0x20 MUL DUP3 ADD SWAP2 SWAP1 PUSH0 MSTORE PUSH1 0x20 PUSH0 KECCAK256 SWAP1 JUMPDEST DUP2 SLOAD DUP2 MSTORE PUSH1 0x20 ADD SWAP1 PUSH1 0x1 ADD SWAP1 DUP1 DUP4 GT PUSH2 0xB9B JUMPI JUMPDEST POP POP POP POP POP SWAP1 POP SWAP1 JUMP JUMPDEST DUP3 DUP1 SLOAD DUP3 DUP3 SSTORE SWAP1 PUSH0 MSTORE PUSH1 0x20 PUSH0 KECCAK256 SWAP1 DUP2 ADD SWAP3 DUP3 ISZERO PUSH2 0xBFF JUMPI SWAP2 PUSH1 0x20 MUL DUP3 ADD JUMPDEST DUP3 DUP2 GT ISZERO PUSH2 0xBFE JUMPI DUP3 MLOAD DUP3 SWAP1 DUP2 PUSH2 0xBEE SWAP2 SWAP1 PUSH2 0x1716 JUMP JUMPDEST POP SWAP2 PUSH1 0x20 ADD SWAP2 SWAP1 PUSH1 0x1 ADD SWAP1 PUSH2 0xBD7 JUMP JUMPDEST JUMPDEST POP SWAP1 POP PUSH2 0xC0C SWAP2 SWAP1 PUSH2 0xC69 JUMP JUMPDEST POP SWAP1 JUMP JUMPDEST DUP3 DUP1 SLOAD DUP3 DUP3 SSTORE SWAP1 PUSH0 MSTORE PUSH1 0x20 PUSH0 KECCAK256 SWAP1 DUP2 ADD SWAP3 DUP3 ISZERO PUSH2 0xC58 JUMPI PUSH0 MSTORE PUSH1 0x20 PUSH0 KECCAK256 SWAP2 DUP3 ADD JUMPDEST DUP3 DUP2 GT ISZERO PUSH2 0xC57 JUMPI DUP3 DUP3 SWAP1 DUP2 PUSH2 0xC47 SWAP2 SWAP1 PUSH2 0x189B JUMP JUMPDEST POP SWAP2 PUSH1 0x1 ADD SWAP2 SWAP1 PUSH1 0x1 ADD SWAP1 PUSH2 0xC31 JUMP JUMPDEST JUMPDEST POP SWAP1 POP PUSH2 0xC65 SWAP2 SWAP1 PUSH2 0xC69 JUMP JUMPDEST POP SWAP1 JUMP JUMPDEST JUMPDEST DUP1 DUP3 GT ISZERO PUSH2 0xC88 JUMPI PUSH0 DUP2 DUP2 PUSH2 0xC7F SWAP2 SWAP1 PUSH2 0xC8C JUMP JUMPDEST POP PUSH1 0x1 ADD PUSH2 0xC6A JUMP JUMPDEST POP SWAP1 JUMP JUMPDEST POP DUP1 SLOAD PUSH2 0xC98 SWAP1 PUSH2 0x1479 JUMP JUMPDEST PUSH0 DUP3 SSTORE DUP1 PUSH1 0x1F LT PUSH2 0xCA9 JUMPI POP PUSH2 0xCC6 JUMP JUMPDEST PUSH1 0x1F ADD PUSH1 0x20 SWAP1 DIV SWAP1 PUSH0 MSTORE PUSH1 0x20 PUSH0 KECCAK256 SWAP1 DUP2 ADD SWAP1 PUSH2 0xCC5 SWAP2 SWAP1 PUSH2 0xCC9 JUMP JUMPDEST JUMPDEST POP JUMP JUMPDEST JUMPDEST DUP1 DUP3 GT ISZERO PUSH2 0xCE0 JUMPI PUSH0 DUP2 PUSH0 SWAP1 SSTORE POP PUSH1 0x1 ADD PUSH2 0xCCA JUMP JUMPDEST POP SWAP1 JUMP JUMPDEST PUSH0 PUSH1 0x40 MLOAD SWAP1 POP SWAP1 JUMP JUMPDEST PUSH0 DUP1 REVERT JUMPDEST PUSH0 DUP1 REVERT JUMPDEST PUSH0 DUP2 SWAP1 POP SWAP2 SWAP1 POP JUMP JUMPDEST PUSH2 0xD07 DUP2 PUSH2 0xCF5 JUMP JUMPDEST DUP2 EQ PUSH2 0xD11 JUMPI PUSH0 DUP1 REVERT JUMPDEST POP JUMP JUMPDEST PUSH0 DUP2 CALLDATALOAD SWAP1 POP PUSH2 0xD22 DUP2 PUSH2 0xCFE JUMP JUMPDEST SWAP3 SWAP2 POP POP JUMP JUMPDEST PUSH0 PUSH1 0x20 DUP3 DUP5 SUB SLT ISZERO PUSH2 0xD3D JUMPI PUSH2 0xD3C PUSH2 0xCED JUMP JUMPDEST JUMPDEST PUSH0 PUSH2 0xD4A DUP5 DUP3 DUP6 ADD PUSH2 0xD14 JUMP JUMPDEST SWAP2 POP POP SWAP3 SWAP2 POP POP JUMP JUMPDEST PUSH0 PUSH20 0xFFFFFFFFFFFFFFFFFFFFFFFFFFFFFFFFFFFFFFFF DUP3 AND SWAP1 POP SWAP2 SWAP1 POP JUMP JUMPDEST PUSH0 PUSH2 0xD7C DUP3 PUSH2 0xD53 JUMP JUMPDEST SWAP1 POP SWAP2 SWAP1 POP JUMP JUMPDEST PUSH2 0xD8C DUP2 PUSH2 0xD72 JUMP JUMPDEST DUP3 MSTORE POP POP JUMP JUMPDEST PUSH0 DUP2 MLOAD SWAP1 POP SWAP2 SWAP1 POP JUMP JUMPDEST PUSH0 DUP3 DUP3 MSTORE PUSH1 0x20 DUP3 ADD SWAP1 POP SWAP3 SWAP2 POP POP JUMP JUMPDEST DUP3 DUP2 DUP4 MCOPY PUSH0 DUP4 DUP4 ADD MSTORE POP POP POP JUMP JUMPDEST PUSH0 PUSH1 0x1F NOT PUSH1 0x1F DUP4 ADD AND SWAP1 POP SWAP2 SWAP1 POP JUMP JUMPDEST PUSH0 PUSH2 0xDD4 DUP3 PUSH2 0xD92 JUMP JUMPDEST PUSH2 0xDDE DUP2 DUP6 PUSH2 0xD9C JUMP JUMPDEST SWAP4 POP PUSH2 0xDEE DUP2 DUP6 PUSH1 0x20 DUP7 ADD PUSH2 0xDAC JUMP JUMPDEST PUSH2 0xDF7 DUP2 PUSH2 0xDBA JUMP JUMPDEST DUP5 ADD SWAP2 POP POP SWAP3 SWAP2 POP POP JUMP JUMPDEST PUSH0 DUP2 MLOAD SWAP1 POP SWAP2 SWAP1 POP JUMP JUMPDEST PUSH0 DUP3 DUP3 MSTORE PUSH1 0x20 DUP3 ADD SWAP1 POP SWAP3 SWAP2 POP POP JUMP JUMPDEST PUSH0 DUP2 SWAP1 POP PUSH1 0x20 DUP3 ADD SWAP1 POP SWAP2 SWAP1 POP JUMP JUMPDEST PUSH0 DUP3 DUP3 MSTORE PUSH1 0x20 DUP3 ADD SWAP1 POP SWAP3 SWAP2 POP POP JUMP JUMPDEST PUSH0 PUSH2 0xE45 DUP3 PUSH2 0xD92 JUMP JUMPDEST PUSH2 0xE4F DUP2 DUP6 PUSH2 0xE2B JUMP JUMPDEST SWAP4 POP PUSH2 0xE5F DUP2 DUP6 PUSH1 0x20 DUP7 ADD PUSH2 0xDAC JUMP JUMPDEST PUSH2 0xE68 DUP2 PUSH2 0xDBA JUMP JUMPDEST DUP5 ADD SWAP2 POP POP SWAP3 SWAP2 POP POP JUMP JUMPDEST PUSH0 PUSH2 0xE7E DUP4 DUP4 PUSH2 0xE3B JUMP JUMPDEST SWAP1 POP SWAP3 SWAP2 POP POP JUMP JUMPDEST PUSH0 PUSH1 0x20 DUP3 ADD SWAP1 POP SWAP2 SWAP1 POP JUMP JUMPDEST PUSH0 PUSH2 0xE9C DUP3 PUSH2 0xE02 JUMP JUMPDEST PUSH2 0xEA6 DUP2 DUP6 PUSH2 0xE0C JUMP JUMPDEST SWAP4 POP DUP4 PUSH1 0x20 DUP3 MUL DUP6 ADD PUSH2 0xEB8 DUP6 PUSH2 0xE1C JUMP JUMPDEST DUP1 PUSH0 JUMPDEST DUP6 DUP2 LT ISZERO PUSH2 0xEF3 JUMPI DUP5 DUP5 SUB DUP10 MSTORE DUP2 MLOAD PUSH2 0xED4 DUP6 DUP3 PUSH2 0xE73 JUMP JUMPDEST SWAP5 POP PUSH2 0xEDF DUP4 PUSH2 0xE86 JUMP JUMPDEST SWAP3 POP PUSH1 0x20 DUP11 ADD SWAP10 POP POP PUSH1 0x1 DUP2 ADD SWAP1 POP PUSH2 0xEBB JUMP JUMPDEST POP DUP3 SWAP8 POP DUP8 SWAP6 POP POP POP POP POP POP SWAP3 SWAP2 POP POP JUMP JUMPDEST PUSH2 0xF0E DUP2 PUSH2 0xCF5 JUMP JUMPDEST DUP3 MSTORE POP POP JUMP JUMPDEST PUSH0 DUP2 ISZERO ISZERO SWAP1 POP SWAP2 SWAP1 POP JUMP JUMPDEST PUSH2 0xF28 DUP2 PUSH2 0xF14 JUMP JUMPDEST DUP3 MSTORE POP POP JUMP JUMPDEST PUSH0 PUSH2 0x120 DUP3 ADD SWAP1 POP PUSH2 0xF42 PUSH0 DUP4 ADD DUP13 PUSH2 0xD83 JUMP JUMPDEST DUP2 DUP2 SUB PUSH1 0x20 DUP4 ADD MSTORE PUSH2 0xF54 DUP2 DUP12 PUSH2 0xDCA JUMP JUMPDEST SWAP1 POP DUP2 DUP2 SUB PUSH1 0x40 DUP4 ADD MSTORE PUSH2 0xF68 DUP2 DUP11 PUSH2 0xE92 JUMP JUMPDEST SWAP1 POP PUSH2 0xF77 PUSH1 0x60 DUP4 ADD DUP10 PUSH2 0xF05 JUMP JUMPDEST PUSH2 0xF84 PUSH1 0x80 DUP4 ADD DUP9 PUSH2 0xF05 JUMP JUMPDEST PUSH2 0xF91 PUSH1 0xA0 DUP4 ADD DUP8 PUSH2 0xF05 JUMP JUMPDEST PUSH2 0xF9E PUSH1 0xC0 DUP4 ADD DUP7 PUSH2 0xF1F JUMP JUMPDEST PUSH2 0xFAB PUSH1 0xE0 DUP4 ADD DUP6 PUSH2 0xF05 JUMP JUMPDEST PUSH2 0xFB9 PUSH2 0x100 DUP4 ADD DUP5 PUSH2 0xF05 JUMP JUMPDEST SWAP11 SWAP10 POP POP POP POP POP POP POP POP POP POP JUMP JUMPDEST PUSH0 DUP1 REVERT JUMPDEST PUSH0 DUP1 REVERT JUMPDEST PUSH32 0x4E487B7100000000000000000000000000000000000000000000000000000000 PUSH0 MSTORE PUSH1 0x41 PUSH1 0x4 MSTORE PUSH1 0x24 PUSH0 REVERT JUMPDEST PUSH2 0x1005 DUP3 PUSH2 0xDBA JUMP JUMPDEST DUP2 ADD DUP2 DUP2 LT PUSH8 0xFFFFFFFFFFFFFFFF DUP3 GT OR ISZERO PUSH2 0x1024 JUMPI PUSH2 0x1023 PUSH2 0xFCF JUMP JUMPDEST JUMPDEST DUP1 PUSH1 0x40 MSTORE POP POP POP JUMP JUMPDEST PUSH0 PUSH2 0x1036 PUSH2 0xCE4 JUMP JUMPDEST SWAP1 POP PUSH2 0x1042 DUP3 DUP3 PUSH2 0xFFC JUMP JUMPDEST SWAP2 SWAP1 POP JUMP JUMPDEST PUSH0 PUSH8 0xFFFFFFFFFFFFFFFF DUP3 GT ISZERO PUSH2 0x1061 JUMPI PUSH2 0x1060 PUSH2 0xFCF JUMP JUMPDEST JUMPDEST PUSH2 0x106A DUP3 PUSH2 0xDBA JUMP JUMPDEST SWAP1 POP PUSH1 0x20 DUP2 ADD SWAP1 POP SWAP2 SWAP1 POP JUMP JUMPDEST DUP3 DUP2 DUP4 CALLDATACOPY PUSH0 DUP4 DUP4 ADD MSTORE POP POP POP JUMP JUMPDEST PUSH0 PUSH2 0x1097 PUSH2 0x1092 DUP5 PUSH2 0x1047 JUMP JUMPDEST PUSH2 0x102D JUMP JUMPDEST SWAP1 POP DUP3 DUP2 MSTORE PUSH1 0x20 DUP2 ADD DUP5 DUP5 DUP5 ADD GT ISZERO PUSH2 0x10B3 JUMPI PUSH2 0x10B2 PUSH2 0xFCB JUMP JUMPDEST JUMPDEST PUSH2 0x10BE DUP5 DUP3 DUP6 PUSH2 0x1077 JUMP JUMPDEST POP SWAP4 SWAP3 POP POP POP JUMP JUMPDEST PUSH0 DUP3 PUSH1 0x1F DUP4 ADD SLT PUSH2 0x10DA JUMPI PUSH2 0x10D9 PUSH2 0xFC7 JUMP JUMPDEST JUMPDEST DUP2 CALLDATALOAD PUSH2 0x10EA DUP5 DUP3 PUSH1 0x20 DUP7 ADD PUSH2 0x1085 JUMP JUMPDEST SWAP2 POP POP SWAP3 SWAP2 POP POP JUMP JUMPDEST PUSH0 PUSH8 0xFFFFFFFFFFFFFFFF DUP3 GT ISZERO PUSH2 0x110D JUMPI PUSH2 0x110C PUSH2 0xFCF JUMP JUMPDEST JUMPDEST PUSH1 0x20 DUP3 MUL SWAP1 POP PUSH1 0x20 DUP2 ADD SWAP1 POP SWAP2 SWAP1 POP JUMP JUMPDEST PUSH0 DUP1 REVERT JUMPDEST PUSH0 PUSH2 0x1134 PUSH2 0x112F DUP5 PUSH2 0x10F3 JUMP JUMPDEST PUSH2 0x102D JUMP JUMPDEST SWAP1 POP DUP1 DUP4 DUP3 MSTORE PUSH1 0x20 DUP3 ADD SWAP1 POP PUSH1 0x20 DUP5 MUL DUP4 ADD DUP6 DUP2 GT ISZERO PUSH2 0x1157 JUMPI PUSH2 0x1156 PUSH2 0x111E JUMP JUMPDEST JUMPDEST DUP4 JUMPDEST DUP2 DUP2 LT ISZERO PUSH2 0x119E JUMPI DUP1 CALLDATALOAD PUSH8 0xFFFFFFFFFFFFFFFF DUP2 GT ISZERO PUSH2 0x117C JUMPI PUSH2 0x117B PUSH2 0xFC7 JUMP JUMPDEST JUMPDEST DUP1 DUP7 ADD PUSH2 0x1189 DUP10 DUP3 PUSH2 0x10C6 JUMP JUMPDEST DUP6 MSTORE PUSH1 0x20 DUP6 ADD SWAP5 POP POP POP PUSH1 0x20 DUP2 ADD SWAP1 POP PUSH2 0x1159 JUMP JUMPDEST POP POP POP SWAP4 SWAP3 POP POP POP JUMP JUMPDEST PUSH0 DUP3 PUSH1 0x1F DUP4 ADD SLT PUSH2 0x11BC JUMPI PUSH2 0x11BB PUSH2 0xFC7 JUMP JUMPDEST JUMPDEST DUP2 CALLDATALOAD PUSH2 0x11CC DUP5 DUP3 PUSH1 0x20 DUP7 ADD PUSH2 0x1122 JUMP JUMPDEST SWAP2 POP POP SWAP3 SWAP2 POP POP JUMP JUMPDEST PUSH0 DUP1 PUSH0 DUP1 PUSH0 PUSH1 0xA0 DUP7 DUP9 SUB SLT ISZERO PUSH2 0x11EE JUMPI PUSH2 0x11ED PUSH2 0xCED JUMP JUMPDEST JUMPDEST PUSH0 DUP7 ADD CALLDATALOAD PUSH8 0xFFFFFFFFFFFFFFFF DUP2 GT ISZERO PUSH2 0x120B JUMPI PUSH2 0x120A PUSH2 0xCF1 JUMP JUMPDEST JUMPDEST PUSH2 0x1217 DUP9 DUP3 DUP10 ADD PUSH2 0x10C6 JUMP JUMPDEST SWAP6 POP POP PUSH1 0x20 DUP7 ADD CALLDATALOAD PUSH8 0xFFFFFFFFFFFFFFFF DUP2 GT ISZERO PUSH2 0x1238 JUMPI PUSH2 0x1237 PUSH2 0xCF1 JUMP JUMPDEST JUMPDEST PUSH2 0x1244 DUP9 DUP3 DUP10 ADD PUSH2 0x11A8 JUMP JUMPDEST SWAP5 POP POP PUSH1 0x40 PUSH2 0x1255 DUP9 DUP3 DUP10 ADD PUSH2 0xD14 JUMP JUMPDEST SWAP4 POP POP PUSH1 0x60 PUSH2 0x1266 DUP9 DUP3 DUP10 ADD PUSH2 0xD14 JUMP JUMPDEST SWAP3 POP POP PUSH1 0x80 PUSH2 0x1277 DUP9 DUP3 DUP10 ADD PUSH2 0xD14 JUMP JUMPDEST SWAP2 POP POP SWAP3 SWAP6 POP SWAP3 SWAP6 SWAP1 SWAP4 POP JUMP JUMPDEST PUSH0 PUSH1 0x20 DUP3 ADD SWAP1 POP PUSH2 0x1297 PUSH0 DUP4 ADD DUP5 PUSH2 0xF05 JUMP JUMPDEST SWAP3 SWAP2 POP POP JUMP JUMPDEST PUSH0 PUSH1 0x20 DUP3 ADD SWAP1 POP DUP2 DUP2 SUB PUSH0 DUP4 ADD MSTORE PUSH2 0x12B5 DUP2 DUP5 PUSH2 0xE92 JUMP JUMPDEST SWAP1 POP SWAP3 SWAP2 POP POP JUMP JUMPDEST PUSH0 PUSH2 0x100 DUP3 ADD SWAP1 POP PUSH2 0x12D1 PUSH0 DUP4 ADD DUP12 PUSH2 0xD83 JUMP JUMPDEST DUP2 DUP2 SUB PUSH1 0x20 DUP4 ADD MSTORE PUSH2 0x12E3 DUP2 DUP11 PUSH2 0xDCA JUMP JUMPDEST SWAP1 POP PUSH2 0x12F2 PUSH1 0x40 DUP4 ADD DUP10 PUSH2 0xF05 JUMP JUMPDEST PUSH2 0x12FF PUSH1 0x60 DUP4 ADD DUP9 PUSH2 0xF05 JUMP JUMPDEST PUSH2 0x130C PUSH1 0x80 DUP4 ADD DUP8 PUSH2 0xF05 JUMP JUMPDEST PUSH2 0x1319 PUSH1 0xA0 DUP4 ADD DUP7 PUSH2 0xF1F JUMP JUMPDEST PUSH2 0x1326 PUSH1 0xC0 DUP4 ADD DUP6 PUSH2 0xF05 JUMP JUMPDEST PUSH2 0x1333 PUSH1 0xE0 DUP4 ADD DUP5 PUSH2 0xF05 JUMP JUMPDEST SWAP10 SWAP9 POP POP POP POP POP POP POP POP POP JUMP JUMPDEST PUSH0 PUSH1 0x60 DUP3 ADD SWAP1 POP PUSH2 0x1353 PUSH0 DUP4 ADD DUP7 PUSH2 0xF1F JUMP JUMPDEST PUSH2 0x1360 PUSH1 0x20 DUP4 ADD DUP6 PUSH2 0xF05 JUMP JUMPDEST PUSH2 0x136D PUSH1 0x40 DUP4 ADD DUP5 PUSH2 0xF05 JUMP JUMPDEST SWAP5 SWAP4 POP POP POP POP JUMP JUMPDEST PUSH0 DUP2 MLOAD SWAP1 POP SWAP2 SWAP1 POP JUMP JUMPDEST PUSH0 DUP3 DUP3 MSTORE PUSH1 0x20 DUP3 ADD SWAP1 POP SWAP3 SWAP2 POP POP JUMP JUMPDEST PUSH0 DUP2 SWAP1 POP PUSH1 0x20 DUP3 ADD SWAP1 POP SWAP2 SWAP1 POP JUMP JUMPDEST PUSH2 0x13A7 DUP2 PUSH2 0xCF5 JUMP JUMPDEST DUP3 MSTORE POP POP JUMP JUMPDEST PUSH0 PUSH2 0x13B8 DUP4 DUP4 PUSH2 0x139E JUMP JUMPDEST PUSH1 0x20 DUP4 ADD SWAP1 POP SWAP3 SWAP2 POP POP JUMP JUMPDEST PUSH0 PUSH1 0x20 DUP3 ADD SWAP1 POP SWAP2 SWAP1 POP JUMP JUMPDEST PUSH0 PUSH2 0x13DA DUP3 PUSH2 0x1375 JUMP JUMPDEST PUSH2 0x13E4 DUP2 DUP6 PUSH2 0x137F JUMP JUMPDEST SWAP4 POP PUSH2 0x13EF DUP4 PUSH2 0x138F JUMP JUMPDEST DUP1 PUSH0 JUMPDEST DUP4 DUP2 LT ISZERO PUSH2 0x141F JUMPI DUP2 MLOAD PUSH2 0x1406 DUP9 DUP3 PUSH2 0x13AD JUMP JUMPDEST SWAP8 POP PUSH2 0x1411 DUP4 PUSH2 0x13C4 JUMP JUMPDEST SWAP3 POP POP PUSH1 0x1 DUP2 ADD SWAP1 POP PUSH2 0x13F2 JUMP JUMPDEST POP DUP6 SWAP4 POP POP POP POP SWAP3 SWAP2 POP POP JUMP JUMPDEST PUSH0 PUSH1 0x20 DUP3 ADD SWAP1 POP DUP2 DUP2 SUB PUSH0 DUP4 ADD MSTORE PUSH2 0x1444 DUP2 DUP5 PUSH2 0x13D0 JUMP JUMPDEST SWAP1 POP SWAP3 SWAP2 POP POP JUMP JUMPDEST PUSH32 0x4E487B7100000000000000000000000000000000000000000000000000000000 PUSH0 MSTORE PUSH1 0x22 PUSH1 0x4 MSTORE PUSH1 0x24 PUSH0 REVERT JUMPDEST PUSH0 PUSH1 0x2 DUP3 DIV SWAP1 POP PUSH1 0x1 DUP3 AND DUP1 PUSH2 0x1490 JUMPI PUSH1 0x7F DUP3 AND SWAP2 POP JUMPDEST PUSH1 0x20 DUP3 LT DUP2 SUB PUSH2 0x14A3 JUMPI PUSH2 0x14A2 PUSH2 0x144C JUMP JUMPDEST JUMPDEST POP SWAP2 SWAP1 POP JUMP JUMPDEST PUSH32 0x4E656564206174206C656173742032206F7074696F6E73000000000000000000 PUSH0 DUP3 ADD MSTORE POP JUMP JUMPDEST PUSH0 PUSH2 0x14DD PUSH1 0x17 DUP4 PUSH2 0xD9C JUMP JUMPDEST SWAP2 POP PUSH2 0x14E8 DUP3 PUSH2 0x14A9 JUMP JUMPDEST PUSH1 0x20 DUP3 ADD SWAP1 POP SWAP2 SWAP1 POP JUMP JUMPDEST PUSH0 PUSH1 0x20 DUP3 ADD SWAP1 POP DUP2 DUP2 SUB PUSH0 DUP4 ADD MSTORE PUSH2 0x150A DUP2 PUSH2 0x14D1 JUMP JUMPDEST SWAP1 POP SWAP2 SWAP1 POP JUMP JUMPDEST PUSH32 0x496E76616C6964206475726174696F6E00000000000000000000000000000000 PUSH0 DUP3 ADD MSTORE POP JUMP JUMPDEST PUSH0 PUSH2 0x1545 PUSH1 0x10 DUP4 PUSH2 0xD9C JUMP JUMPDEST SWAP2 POP PUSH2 0x1550 DUP3 PUSH2 0x1511 JUMP JUMPDEST PUSH1 0x20 DUP3 ADD SWAP1 POP SWAP2 SWAP1 POP JUMP JUMPDEST PUSH0 PUSH1 0x20 DUP3 ADD SWAP1 POP DUP2 DUP2 SUB PUSH0 DUP4 ADD MSTORE PUSH2 0x1572 DUP2 PUSH2 0x1539 JUMP JUMPDEST SWAP1 POP SWAP2 SWAP1 POP JUMP JUMPDEST PUSH0 DUP2 SWAP1 POP DUP2 PUSH0 MSTORE PUSH1 0x20 PUSH0 KECCAK256 SWAP1 POP SWAP2 SWAP1 POP JUMP JUMPDEST PUSH0 PUSH1 0x20 PUSH1 0x1F DUP4 ADD DIV SWAP1 POP SWAP2 SWAP1 POP JUMP JUMPDEST PUSH0 DUP3 DUP3 SHL SWAP1 POP SWAP3 SWAP2 POP POP JUMP JUMPDEST PUSH0 PUSH1 0x8 DUP4 MUL PUSH2 0x15D5 PUSH32 0xFFFFFFFFFFFFFFFFFFFFFFFFFFFFFFFFFFFFFFFFFFFFFFFFFFFFFFFFFFFFFFFF DUP3 PUSH2 0x159A JUMP JUMPDEST PUSH2 0x15DF DUP7 DUP4 PUSH2 0x159A JUMP JUMPDEST SWAP6 POP DUP1 NOT DUP5 AND SWAP4 POP DUP1 DUP7 AND DUP5 OR SWAP3 POP POP POP SWAP4 SWAP3 POP POP POP JUMP JUMPDEST PUSH0 DUP2 SWAP1 POP SWAP2 SWAP1 POP JUMP JUMPDEST PUSH0 PUSH2 0x161A PUSH2 0x1615 PUSH2 0x1610 DUP5 PUSH2 0xCF5 JUMP JUMPDEST PUSH2 0x15F7 JUMP JUMPDEST PUSH2 0xCF5 JUMP JUMPDEST SWAP1 POP SWAP2 SWAP1 POP JUMP JUMPDEST PUSH0 DUP2 SWAP1 POP SWAP2 SWAP1 POP JUMP JUMPDEST PUSH2 0x1633 DUP4 PUSH2 0x1600 JUMP JUMPDEST PUSH2 0x1647 PUSH2 0x163F DUP3 PUSH2 0x1621 JUMP JUMPDEST DUP5 DUP5 SLOAD PUSH2 0x15A6 JUMP JUMPDEST DUP3 SSTORE POP POP POP POP JUMP JUMPDEST PUSH0 SWAP1 JUMP JUMPDEST PUSH2 0x165B PUSH2 0x164F JUMP JUMPDEST PUSH2 0x1666 DUP2 DUP5 DUP5 PUSH2 0x162A JUMP JUMPDEST POP POP POP JUMP JUMPDEST JUMPDEST DUP2 DUP2 LT ISZERO PUSH2 0x1689 JUMPI PUSH2 0x167E PUSH0 DUP3 PUSH2 0x1653 JUMP JUMPDEST PUSH1 0x1 DUP2 ADD SWAP1 POP PUSH2 0x166C JUMP JUMPDEST POP POP JUMP JUMPDEST PUSH1 0x1F DUP3 GT ISZERO PUSH2 0x16CE JUMPI PUSH2 0x169F DUP2 PUSH2 0x1579 JUMP JUMPDEST PUSH2 0x16A8 DUP5 PUSH2 0x158B JUMP JUMPDEST DUP2 ADD PUSH1 0x20 DUP6 LT ISZERO PUSH2 0x16B7 JUMPI DUP2 SWAP1 POP JUMPDEST PUSH2 0x16CB PUSH2 0x16C3 DUP6 PUSH2 0x158B JUMP JUMPDEST DUP4 ADD DUP3 PUSH2 0x166B JUMP JUMPDEST POP POP JUMPDEST POP POP POP JUMP JUMPDEST PUSH0 DUP3 DUP3 SHR SWAP1 POP SWAP3 SWAP2 POP POP JUMP JUMPDEST PUSH0 PUSH2 0x16EE PUSH0 NOT DUP5 PUSH1 0x8 MUL PUSH2 0x16D3 JUMP JUMPDEST NOT DUP1 DUP4 AND SWAP2 POP POP SWAP3 SWAP2 POP POP JUMP JUMPDEST PUSH0 PUSH2 0x1706 DUP4 DUP4 PUSH2 0x16DF JUMP JUMPDEST SWAP2 POP DUP3 PUSH1 0x2 MUL DUP3 OR SWAP1 POP SWAP3 SWAP2 POP POP JUMP JUMPDEST PUSH2 0x171F DUP3 PUSH2 0xD92 JUMP JUMPDEST PUSH8 0xFFFFFFFFFFFFFFFF DUP2 GT ISZERO PUSH2 0x1738 JUMPI PUSH2 0x1737 PUSH2 0xFCF JUMP JUMPDEST JUMPDEST PUSH2 0x1742 DUP3 SLOAD PUSH2 0x1479 JUMP JUMPDEST PUSH2 0x174D DUP3 DUP3 DUP6 PUSH2 0x168D JUMP JUMPDEST PUSH0 PUSH1 0x20 SWAP1 POP PUSH1 0x1F DUP4 GT PUSH1 0x1 DUP2 EQ PUSH2 0x177E JUMPI PUSH0 DUP5 ISZERO PUSH2 0x176C JUMPI DUP3 DUP8 ADD MLOAD SWAP1 POP JUMPDEST PUSH2 0x1776 DUP6 DUP3 PUSH2 0x16FB JUMP JUMPDEST DUP7 SSTORE POP PUSH2 0x17DD JUMP JUMPDEST PUSH1 0x1F NOT DUP5 AND PUSH2 0x178C DUP7 PUSH2 0x1579 JUMP JUMPDEST PUSH0 JUMPDEST DUP3 DUP2 LT ISZERO PUSH2 0x17B3 JUMPI DUP5 DUP10 ADD MLOAD DUP3 SSTORE PUSH1 0x1 DUP3 ADD SWAP2 POP PUSH1 0x20 DUP6 ADD SWAP5 POP PUSH1 0x20 DUP2 ADD SWAP1 POP PUSH2 0x178E JUMP JUMPDEST DUP7 DUP4 LT ISZERO PUSH2 0x17D0 JUMPI DUP5 DUP10 ADD MLOAD PUSH2 0x17CC PUSH1 0x1F DUP10 AND DUP3 PUSH2 0x16DF JUMP JUMPDEST DUP4 SSTORE POP JUMPDEST PUSH1 0x1 PUSH1 0x2 DUP9 MUL ADD DUP9 SSTORE POP POP POP JUMPDEST POP POP POP POP POP POP JUMP JUMPDEST PUSH32 0x4E487B7100000000000000000000000000000000000000000000000000000000 PUSH0 MSTORE PUSH1 0x11 PUSH1 0x4 MSTORE PUSH1 0x24 PUSH0 REVERT JUMPDEST PUSH0 PUSH2 0x181C DUP3 PUSH2 0xCF5 JUMP JUMPDEST SWAP2 POP PUSH2 0x1827 DUP4 PUSH2 0xCF5 JUMP JUMPDEST SWAP3 POP DUP3 DUP3 MUL PUSH2 0x1835 DUP2 PUSH2 0xCF5 JUMP JUMPDEST SWAP2 POP DUP3 DUP3 DIV DUP5 EQ DUP4 ISZERO OR PUSH2 0x184C JUMPI PUSH2 0x184B PUSH2 0x17E5 JUMP JUMPDEST JUMPDEST POP SWAP3 SWAP2 POP POP JUMP JUMPDEST PUSH0 PUSH2 0x185D DUP3 PUSH2 0xCF5 JUMP JUMPDEST SWAP2 POP PUSH2 0x1868 DUP4 PUSH2 0xCF5 JUMP JUMPDEST SWAP3 POP DUP3 DUP3 ADD SWAP1 POP DUP1 DUP3 GT ISZERO PUSH2 0x1880 JUMPI PUSH2 0x187F PUSH2 0x17E5 JUMP JUMPDEST JUMPDEST SWAP3 SWAP2 POP POP JUMP JUMPDEST PUSH0 DUP2 SLOAD SWAP1 POP PUSH2 0x1894 DUP2 PUSH2 0x1479 JUMP JUMPDEST SWAP1 POP SWAP2 SWAP1 POP JUMP JUMPDEST DUP2 DUP2 SUB PUSH2 0x18A9 JUMPI POP POP PUSH2 0x197E JUMP JUMPDEST PUSH2 0x18B2 DUP3 PUSH2 0x1886 JUMP JUMPDEST PUSH8 0xFFFFFFFFFFFFFFFF DUP2 GT ISZERO PUSH2 0x18CB JUMPI PUSH2 0x18CA PUSH2 0xFCF JUMP JUMPDEST JUMPDEST PUSH2 0x18D5 DUP3 SLOAD PUSH2 0x1479 JUMP JUMPDEST PUSH2 0x18E0 DUP3 DUP3 DUP6 PUSH2 0x168D JUMP JUMPDEST PUSH0 PUSH1 0x1F DUP4 GT PUSH1 0x1 DUP2 EQ PUSH2 0x190D JUMPI PUSH0 DUP5 ISZERO PUSH2 0x18FB JUMPI DUP3 DUP8 ADD SLOAD SWAP1 POP JUMPDEST PUSH2 0x1905 DUP6 DUP3 PUSH2 0x16FB JUMP JUMPDEST DUP7 SSTORE POP PUSH2 0x1977 JUMP JUMPDEST PUSH1 0x1F NOT DUP5 AND PUSH2 0x191B DUP8 PUSH2 0x1579 JUMP JUMPDEST SWAP7 POP PUSH2 0x1926 DUP7 PUSH2 0x1579 JUMP JUMPDEST PUSH0 JUMPDEST DUP3 DUP2 LT ISZERO PUSH2 0x194D JUMPI DUP5 DUP10 ADD SLOAD DUP3 SSTORE PUSH1 0x1 DUP3 ADD SWAP2 POP PUSH1 0x1 DUP6 ADD SWAP5 POP PUSH1 0x20 DUP2 ADD SWAP1 POP PUSH2 0x1928 JUMP JUMPDEST DUP7 DUP4 LT ISZERO PUSH2 0x196A JUMPI DUP5 DUP10 ADD SLOAD PUSH2 0x1966 PUSH1 0x1F DUP10 AND DUP3 PUSH2 0x16DF JUMP JUMPDEST DUP4 SSTORE POP JUMPDEST PUSH1 0x1 PUSH1 0x2 DUP9 MUL ADD DUP9 SSTORE POP POP POP JUMPDEST POP POP POP POP POP POP JUMPDEST JUMP JUMPDEST PUSH0 PUSH1 0x60 DUP3 ADD SWAP1 POP PUSH2 0x1993 PUSH0 DUP4 ADD DUP7 PUSH2 0xF05 JUMP JUMPDEST PUSH2 0x19A0 PUSH1 0x20 DUP4 ADD DUP6 PUSH2 0xD83 JUMP JUMPDEST DUP2 DUP2 SUB PUSH1 0x40 DUP4 ADD MSTORE PUSH2 0x19B2 DUP2 DUP5 PUSH2 0xDCA JUMP JUMPDEST SWAP1 POP SWAP5 SWAP4 POP POP POP POP JUMP JUMPDEST PUSH0 PUSH2 0x19C6 DUP3 PUSH2 0xCF5 JUMP JUMPDEST SWAP2 POP PUSH32 0xFFFFFFFFFFFFFFFFFFFFFFFFFFFFFFFFFFFFFFFFFFFFFFFFFFFFFFFFFFFFFFFF DUP3 SUB PUSH2 0x19F8 JUMPI PUSH2 0x19F7 PUSH2 0x17E5 JUMP JUMPDEST JUMPDEST PUSH1 0x1 DUP3 ADD SWAP1 POP SWAP2 SWAP1 POP JUMP JUMPDEST PUSH32 0x4E6F742063726561746F72000000000000000000000000000000000000000000 PUSH0 DUP3 ADD MSTORE POP JUMP JUMPDEST PUSH0 PUSH2 0x1A37 PUSH1 0xB DUP4 PUSH2 0xD9C JUMP JUMPDEST SWAP2 POP PUSH2 0x1A42 DUP3 PUSH2 0x1A03 JUMP JUMPDEST PUSH1 0x20 DUP3 ADD SWAP1 POP SWAP2 SWAP1 POP JUMP JUMPDEST PUSH0 PUSH1 0x20 DUP3 ADD SWAP1 POP DUP2 DUP2 SUB PUSH0 DUP4 ADD MSTORE PUSH2 0x1A64 DUP2 PUSH2 0x1A2B JUMP JUMPDEST SWAP1 POP SWAP2 SWAP1 POP JUMP JUMPDEST PUSH32 0x416C726561647920636C6F736564000000000000000000000000000000000000 PUSH0 DUP3 ADD MSTORE POP JUMP JUMPDEST PUSH0 PUSH2 0x1A9F PUSH1 0xE DUP4 PUSH2 0xD9C JUMP JUMPDEST SWAP2 POP PUSH2 0x1AAA DUP3 PUSH2 0x1A6B JUMP JUMPDEST PUSH1 0x20 DUP3 ADD SWAP1 POP SWAP2 SWAP1 POP JUMP JUMPDEST PUSH0 PUSH1 0x20 DUP3 ADD SWAP1 POP DUP2 DUP2 SUB PUSH0 DUP4 ADD MSTORE PUSH2 0x1ACC DUP2 PUSH2 0x1A93 JUMP JUMPDEST SWAP1 POP SWAP2 SWAP1 POP JUMP JUMPDEST PUSH32 0x546F6F206561726C790000000000000000000000000000000000000000000000 PUSH0 DUP3 ADD MSTORE POP JUMP JUMPDEST PUSH0 PUSH2 0x1B07 PUSH1 0x9 DUP4 PUSH2 0xD9C JUMP JUMPDEST SWAP2 POP PUSH2 0x1B12 DUP3 PUSH2 0x1AD3 JUMP JUMPDEST PUSH1 0x20 DUP3 ADD SWAP1 POP SWAP2 SWAP1 POP JUMP JUMPDEST PUSH0 PUSH1 0x20 DUP3 ADD SWAP1 POP DUP2 DUP2 SUB PUSH0 DUP4 ADD MSTORE PUSH2 0x1B34 DUP2 PUSH2 0x1AFB JUMP JUMPDEST SWAP1 POP SWAP2 SWAP1 POP JUMP INVALID LOG2 PUSH5 0x6970667358 0x22 SLT KECCAK256 DUP7 SWAP10 ISZERO PUSH29 0x9BA57A58CF39EAB349E718C3C67A81E7B99F02F1331F1DCFF7446B9464 PUSH20 0x6F6C634300081A00330000000000000000000000 "
	},
	"Assembly": ".code\n  PUSH 80\t\t\tcontract PollsDApp {\\n    stru...\n  PUSH 40\t\t\tcontract PollsDApp {\\n    stru...\n  MSTORE \t\t\tcontract PollsDApp {\\n    stru...\n  CALLVALUE \t\t\tcontract PollsDApp {\\n    stru...\n  DUP1 \t\t\tcontract PollsDApp {\\n    stru...\n  ISZERO \t\t\tcontract PollsDApp {\\n    stru...\n  PUSH [tag] 1\t\t\tcontract PollsDApp {\\n    stru...\n  JUMPI \t\t\tcontract PollsDApp {\\n    stru...\n  PUSH 0\t\t\tcontract PollsDApp {\\n    stru...\n  DUP1 \t\t\tcontract PollsDApp {\\n    stru...\n  REVERT \t\t\tcontract PollsDApp {\\n    stru...\ntag 1\t\t\tcontract PollsDApp {\\n    stru...\n  JUMPDEST \t\t\tcontract PollsDApp {\\n    stru...\n  POP \t\t\tcontract PollsDApp {\\n    stru...\n  PUSH #[$] 0000000000000000000000000000000000000000000000000000000000000000\t\t\tcontract PollsDApp {\\n    stru...\n  DUP1 \t\t\tcontract PollsDApp {\\n    stru...\n  PUSH [$] 0000000000000000000000000000000000000000000000000000000000000000\t\t\tcontract PollsDApp {\\n    stru...\n  PUSH 0\t\t\tcontract PollsDApp {\\n    stru...\n  CODECOPY \t\t\tcontract PollsDApp {\\n    stru...\n  PUSH 0\t\t\tcontract PollsDApp {\\n    stru...\n  RETURN \t\t\tcontract PollsDApp {\\n    stru...\n.data\n  0:\n    .code\n      PUSH 80\t\t\tcontract PollsDApp {\\n    stru...\n      PUSH 40\t\t\tcontract PollsDApp {\\n    stru...\n      MSTORE \t\t\tcontract PollsDApp {\\n    stru...\n      PUSH 4\t\t\tcontract PollsDApp {\\n    stru...\n      CALLDATASIZE \t\t\tcontract PollsDApp {\\n    stru...\n      LT \t\t\tcontract PollsDApp {\\n    stru...\n      PUSH [tag] 1\t\t\tcontract PollsDApp {\\n    stru...\n      JUMPI \t\t\tcontract PollsDApp {\\n    stru...\n      PUSH 0\t\t\tcontract PollsDApp {\\n    stru...\n      CALLDATALOAD \t\t\tcontract PollsDApp {\\n    stru...\n      PUSH E0\t\t\tcontract PollsDApp {\\n    stru...\n      SHR \t\t\tcontract PollsDApp {\\n    stru...\n      DUP1 \t\t\tcontract PollsDApp {\\n    stru...\n      PUSH 9534E637\t\t\tcontract PollsDApp {\\n    stru...\n      GT \t\t\tcontract PollsDApp {\\n    stru...\n      PUSH [tag] 11\t\t\tcontract PollsDApp {\\n    stru...\n      JUMPI \t\t\tcontract PollsDApp {\\n    stru...\n      DUP1 \t\t\tcontract PollsDApp {\\n    stru...\n      PUSH 9534E637\t\t\tcontract PollsDApp {\\n    stru...\n      EQ \t\t\tcontract PollsDApp {\\n    stru...\n      PUSH [tag] 6\t\t\tcontract PollsDApp {\\n    stru...\n      JUMPI \t\t\tcontract PollsDApp {\\n    stru...\n      DUP1 \t\t\tcontract PollsDApp {\\n    stru...\n      PUSH AC2F0074\t\t\tcontract PollsDApp {\\n    stru...\n      EQ \t\t\tcontract PollsDApp {\\n    stru...\n      PUSH [tag] 7\t\t\tcontract PollsDApp {\\n    stru...\n      JUMPI \t\t\tcontract PollsDApp {\\n    stru...\n      DUP1 \t\t\tcontract PollsDApp {\\n    stru...\n      PUSH B0C095E3\t\t\tcontract PollsDApp {\\n    stru...\n      EQ \t\t\tcontract PollsDApp {\\n    stru...\n      PUSH [tag] 8\t\t\tcontract PollsDApp {\\n    stru...\n      JUMPI \t\t\tcontract PollsDApp {\\n    stru...\n      DUP1 \t\t\tcontract PollsDApp {\\n    stru...\n      PUSH D02EED38\t\t\tcontract PollsDApp {\\n    stru...\n      EQ \t\t\tcontract PollsDApp {\\n    stru...\n      PUSH [tag] 9\t\t\tcontract PollsDApp {\\n    stru...\n      JUMPI \t\t\tcontract PollsDApp {\\n    stru...\n      DUP1 \t\t\tcontract PollsDApp {\\n    stru...\n      PUSH EE0CA517\t\t\tcontract PollsDApp {\\n    stru...\n      EQ \t\t\tcontract PollsDApp {\\n    stru...\n      PUSH [tag] 10\t\t\tcontract PollsDApp {\\n    stru...\n      JUMPI \t\t\tcontract PollsDApp {\\n    stru...\n      PUSH [tag] 1\t\t\tcontract PollsDApp {\\n    stru...\n      JUMP \t\t\tcontract PollsDApp {\\n    stru...\n    tag 11\t\t\tcontract PollsDApp {\\n    stru...\n      JUMPDEST \t\t\tcontract PollsDApp {\\n    stru...\n      DUP1 \t\t\tcontract PollsDApp {\\n    stru...\n      PUSH 1A8CBCAA\t\t\tcontract PollsDApp {\\n    stru...\n      EQ \t\t\tcontract PollsDApp {\\n    stru...\n      PUSH [tag] 2\t\t\tcontract PollsDApp {\\n    stru...\n      JUMPI \t\t\tcontract PollsDApp {\\n    stru...\n      DUP1 \t\t\tcontract PollsDApp {\\n    stru...\n      PUSH 4B117094\t\t\tcontract PollsDApp {\\n    stru...\n      EQ \t\t\tcontract PollsDApp {\\n    stru...\n      PUSH [tag] 3\t\t\tcontract PollsDApp {\\n    stru...\n      JUMPI \t\t\tcontract PollsDApp {\\n    stru...\n      DUP1 \t\t\tcontract PollsDApp {\\n    stru...\n      PUSH 73A5C08D\t\t\tcontract PollsDApp {\\n    stru...\n      EQ \t\t\tcontract PollsDApp {\\n    stru...\n      PUSH [tag] 4\t\t\tcontract PollsDApp {\\n    stru...\n      JUMPI \t\t\tcontract PollsDApp {\\n    stru...\n      DUP1 \t\t\tcontract PollsDApp {\\n    stru...\n      PUSH 8915B3FB\t\t\tcontract PollsDApp {\\n    stru...\n      EQ \t\t\tcontract PollsDApp {\\n    stru...\n      PUSH [tag] 5\t\t\tcontract PollsDApp {\\n    stru...\n      JUMPI \t\t\tcontract PollsDApp {\\n    stru...\n    tag 1\t\t\tcontract PollsDApp {\\n    stru...\n      JUMPDEST \t\t\tcontract PollsDApp {\\n    stru...\n      PUSH 0\t\t\tcontract PollsDApp {\\n    stru...\n      DUP1 \t\t\tcontract PollsDApp {\\n    stru...\n      REVERT \t\t\tcontract PollsDApp {\\n    stru...\n    tag 2\t\t\tfunction getPoll(uint256 pollI...\n      JUMPDEST \t\t\tfunction getPoll(uint256 pollI...\n      CALLVALUE \t\t\tfunction getPoll(uint256 pollI...\n      DUP1 \t\t\tfunction getPoll(uint256 pollI...\n      ISZERO \t\t\tfunction getPoll(uint256 pollI...\n      PUSH [tag] 12\t\t\tfunction getPoll(uint256 pollI...\n      JUMPI \t\t\tfunction getPoll(uint256 pollI...\n      PUSH 0\t\t\tfunction getPoll(uint256 pollI...\n      DUP1 \t\t\tfunction getPoll(uint256 pollI...\n      REVERT \t\t\tfunction getPoll(uint256 pollI...\n    tag 12\t\t\tfunction getPoll(uint256 pollI...\n      JUMPDEST \t\t\tfunction getPoll(uint256 pollI...\n      POP \t\t\tfunction getPoll(uint256 pollI...\n      PUSH [tag] 13\t\t\tfunction getPoll(uint256 pollI...\n      PUSH 4\t\t\tfunction getPoll(uint256 pollI...\n      DUP1 \t\t\tfunction getPoll(uint256 pollI...\n      CALLDATASIZE \t\t\tfunction getPoll(uint256 pollI...\n      SUB \t\t\tfunction getPoll(uint256 pollI...\n      DUP2 \t\t\tfunction getPoll(uint256 pollI...\n      ADD \t\t\tfunction getPoll(uint256 pollI...\n      SWAP1 \t\t\tfunction getPoll(uint256 pollI...\n      PUSH [tag] 14\t\t\tfunction getPoll(uint256 pollI...\n      SWAP2 \t\t\tfunction getPoll(uint256 pollI...\n      SWAP1 \t\t\tfunction getPoll(uint256 pollI...\n      PUSH [tag] 15\t\t\tfunction getPoll(uint256 pollI...\n      JUMP \t\t\tfunction getPoll(uint256 pollI...\n    tag 14\t\t\tfunction getPoll(uint256 pollI...\n      JUMPDEST \t\t\tfunction getPoll(uint256 pollI...\n      PUSH [tag] 16\t\t\tfunction getPoll(uint256 pollI...\n      JUMP \t\t\tfunction getPoll(uint256 pollI...\n    tag 13\t\t\tfunction getPoll(uint256 pollI...\n      JUMPDEST \t\t\tfunction getPoll(uint256 pollI...\n      PUSH 40\t\t\tfunction getPoll(uint256 pollI...\n      MLOAD \t\t\tfunction getPoll(uint256 pollI...\n      PUSH [tag] 17\t\t\tfunction getPoll(uint256 pollI...\n      SWAP10 \t\t\tfunction getPoll(uint256 pollI...\n      SWAP9 \t\t\tfunction getPoll(uint256 pollI...\n      SWAP8 \t\t\tfunction getPoll(uint256 pollI...\n      SWAP7 \t\t\tfunction getPoll(uint256 pollI...\n      SWAP6 \t\t\tfunction getPoll(uint256 pollI...\n      SWAP5 \t\t\tfunction getPoll(uint256 pollI...\n      SWAP4 \t\t\tfunction getPoll(uint256 pollI...\n      SWAP3 \t\t\tfunction getPoll(uint256 pollI...\n      SWAP2 \t\t\tfunction getPoll(uint256 pollI...\n      SWAP1 \t\t\tfunction getPoll(uint256 pollI...\n      PUSH [tag] 18\t\t\tfunction getPoll(uint256 pollI...\n      JUMP \t\t\tfunction getPoll(uint256 pollI...\n    tag 17\t\t\tfunction getPoll(uint256 pollI...\n      JUMPDEST \t\t\tfunction getPoll(uint256 pollI...\n      PUSH 40\t\t\tfunction getPoll(uint256 pollI...\n      MLOAD \t\t\tfunction getPoll(uint256 pollI...\n      DUP1 \t\t\tfunction getPoll(uint256 pollI...\n      SWAP2 \t\t\tfunction getPoll(uint256 pollI...\n      SUB \t\t\tfunction getPoll(uint256 pollI...\n      SWAP1 \t\t\tfunction getPoll(uint256 pollI...\n      RETURN \t\t\tfunction getPoll(uint256 pollI...\n    tag 3\t\t\tfunction createPoll(\\n        ...\n      JUMPDEST \t\t\tfunction createPoll(\\n        ...\n      PUSH [tag] 19\t\t\tfunction createPoll(\\n        ...\n      PUSH 4\t\t\tfunction createPoll(\\n        ...\n      DUP1 \t\t\tfunction createPoll(\\n        ...\n      CALLDATASIZE \t\t\tfunction createPoll(\\n        ...\n      SUB \t\t\tfunction createPoll(\\n        ...\n      DUP2 \t\t\tfunction createPoll(\\n        ...\n      ADD \t\t\tfunction createPoll(\\n        ...\n      SWAP1 \t\t\tfunction createPoll(\\n        ...\n      PUSH [tag] 20\t\t\tfunction createPoll(\\n        ...\n      SWAP2 \t\t\tfunction createPoll(\\n        ...\n      SWAP1 \t\t\tfunction createPoll(\\n        ...\n      PUSH [tag] 21\t\t\tfunction createPoll(\\n        ...\n      JUMP \t\t\tfunction createPoll(\\n        ...\n    tag 20\t\t\tfunction createPoll(\\n        ...\n      JUMPDEST \t\t\tfunction createPoll(\\n        ...\n      PUSH [tag] 22\t\t\tfunction createPoll(\\n        ...\n      JUMP \t\t\tfunction createPoll(\\n        ...\n    tag 19\t\t\tfunction createPoll(\\n        ...\n      JUMPDEST \t\t\tfunction createPoll(\\n        ...\n      STOP \t\t\tfunction createPoll(\\n        ...\n    tag 4\t\t\tuint256[] public pollIds\n      JUMPDEST \t\t\tuint256[] public pollIds\n      CALLVALUE \t\t\tuint256[] public pollIds\n      DUP1 \t\t\tuint256[] public pollIds\n      ISZERO \t\t\tuint256[] public pollIds\n      PUSH [tag] 23\t\t\tuint256[] public pollIds\n      JUMPI \t\t\tuint256[] public pollIds\n      PUSH 0\t\t\tuint256[] public pollIds\n      DUP1 \t\t\tuint256[] public pollIds\n      REVERT \t\t\tuint256[] public pollIds\n    tag 23\t\t\tuint256[] public pollIds\n      JUMPDEST \t\t\tuint256[] public pollIds\n      POP \t\t\tuint256[] public pollIds\n      PUSH [tag] 24\t\t\tuint256[] public pollIds\n      PUSH 4\t\t\tuint256[] public pollIds\n      DUP1 \t\t\tuint256[] public pollIds\n      CALLDATASIZE \t\t\tuint256[] public pollIds\n      SUB \t\t\tuint256[] public pollIds\n      DUP2 \t\t\tuint256[] public pollIds\n      ADD \t\t\tuint256[] public pollIds\n      SWAP1 \t\t\tuint256[] public pollIds\n      PUSH [tag] 25\t\t\tuint256[] public pollIds\n      SWAP2 \t\t\tuint256[] public pollIds\n      SWAP1 \t\t\tuint256[] public pollIds\n      PUSH [tag] 15\t\t\tuint256[] public pollIds\n      JUMP \t\t\tuint256[] public pollIds\n    tag 25\t\t\tuint256[] public pollIds\n      JUMPDEST \t\t\tuint256[] public pollIds\n      PUSH [tag] 26\t\t\tuint256[] public pollIds\n      JUMP \t\t\tuint256[] public pollIds\n    tag 24\t\t\tuint256[] public pollIds\n      JUMPDEST \t\t\tuint256[] public pollIds\n      PUSH 40\t\t\tuint256[] public pollIds\n      MLOAD \t\t\tuint256[] public pollIds\n      PUSH [tag] 27\t\t\tuint256[] public pollIds\n      SWAP2 \t\t\tuint256[] public pollIds\n      SWAP1 \t\t\tuint256[] public pollIds\n      PUSH [tag] 28\t\t\tuint256[] public pollIds\n      JUMP \t\t\tuint256[] public pollIds\n    tag 27\t\t\tuint256[] public pollIds\n      JUMPDEST \t\t\tuint256[] public pollIds\n      PUSH 40\t\t\tuint256[] public pollIds\n      MLOAD \t\t\tuint256[] public pollIds\n      DUP1 \t\t\tuint256[] public pollIds\n      SWAP2 \t\t\tuint256[] public pollIds\n      SUB \t\t\tuint256[] public pollIds\n      SWAP1 \t\t\tuint256[] public pollIds\n      RETURN \t\t\tuint256[] public pollIds\n    tag 5\t\t\tfunction getOptions(uint256 po...\n      JUMPDEST \t\t\tfunction getOptions(uint256 po...\n      CALLVALUE \t\t\tfunction getOptions(uint256 po...\n      DUP1 \t\t\tfunction getOptions(uint256 po...\n      ISZERO \t\t\tfunction getOptions(uint256 po...\n      PUSH [tag] 29\t\t\tfunction getOptions(uint256 po...\n      JUMPI \t\t\tfunction getOptions(uint256 po...\n      PUSH 0\t\t\tfunction getOptions(uint256 po...\n      DUP1 \t\t\tfunction getOptions(uint256 po...\n      REVERT \t\t\tfunction getOptions(uint256 po...\n    tag 29\t\t\tfunction getOptions(uint256 po...\n      JUMPDEST \t\t\tfunction getOptions(uint256 po...\n      POP \t\t\tfunction getOptions(uint256 po...\n      PUSH [tag] 30\t\t\tfunction getOptions(uint256 po...\n      PUSH 4\t\t\tfunction getOptions(uint256 po...\n      DUP1 \t\t\tfunction getOptions(uint256 po...\n      CALLDATASIZE \t\t\tfunction getOptions(uint256 po...\n      SUB \t\t\tfunction getOptions(uint256 po...\n      DUP2 \t\t\tfunction getOptions(uint256 po...\n      ADD \t\t\tfunction getOptions(uint256 po...\n      SWAP1 \t\t\tfunction getOptions(uint256 po...\n      PUSH [tag] 31\t\t\tfunction getOptions(uint256 po...\n      SWAP2 \t\t\tfunction getOptions(uint256 po...\n      SWAP1 \t\t\tfunction getOptions(uint256 po...\n      PUSH [tag] 15\t\t\tfunction getOptions(uint256 po...\n      JUMP \t\t\tfunction getOptions(uint256 po...\n    tag 31\t\t\tfunction getOptions(uint256 po...\n      JUMPDEST \t\t\tfunction getOptions(uint256 po...\n      PUSH [tag] 32\t\t\tfunction getOptions(uint256 po...\n      JUMP \t\t\tfunction getOptions(uint256 po...\n    tag 30\t\t\tfunction getOptions(uint256 po...\n      JUMPDEST \t\t\tfunction getOptions(uint256 po...\n      PUSH 40\t\t\tfunction getOptions(uint256 po...\n      MLOAD \t\t\tfunction getOptions(uint256 po...\n      PUSH [tag] 33\t\t\tfunction getOptions(uint256 po...\n      SWAP2 \t\t\tfunction getOptions(uint256 po...\n      SWAP1 \t\t\tfunction getOptions(uint256 po...\n      PUSH [tag] 34\t\t\tfunction getOptions(uint256 po...\n      JUMP \t\t\tfunction getOptions(uint256 po...\n    tag 33\t\t\tfunction getOptions(uint256 po...\n      JUMPDEST \t\t\tfunction getOptions(uint256 po...\n      PUSH 40\t\t\tfunction getOptions(uint256 po...\n      MLOAD \t\t\tfunction getOptions(uint256 po...\n      DUP1 \t\t\tfunction getOptions(uint256 po...\n      SWAP2 \t\t\tfunction getOptions(uint256 po...\n      SUB \t\t\tfunction getOptions(uint256 po...\n      SWAP1 \t\t\tfunction getOptions(uint256 po...\n      RETURN \t\t\tfunction getOptions(uint256 po...\n    tag 6\t\t\tfunction closePoll(uint256 pol...\n      JUMPDEST \t\t\tfunction closePoll(uint256 pol...\n      CALLVALUE \t\t\tfunction closePoll(uint256 pol...\n      DUP1 \t\t\tfunction closePoll(uint256 pol...\n      ISZERO \t\t\tfunction closePoll(uint256 pol...\n      PUSH [tag] 35\t\t\tfunction closePoll(uint256 pol...\n      JUMPI \t\t\tfunction closePoll(uint256 pol...\n      PUSH 0\t\t\tfunction closePoll(uint256 pol...\n      DUP1 \t\t\tfunction closePoll(uint256 pol...\n      REVERT \t\t\tfunction closePoll(uint256 pol...\n    tag 35\t\t\tfunction closePoll(uint256 pol...\n      JUMPDEST \t\t\tfunction closePoll(uint256 pol...\n      POP \t\t\tfunction closePoll(uint256 pol...\n      PUSH [tag] 36\t\t\tfunction closePoll(uint256 pol...\n      PUSH 4\t\t\tfunction closePoll(uint256 pol...\n      DUP1 \t\t\tfunction closePoll(uint256 pol...\n      CALLDATASIZE \t\t\tfunction closePoll(uint256 pol...\n      SUB \t\t\tfunction closePoll(uint256 pol...\n      DUP2 \t\t\tfunction closePoll(uint256 pol...\n      ADD \t\t\tfunction closePoll(uint256 pol...\n      SWAP1 \t\t\tfunction closePoll(uint256 pol...\n      PUSH [tag] 37\t\t\tfunction closePoll(uint256 pol...\n      SWAP2 \t\t\tfunction closePoll(uint256 pol...\n      SWAP1 \t\t\tfunction closePoll(uint256 pol...\n      PUSH [tag] 15\t\t\tfunction closePoll(uint256 pol...\n      JUMP \t\t\tfunction closePoll(uint256 pol...\n    tag 37\t\t\tfunction closePoll(uint256 pol...\n      JUMPDEST \t\t\tfunction closePoll(uint256 pol...\n      PUSH [tag] 38\t\t\tfunction closePoll(uint256 pol...\n      JUMP \t\t\tfunction closePoll(uint256 pol...\n    tag 36\t\t\tfunction closePoll(uint256 pol...\n      JUMPDEST \t\t\tfunction closePoll(uint256 pol...\n      STOP \t\t\tfunction closePoll(uint256 pol...\n    tag 7\t\t\tmapping(uint256 => Poll) publi...\n      JUMPDEST \t\t\tmapping(uint256 => Poll) publi...\n      CALLVALUE \t\t\tmapping(uint256 => Poll) publi...\n      DUP1 \t\t\tmapping(uint256 => Poll) publi...\n      ISZERO \t\t\tmapping(uint256 => Poll) publi...\n      PUSH [tag] 39\t\t\tmapping(uint256 => Poll) publi...\n      JUMPI \t\t\tmapping(uint256 => Poll) publi...\n      PUSH 0\t\t\tmapping(uint256 => Poll) publi...\n      DUP1 \t\t\tmapping(uint256 => Poll) publi...\n      REVERT \t\t\tmapping(uint256 => Poll) publi...\n    tag 39\t\t\tmapping(uint256 => Poll) publi...\n      JUMPDEST \t\t\tmapping(uint256 => Poll) publi...\n      POP \t\t\tmapping(uint256 => Poll) publi...\n      PUSH [tag] 40\t\t\tmapping(uint256 => Poll) publi...\n      PUSH 4\t\t\tmapping(uint256 => Poll) publi...\n      DUP1 \t\t\tmapping(uint256 => Poll) publi...\n      CALLDATASIZE \t\t\tmapping(uint256 => Poll) publi...\n      SUB \t\t\tmapping(uint256 => Poll) publi...\n      DUP2 \t\t\tmapping(uint256 => Poll) publi...\n      ADD \t\t\tmapping(uint256 => Poll) publi...\n      SWAP1 \t\t\tmapping(uint256 => Poll) publi...\n      PUSH [tag] 41\t\t\tmapping(uint256 => Poll) publi...\n      SWAP2 \t\t\tmapping(uint256 => Poll) publi...\n      SWAP1 \t\t\tmapping(uint256 => Poll) publi...\n      PUSH [tag] 15\t\t\tmapping(uint256 => Poll) publi...\n      JUMP \t\t\tmapping(uint256 => Poll) publi...\n    tag 41\t\t\tmapping(uint256 => Poll) publi...\n      JUMPDEST \t\t\tmapping(uint256 => Poll) publi...\n      PUSH [tag] 42\t\t\tmapping(uint256 => Poll) publi...\n      JUMP \t\t\tmapping(uint256 => Poll) publi...\n    tag 40\t\t\tmapping(uint256 => Poll) publi...\n      JUMPDEST \t\t\tmapping(uint256 => Poll) publi...\n      PUSH 40\t\t\tmapping(uint256 => Poll) publi...\n      MLOAD \t\t\tmapping(uint256 => Poll) publi...\n      PUSH [tag] 43\t\t\tmapping(uint256 => Poll) publi...\n      SWAP9 \t\t\tmapping(uint256 => Poll) publi...\n      SWAP8 \t\t\tmapping(uint256 => Poll) publi...\n      SWAP7 \t\t\tmapping(uint256 => Poll) publi...\n      SWAP6 \t\t\tmapping(uint256 => Poll) publi...\n      SWAP5 \t\t\tmapping(uint256 => Poll) publi...\n      SWAP4 \t\t\tmapping(uint256 => Poll) publi...\n      SWAP3 \t\t\tmapping(uint256 => Poll) publi...\n      SWAP2 \t\t\tmapping(uint256 => Poll) publi...\n      SWAP1 \t\t\tmapping(uint256 => Poll) publi...\n      PUSH [tag] 44\t\t\tmapping(uint256 => Poll) publi...\n      JUMP \t\t\tmapping(uint256 => Poll) publi...\n    tag 43\t\t\tmapping(uint256 => Poll) publi...\n      JUMPDEST \t\t\tmapping(uint256 => Poll) publi...\n      PUSH 40\t\t\tmapping(uint256 => Poll) publi...\n      MLOAD \t\t\tmapping(uint256 => Poll) publi...\n      DUP1 \t\t\tmapping(uint256 => Poll) publi...\n      SWAP2 \t\t\tmapping(uint256 => Poll) publi...\n      SUB \t\t\tmapping(uint256 => Poll) publi...\n      SWAP1 \t\t\tmapping(uint256 => Poll) publi...\n      RETURN \t\t\tmapping(uint256 => Poll) publi...\n    tag 8\t\t\tfunction getPollStatus(uint256...\n      JUMPDEST \t\t\tfunction getPollStatus(uint256...\n      CALLVALUE \t\t\tfunction getPollStatus(uint256...\n      DUP1 \t\t\tfunction getPollStatus(uint256...\n      ISZERO \t\t\tfunction getPollStatus(uint256...\n      PUSH [tag] 45\t\t\tfunction getPollStatus(uint256...\n      JUMPI \t\t\tfunction getPollStatus(uint256...\n      PUSH 0\t\t\tfunction getPollStatus(uint256...\n      DUP1 \t\t\tfunction getPollStatus(uint256...\n      REVERT \t\t\tfunction getPollStatus(uint256...\n    tag 45\t\t\tfunction getPollStatus(uint256...\n      JUMPDEST \t\t\tfunction getPollStatus(uint256...\n      POP \t\t\tfunction getPollStatus(uint256...\n      PUSH [tag] 46\t\t\tfunction getPollStatus(uint256...\n      PUSH 4\t\t\tfunction getPollStatus(uint256...\n      DUP1 \t\t\tfunction getPollStatus(uint256...\n      CALLDATASIZE \t\t\tfunction getPollStatus(uint256...\n      SUB \t\t\tfunction getPollStatus(uint256...\n      DUP2 \t\t\tfunction getPollStatus(uint256...\n      ADD \t\t\tfunction getPollStatus(uint256...\n      SWAP1 \t\t\tfunction getPollStatus(uint256...\n      PUSH [tag] 47\t\t\tfunction getPollStatus(uint256...\n      SWAP2 \t\t\tfunction getPollStatus(uint256...\n      SWAP1 \t\t\tfunction getPollStatus(uint256...\n      PUSH [tag] 15\t\t\tfunction getPollStatus(uint256...\n      JUMP \t\t\tfunction getPollStatus(uint256...\n    tag 47\t\t\tfunction getPollStatus(uint256...\n      JUMPDEST \t\t\tfunction getPollStatus(uint256...\n      PUSH [tag] 48\t\t\tfunction getPollStatus(uint256...\n      JUMP \t\t\tfunction getPollStatus(uint256...\n    tag 46\t\t\tfunction getPollStatus(uint256...\n      JUMPDEST \t\t\tfunction getPollStatus(uint256...\n      PUSH 40\t\t\tfunction getPollStatus(uint256...\n      MLOAD \t\t\tfunction getPollStatus(uint256...\n      PUSH [tag] 49\t\t\tfunction getPollStatus(uint256...\n      SWAP4 \t\t\tfunction getPollStatus(uint256...\n      SWAP3 \t\t\tfunction getPollStatus(uint256...\n      SWAP2 \t\t\tfunction getPollStatus(uint256...\n      SWAP1 \t\t\tfunction getPollStatus(uint256...\n      PUSH [tag] 50\t\t\tfunction getPollStatus(uint256...\n      JUMP \t\t\tfunction getPollStatus(uint256...\n    tag 49\t\t\tfunction getPollStatus(uint256...\n      JUMPDEST \t\t\tfunction getPollStatus(uint256...\n      PUSH 40\t\t\tfunction getPollStatus(uint256...\n      MLOAD \t\t\tfunction getPollStatus(uint256...\n      DUP1 \t\t\tfunction getPollStatus(uint256...\n      SWAP2 \t\t\tfunction getPollStatus(uint256...\n      SUB \t\t\tfunction getPollStatus(uint256...\n      SWAP1 \t\t\tfunction getPollStatus(uint256...\n      RETURN \t\t\tfunction getPollStatus(uint256...\n    tag 9\t\t\tuint256 public pollCounter\n      JUMPDEST \t\t\tuint256 public pollCounter\n      CALLVALUE \t\t\tuint256 public pollCounter\n      DUP1 \t\t\tuint256 public pollCounter\n      ISZERO \t\t\tuint256 public pollCounter\n      PUSH [tag] 51\t\t\tuint256 public pollCounter\n      JUMPI \t\t\tuint256 public pollCounter\n      PUSH 0\t\t\tuint256 public pollCounter\n      DUP1 \t\t\tuint256 public pollCounter\n      REVERT \t\t\tuint256 public pollCounter\n    tag 51\t\t\tuint256 public pollCounter\n      JUMPDEST \t\t\tuint256 public pollCounter\n      POP \t\t\tuint256 public pollCounter\n      PUSH [tag] 52\t\t\tuint256 public pollCounter\n      PUSH [tag] 53\t\t\tuint256 public pollCounter\n      JUMP \t\t\tuint256 public pollCounter\n    tag 52\t\t\tuint256 public pollCounter\n      JUMPDEST \t\t\tuint256 public pollCounter\n      PUSH 40\t\t\tuint256 public pollCounter\n      MLOAD \t\t\tuint256 public pollCounter\n      PUSH [tag] 54\t\t\tuint256 public pollCounter\n      SWAP2 \t\t\tuint256 public pollCounter\n      SWAP1 \t\t\tuint256 public pollCounter\n      PUSH [tag] 28\t\t\tuint256 public pollCounter\n      JUMP \t\t\tuint256 public pollCounter\n    tag 54\t\t\tuint256 public pollCounter\n      JUMPDEST \t\t\tuint256 public pollCounter\n      PUSH 40\t\t\tuint256 public pollCounter\n      MLOAD \t\t\tuint256 public pollCounter\n      DUP1 \t\t\tuint256 public pollCounter\n      SWAP2 \t\t\tuint256 public pollCounter\n      SUB \t\t\tuint256 public pollCounter\n      SWAP1 \t\t\tuint256 public pollCounter\n      RETURN \t\t\tuint256 public pollCounter\n    tag 10\t\t\tfunction getAllPollIds() exter...\n      JUMPDEST \t\t\tfunction getAllPollIds() exter...\n      CALLVALUE \t\t\tfunction getAllPollIds() exter...\n      DUP1 \t\t\tfunction getAllPollIds() exter...\n      ISZERO \t\t\tfunction getAllPollIds() exter...\n      PUSH [tag] 55\t\t\tfunction getAllPollIds() exter...\n      JUMPI \t\t\tfunction getAllPollIds() exter...\n      PUSH 0\t\t\tfunction getAllPollIds() exter...\n      DUP1 \t\t\tfunction getAllPollIds() exter...\n      REVERT \t\t\tfunction getAllPollIds() exter...\n    tag 55\t\t\tfunction getAllPollIds() exter...\n      JUMPDEST \t\t\tfunction getAllPollIds() exter...\n      POP \t\t\tfunction getAllPollIds() exter...\n      PUSH [tag] 56\t\t\tfunction getAllPollIds() exter...\n      PUSH [tag] 57\t\t\tfunction getAllPollIds() exter...\n      JUMP \t\t\tfunction getAllPollIds() exter...\n    tag 56\t\t\tfunction getAllPollIds() exter...\n      JUMPDEST \t\t\tfunction getAllPollIds() exter...\n      PUSH 40\t\t\tfunction getAllPollIds() exter...\n      MLOAD \t\t\tfunction getAllPollIds() exter...\n      PUSH [tag] 58\t\t\tfunction getAllPollIds() exter...\n      SWAP2 \t\t\tfunction getAllPollIds() exter...\n      SWAP1 \t\t\tfunction getAllPollIds() exter...\n      PUSH [tag] 59\t\t\tfunction getAllPollIds() exter...\n      JUMP \t\t\tfunction getAllPollIds() exter...\n    tag 58\t\t\tfunction getAllPollIds() exter...\n      JUMPDEST \t\t\tfunction getAllPollIds() exter...\n      PUSH 40\t\t\tfunction getAllPollIds() exter...\n      MLOAD \t\t\tfunction getAllPollIds() exter...\n      DUP1 \t\t\tfunction getAllPollIds() exter...\n      SWAP2 \t\t\tfunction getAllPollIds() exter...\n      SUB \t\t\tfunction getAllPollIds() exter...\n      SWAP1 \t\t\tfunction getAllPollIds() exter...\n      RETURN \t\t\tfunction getAllPollIds() exter...\n    tag 16\t\t\tfunction getPoll(uint256 pollI...\n      JUMPDEST \t\t\tfunction getPoll(uint256 pollI...\n      PUSH 0\t\t\taddress creator\n      PUSH 60\t\t\tstring memory question\n      DUP1 \t\t\tstring[] memory options\n      PUSH 0\t\t\tuint256 rewardPerResponse\n      DUP1 \t\t\tuint256 maxResponses\n      PUSH 0\t\t\tuint256 endTime\n      DUP1 \t\t\tbool isOpen\n      PUSH 0\t\t\tuint256 totalResponses\n      DUP1 \t\t\tuint256 funds\n      PUSH 0\t\t\tPoll storage p\n      PUSH 2\t\t\tpolls\n      PUSH 0\t\t\tpolls[pollId]\n      DUP13 \t\t\tpollId\n      DUP2 \t\t\tpolls[pollId]\n      MSTORE \t\t\tpolls[pollId]\n      PUSH 20\t\t\tpolls[pollId]\n      ADD \t\t\tpolls[pollId]\n      SWAP1 \t\t\tpolls[pollId]\n      DUP2 \t\t\tpolls[pollId]\n      MSTORE \t\t\tpolls[pollId]\n      PUSH 20\t\t\tpolls[pollId]\n      ADD \t\t\tpolls[pollId]\n      PUSH 0\t\t\tpolls[pollId]\n      KECCAK256 \t\t\tpolls[pollId]\n      SWAP1 \t\t\tPoll storage p = polls[pollId]\n      POP \t\t\tPoll storage p = polls[pollId]\n      DUP1 \t\t\tp\n      PUSH 0\t\t\tp.creator\n      ADD \t\t\tp.creator\n      PUSH 0\t\t\tp.creator\n      SWAP1 \t\t\tp.creator\n      SLOAD \t\t\tp.creator\n      SWAP1 \t\t\tp.creator\n      PUSH 100\t\t\tp.creator\n      EXP \t\t\tp.creator\n      SWAP1 \t\t\tp.creator\n      DIV \t\t\tp.creator\n      PUSH FFFFFFFFFFFFFFFFFFFFFFFFFFFFFFFFFFFFFFFF\t\t\tp.creator\n      AND \t\t\tp.creator\n      DUP2 \t\t\tp\n      PUSH 1\t\t\tp.question\n      ADD \t\t\tp.question\n      DUP3 \t\t\tp\n      PUSH 2\t\t\tp.options\n      ADD \t\t\tp.options\n      DUP4 \t\t\tp\n      PUSH 3\t\t\tp.rewardPerResponse\n      ADD \t\t\tp.rewardPerResponse\n      SLOAD \t\t\tp.rewardPerResponse\n      DUP5 \t\t\tp\n      PUSH 4\t\t\tp.maxResponses\n      ADD \t\t\tp.maxResponses\n      SLOAD \t\t\tp.maxResponses\n      DUP6 \t\t\tp\n      PUSH 5\t\t\tp.endTime\n      ADD \t\t\tp.endTime\n      SLOAD \t\t\tp.endTime\n      DUP7 \t\t\tp\n      PUSH 6\t\t\tp.isOpen\n      ADD \t\t\tp.isOpen\n      PUSH 0\t\t\tp.isOpen\n      SWAP1 \t\t\tp.isOpen\n      SLOAD \t\t\tp.isOpen\n      SWAP1 \t\t\tp.isOpen\n      PUSH 100\t\t\tp.isOpen\n      EXP \t\t\tp.isOpen\n      SWAP1 \t\t\tp.isOpen\n      DIV \t\t\tp.isOpen\n      PUSH FF\t\t\tp.isOpen\n      AND \t\t\tp.isOpen\n      DUP8 \t\t\tp\n      PUSH 7\t\t\tp.totalResponses\n      ADD \t\t\tp.totalResponses\n      SLOAD \t\t\tp.totalResponses\n      DUP9 \t\t\tp\n      PUSH 8\t\t\tp.funds\n      ADD \t\t\tp.funds\n      SLOAD \t\t\tp.funds\n      DUP8 \t\t\treturn (\\n            p.creato...\n      DUP1 \t\t\treturn (\\n            p.creato...\n      SLOAD \t\t\treturn (\\n            p.creato...\n      PUSH [tag] 61\t\t\treturn (\\n            p.creato...\n      SWAP1 \t\t\treturn (\\n            p.creato...\n      PUSH [tag] 62\t\t\treturn (\\n            p.creato...\n      JUMP \t\t\treturn (\\n            p.creato...\n    tag 61\t\t\treturn (\\n            p.creato...\n      JUMPDEST \t\t\treturn (\\n            p.creato...\n      DUP1 \t\t\treturn (\\n            p.creato...\n      PUSH 1F\t\t\treturn (\\n            p.creato...\n      ADD \t\t\treturn (\\n            p.creato...\n      PUSH 20\t\t\treturn (\\n            p.creato...\n      DUP1 \t\t\treturn (\\n            p.creato...\n      SWAP2 \t\t\treturn (\\n            p.creato...\n      DIV \t\t\treturn (\\n            p.creato...\n      MUL \t\t\treturn (\\n            p.creato...\n      PUSH 20\t\t\treturn (\\n            p.creato...\n      ADD \t\t\treturn (\\n            p.creato...\n      PUSH 40\t\t\treturn (\\n            p.creato...\n      MLOAD \t\t\treturn (\\n            p.creato...\n      SWAP1 \t\t\treturn (\\n            p.creato...\n      DUP2 \t\t\treturn (\\n            p.creato...\n      ADD \t\t\treturn (\\n            p.creato...\n      PUSH 40\t\t\treturn (\\n            p.creato...\n      MSTORE \t\t\treturn (\\n            p.creato...\n      DUP1 \t\t\treturn (\\n            p.creato...\n      SWAP3 \t\t\treturn (\\n            p.creato...\n      SWAP2 \t\t\treturn (\\n            p.creato...\n      SWAP1 \t\t\treturn (\\n            p.creato...\n      DUP2 \t\t\treturn (\\n            p.creato...\n      DUP2 \t\t\treturn (\\n            p.creato...\n      MSTORE \t\t\treturn (\\n            p.creato...\n      PUSH 20\t\t\treturn (\\n            p.creato...\n      ADD \t\t\treturn (\\n            p.creato...\n      DUP3 \t\t\treturn (\\n            p.creato...\n      DUP1 \t\t\treturn (\\n            p.creato...\n      SLOAD \t\t\treturn (\\n            p.creato...\n      PUSH [tag] 63\t\t\treturn (\\n            p.creato...\n      SWAP1 \t\t\treturn (\\n            p.creato...\n      PUSH [tag] 62\t\t\treturn (\\n            p.creato...\n      JUMP \t\t\treturn (\\n            p.creato...\n    tag 63\t\t\treturn (\\n            p.creato...\n      JUMPDEST \t\t\treturn (\\n            p.creato...\n      DUP1 \t\t\treturn (\\n            p.creato...\n      ISZERO \t\t\treturn (\\n            p.creato...\n      PUSH [tag] 64\t\t\treturn (\\n            p.creato...\n      JUMPI \t\t\treturn (\\n            p.creato...\n      DUP1 \t\t\treturn (\\n            p.creato...\n      PUSH 1F\t\t\treturn (\\n            p.creato...\n      LT \t\t\treturn (\\n            p.creato...\n      PUSH [tag] 65\t\t\treturn (\\n            p.creato...\n      JUMPI \t\t\treturn (\\n            p.creato...\n      PUSH 100\t\t\treturn (\\n            p.creato...\n      DUP1 \t\t\treturn (\\n            p.creato...\n      DUP4 \t\t\treturn (\\n            p.creato...\n      SLOAD \t\t\treturn (\\n            p.creato...\n      DIV \t\t\treturn (\\n            p.creato...\n      MUL \t\t\treturn (\\n            p.creato...\n      DUP4 \t\t\treturn (\\n            p.creato...\n      MSTORE \t\t\treturn (\\n            p.creato...\n      SWAP2 \t\t\treturn (\\n            p.creato...\n      PUSH 20\t\t\treturn (\\n            p.creato...\n      ADD \t\t\treturn (\\n            p.creato...\n      SWAP2 \t\t\treturn (\\n            p.creato...\n      PUSH [tag] 64\t\t\treturn (\\n            p.creato...\n      JUMP \t\t\treturn (\\n            p.creato...\n    tag 65\t\t\treturn (\\n            p.creato...\n      JUMPDEST \t\t\treturn (\\n            p.creato...\n      DUP3 \t\t\treturn (\\n            p.creato...\n      ADD \t\t\treturn (\\n            p.creato...\n      SWAP2 \t\t\treturn (\\n            p.creato...\n      SWAP1 \t\t\treturn (\\n            p.creato...\n      PUSH 0\t\t\treturn (\\n            p.creato...\n      MSTORE \t\t\treturn (\\n            p.creato...\n      PUSH 20\t\t\treturn (\\n            p.creato...\n      PUSH 0\t\t\treturn (\\n            p.creato...\n      KECCAK256 \t\t\treturn (\\n            p.creato...\n      SWAP1 \t\t\treturn (\\n            p.creato...\n    tag 66\t\t\treturn (\\n            p.creato...\n      JUMPDEST \t\t\treturn (\\n            p.creato...\n      DUP2 \t\t\treturn (\\n            p.creato...\n      SLOAD \t\t\treturn (\\n            p.creato...\n      DUP2 \t\t\treturn (\\n            p.creato...\n      MSTORE \t\t\treturn (\\n            p.creato...\n      SWAP1 \t\t\treturn (\\n            p.creato...\n      PUSH 1\t\t\treturn (\\n            p.creato...\n      ADD \t\t\treturn (\\n            p.creato...\n      SWAP1 \t\t\treturn (\\n            p.creato...\n      PUSH 20\t\t\treturn (\\n            p.creato...\n      ADD \t\t\treturn (\\n            p.creato...\n      DUP1 \t\t\treturn (\\n            p.creato...\n      DUP4 \t\t\treturn (\\n            p.creato...\n      GT \t\t\treturn (\\n            p.creato...\n      PUSH [tag] 66\t\t\treturn (\\n            p.creato...\n      JUMPI \t\t\treturn (\\n            p.creato...\n      DUP3 \t\t\treturn (\\n            p.creato...\n      SWAP1 \t\t\treturn (\\n            p.creato...\n      SUB \t\t\treturn (\\n            p.creato...\n      PUSH 1F\t\t\treturn (\\n            p.creato...\n      AND \t\t\treturn (\\n            p.creato...\n      DUP3 \t\t\treturn (\\n            p.creato...\n      ADD \t\t\treturn (\\n            p.creato...\n      SWAP2 \t\t\treturn (\\n            p.creato...\n    tag 64\t\t\treturn (\\n            p.creato...\n      JUMPDEST \t\t\treturn (\\n            p.creato...\n      POP \t\t\treturn (\\n            p.creato...\n      POP \t\t\treturn (\\n            p.creato...\n      POP \t\t\treturn (\\n            p.creato...\n      POP \t\t\treturn (\\n            p.creato...\n      POP \t\t\treturn (\\n            p.creato...\n      SWAP8 \t\t\treturn (\\n            p.creato...\n      POP \t\t\treturn (\\n            p.creato...\n      DUP7 \t\t\treturn (\\n            p.creato...\n      DUP1 \t\t\treturn (\\n            p.creato...\n      SLOAD \t\t\treturn (\\n            p.creato...\n      DUP1 \t\t\treturn (\\n            p.creato...\n      PUSH 20\t\t\treturn (\\n            p.creato...\n      MUL \t\t\treturn (\\n            p.creato...\n      PUSH 20\t\t\treturn (\\n            p.creato...\n      ADD \t\t\treturn (\\n            p.creato...\n      PUSH 40\t\t\treturn (\\n            p.creato...\n      MLOAD \t\t\treturn (\\n            p.creato...\n      SWAP1 \t\t\treturn (\\n            p.creato...\n      DUP2 \t\t\treturn (\\n            p.creato...\n      ADD \t\t\treturn (\\n            p.creato...\n      PUSH 40\t\t\treturn (\\n            p.creato...\n      MSTORE \t\t\treturn (\\n            p.creato...\n      DUP1 \t\t\treturn (\\n            p.creato...\n      SWAP3 \t\t\treturn (\\n            p.creato...\n      SWAP2 \t\t\treturn (\\n            p.creato...\n      SWAP1 \t\t\treturn (\\n            p.creato...\n      DUP2 \t\t\treturn (\\n            p.creato...\n      DUP2 \t\t\treturn (\\n            p.creato...\n      MSTORE \t\t\treturn (\\n            p.creato...\n      PUSH 20\t\t\treturn (\\n            p.creato...\n      ADD \t\t\treturn (\\n            p.creato...\n      PUSH 0\t\t\treturn (\\n            p.creato...\n      SWAP1 \t\t\treturn (\\n            p.creato...\n    tag 67\t\t\treturn (\\n            p.creato...\n      JUMPDEST \t\t\treturn (\\n            p.creato...\n      DUP3 \t\t\treturn (\\n            p.creato...\n      DUP3 \t\t\treturn (\\n            p.creato...\n      LT \t\t\treturn (\\n            p.creato...\n      ISZERO \t\t\treturn (\\n            p.creato...\n      PUSH [tag] 68\t\t\treturn (\\n            p.creato...\n      JUMPI \t\t\treturn (\\n            p.creato...\n      DUP4 \t\t\treturn (\\n            p.creato...\n      DUP3 \t\t\treturn (\\n            p.creato...\n      SWAP1 \t\t\treturn (\\n            p.creato...\n      PUSH 0\t\t\treturn (\\n            p.creato...\n      MSTORE \t\t\treturn (\\n            p.creato...\n      PUSH 20\t\t\treturn (\\n            p.creato...\n      PUSH 0\t\t\treturn (\\n            p.creato...\n      KECCAK256 \t\t\treturn (\\n            p.creato...\n      ADD \t\t\treturn (\\n            p.creato...\n      DUP1 \t\t\treturn (\\n            p.creato...\n      SLOAD \t\t\treturn (\\n            p.creato...\n      PUSH [tag] 70\t\t\treturn (\\n            p.creato...\n      SWAP1 \t\t\treturn (\\n            p.creato...\n      PUSH [tag] 62\t\t\treturn (\\n            p.creato...\n      JUMP \t\t\treturn (\\n            p.creato...\n    tag 70\t\t\treturn (\\n            p.creato...\n      JUMPDEST \t\t\treturn (\\n            p.creato...\n      DUP1 \t\t\treturn (\\n            p.creato...\n      PUSH 1F\t\t\treturn (\\n            p.creato...\n      ADD \t\t\treturn (\\n            p.creato...\n      PUSH 20\t\t\treturn (\\n            p.creato...\n      DUP1 \t\t\treturn (\\n            p.creato...\n      SWAP2 \t\t\treturn (\\n            p.creato...\n      DIV \t\t\treturn (\\n            p.creato...\n      MUL \t\t\treturn (\\n            p.creato...\n      PUSH 20\t\t\treturn (\\n            p.creato...\n      ADD \t\t\treturn (\\n            p.creato...\n      PUSH 40\t\t\treturn (\\n            p.creato...\n      MLOAD \t\t\treturn (\\n            p.creato...\n      SWAP1 \t\t\treturn (\\n            p.creato...\n      DUP2 \t\t\treturn (\\n            p.creato...\n      ADD \t\t\treturn (\\n            p.creato...\n      PUSH 40\t\t\treturn (\\n            p.creato...\n      MSTORE \t\t\treturn (\\n            p.creato...\n      DUP1 \t\t\treturn (\\n            p.creato...\n      SWAP3 \t\t\treturn (\\n            p.creato...\n      SWAP2 \t\t\treturn (\\n            p.creato...\n      SWAP1 \t\t\treturn (\\n            p.creato...\n      DUP2 \t\t\treturn (\\n            p.creato...\n      DUP2 \t\t\treturn (\\n            p.creato...\n      MSTORE \t\t\treturn (\\n            p.creato...\n      PUSH 20\t\t\treturn (\\n            p.creato...\n      ADD \t\t\treturn (\\n            p.creato...\n      DUP3 \t\t\treturn (\\n            p.creato...\n      DUP1 \t\t\treturn (\\n            p.creato...\n      SLOAD \t\t\treturn (\\n            p.creato...\n      PUSH [tag] 71\t\t\treturn (\\n            p.creato...\n      SWAP1 \t\t\treturn (\\n            p.creato...\n      PUSH [tag] 62\t\t\treturn (\\n            p.creato...\n      JUMP \t\t\treturn (\\n            p.creato...\n    tag 71\t\t\treturn (\\n            p.creato...\n      JUMPDEST \t\t\treturn (\\n            p.creato...\n      DUP1 \t\t\treturn (\\n            p.creato...\n      ISZERO \t\t\treturn (\\n            p.creato...\n      PUSH [tag] 72\t\t\treturn (\\n            p.creato...\n      JUMPI \t\t\treturn (\\n            p.creato...\n      DUP1 \t\t\treturn (\\n            p.creato...\n      PUSH 1F\t\t\treturn (\\n            p.creato...\n      LT \t\t\treturn (\\n            p.creato...\n      PUSH [tag] 73\t\t\treturn (\\n            p.creato...\n      JUMPI \t\t\treturn (\\n            p.creato...\n      PUSH 100\t\t\treturn (\\n            p.creato...\n      DUP1 \t\t\treturn (\\n            p.creato...\n      DUP4 \t\t\treturn (\\n            p.creato...\n      SLOAD \t\t\treturn (\\n            p.creato...\n      DIV \t\t\treturn (\\n            p.creato...\n      MUL \t\t\treturn (\\n            p.creato...\n      DUP4 \t\t\treturn (\\n            p.creato...\n      MSTORE \t\t\treturn (\\n            p.creato...\n      SWAP2 \t\t\treturn (\\n            p.creato...\n      PUSH 20\t\t\treturn (\\n            p.creato...\n      ADD \t\t\treturn (\\n            p.creato...\n      SWAP2 \t\t\treturn (\\n            p.creato...\n      PUSH [tag] 72\t\t\treturn (\\n            p.creato...\n      JUMP \t\t\treturn (\\n            p.creato...\n    tag 73\t\t\treturn (\\n            p.creato...\n      JUMPDEST \t\t\treturn (\\n            p.creato...\n      DUP3 \t\t\treturn (\\n            p.creato...\n      ADD \t\t\treturn (\\n            p.creato...\n      SWAP2 \t\t\treturn (\\n            p.creato...\n      SWAP1 \t\t\treturn (\\n            p.creato...\n      PUSH 0\t\t\treturn (\\n            p.creato...\n      MSTORE \t\t\treturn (\\n            p.creato...\n      PUSH 20\t\t\treturn (\\n            p.creato...\n      PUSH 0\t\t\treturn (\\n            p.creato...\n      KECCAK256 \t\t\treturn (\\n            p.creato...\n      SWAP1 \t\t\treturn (\\n            p.creato...\n    tag 74\t\t\treturn (\\n            p.creato...\n      JUMPDEST \t\t\treturn (\\n            p.creato...\n      DUP2 \t\t\treturn (\\n            p.creato...\n      SLOAD \t\t\treturn (\\n            p.creato...\n      DUP2 \t\t\treturn (\\n            p.creato...\n      MSTORE \t\t\treturn (\\n            p.creato...\n      SWAP1 \t\t\treturn (\\n            p.creato...\n      PUSH 1\t\t\treturn (\\n            p.creato...\n      ADD \t\t\treturn (\\n            p.creato...\n      SWAP1 \t\t\treturn (\\n            p.creato...\n      PUSH 20\t\t\treturn (\\n            p.creato...\n      ADD \t\t\treturn (\\n            p.creato...\n      DUP1 \t\t\treturn (\\n            p.creato...\n      DUP4 \t\t\treturn (\\n            p.creato...\n      GT \t\t\treturn (\\n            p.creato...\n      PUSH [tag] 74\t\t\treturn (\\n            p.creato...\n      JUMPI \t\t\treturn (\\n            p.creato...\n      DUP3 \t\t\treturn (\\n            p.creato...\n      SWAP1 \t\t\treturn (\\n            p.creato...\n      SUB \t\t\treturn (\\n            p.creato...\n      PUSH 1F\t\t\treturn (\\n            p.creato...\n      AND \t\t\treturn (\\n            p.creato...\n      DUP3 \t\t\treturn (\\n            p.creato...\n      ADD \t\t\treturn (\\n            p.creato...\n      SWAP2 \t\t\treturn (\\n            p.creato...\n    tag 72\t\t\treturn (\\n            p.creato...\n      JUMPDEST \t\t\treturn (\\n            p.creato...\n      POP \t\t\treturn (\\n            p.creato...\n      POP \t\t\treturn (\\n            p.creato...\n      POP \t\t\treturn (\\n            p.creato...\n      POP \t\t\treturn (\\n            p.creato...\n      POP \t\t\treturn (\\n            p.creato...\n      DUP2 \t\t\treturn (\\n            p.creato...\n      MSTORE \t\t\treturn (\\n            p.creato...\n      PUSH 20\t\t\treturn (\\n            p.creato...\n      ADD \t\t\treturn (\\n            p.creato...\n      SWAP1 \t\t\treturn (\\n            p.creato...\n      PUSH 1\t\t\treturn (\\n            p.creato...\n      ADD \t\t\treturn (\\n            p.creato...\n      SWAP1 \t\t\treturn (\\n            p.creato...\n      PUSH [tag] 67\t\t\treturn (\\n            p.creato...\n      JUMP \t\t\treturn (\\n            p.creato...\n    tag 68\t\t\treturn (\\n            p.creato...\n      JUMPDEST \t\t\treturn (\\n            p.creato...\n      POP \t\t\treturn (\\n            p.creato...\n      POP \t\t\treturn (\\n            p.creato...\n      POP \t\t\treturn (\\n            p.creato...\n      POP \t\t\treturn (\\n            p.creato...\n      SWAP7 \t\t\treturn (\\n            p.creato...\n      POP \t\t\treturn (\\n            p.creato...\n      SWAP10 \t\t\treturn (\\n            p.creato...\n      POP \t\t\treturn (\\n            p.creato...\n      SWAP10 \t\t\treturn (\\n            p.creato...\n      POP \t\t\treturn (\\n            p.creato...\n      SWAP10 \t\t\treturn (\\n            p.creato...\n      POP \t\t\treturn (\\n            p.creato...\n      SWAP10 \t\t\treturn (\\n            p.creato...\n      POP \t\t\treturn (\\n            p.creato...\n      SWAP10 \t\t\treturn (\\n            p.creato...\n      POP \t\t\treturn (\\n            p.creato...\n      SWAP10 \t\t\treturn (\\n            p.creato...\n      POP \t\t\treturn (\\n            p.creato...\n      SWAP10 \t\t\treturn (\\n            p.creato...\n      POP \t\t\treturn (\\n            p.creato...\n      SWAP10 \t\t\treturn (\\n            p.creato...\n      POP \t\t\treturn (\\n            p.creato...\n      SWAP10 \t\t\treturn (\\n            p.creato...\n      POP \t\t\treturn (\\n            p.creato...\n      POP \t\t\treturn (\\n            p.creato...\n      SWAP2 \t\t\tfunction getPoll(uint256 pollI...\n      SWAP4 \t\t\tfunction getPoll(uint256 pollI...\n      SWAP6 \t\t\tfunction getPoll(uint256 pollI...\n      SWAP8 \t\t\tfunction getPoll(uint256 pollI...\n      SWAP10 \t\t\tfunction getPoll(uint256 pollI...\n      SWAP1 \t\t\tfunction getPoll(uint256 pollI...\n      SWAP3 \t\t\tfunction getPoll(uint256 pollI...\n      SWAP5 \t\t\tfunction getPoll(uint256 pollI...\n      SWAP7 \t\t\tfunction getPoll(uint256 pollI...\n      SWAP9 \t\t\tfunction getPoll(uint256 pollI...\n      POP \t\t\tfunction getPoll(uint256 pollI...\n      JUMP \t\t\tfunction getPoll(uint256 pollI...\n    tag 22\t\t\tfunction createPoll(\\n        ...\n      JUMPDEST \t\t\tfunction createPoll(\\n        ...\n      PUSH 2\t\t\t2\n      DUP5 \t\t\toptions\n      MLOAD \t\t\toptions.length\n      LT \t\t\toptions.length >= 2\n      ISZERO \t\t\toptions.length >= 2\n      PUSH [tag] 76\t\t\trequire(options.length >= 2, \"...\n      JUMPI \t\t\trequire(options.length >= 2, \"...\n      PUSH 40\t\t\trequire(options.length >= 2, \"...\n      MLOAD \t\t\trequire(options.length >= 2, \"...\n      PUSH 8C379A000000000000000000000000000000000000000000000000000000000\t\t\trequire(options.length >= 2, \"...\n      DUP2 \t\t\trequire(options.length >= 2, \"...\n      MSTORE \t\t\trequire(options.length >= 2, \"...\n      PUSH 4\t\t\trequire(options.length >= 2, \"...\n      ADD \t\t\trequire(options.length >= 2, \"...\n      PUSH [tag] 77\t\t\trequire(options.length >= 2, \"...\n      SWAP1 \t\t\trequire(options.length >= 2, \"...\n      PUSH [tag] 78\t\t\trequire(options.length >= 2, \"...\n      JUMP \t\t\trequire(options.length >= 2, \"...\n    tag 77\t\t\trequire(options.length >= 2, \"...\n      JUMPDEST \t\t\trequire(options.length >= 2, \"...\n      PUSH 40\t\t\trequire(options.length >= 2, \"...\n      MLOAD \t\t\trequire(options.length >= 2, \"...\n      DUP1 \t\t\trequire(options.length >= 2, \"...\n      SWAP2 \t\t\trequire(options.length >= 2, \"...\n      SUB \t\t\trequire(options.length >= 2, \"...\n      SWAP1 \t\t\trequire(options.length >= 2, \"...\n      REVERT \t\t\trequire(options.length >= 2, \"...\n    tag 76\t\t\trequire(options.length >= 2, \"...\n      JUMPDEST \t\t\trequire(options.length >= 2, \"...\n      PUSH 0\t\t\t0\n      DUP3 \t\t\tdurationDays\n      GT \t\t\tdurationDays > 0\n      PUSH [tag] 79\t\t\trequire(durationDays > 0, \"Inv...\n      JUMPI \t\t\trequire(durationDays > 0, \"Inv...\n      PUSH 40\t\t\trequire(durationDays > 0, \"Inv...\n      MLOAD \t\t\trequire(durationDays > 0, \"Inv...\n      PUSH 8C379A000000000000000000000000000000000000000000000000000000000\t\t\trequire(durationDays > 0, \"Inv...\n      DUP2 \t\t\trequire(durationDays > 0, \"Inv...\n      MSTORE \t\t\trequire(durationDays > 0, \"Inv...\n      PUSH 4\t\t\trequire(durationDays > 0, \"Inv...\n      ADD \t\t\trequire(durationDays > 0, \"Inv...\n      PUSH [tag] 80\t\t\trequire(durationDays > 0, \"Inv...\n      SWAP1 \t\t\trequire(durationDays > 0, \"Inv...\n      PUSH [tag] 81\t\t\trequire(durationDays > 0, \"Inv...\n      JUMP \t\t\trequire(durationDays > 0, \"Inv...\n    tag 80\t\t\trequire(durationDays > 0, \"Inv...\n      JUMPDEST \t\t\trequire(durationDays > 0, \"Inv...\n      PUSH 40\t\t\trequire(durationDays > 0, \"Inv...\n      MLOAD \t\t\trequire(durationDays > 0, \"Inv...\n      DUP1 \t\t\trequire(durationDays > 0, \"Inv...\n      SWAP2 \t\t\trequire(durationDays > 0, \"Inv...\n      SUB \t\t\trequire(durationDays > 0, \"Inv...\n      SWAP1 \t\t\trequire(durationDays > 0, \"Inv...\n      REVERT \t\t\trequire(durationDays > 0, \"Inv...\n    tag 79\t\t\trequire(durationDays > 0, \"Inv...\n      JUMPDEST \t\t\trequire(durationDays > 0, \"Inv...\n      PUSH 0\t\t\tPoll storage p\n      PUSH 2\t\t\tpolls\n      PUSH 0\t\t\tpolls[pollCounter]\n      DUP1 \t\t\tpollCounter\n      SLOAD \t\t\tpollCounter\n      DUP2 \t\t\tpolls[pollCounter]\n      MSTORE \t\t\tpolls[pollCounter]\n      PUSH 20\t\t\tpolls[pollCounter]\n      ADD \t\t\tpolls[pollCounter]\n      SWAP1 \t\t\tpolls[pollCounter]\n      DUP2 \t\t\tpolls[pollCounter]\n      MSTORE \t\t\tpolls[pollCounter]\n      PUSH 20\t\t\tpolls[pollCounter]\n      ADD \t\t\tpolls[pollCounter]\n      PUSH 0\t\t\tpolls[pollCounter]\n      KECCAK256 \t\t\tpolls[pollCounter]\n      SWAP1 \t\t\tPoll storage p = polls[pollCou...\n      POP \t\t\tPoll storage p = polls[pollCou...\n      CALLER \t\t\tmsg.sender\n      DUP2 \t\t\tp\n      PUSH 0\t\t\tp.creator\n      ADD \t\t\tp.creator\n      PUSH 0\t\t\tp.creator\n      PUSH 100\t\t\tp.creator = msg.sender\n      EXP \t\t\tp.creator = msg.sender\n      DUP2 \t\t\tp.creator = msg.sender\n      SLOAD \t\t\tp.creator = msg.sender\n      DUP2 \t\t\tp.creator = msg.sender\n      PUSH FFFFFFFFFFFFFFFFFFFFFFFFFFFFFFFFFFFFFFFF\t\t\tp.creator = msg.sender\n      MUL \t\t\tp.creator = msg.sender\n      NOT \t\t\tp.creator = msg.sender\n      AND \t\t\tp.creator = msg.sender\n      SWAP1 \t\t\tp.creator = msg.sender\n      DUP4 \t\t\tp.creator = msg.sender\n      PUSH FFFFFFFFFFFFFFFFFFFFFFFFFFFFFFFFFFFFFFFF\t\t\tp.creator = msg.sender\n      AND \t\t\tp.creator = msg.sender\n      MUL \t\t\tp.creator = msg.sender\n      OR \t\t\tp.creator = msg.sender\n      SWAP1 \t\t\tp.creator = msg.sender\n      SSTORE \t\t\tp.creator = msg.sender\n      POP \t\t\tp.creator = msg.sender\n      DUP6 \t\t\tquestion\n      DUP2 \t\t\tp\n      PUSH 1\t\t\tp.question\n      ADD \t\t\tp.question\n      SWAP1 \t\t\tp.question = question\n      DUP2 \t\t\tp.question = question\n      PUSH [tag] 82\t\t\tp.question = question\n      SWAP2 \t\t\tp.question = question\n      SWAP1 \t\t\tp.question = question\n      PUSH [tag] 83\t\t\tp.question = question\n      JUMP \t\t\tp.question = question\n    tag 82\t\t\tp.question = question\n      JUMPDEST \t\t\tp.question = question\n      POP \t\t\tp.question = question\n      DUP5 \t\t\toptions\n      DUP2 \t\t\tp\n      PUSH 2\t\t\tp.options\n      ADD \t\t\tp.options\n      SWAP1 \t\t\tp.options = options\n      DUP1 \t\t\tp.options = options\n      MLOAD \t\t\tp.options = options\n      SWAP1 \t\t\tp.options = options\n      PUSH 20\t\t\tp.options = options\n      ADD \t\t\tp.options = options\n      SWAP1 \t\t\tp.options = options\n      PUSH [tag] 84\t\t\tp.options = options\n      SWAP3 \t\t\tp.options = options\n      SWAP2 \t\t\tp.options = options\n      SWAP1 \t\t\tp.options = options\n      PUSH [tag] 85\t\t\tp.options = options\n      JUMP \t\t\tp.options = options\n    tag 84\t\t\tp.options = options\n      JUMPDEST \t\t\tp.options = options\n      POP \t\t\tp.options = options\n      DUP4 \t\t\trewardPerResponse\n      DUP2 \t\t\tp\n      PUSH 3\t\t\tp.rewardPerResponse\n      ADD \t\t\tp.rewardPerResponse\n      DUP2 \t\t\tp.rewardPerResponse = rewardPe...\n      SWAP1 \t\t\tp.rewardPerResponse = rewardPe...\n      SSTORE \t\t\tp.rewardPerResponse = rewardPe...\n      POP \t\t\tp.rewardPerResponse = rewardPe...\n      DUP2 \t\t\tmaxResponses\n      DUP2 \t\t\tp\n      PUSH 4\t\t\tp.maxResponses\n      ADD \t\t\tp.maxResponses\n      DUP2 \t\t\tp.maxResponses = maxResponses\n      SWAP1 \t\t\tp.maxResponses = maxResponses\n      SSTORE \t\t\tp.maxResponses = maxResponses\n      POP \t\t\tp.maxResponses = maxResponses\n      PUSH 15180\t\t\t1 days\n      DUP4 \t\t\tdurationDays\n      PUSH [tag] 86\t\t\tdurationDays * 1 days\n      SWAP2 \t\t\tdurationDays * 1 days\n      SWAP1 \t\t\tdurationDays * 1 days\n      PUSH [tag] 87\t\t\tdurationDays * 1 days\n      JUMP \t\t\tdurationDays * 1 days\n    tag 86\t\t\tdurationDays * 1 days\n      JUMPDEST \t\t\tdurationDays * 1 days\n      TIMESTAMP \t\t\tblock.timestamp\n      PUSH [tag] 88\t\t\tblock.timestamp + (durationDay...\n      SWAP2 \t\t\tblock.timestamp + (durationDay...\n      SWAP1 \t\t\tblock.timestamp + (durationDay...\n      PUSH [tag] 89\t\t\tblock.timestamp + (durationDay...\n      JUMP \t\t\tblock.timestamp + (durationDay...\n    tag 88\t\t\tblock.timestamp + (durationDay...\n      JUMPDEST \t\t\tblock.timestamp + (durationDay...\n      DUP2 \t\t\tp\n      PUSH 5\t\t\tp.endTime\n      ADD \t\t\tp.endTime\n      DUP2 \t\t\tp.endTime = block.timestamp + ...\n      SWAP1 \t\t\tp.endTime = block.timestamp + ...\n      SSTORE \t\t\tp.endTime = block.timestamp + ...\n      POP \t\t\tp.endTime = block.timestamp + ...\n      PUSH 1\t\t\ttrue\n      DUP2 \t\t\tp\n      PUSH 6\t\t\tp.isOpen\n      ADD \t\t\tp.isOpen\n      PUSH 0\t\t\tp.isOpen\n      PUSH 100\t\t\tp.isOpen = true\n      EXP \t\t\tp.isOpen = true\n      DUP2 \t\t\tp.isOpen = true\n      SLOAD \t\t\tp.isOpen = true\n      DUP2 \t\t\tp.isOpen = true\n      PUSH FF\t\t\tp.isOpen = true\n      MUL \t\t\tp.isOpen = true\n      NOT \t\t\tp.isOpen = true\n      AND \t\t\tp.isOpen = true\n      SWAP1 \t\t\tp.isOpen = true\n      DUP4 \t\t\tp.isOpen = true\n      ISZERO \t\t\tp.isOpen = true\n      ISZERO \t\t\tp.isOpen = true\n      MUL \t\t\tp.isOpen = true\n      OR \t\t\tp.isOpen = true\n      SWAP1 \t\t\tp.isOpen = true\n      SSTORE \t\t\tp.isOpen = true\n      POP \t\t\tp.isOpen = true\n      CALLVALUE \t\t\tmsg.value\n      DUP2 \t\t\tp\n      PUSH 8\t\t\tp.funds\n      ADD \t\t\tp.funds\n      DUP2 \t\t\tp.funds = msg.value\n      SWAP1 \t\t\tp.funds = msg.value\n      SSTORE \t\t\tp.funds = msg.value\n      POP \t\t\tp.funds = msg.value\n      PUSH 1\t\t\tpollIds\n      PUSH 0\t\t\tpollCounter\n      SLOAD \t\t\tpollCounter\n      SWAP1 \t\t\tpollIds.push(pollCounter)\n      DUP1 \t\t\tpollIds.push(pollCounter)\n      PUSH 1\t\t\tpollIds.push(pollCounter)\n      DUP2 \t\t\tpollIds.push(pollCounter)\n      SLOAD \t\t\tpollIds.push(pollCounter)\n      ADD \t\t\tpollIds.push(pollCounter)\n      DUP1 \t\t\tpollIds.push(pollCounter)\n      DUP3 \t\t\tpollIds.push(pollCounter)\n      SSTORE \t\t\tpollIds.push(pollCounter)\n      DUP1 \t\t\tpollIds.push(pollCounter)\n      SWAP2 \t\t\tpollIds.push(pollCounter)\n      POP \t\t\tpollIds.push(pollCounter)\n      POP \t\t\tpollIds.push(pollCounter)\n      PUSH 1\t\t\tpollIds.push(pollCounter)\n      SWAP1 \t\t\tpollIds.push(pollCounter)\n      SUB \t\t\tpollIds.push(pollCounter)\n      SWAP1 \t\t\tpollIds.push(pollCounter)\n      PUSH 0\t\t\tpollIds.push(pollCounter)\n      MSTORE \t\t\tpollIds.push(pollCounter)\n      PUSH 20\t\t\tpollIds.push(pollCounter)\n      PUSH 0\t\t\tpollIds.push(pollCounter)\n      KECCAK256 \t\t\tpollIds.push(pollCounter)\n      ADD \t\t\tpollIds.push(pollCounter)\n      PUSH 0\t\t\tpollIds.push(pollCounter)\n      SWAP1 \t\t\tpollIds.push(pollCounter)\n      SWAP2 \t\t\tpollIds.push(pollCounter)\n      SWAP1 \t\t\tpollIds.push(pollCounter)\n      SWAP2 \t\t\tpollIds.push(pollCounter)\n      SWAP1 \t\t\tpollIds.push(pollCounter)\n      SWAP2 \t\t\tpollIds.push(pollCounter)\n      POP \t\t\tpollIds.push(pollCounter)\n      SSTORE \t\t\tpollIds.push(pollCounter)\n      PUSH 3\t\t\tuserPolls\n      PUSH 0\t\t\tuserPolls[msg.sender]\n      CALLER \t\t\tmsg.sender\n      PUSH FFFFFFFFFFFFFFFFFFFFFFFFFFFFFFFFFFFFFFFF\t\t\tuserPolls[msg.sender]\n      AND \t\t\tuserPolls[msg.sender]\n      PUSH FFFFFFFFFFFFFFFFFFFFFFFFFFFFFFFFFFFFFFFF\t\t\tuserPolls[msg.sender]\n      AND \t\t\tuserPolls[msg.sender]\n      DUP2 \t\t\tuserPolls[msg.sender]\n      MSTORE \t\t\tuserPolls[msg.sender]\n      PUSH 20\t\t\tuserPolls[msg.sender]\n      ADD \t\t\tuserPolls[msg.sender]\n      SWAP1 \t\t\tuserPolls[msg.sender]\n      DUP2 \t\t\tuserPolls[msg.sender]\n      MSTORE \t\t\tuserPolls[msg.sender]\n      PUSH 20\t\t\tuserPolls[msg.sender]\n      ADD \t\t\tuserPolls[msg.sender]\n      PUSH 0\t\t\tuserPolls[msg.sender]\n      KECCAK256 \t\t\tuserPolls[msg.sender]\n      DUP2 \t\t\tp\n      SWAP1 \t\t\tuserPolls[msg.sender].push(p)\n      DUP1 \t\t\tuserPolls[msg.sender].push(p)\n      PUSH 1\t\t\tuserPolls[msg.sender].push(p)\n      DUP2 \t\t\tuserPolls[msg.sender].push(p)\n      SLOAD \t\t\tuserPolls[msg.sender].push(p)\n      ADD \t\t\tuserPolls[msg.sender].push(p)\n      DUP1 \t\t\tuserPolls[msg.sender].push(p)\n      DUP3 \t\t\tuserPolls[msg.sender].push(p)\n      SSTORE \t\t\tuserPolls[msg.sender].push(p)\n      DUP1 \t\t\tuserPolls[msg.sender].push(p)\n      SWAP2 \t\t\tuserPolls[msg.sender].push(p)\n      POP \t\t\tuserPolls[msg.sender].push(p)\n      POP \t\t\tuserPolls[msg.sender].push(p)\n      PUSH 1\t\t\tuserPolls[msg.sender].push(p)\n      SWAP1 \t\t\tuserPolls[msg.sender].push(p)\n      SUB \t\t\tuserPolls[msg.sender].push(p)\n      SWAP1 \t\t\tuserPolls[msg.sender].push(p)\n      PUSH 0\t\t\tuserPolls[msg.sender].push(p)\n      MSTORE \t\t\tuserPolls[msg.sender].push(p)\n      PUSH 20\t\t\tuserPolls[msg.sender].push(p)\n      PUSH 0\t\t\tuserPolls[msg.sender].push(p)\n      KECCAK256 \t\t\tuserPolls[msg.sender].push(p)\n      SWAP1 \t\t\tuserPolls[msg.sender].push(p)\n      PUSH 9\t\t\tuserPolls[msg.sender].push(p)\n      MUL \t\t\tuserPolls[msg.sender].push(p)\n      ADD \t\t\tuserPolls[msg.sender].push(p)\n      PUSH 0\t\t\tuserPolls[msg.sender].push(p)\n      SWAP1 \t\t\tuserPolls[msg.sender].push(p)\n      SWAP2 \t\t\tuserPolls[msg.sender].push(p)\n      SWAP1 \t\t\tuserPolls[msg.sender].push(p)\n      SWAP2 \t\t\tuserPolls[msg.sender].push(p)\n      SWAP1 \t\t\tuserPolls[msg.sender].push(p)\n      SWAP2 \t\t\tuserPolls[msg.sender].push(p)\n      POP \t\t\tuserPolls[msg.sender].push(p)\n      PUSH 0\t\t\tuserPolls[msg.sender].push(p)\n      DUP3 \t\t\tuserPolls[msg.sender].push(p)\n      ADD \t\t\tuserPolls[msg.sender].push(p)\n      PUSH 0\t\t\tuserPolls[msg.sender].push(p)\n      SWAP1 \t\t\tuserPolls[msg.sender].push(p)\n      SLOAD \t\t\tuserPolls[msg.sender].push(p)\n      SWAP1 \t\t\tuserPolls[msg.sender].push(p)\n      PUSH 100\t\t\tuserPolls[msg.sender].push(p)\n      EXP \t\t\tuserPolls[msg.sender].push(p)\n      SWAP1 \t\t\tuserPolls[msg.sender].push(p)\n      DIV \t\t\tuserPolls[msg.sender].push(p)\n      PUSH FFFFFFFFFFFFFFFFFFFFFFFFFFFFFFFFFFFFFFFF\t\t\tuserPolls[msg.sender].push(p)\n      AND \t\t\tuserPolls[msg.sender].push(p)\n      DUP2 \t\t\tuserPolls[msg.sender].push(p)\n      PUSH 0\t\t\tuserPolls[msg.sender].push(p)\n      ADD \t\t\tuserPolls[msg.sender].push(p)\n      PUSH 0\t\t\tuserPolls[msg.sender].push(p)\n      PUSH 100\t\t\tuserPolls[msg.sender].push(p)\n      EXP \t\t\tuserPolls[msg.sender].push(p)\n      DUP2 \t\t\tuserPolls[msg.sender].push(p)\n      SLOAD \t\t\tuserPolls[msg.sender].push(p)\n      DUP2 \t\t\tuserPolls[msg.sender].push(p)\n      PUSH FFFFFFFFFFFFFFFFFFFFFFFFFFFFFFFFFFFFFFFF\t\t\tuserPolls[msg.sender].push(p)\n      MUL \t\t\tuserPolls[msg.sender].push(p)\n      NOT \t\t\tuserPolls[msg.sender].push(p)\n      AND \t\t\tuserPolls[msg.sender].push(p)\n      SWAP1 \t\t\tuserPolls[msg.sender].push(p)\n      DUP4 \t\t\tuserPolls[msg.sender].push(p)\n      PUSH FFFFFFFFFFFFFFFFFFFFFFFFFFFFFFFFFFFFFFFF\t\t\tuserPolls[msg.sender].push(p)\n      AND \t\t\tuserPolls[msg.sender].push(p)\n      MUL \t\t\tuserPolls[msg.sender].push(p)\n      OR \t\t\tuserPolls[msg.sender].push(p)\n      SWAP1 \t\t\tuserPolls[msg.sender].push(p)\n      SSTORE \t\t\tuserPolls[msg.sender].push(p)\n      POP \t\t\tuserPolls[msg.sender].push(p)\n      PUSH 1\t\t\tuserPolls[msg.sender].push(p)\n      DUP3 \t\t\tuserPolls[msg.sender].push(p)\n      ADD \t\t\tuserPolls[msg.sender].push(p)\n      DUP2 \t\t\tuserPolls[msg.sender].push(p)\n      PUSH 1\t\t\tuserPolls[msg.sender].push(p)\n      ADD \t\t\tuserPolls[msg.sender].push(p)\n      SWAP1 \t\t\tuserPolls[msg.sender].push(p)\n      DUP2 \t\t\tuserPolls[msg.sender].push(p)\n      PUSH [tag] 92\t\t\tuserPolls[msg.sender].push(p)\n      SWAP2 \t\t\tuserPolls[msg.sender].push(p)\n      SWAP1 \t\t\tuserPolls[msg.sender].push(p)\n      PUSH [tag] 93\t\t\tuserPolls[msg.sender].push(p)\n      JUMP \t\t\tuserPolls[msg.sender].push(p)\n    tag 92\t\t\tuserPolls[msg.sender].push(p)\n      JUMPDEST \t\t\tuserPolls[msg.sender].push(p)\n      POP \t\t\tuserPolls[msg.sender].push(p)\n      PUSH 2\t\t\tuserPolls[msg.sender].push(p)\n      DUP3 \t\t\tuserPolls[msg.sender].push(p)\n      ADD \t\t\tuserPolls[msg.sender].push(p)\n      DUP2 \t\t\tuserPolls[msg.sender].push(p)\n      PUSH 2\t\t\tuserPolls[msg.sender].push(p)\n      ADD \t\t\tuserPolls[msg.sender].push(p)\n      SWAP1 \t\t\tuserPolls[msg.sender].push(p)\n      DUP1 \t\t\tuserPolls[msg.sender].push(p)\n      SLOAD \t\t\tuserPolls[msg.sender].push(p)\n      PUSH [tag] 94\t\t\tuserPolls[msg.sender].push(p)\n      SWAP3 \t\t\tuserPolls[msg.sender].push(p)\n      SWAP2 \t\t\tuserPolls[msg.sender].push(p)\n      SWAP1 \t\t\tuserPolls[msg.sender].push(p)\n      PUSH [tag] 95\t\t\tuserPolls[msg.sender].push(p)\n      JUMP \t\t\tuserPolls[msg.sender].push(p)\n    tag 94\t\t\tuserPolls[msg.sender].push(p)\n      JUMPDEST \t\t\tuserPolls[msg.sender].push(p)\n      POP \t\t\tuserPolls[msg.sender].push(p)\n      PUSH 3\t\t\tuserPolls[msg.sender].push(p)\n      DUP3 \t\t\tuserPolls[msg.sender].push(p)\n      ADD \t\t\tuserPolls[msg.sender].push(p)\n      SLOAD \t\t\tuserPolls[msg.sender].push(p)\n      DUP2 \t\t\tuserPolls[msg.sender].push(p)\n      PUSH 3\t\t\tuserPolls[msg.sender].push(p)\n      ADD \t\t\tuserPolls[msg.sender].push(p)\n      SSTORE \t\t\tuserPolls[msg.sender].push(p)\n      PUSH 4\t\t\tuserPolls[msg.sender].push(p)\n      DUP3 \t\t\tuserPolls[msg.sender].push(p)\n      ADD \t\t\tuserPolls[msg.sender].push(p)\n      SLOAD \t\t\tuserPolls[msg.sender].push(p)\n      DUP2 \t\t\tuserPolls[msg.sender].push(p)\n      PUSH 4\t\t\tuserPolls[msg.sender].push(p)\n      ADD \t\t\tuserPolls[msg.sender].push(p)\n      SSTORE \t\t\tuserPolls[msg.sender].push(p)\n      PUSH 5\t\t\tuserPolls[msg.sender].push(p)\n      DUP3 \t\t\tuserPolls[msg.sender].push(p)\n      ADD \t\t\tuserPolls[msg.sender].push(p)\n      SLOAD \t\t\tuserPolls[msg.sender].push(p)\n      DUP2 \t\t\tuserPolls[msg.sender].push(p)\n      PUSH 5\t\t\tuserPolls[msg.sender].push(p)\n      ADD \t\t\tuserPolls[msg.sender].push(p)\n      SSTORE \t\t\tuserPolls[msg.sender].push(p)\n      PUSH 6\t\t\tuserPolls[msg.sender].push(p)\n      DUP3 \t\t\tuserPolls[msg.sender].push(p)\n      ADD \t\t\tuserPolls[msg.sender].push(p)\n      PUSH 0\t\t\tuserPolls[msg.sender].push(p)\n      SWAP1 \t\t\tuserPolls[msg.sender].push(p)\n      SLOAD \t\t\tuserPolls[msg.sender].push(p)\n      SWAP1 \t\t\tuserPolls[msg.sender].push(p)\n      PUSH 100\t\t\tuserPolls[msg.sender].push(p)\n      EXP \t\t\tuserPolls[msg.sender].push(p)\n      SWAP1 \t\t\tuserPolls[msg.sender].push(p)\n      DIV \t\t\tuserPolls[msg.sender].push(p)\n      PUSH FF\t\t\tuserPolls[msg.sender].push(p)\n      AND \t\t\tuserPolls[msg.sender].push(p)\n      DUP2 \t\t\tuserPolls[msg.sender].push(p)\n      PUSH 6\t\t\tuserPolls[msg.sender].push(p)\n      ADD \t\t\tuserPolls[msg.sender].push(p)\n      PUSH 0\t\t\tuserPolls[msg.sender].push(p)\n      PUSH 100\t\t\tuserPolls[msg.sender].push(p)\n      EXP \t\t\tuserPolls[msg.sender].push(p)\n      DUP2 \t\t\tuserPolls[msg.sender].push(p)\n      SLOAD \t\t\tuserPolls[msg.sender].push(p)\n      DUP2 \t\t\tuserPolls[msg.sender].push(p)\n      PUSH FF\t\t\tuserPolls[msg.sender].push(p)\n      MUL \t\t\tuserPolls[msg.sender].push(p)\n      NOT \t\t\tuserPolls[msg.sender].push(p)\n      AND \t\t\tuserPolls[msg.sender].push(p)\n      SWAP1 \t\t\tuserPolls[msg.sender].push(p)\n      DUP4 \t\t\tuserPolls[msg.sender].push(p)\n      ISZERO \t\t\tuserPolls[msg.sender].push(p)\n      ISZERO \t\t\tuserPolls[msg.sender].push(p)\n      MUL \t\t\tuserPolls[msg.sender].push(p)\n      OR \t\t\tuserPolls[msg.sender].push(p)\n      SWAP1 \t\t\tuserPolls[msg.sender].push(p)\n      SSTORE \t\t\tuserPolls[msg.sender].push(p)\n      POP \t\t\tuserPolls[msg.sender].push(p)\n      PUSH 7\t\t\tuserPolls[msg.sender].push(p)\n      DUP3 \t\t\tuserPolls[msg.sender].push(p)\n      ADD \t\t\tuserPolls[msg.sender].push(p)\n      SLOAD \t\t\tuserPolls[msg.sender].push(p)\n      DUP2 \t\t\tuserPolls[msg.sender].push(p)\n      PUSH 7\t\t\tuserPolls[msg.sender].push(p)\n      ADD \t\t\tuserPolls[msg.sender].push(p)\n      SSTORE \t\t\tuserPolls[msg.sender].push(p)\n      PUSH 8\t\t\tuserPolls[msg.sender].push(p)\n      DUP3 \t\t\tuserPolls[msg.sender].push(p)\n      ADD \t\t\tuserPolls[msg.sender].push(p)\n      SLOAD \t\t\tuserPolls[msg.sender].push(p)\n      DUP2 \t\t\tuserPolls[msg.sender].push(p)\n      PUSH 8\t\t\tuserPolls[msg.sender].push(p)\n      ADD \t\t\tuserPolls[msg.sender].push(p)\n      SSTORE \t\t\tuserPolls[msg.sender].push(p)\n      POP \t\t\tuserPolls[msg.sender].push(p)\n      POP \t\t\tuserPolls[msg.sender].push(p)\n      PUSH 7CF84E937B660A86B8D03903ABF94C2E2976B2273DA8DFBEF2D89B7AC560463E\t\t\tPollCreated(pollCounter, msg.s...\n      PUSH 0\t\t\tpollCounter\n      SLOAD \t\t\tpollCounter\n      CALLER \t\t\tmsg.sender\n      DUP9 \t\t\tquestion\n      PUSH 40\t\t\tPollCreated(pollCounter, msg.s...\n      MLOAD \t\t\tPollCreated(pollCounter, msg.s...\n      PUSH [tag] 96\t\t\tPollCreated(pollCounter, msg.s...\n      SWAP4 \t\t\tPollCreated(pollCounter, msg.s...\n      SWAP3 \t\t\tPollCreated(pollCounter, msg.s...\n      SWAP2 \t\t\tPollCreated(pollCounter, msg.s...\n      SWAP1 \t\t\tPollCreated(pollCounter, msg.s...\n      PUSH [tag] 97\t\t\tPollCreated(pollCounter, msg.s...\n      JUMP \t\t\tPollCreated(pollCounter, msg.s...\n    tag 96\t\t\tPollCreated(pollCounter, msg.s...\n      JUMPDEST \t\t\tPollCreated(pollCounter, msg.s...\n      PUSH 40\t\t\tPollCreated(pollCounter, msg.s...\n      MLOAD \t\t\tPollCreated(pollCounter, msg.s...\n      DUP1 \t\t\tPollCreated(pollCounter, msg.s...\n      SWAP2 \t\t\tPollCreated(pollCounter, msg.s...\n      SUB \t\t\tPollCreated(pollCounter, msg.s...\n      SWAP1 \t\t\tPollCreated(pollCounter, msg.s...\n      LOG1 \t\t\tPollCreated(pollCounter, msg.s...\n      PUSH 0\t\t\tpollCounter\n      DUP1 \t\t\tpollCounter\n      DUP2 \t\t\tpollCounter++\n      SLOAD \t\t\tpollCounter++\n      DUP1 \t\t\tpollCounter++\n      SWAP3 \t\t\tpollCounter++\n      SWAP2 \t\t\tpollCounter++\n      SWAP1 \t\t\tpollCounter++\n      PUSH [tag] 98\t\t\tpollCounter++\n      SWAP1 \t\t\tpollCounter++\n      PUSH [tag] 99\t\t\tpollCounter++\n      JUMP \t\t\tpollCounter++\n    tag 98\t\t\tpollCounter++\n      JUMPDEST \t\t\tpollCounter++\n      SWAP2 \t\t\tpollCounter++\n      SWAP1 \t\t\tpollCounter++\n      POP \t\t\tpollCounter++\n      SSTORE \t\t\tpollCounter++\n      POP \t\t\tpollCounter++\n      POP \t\t\t{\\n        require(options.len...\n      POP \t\t\tfunction createPoll(\\n        ...\n      POP \t\t\tfunction createPoll(\\n        ...\n      POP \t\t\tfunction createPoll(\\n        ...\n      POP \t\t\tfunction createPoll(\\n        ...\n      POP \t\t\tfunction createPoll(\\n        ...\n      JUMP \t\t\tfunction createPoll(\\n        ...\n    tag 26\t\t\tuint256[] public pollIds\n      JUMPDEST \t\t\tuint256[] public pollIds\n      PUSH 1\t\t\tuint256[] public pollIds\n      DUP2 \t\t\tuint256[] public pollIds\n      DUP2 \t\t\tuint256[] public pollIds\n      SLOAD \t\t\tuint256[] public pollIds\n      DUP2 \t\t\tuint256[] public pollIds\n      LT \t\t\tuint256[] public pollIds\n      PUSH [tag] 100\t\t\tuint256[] public pollIds\n      JUMPI \t\t\tuint256[] public pollIds\n      PUSH 0\t\t\tuint256[] public pollIds\n      DUP1 \t\t\tuint256[] public pollIds\n      REVERT \t\t\tuint256[] public pollIds\n    tag 100\t\t\tuint256[] public pollIds\n      JUMPDEST \t\t\tuint256[] public pollIds\n      SWAP1 \t\t\tuint256[] public pollIds\n      PUSH 0\t\t\tuint256[] public pollIds\n      MSTORE \t\t\tuint256[] public pollIds\n      PUSH 20\t\t\tuint256[] public pollIds\n      PUSH 0\t\t\tuint256[] public pollIds\n      KECCAK256 \t\t\tuint256[] public pollIds\n      ADD \t\t\tuint256[] public pollIds\n      PUSH 0\t\t\tuint256[] public pollIds\n      SWAP2 \t\t\tuint256[] public pollIds\n      POP \t\t\tuint256[] public pollIds\n      SWAP1 \t\t\tuint256[] public pollIds\n      POP \t\t\tuint256[] public pollIds\n      SLOAD \t\t\tuint256[] public pollIds\n      DUP2 \t\t\tuint256[] public pollIds\n      JUMP \t\t\tuint256[] public pollIds\n    tag 32\t\t\tfunction getOptions(uint256 po...\n      JUMPDEST \t\t\tfunction getOptions(uint256 po...\n      PUSH 60\t\t\tstring[] memory\n      PUSH 2\t\t\tpolls\n      PUSH 0\t\t\tpolls[pollId]\n      DUP4 \t\t\tpollId\n      DUP2 \t\t\tpolls[pollId]\n      MSTORE \t\t\tpolls[pollId]\n      PUSH 20\t\t\tpolls[pollId]\n      ADD \t\t\tpolls[pollId]\n      SWAP1 \t\t\tpolls[pollId]\n      DUP2 \t\t\tpolls[pollId]\n      MSTORE \t\t\tpolls[pollId]\n      PUSH 20\t\t\tpolls[pollId]\n      ADD \t\t\tpolls[pollId]\n      PUSH 0\t\t\tpolls[pollId]\n      KECCAK256 \t\t\tpolls[pollId]\n      PUSH 2\t\t\tpolls[pollId].options\n      ADD \t\t\tpolls[pollId].options\n      DUP1 \t\t\treturn polls[pollId].options\n      SLOAD \t\t\treturn polls[pollId].options\n      DUP1 \t\t\treturn polls[pollId].options\n      PUSH 20\t\t\treturn polls[pollId].options\n      MUL \t\t\treturn polls[pollId].options\n      PUSH 20\t\t\treturn polls[pollId].options\n      ADD \t\t\treturn polls[pollId].options\n      PUSH 40\t\t\treturn polls[pollId].options\n      MLOAD \t\t\treturn polls[pollId].options\n      SWAP1 \t\t\treturn polls[pollId].options\n      DUP2 \t\t\treturn polls[pollId].options\n      ADD \t\t\treturn polls[pollId].options\n      PUSH 40\t\t\treturn polls[pollId].options\n      MSTORE \t\t\treturn polls[pollId].options\n      DUP1 \t\t\treturn polls[pollId].options\n      SWAP3 \t\t\treturn polls[pollId].options\n      SWAP2 \t\t\treturn polls[pollId].options\n      SWAP1 \t\t\treturn polls[pollId].options\n      DUP2 \t\t\treturn polls[pollId].options\n      DUP2 \t\t\treturn polls[pollId].options\n      MSTORE \t\t\treturn polls[pollId].options\n      PUSH 20\t\t\treturn polls[pollId].options\n      ADD \t\t\treturn polls[pollId].options\n      PUSH 0\t\t\treturn polls[pollId].options\n      SWAP1 \t\t\treturn polls[pollId].options\n    tag 103\t\t\treturn polls[pollId].options\n      JUMPDEST \t\t\treturn polls[pollId].options\n      DUP3 \t\t\treturn polls[pollId].options\n      DUP3 \t\t\treturn polls[pollId].options\n      LT \t\t\treturn polls[pollId].options\n      ISZERO \t\t\treturn polls[pollId].options\n      PUSH [tag] 104\t\t\treturn polls[pollId].options\n      JUMPI \t\t\treturn polls[pollId].options\n      DUP4 \t\t\treturn polls[pollId].options\n      DUP3 \t\t\treturn polls[pollId].options\n      SWAP1 \t\t\treturn polls[pollId].options\n      PUSH 0\t\t\treturn polls[pollId].options\n      MSTORE \t\t\treturn polls[pollId].options\n      PUSH 20\t\t\treturn polls[pollId].options\n      PUSH 0\t\t\treturn polls[pollId].options\n      KECCAK256 \t\t\treturn polls[pollId].options\n      ADD \t\t\treturn polls[pollId].options\n      DUP1 \t\t\treturn polls[pollId].options\n      SLOAD \t\t\treturn polls[pollId].options\n      PUSH [tag] 106\t\t\treturn polls[pollId].options\n      SWAP1 \t\t\treturn polls[pollId].options\n      PUSH [tag] 62\t\t\treturn polls[pollId].options\n      JUMP \t\t\treturn polls[pollId].options\n    tag 106\t\t\treturn polls[pollId].options\n      JUMPDEST \t\t\treturn polls[pollId].options\n      DUP1 \t\t\treturn polls[pollId].options\n      PUSH 1F\t\t\treturn polls[pollId].options\n      ADD \t\t\treturn polls[pollId].options\n      PUSH 20\t\t\treturn polls[pollId].options\n      DUP1 \t\t\treturn polls[pollId].options\n      SWAP2 \t\t\treturn polls[pollId].options\n      DIV \t\t\treturn polls[pollId].options\n      MUL \t\t\treturn polls[pollId].options\n      PUSH 20\t\t\treturn polls[pollId].options\n      ADD \t\t\treturn polls[pollId].options\n      PUSH 40\t\t\treturn polls[pollId].options\n      MLOAD \t\t\treturn polls[pollId].options\n      SWAP1 \t\t\treturn polls[pollId].options\n      DUP2 \t\t\treturn polls[pollId].options\n      ADD \t\t\treturn polls[pollId].options\n      PUSH 40\t\t\treturn polls[pollId].options\n      MSTORE \t\t\treturn polls[pollId].options\n      DUP1 \t\t\treturn polls[pollId].options\n      SWAP3 \t\t\treturn polls[pollId].options\n      SWAP2 \t\t\treturn polls[pollId].options\n      SWAP1 \t\t\treturn polls[pollId].options\n      DUP2 \t\t\treturn polls[pollId].options\n      DUP2 \t\t\treturn polls[pollId].options\n      MSTORE \t\t\treturn polls[pollId].options\n      PUSH 20\t\t\treturn polls[pollId].options\n      ADD \t\t\treturn polls[pollId].options\n      DUP3 \t\t\treturn polls[pollId].options\n      DUP1 \t\t\treturn polls[pollId].options\n      SLOAD \t\t\treturn polls[pollId].options\n      PUSH [tag] 107\t\t\treturn polls[pollId].options\n      SWAP1 \t\t\treturn polls[pollId].options\n      PUSH [tag] 62\t\t\treturn polls[pollId].options\n      JUMP \t\t\treturn polls[pollId].options\n    tag 107\t\t\treturn polls[pollId].options\n      JUMPDEST \t\t\treturn polls[pollId].options\n      DUP1 \t\t\treturn polls[pollId].options\n      ISZERO \t\t\treturn polls[pollId].options\n      PUSH [tag] 108\t\t\treturn polls[pollId].options\n      JUMPI \t\t\treturn polls[pollId].options\n      DUP1 \t\t\treturn polls[pollId].options\n      PUSH 1F\t\t\treturn polls[pollId].options\n      LT \t\t\treturn polls[pollId].options\n      PUSH [tag] 109\t\t\treturn polls[pollId].options\n      JUMPI \t\t\treturn polls[pollId].options\n      PUSH 100\t\t\treturn polls[pollId].options\n      DUP1 \t\t\treturn polls[pollId].options\n      DUP4 \t\t\treturn polls[pollId].options\n      SLOAD \t\t\treturn polls[pollId].options\n      DIV \t\t\treturn polls[pollId].options\n      MUL \t\t\treturn polls[pollId].options\n      DUP4 \t\t\treturn polls[pollId].options\n      MSTORE \t\t\treturn polls[pollId].options\n      SWAP2 \t\t\treturn polls[pollId].options\n      PUSH 20\t\t\treturn polls[pollId].options\n      ADD \t\t\treturn polls[pollId].options\n      SWAP2 \t\t\treturn polls[pollId].options\n      PUSH [tag] 108\t\t\treturn polls[pollId].options\n      JUMP \t\t\treturn polls[pollId].options\n    tag 109\t\t\treturn polls[pollId].options\n      JUMPDEST \t\t\treturn polls[pollId].options\n      DUP3 \t\t\treturn polls[pollId].options\n      ADD \t\t\treturn polls[pollId].options\n      SWAP2 \t\t\treturn polls[pollId].options\n      SWAP1 \t\t\treturn polls[pollId].options\n      PUSH 0\t\t\treturn polls[pollId].options\n      MSTORE \t\t\treturn polls[pollId].options\n      PUSH 20\t\t\treturn polls[pollId].options\n      PUSH 0\t\t\treturn polls[pollId].options\n      KECCAK256 \t\t\treturn polls[pollId].options\n      SWAP1 \t\t\treturn polls[pollId].options\n    tag 110\t\t\treturn polls[pollId].options\n      JUMPDEST \t\t\treturn polls[pollId].options\n      DUP2 \t\t\treturn polls[pollId].options\n      SLOAD \t\t\treturn polls[pollId].options\n      DUP2 \t\t\treturn polls[pollId].options\n      MSTORE \t\t\treturn polls[pollId].options\n      SWAP1 \t\t\treturn polls[pollId].options\n      PUSH 1\t\t\treturn polls[pollId].options\n      ADD \t\t\treturn polls[pollId].options\n      SWAP1 \t\t\treturn polls[pollId].options\n      PUSH 20\t\t\treturn polls[pollId].options\n      ADD \t\t\treturn polls[pollId].options\n      DUP1 \t\t\treturn polls[pollId].options\n      DUP4 \t\t\treturn polls[pollId].options\n      GT \t\t\treturn polls[pollId].options\n      PUSH [tag] 110\t\t\treturn polls[pollId].options\n      JUMPI \t\t\treturn polls[pollId].options\n      DUP3 \t\t\treturn polls[pollId].options\n      SWAP1 \t\t\treturn polls[pollId].options\n      SUB \t\t\treturn polls[pollId].options\n      PUSH 1F\t\t\treturn polls[pollId].options\n      AND \t\t\treturn polls[pollId].options\n      DUP3 \t\t\treturn polls[pollId].options\n      ADD \t\t\treturn polls[pollId].options\n      SWAP2 \t\t\treturn polls[pollId].options\n    tag 108\t\t\treturn polls[pollId].options\n      JUMPDEST \t\t\treturn polls[pollId].options\n      POP \t\t\treturn polls[pollId].options\n      POP \t\t\treturn polls[pollId].options\n      POP \t\t\treturn polls[pollId].options\n      POP \t\t\treturn polls[pollId].options\n      POP \t\t\treturn polls[pollId].options\n      DUP2 \t\t\treturn polls[pollId].options\n      MSTORE \t\t\treturn polls[pollId].options\n      PUSH 20\t\t\treturn polls[pollId].options\n      ADD \t\t\treturn polls[pollId].options\n      SWAP1 \t\t\treturn polls[pollId].options\n      PUSH 1\t\t\treturn polls[pollId].options\n      ADD \t\t\treturn polls[pollId].options\n      SWAP1 \t\t\treturn polls[pollId].options\n      PUSH [tag] 103\t\t\treturn polls[pollId].options\n      JUMP \t\t\treturn polls[pollId].options\n    tag 104\t\t\treturn polls[pollId].options\n      JUMPDEST \t\t\treturn polls[pollId].options\n      POP \t\t\treturn polls[pollId].options\n      POP \t\t\treturn polls[pollId].options\n      POP \t\t\treturn polls[pollId].options\n      POP \t\t\treturn polls[pollId].options\n      SWAP1 \t\t\treturn polls[pollId].options\n      POP \t\t\treturn polls[pollId].options\n      SWAP2 \t\t\tfunction getOptions(uint256 po...\n      SWAP1 \t\t\tfunction getOptions(uint256 po...\n      POP \t\t\tfunction getOptions(uint256 po...\n      JUMP \t\t\tfunction getOptions(uint256 po...\n    tag 38\t\t\tfunction closePoll(uint256 pol...\n      JUMPDEST \t\t\tfunction closePoll(uint256 pol...\n      PUSH 0\t\t\tPoll storage p\n      PUSH 2\t\t\tpolls\n      PUSH 0\t\t\tpolls[pollId]\n      DUP4 \t\t\tpollId\n      DUP2 \t\t\tpolls[pollId]\n      MSTORE \t\t\tpolls[pollId]\n      PUSH 20\t\t\tpolls[pollId]\n      ADD \t\t\tpolls[pollId]\n      SWAP1 \t\t\tpolls[pollId]\n      DUP2 \t\t\tpolls[pollId]\n      MSTORE \t\t\tpolls[pollId]\n      PUSH 20\t\t\tpolls[pollId]\n      ADD \t\t\tpolls[pollId]\n      PUSH 0\t\t\tpolls[pollId]\n      KECCAK256 \t\t\tpolls[pollId]\n      SWAP1 \t\t\tPoll storage p = polls[pollId]\n      POP \t\t\tPoll storage p = polls[pollId]\n      DUP1 \t\t\tp\n      PUSH 0\t\t\tp.creator\n      ADD \t\t\tp.creator\n      PUSH 0\t\t\tp.creator\n      SWAP1 \t\t\tp.creator\n      SLOAD \t\t\tp.creator\n      SWAP1 \t\t\tp.creator\n      PUSH 100\t\t\tp.creator\n      EXP \t\t\tp.creator\n      SWAP1 \t\t\tp.creator\n      DIV \t\t\tp.creator\n      PUSH FFFFFFFFFFFFFFFFFFFFFFFFFFFFFFFFFFFFFFFF\t\t\tp.creator\n      AND \t\t\tp.creator\n      PUSH FFFFFFFFFFFFFFFFFFFFFFFFFFFFFFFFFFFFFFFF\t\t\tmsg.sender == p.creator\n      AND \t\t\tmsg.sender == p.creator\n      CALLER \t\t\tmsg.sender\n      PUSH FFFFFFFFFFFFFFFFFFFFFFFFFFFFFFFFFFFFFFFF\t\t\tmsg.sender == p.creator\n      AND \t\t\tmsg.sender == p.creator\n      EQ \t\t\tmsg.sender == p.creator\n      PUSH [tag] 112\t\t\trequire(msg.sender == p.creato...\n      JUMPI \t\t\trequire(msg.sender == p.creato...\n      PUSH 40\t\t\trequire(msg.sender == p.creato...\n      MLOAD \t\t\trequire(msg.sender == p.creato...\n      PUSH 8C379A000000000000000000000000000000000000000000000000000000000\t\t\trequire(msg.sender == p.creato...\n      DUP2 \t\t\trequire(msg.sender == p.creato...\n      MSTORE \t\t\trequire(msg.sender == p.creato...\n      PUSH 4\t\t\trequire(msg.sender == p.creato...\n      ADD \t\t\trequire(msg.sender == p.creato...\n      PUSH [tag] 113\t\t\trequire(msg.sender == p.creato...\n      SWAP1 \t\t\trequire(msg.sender == p.creato...\n      PUSH [tag] 114\t\t\trequire(msg.sender == p.creato...\n      JUMP \t\t\trequire(msg.sender == p.creato...\n    tag 113\t\t\trequire(msg.sender == p.creato...\n      JUMPDEST \t\t\trequire(msg.sender == p.creato...\n      PUSH 40\t\t\trequire(msg.sender == p.creato...\n      MLOAD \t\t\trequire(msg.sender == p.creato...\n      DUP1 \t\t\trequire(msg.sender == p.creato...\n      SWAP2 \t\t\trequire(msg.sender == p.creato...\n      SUB \t\t\trequire(msg.sender == p.creato...\n      SWAP1 \t\t\trequire(msg.sender == p.creato...\n      REVERT \t\t\trequire(msg.sender == p.creato...\n    tag 112\t\t\trequire(msg.sender == p.creato...\n      JUMPDEST \t\t\trequire(msg.sender == p.creato...\n      DUP1 \t\t\tp\n      PUSH 6\t\t\tp.isOpen\n      ADD \t\t\tp.isOpen\n      PUSH 0\t\t\tp.isOpen\n      SWAP1 \t\t\tp.isOpen\n      SLOAD \t\t\tp.isOpen\n      SWAP1 \t\t\tp.isOpen\n      PUSH 100\t\t\tp.isOpen\n      EXP \t\t\tp.isOpen\n      SWAP1 \t\t\tp.isOpen\n      DIV \t\t\tp.isOpen\n      PUSH FF\t\t\tp.isOpen\n      AND \t\t\tp.isOpen\n      PUSH [tag] 115\t\t\trequire(p.isOpen, \"Already clo...\n      JUMPI \t\t\trequire(p.isOpen, \"Already clo...\n      PUSH 40\t\t\trequire(p.isOpen, \"Already clo...\n      MLOAD \t\t\trequire(p.isOpen, \"Already clo...\n      PUSH 8C379A000000000000000000000000000000000000000000000000000000000\t\t\trequire(p.isOpen, \"Already clo...\n      DUP2 \t\t\trequire(p.isOpen, \"Already clo...\n      MSTORE \t\t\trequire(p.isOpen, \"Already clo...\n      PUSH 4\t\t\trequire(p.isOpen, \"Already clo...\n      ADD \t\t\trequire(p.isOpen, \"Already clo...\n      PUSH [tag] 116\t\t\trequire(p.isOpen, \"Already clo...\n      SWAP1 \t\t\trequire(p.isOpen, \"Already clo...\n      PUSH [tag] 117\t\t\trequire(p.isOpen, \"Already clo...\n      JUMP \t\t\trequire(p.isOpen, \"Already clo...\n    tag 116\t\t\trequire(p.isOpen, \"Already clo...\n      JUMPDEST \t\t\trequire(p.isOpen, \"Already clo...\n      PUSH 40\t\t\trequire(p.isOpen, \"Already clo...\n      MLOAD \t\t\trequire(p.isOpen, \"Already clo...\n      DUP1 \t\t\trequire(p.isOpen, \"Already clo...\n      SWAP2 \t\t\trequire(p.isOpen, \"Already clo...\n      SUB \t\t\trequire(p.isOpen, \"Already clo...\n      SWAP1 \t\t\trequire(p.isOpen, \"Already clo...\n      REVERT \t\t\trequire(p.isOpen, \"Already clo...\n    tag 115\t\t\trequire(p.isOpen, \"Already clo...\n      JUMPDEST \t\t\trequire(p.isOpen, \"Already clo...\n      DUP1 \t\t\tp\n      PUSH 5\t\t\tp.endTime\n      ADD \t\t\tp.endTime\n      SLOAD \t\t\tp.endTime\n      TIMESTAMP \t\t\tblock.timestamp\n      LT \t\t\tblock.timestamp >= p.endTime\n      ISZERO \t\t\tblock.timestamp >= p.endTime\n      DUP1 \t\t\tblock.timestamp >= p.endTime |...\n      PUSH [tag] 118\t\t\tblock.timestamp >= p.endTime |...\n      JUMPI \t\t\tblock.timestamp >= p.endTime |...\n      POP \t\t\tblock.timestamp >= p.endTime |...\n      DUP1 \t\t\tp\n      PUSH 4\t\t\tp.maxResponses\n      ADD \t\t\tp.maxResponses\n      SLOAD \t\t\tp.maxResponses\n      DUP2 \t\t\tp\n      PUSH 7\t\t\tp.totalResponses\n      ADD \t\t\tp.totalResponses\n      SLOAD \t\t\tp.totalResponses\n      LT \t\t\tp.totalResponses >= p.maxRespo...\n      ISZERO \t\t\tp.totalResponses >= p.maxRespo...\n    tag 118\t\t\tblock.timestamp >= p.endTime |...\n      JUMPDEST \t\t\tblock.timestamp >= p.endTime |...\n      PUSH [tag] 119\t\t\trequire(block.timestamp >= p.e...\n      JUMPI \t\t\trequire(block.timestamp >= p.e...\n      PUSH 40\t\t\trequire(block.timestamp >= p.e...\n      MLOAD \t\t\trequire(block.timestamp >= p.e...\n      PUSH 8C379A000000000000000000000000000000000000000000000000000000000\t\t\trequire(block.timestamp >= p.e...\n      DUP2 \t\t\trequire(block.timestamp >= p.e...\n      MSTORE \t\t\trequire(block.timestamp >= p.e...\n      PUSH 4\t\t\trequire(block.timestamp >= p.e...\n      ADD \t\t\trequire(block.timestamp >= p.e...\n      PUSH [tag] 120\t\t\trequire(block.timestamp >= p.e...\n      SWAP1 \t\t\trequire(block.timestamp >= p.e...\n      PUSH [tag] 121\t\t\trequire(block.timestamp >= p.e...\n      JUMP \t\t\trequire(block.timestamp >= p.e...\n    tag 120\t\t\trequire(block.timestamp >= p.e...\n      JUMPDEST \t\t\trequire(block.timestamp >= p.e...\n      PUSH 40\t\t\trequire(block.timestamp >= p.e...\n      MLOAD \t\t\trequire(block.timestamp >= p.e...\n      DUP1 \t\t\trequire(block.timestamp >= p.e...\n      SWAP2 \t\t\trequire(block.timestamp >= p.e...\n      SUB \t\t\trequire(block.timestamp >= p.e...\n      SWAP1 \t\t\trequire(block.timestamp >= p.e...\n      REVERT \t\t\trequire(block.timestamp >= p.e...\n    tag 119\t\t\trequire(block.timestamp >= p.e...\n      JUMPDEST \t\t\trequire(block.timestamp >= p.e...\n      PUSH 0\t\t\tfalse\n      DUP2 \t\t\tp\n      PUSH 6\t\t\tp.isOpen\n      ADD \t\t\tp.isOpen\n      PUSH 0\t\t\tp.isOpen\n      PUSH 100\t\t\tp.isOpen = false\n      EXP \t\t\tp.isOpen = false\n      DUP2 \t\t\tp.isOpen = false\n      SLOAD \t\t\tp.isOpen = false\n      DUP2 \t\t\tp.isOpen = false\n      PUSH FF\t\t\tp.isOpen = false\n      MUL \t\t\tp.isOpen = false\n      NOT \t\t\tp.isOpen = false\n      AND \t\t\tp.isOpen = false\n      SWAP1 \t\t\tp.isOpen = false\n      DUP4 \t\t\tp.isOpen = false\n      ISZERO \t\t\tp.isOpen = false\n      ISZERO \t\t\tp.isOpen = false\n      MUL \t\t\tp.isOpen = false\n      OR \t\t\tp.isOpen = false\n      SWAP1 \t\t\tp.isOpen = false\n      SSTORE \t\t\tp.isOpen = false\n      POP \t\t\tp.isOpen = false\n      PUSH 703C67C157A1AFB7D386CE5212EE88BF0A690BCA998060E9595EBDFD747100CE\t\t\tPollClosed(pollId)\n      DUP3 \t\t\tpollId\n      PUSH 40\t\t\tPollClosed(pollId)\n      MLOAD \t\t\tPollClosed(pollId)\n      PUSH [tag] 122\t\t\tPollClosed(pollId)\n      SWAP2 \t\t\tPollClosed(pollId)\n      SWAP1 \t\t\tPollClosed(pollId)\n      PUSH [tag] 28\t\t\tPollClosed(pollId)\n      JUMP \t\t\tPollClosed(pollId)\n    tag 122\t\t\tPollClosed(pollId)\n      JUMPDEST \t\t\tPollClosed(pollId)\n      PUSH 40\t\t\tPollClosed(pollId)\n      MLOAD \t\t\tPollClosed(pollId)\n      DUP1 \t\t\tPollClosed(pollId)\n      SWAP2 \t\t\tPollClosed(pollId)\n      SUB \t\t\tPollClosed(pollId)\n      SWAP1 \t\t\tPollClosed(pollId)\n      LOG1 \t\t\tPollClosed(pollId)\n      POP \t\t\t{\\n        Poll storage p = po...\n      POP \t\t\tfunction closePoll(uint256 pol...\n      JUMP \t\t\tfunction closePoll(uint256 pol...\n    tag 42\t\t\tmapping(uint256 => Poll) publi...\n      JUMPDEST \t\t\tmapping(uint256 => Poll) publi...\n      PUSH 2\t\t\tmapping(uint256 => Poll) publi...\n      PUSH 20\t\t\tmapping(uint256 => Poll) publi...\n      MSTORE \t\t\tmapping(uint256 => Poll) publi...\n      DUP1 \t\t\tmapping(uint256 => Poll) publi...\n      PUSH 0\t\t\tmapping(uint256 => Poll) publi...\n      MSTORE \t\t\tmapping(uint256 => Poll) publi...\n      PUSH 40\t\t\tmapping(uint256 => Poll) publi...\n      PUSH 0\t\t\tmapping(uint256 => Poll) publi...\n      KECCAK256 \t\t\tmapping(uint256 => Poll) publi...\n      PUSH 0\t\t\tmapping(uint256 => Poll) publi...\n      SWAP2 \t\t\tmapping(uint256 => Poll) publi...\n      POP \t\t\tmapping(uint256 => Poll) publi...\n      SWAP1 \t\t\tmapping(uint256 => Poll) publi...\n      POP \t\t\tmapping(uint256 => Poll) publi...\n      DUP1 \t\t\tmapping(uint256 => Poll) publi...\n      PUSH 0\t\t\tmapping(uint256 => Poll) publi...\n      ADD \t\t\tmapping(uint256 => Poll) publi...\n      PUSH 0\t\t\tmapping(uint256 => Poll) publi...\n      SWAP1 \t\t\tmapping(uint256 => Poll) publi...\n      SLOAD \t\t\tmapping(uint256 => Poll) publi...\n      SWAP1 \t\t\tmapping(uint256 => Poll) publi...\n      PUSH 100\t\t\tmapping(uint256 => Poll) publi...\n      EXP \t\t\tmapping(uint256 => Poll) publi...\n      SWAP1 \t\t\tmapping(uint256 => Poll) publi...\n      DIV \t\t\tmapping(uint256 => Poll) publi...\n      PUSH FFFFFFFFFFFFFFFFFFFFFFFFFFFFFFFFFFFFFFFF\t\t\tmapping(uint256 => Poll) publi...\n      AND \t\t\tmapping(uint256 => Poll) publi...\n      SWAP1 \t\t\tmapping(uint256 => Poll) publi...\n      DUP1 \t\t\tmapping(uint256 => Poll) publi...\n      PUSH 1\t\t\tmapping(uint256 => Poll) publi...\n      ADD \t\t\tmapping(uint256 => Poll) publi...\n      DUP1 \t\t\tmapping(uint256 => Poll) publi...\n      SLOAD \t\t\tmapping(uint256 => Poll) publi...\n      PUSH [tag] 123\t\t\tmapping(uint256 => Poll) publi...\n      SWAP1 \t\t\tmapping(uint256 => Poll) publi...\n      PUSH [tag] 62\t\t\tmapping(uint256 => Poll) publi...\n      JUMP \t\t\tmapping(uint256 => Poll) publi...\n    tag 123\t\t\tmapping(uint256 => Poll) publi...\n      JUMPDEST \t\t\tmapping(uint256 => Poll) publi...\n      DUP1 \t\t\tmapping(uint256 => Poll) publi...\n      PUSH 1F\t\t\tmapping(uint256 => Poll) publi...\n      ADD \t\t\tmapping(uint256 => Poll) publi...\n      PUSH 20\t\t\tmapping(uint256 => Poll) publi...\n      DUP1 \t\t\tmapping(uint256 => Poll) publi...\n      SWAP2 \t\t\tmapping(uint256 => Poll) publi...\n      DIV \t\t\tmapping(uint256 => Poll) publi...\n      MUL \t\t\tmapping(uint256 => Poll) publi...\n      PUSH 20\t\t\tmapping(uint256 => Poll) publi...\n      ADD \t\t\tmapping(uint256 => Poll) publi...\n      PUSH 40\t\t\tmapping(uint256 => Poll) publi...\n      MLOAD \t\t\tmapping(uint256 => Poll) publi...\n      SWAP1 \t\t\tmapping(uint256 => Poll) publi...\n      DUP2 \t\t\tmapping(uint256 => Poll) publi...\n      ADD \t\t\tmapping(uint256 => Poll) publi...\n      PUSH 40\t\t\tmapping(uint256 => Poll) publi...\n      MSTORE \t\t\tmapping(uint256 => Poll) publi...\n      DUP1 \t\t\tmapping(uint256 => Poll) publi...\n      SWAP3 \t\t\tmapping(uint256 => Poll) publi...\n      SWAP2 \t\t\tmapping(uint256 => Poll) publi...\n      SWAP1 \t\t\tmapping(uint256 => Poll) publi...\n      DUP2 \t\t\tmapping(uint256 => Poll) publi...\n      DUP2 \t\t\tmapping(uint256 => Poll) publi...\n      MSTORE \t\t\tmapping(uint256 => Poll) publi...\n      PUSH 20\t\t\tmapping(uint256 => Poll) publi...\n      ADD \t\t\tmapping(uint256 => Poll) publi...\n      DUP3 \t\t\tmapping(uint256 => Poll) publi...\n      DUP1 \t\t\tmapping(uint256 => Poll) publi...\n      SLOAD \t\t\tmapping(uint256 => Poll) publi...\n      PUSH [tag] 124\t\t\tmapping(uint256 => Poll) publi...\n      SWAP1 \t\t\tmapping(uint256 => Poll) publi...\n      PUSH [tag] 62\t\t\tmapping(uint256 => Poll) publi...\n      JUMP \t\t\tmapping(uint256 => Poll) publi...\n    tag 124\t\t\tmapping(uint256 => Poll) publi...\n      JUMPDEST \t\t\tmapping(uint256 => Poll) publi...\n      DUP1 \t\t\tmapping(uint256 => Poll) publi...\n      ISZERO \t\t\tmapping(uint256 => Poll) publi...\n      PUSH [tag] 125\t\t\tmapping(uint256 => Poll) publi...\n      JUMPI \t\t\tmapping(uint256 => Poll) publi...\n      DUP1 \t\t\tmapping(uint256 => Poll) publi...\n      PUSH 1F\t\t\tmapping(uint256 => Poll) publi...\n      LT \t\t\tmapping(uint256 => Poll) publi...\n      PUSH [tag] 126\t\t\tmapping(uint256 => Poll) publi...\n      JUMPI \t\t\tmapping(uint256 => Poll) publi...\n      PUSH 100\t\t\tmapping(uint256 => Poll) publi...\n      DUP1 \t\t\tmapping(uint256 => Poll) publi...\n      DUP4 \t\t\tmapping(uint256 => Poll) publi...\n      SLOAD \t\t\tmapping(uint256 => Poll) publi...\n      DIV \t\t\tmapping(uint256 => Poll) publi...\n      MUL \t\t\tmapping(uint256 => Poll) publi...\n      DUP4 \t\t\tmapping(uint256 => Poll) publi...\n      MSTORE \t\t\tmapping(uint256 => Poll) publi...\n      SWAP2 \t\t\tmapping(uint256 => Poll) publi...\n      PUSH 20\t\t\tmapping(uint256 => Poll) publi...\n      ADD \t\t\tmapping(uint256 => Poll) publi...\n      SWAP2 \t\t\tmapping(uint256 => Poll) publi...\n      PUSH [tag] 125\t\t\tmapping(uint256 => Poll) publi...\n      JUMP \t\t\tmapping(uint256 => Poll) publi...\n    tag 126\t\t\tmapping(uint256 => Poll) publi...\n      JUMPDEST \t\t\tmapping(uint256 => Poll) publi...\n      DUP3 \t\t\tmapping(uint256 => Poll) publi...\n      ADD \t\t\tmapping(uint256 => Poll) publi...\n      SWAP2 \t\t\tmapping(uint256 => Poll) publi...\n      SWAP1 \t\t\tmapping(uint256 => Poll) publi...\n      PUSH 0\t\t\tmapping(uint256 => Poll) publi...\n      MSTORE \t\t\tmapping(uint256 => Poll) publi...\n      PUSH 20\t\t\tmapping(uint256 => Poll) publi...\n      PUSH 0\t\t\tmapping(uint256 => Poll) publi...\n      KECCAK256 \t\t\tmapping(uint256 => Poll) publi...\n      SWAP1 \t\t\tmapping(uint256 => Poll) publi...\n    tag 127\t\t\tmapping(uint256 => Poll) publi...\n      JUMPDEST \t\t\tmapping(uint256 => Poll) publi...\n      DUP2 \t\t\tmapping(uint256 => Poll) publi...\n      SLOAD \t\t\tmapping(uint256 => Poll) publi...\n      DUP2 \t\t\tmapping(uint256 => Poll) publi...\n      MSTORE \t\t\tmapping(uint256 => Poll) publi...\n      SWAP1 \t\t\tmapping(uint256 => Poll) publi...\n      PUSH 1\t\t\tmapping(uint256 => Poll) publi...\n      ADD \t\t\tmapping(uint256 => Poll) publi...\n      SWAP1 \t\t\tmapping(uint256 => Poll) publi...\n      PUSH 20\t\t\tmapping(uint256 => Poll) publi...\n      ADD \t\t\tmapping(uint256 => Poll) publi...\n      DUP1 \t\t\tmapping(uint256 => Poll) publi...\n      DUP4 \t\t\tmapping(uint256 => Poll) publi...\n      GT \t\t\tmapping(uint256 => Poll) publi...\n      PUSH [tag] 127\t\t\tmapping(uint256 => Poll) publi...\n      JUMPI \t\t\tmapping(uint256 => Poll) publi...\n      DUP3 \t\t\tmapping(uint256 => Poll) publi...\n      SWAP1 \t\t\tmapping(uint256 => Poll) publi...\n      SUB \t\t\tmapping(uint256 => Poll) publi...\n      PUSH 1F\t\t\tmapping(uint256 => Poll) publi...\n      AND \t\t\tmapping(uint256 => Poll) publi...\n      DUP3 \t\t\tmapping(uint256 => Poll) publi...\n      ADD \t\t\tmapping(uint256 => Poll) publi...\n      SWAP2 \t\t\tmapping(uint256 => Poll) publi...\n    tag 125\t\t\tmapping(uint256 => Poll) publi...\n      JUMPDEST \t\t\tmapping(uint256 => Poll) publi...\n      POP \t\t\tmapping(uint256 => Poll) publi...\n      POP \t\t\tmapping(uint256 => Poll) publi...\n      POP \t\t\tmapping(uint256 => Poll) publi...\n      POP \t\t\tmapping(uint256 => Poll) publi...\n      POP \t\t\tmapping(uint256 => Poll) publi...\n      SWAP1 \t\t\tmapping(uint256 => Poll) publi...\n      DUP1 \t\t\tmapping(uint256 => Poll) publi...\n      PUSH 3\t\t\tmapping(uint256 => Poll) publi...\n      ADD \t\t\tmapping(uint256 => Poll) publi...\n      SLOAD \t\t\tmapping(uint256 => Poll) publi...\n      SWAP1 \t\t\tmapping(uint256 => Poll) publi...\n      DUP1 \t\t\tmapping(uint256 => Poll) publi...\n      PUSH 4\t\t\tmapping(uint256 => Poll) publi...\n      ADD \t\t\tmapping(uint256 => Poll) publi...\n      SLOAD \t\t\tmapping(uint256 => Poll) publi...\n      SWAP1 \t\t\tmapping(uint256 => Poll) publi...\n      DUP1 \t\t\tmapping(uint256 => Poll) publi...\n      PUSH 5\t\t\tmapping(uint256 => Poll) publi...\n      ADD \t\t\tmapping(uint256 => Poll) publi...\n      SLOAD \t\t\tmapping(uint256 => Poll) publi...\n      SWAP1 \t\t\tmapping(uint256 => Poll) publi...\n      DUP1 \t\t\tmapping(uint256 => Poll) publi...\n      PUSH 6\t\t\tmapping(uint256 => Poll) publi...\n      ADD \t\t\tmapping(uint256 => Poll) publi...\n      PUSH 0\t\t\tmapping(uint256 => Poll) publi...\n      SWAP1 \t\t\tmapping(uint256 => Poll) publi...\n      SLOAD \t\t\tmapping(uint256 => Poll) publi...\n      SWAP1 \t\t\tmapping(uint256 => Poll) publi...\n      PUSH 100\t\t\tmapping(uint256 => Poll) publi...\n      EXP \t\t\tmapping(uint256 => Poll) publi...\n      SWAP1 \t\t\tmapping(uint256 => Poll) publi...\n      DIV \t\t\tmapping(uint256 => Poll) publi...\n      PUSH FF\t\t\tmapping(uint256 => Poll) publi...\n      AND \t\t\tmapping(uint256 => Poll) publi...\n      SWAP1 \t\t\tmapping(uint256 => Poll) publi...\n      DUP1 \t\t\tmapping(uint256 => Poll) publi...\n      PUSH 7\t\t\tmapping(uint256 => Poll) publi...\n      ADD \t\t\tmapping(uint256 => Poll) publi...\n      SLOAD \t\t\tmapping(uint256 => Poll) publi...\n      SWAP1 \t\t\tmapping(uint256 => Poll) publi...\n      DUP1 \t\t\tmapping(uint256 => Poll) publi...\n      PUSH 8\t\t\tmapping(uint256 => Poll) publi...\n      ADD \t\t\tmapping(uint256 => Poll) publi...\n      SLOAD \t\t\tmapping(uint256 => Poll) publi...\n      SWAP1 \t\t\tmapping(uint256 => Poll) publi...\n      POP \t\t\tmapping(uint256 => Poll) publi...\n      DUP9 \t\t\tmapping(uint256 => Poll) publi...\n      JUMP \t\t\tmapping(uint256 => Poll) publi...\n    tag 48\t\t\tfunction getPollStatus(uint256...\n      JUMPDEST \t\t\tfunction getPollStatus(uint256...\n      PUSH 0\t\t\tbool\n      DUP1 \t\t\tuint256\n      PUSH 0\t\t\tuint256\n      DUP1 \t\t\tPoll storage p\n      PUSH 2\t\t\tpolls\n      PUSH 0\t\t\tpolls[pollId]\n      DUP7 \t\t\tpollId\n      DUP2 \t\t\tpolls[pollId]\n      MSTORE \t\t\tpolls[pollId]\n      PUSH 20\t\t\tpolls[pollId]\n      ADD \t\t\tpolls[pollId]\n      SWAP1 \t\t\tpolls[pollId]\n      DUP2 \t\t\tpolls[pollId]\n      MSTORE \t\t\tpolls[pollId]\n      PUSH 20\t\t\tpolls[pollId]\n      ADD \t\t\tpolls[pollId]\n      PUSH 0\t\t\tpolls[pollId]\n      KECCAK256 \t\t\tpolls[pollId]\n      SWAP1 \t\t\tPoll storage p = polls[pollId]\n      POP \t\t\tPoll storage p = polls[pollId]\n      DUP1 \t\t\tp\n      PUSH 6\t\t\tp.isOpen\n      ADD \t\t\tp.isOpen\n      PUSH 0\t\t\tp.isOpen\n      SWAP1 \t\t\tp.isOpen\n      SLOAD \t\t\tp.isOpen\n      SWAP1 \t\t\tp.isOpen\n      PUSH 100\t\t\tp.isOpen\n      EXP \t\t\tp.isOpen\n      SWAP1 \t\t\tp.isOpen\n      DIV \t\t\tp.isOpen\n      PUSH FF\t\t\tp.isOpen\n      AND \t\t\tp.isOpen\n      DUP2 \t\t\tp\n      PUSH 5\t\t\tp.endTime\n      ADD \t\t\tp.endTime\n      SLOAD \t\t\tp.endTime\n      DUP3 \t\t\tp\n      PUSH 7\t\t\tp.totalResponses\n      ADD \t\t\tp.totalResponses\n      SLOAD \t\t\tp.totalResponses\n      SWAP4 \t\t\treturn (p.isOpen, p.endTime, p...\n      POP \t\t\treturn (p.isOpen, p.endTime, p...\n      SWAP4 \t\t\treturn (p.isOpen, p.endTime, p...\n      POP \t\t\treturn (p.isOpen, p.endTime, p...\n      SWAP4 \t\t\treturn (p.isOpen, p.endTime, p...\n      POP \t\t\treturn (p.isOpen, p.endTime, p...\n      POP \t\t\treturn (p.isOpen, p.endTime, p...\n      SWAP2 \t\t\tfunction getPollStatus(uint256...\n      SWAP4 \t\t\tfunction getPollStatus(uint256...\n      SWAP1 \t\t\tfunction getPollStatus(uint256...\n      SWAP3 \t\t\tfunction getPollStatus(uint256...\n      POP \t\t\tfunction getPollStatus(uint256...\n      JUMP \t\t\tfunction getPollStatus(uint256...\n    tag 53\t\t\tuint256 public pollCounter\n      JUMPDEST \t\t\tuint256 public pollCounter\n      PUSH 0\t\t\tuint256 public pollCounter\n      SLOAD \t\t\tuint256 public pollCounter\n      DUP2 \t\t\tuint256 public pollCounter\n      JUMP \t\t\tuint256 public pollCounter\n    tag 57\t\t\tfunction getAllPollIds() exter...\n      JUMPDEST \t\t\tfunction getAllPollIds() exter...\n      PUSH 60\t\t\tuint256[] memory\n      PUSH 1\t\t\tpollIds\n      DUP1 \t\t\treturn pollIds\n      SLOAD \t\t\treturn pollIds\n      DUP1 \t\t\treturn pollIds\n      PUSH 20\t\t\treturn pollIds\n      MUL \t\t\treturn pollIds\n      PUSH 20\t\t\treturn pollIds\n      ADD \t\t\treturn pollIds\n      PUSH 40\t\t\treturn pollIds\n      MLOAD \t\t\treturn pollIds\n      SWAP1 \t\t\treturn pollIds\n      DUP2 \t\t\treturn pollIds\n      ADD \t\t\treturn pollIds\n      PUSH 40\t\t\treturn pollIds\n      MSTORE \t\t\treturn pollIds\n      DUP1 \t\t\treturn pollIds\n      SWAP3 \t\t\treturn pollIds\n      SWAP2 \t\t\treturn pollIds\n      SWAP1 \t\t\treturn pollIds\n      DUP2 \t\t\treturn pollIds\n      DUP2 \t\t\treturn pollIds\n      MSTORE \t\t\treturn pollIds\n      PUSH 20\t\t\treturn pollIds\n      ADD \t\t\treturn pollIds\n      DUP3 \t\t\treturn pollIds\n      DUP1 \t\t\treturn pollIds\n      SLOAD \t\t\treturn pollIds\n      DUP1 \t\t\treturn pollIds\n      ISZERO \t\t\treturn pollIds\n      PUSH [tag] 130\t\t\treturn pollIds\n      JUMPI \t\t\treturn pollIds\n      PUSH 20\t\t\treturn pollIds\n      MUL \t\t\treturn pollIds\n      DUP3 \t\t\treturn pollIds\n      ADD \t\t\treturn pollIds\n      SWAP2 \t\t\treturn pollIds\n      SWAP1 \t\t\treturn pollIds\n      PUSH 0\t\t\treturn pollIds\n      MSTORE \t\t\treturn pollIds\n      PUSH 20\t\t\treturn pollIds\n      PUSH 0\t\t\treturn pollIds\n      KECCAK256 \t\t\treturn pollIds\n      SWAP1 \t\t\treturn pollIds\n    tag 131\t\t\treturn pollIds\n      JUMPDEST \t\t\treturn pollIds\n      DUP2 \t\t\treturn pollIds\n      SLOAD \t\t\treturn pollIds\n      DUP2 \t\t\treturn pollIds\n      MSTORE \t\t\treturn pollIds\n      PUSH 20\t\t\treturn pollIds\n      ADD \t\t\treturn pollIds\n      SWAP1 \t\t\treturn pollIds\n      PUSH 1\t\t\treturn pollIds\n      ADD \t\t\treturn pollIds\n      SWAP1 \t\t\treturn pollIds\n      DUP1 \t\t\treturn pollIds\n      DUP4 \t\t\treturn pollIds\n      GT \t\t\treturn pollIds\n      PUSH [tag] 131\t\t\treturn pollIds\n      JUMPI \t\t\treturn pollIds\n    tag 130\t\t\treturn pollIds\n      JUMPDEST \t\t\treturn pollIds\n      POP \t\t\treturn pollIds\n      POP \t\t\treturn pollIds\n      POP \t\t\treturn pollIds\n      POP \t\t\treturn pollIds\n      POP \t\t\treturn pollIds\n      SWAP1 \t\t\treturn pollIds\n      POP \t\t\treturn pollIds\n      SWAP1 \t\t\tfunction getAllPollIds() exter...\n      JUMP \t\t\tfunction getAllPollIds() exter...\n    tag 85\t\t\t\n      JUMPDEST \t\t\t\n      DUP3 \t\t\t\n      DUP1 \t\t\t\n      SLOAD \t\t\t\n      DUP3 \t\t\t\n      DUP3 \t\t\t\n      SSTORE \t\t\t\n      SWAP1 \t\t\t\n      PUSH 0\t\t\t\n      MSTORE \t\t\t\n      PUSH 20\t\t\t\n      PUSH 0\t\t\t\n      KECCAK256 \t\t\t\n      SWAP1 \t\t\t\n      DUP2 \t\t\t\n      ADD \t\t\t\n      SWAP3 \t\t\t\n      DUP3 \t\t\t\n      ISZERO \t\t\t\n      PUSH [tag] 132\t\t\t\n      JUMPI \t\t\t\n      SWAP2 \t\t\t\n      PUSH 20\t\t\t\n      MUL \t\t\t\n      DUP3 \t\t\t\n      ADD \t\t\t\n    tag 133\t\t\t\n      JUMPDEST \t\t\t\n      DUP3 \t\t\t\n      DUP2 \t\t\t\n      GT \t\t\t\n      ISZERO \t\t\t\n      PUSH [tag] 134\t\t\t\n      JUMPI \t\t\t\n      DUP3 \t\t\t\n      MLOAD \t\t\t\n      DUP3 \t\t\t\n      SWAP1 \t\t\t\n      DUP2 \t\t\t\n      PUSH [tag] 135\t\t\t\n      SWAP2 \t\t\t\n      SWAP1 \t\t\t\n      PUSH [tag] 83\t\t\t\n      JUMP \t\t\t\n    tag 135\t\t\t\n      JUMPDEST \t\t\t\n      POP \t\t\t\n      SWAP2 \t\t\t\n      PUSH 20\t\t\t\n      ADD \t\t\t\n      SWAP2 \t\t\t\n      SWAP1 \t\t\t\n      PUSH 1\t\t\t\n      ADD \t\t\t\n      SWAP1 \t\t\t\n      PUSH [tag] 133\t\t\t\n      JUMP \t\t\t\n    tag 134\t\t\t\n      JUMPDEST \t\t\t\n    tag 132\t\t\t\n      JUMPDEST \t\t\t\n      POP \t\t\t\n      SWAP1 \t\t\t\n      POP \t\t\t\n      PUSH [tag] 136\t\t\t\n      SWAP2 \t\t\t\n      SWAP1 \t\t\t\n      PUSH [tag] 137\t\t\t\n      JUMP \t\t\t\n    tag 136\t\t\t\n      JUMPDEST \t\t\t\n      POP \t\t\t\n      SWAP1 \t\t\t\n      JUMP \t\t\t\n    tag 95\t\t\t\n      JUMPDEST \t\t\t\n      DUP3 \t\t\t\n      DUP1 \t\t\t\n      SLOAD \t\t\t\n      DUP3 \t\t\t\n      DUP3 \t\t\t\n      SSTORE \t\t\t\n      SWAP1 \t\t\t\n      PUSH 0\t\t\t\n      MSTORE \t\t\t\n      PUSH 20\t\t\t\n      PUSH 0\t\t\t\n      KECCAK256 \t\t\t\n      SWAP1 \t\t\t\n      DUP2 \t\t\t\n      ADD \t\t\t\n      SWAP3 \t\t\t\n      DUP3 \t\t\t\n      ISZERO \t\t\t\n      PUSH [tag] 138\t\t\t\n      JUMPI \t\t\t\n      PUSH 0\t\t\t\n      MSTORE \t\t\t\n      PUSH 20\t\t\t\n      PUSH 0\t\t\t\n      KECCAK256 \t\t\t\n      SWAP2 \t\t\t\n      DUP3 \t\t\t\n      ADD \t\t\t\n    tag 139\t\t\t\n      JUMPDEST \t\t\t\n      DUP3 \t\t\t\n      DUP2 \t\t\t\n      GT \t\t\t\n      ISZERO \t\t\t\n      PUSH [tag] 140\t\t\t\n      JUMPI \t\t\t\n      DUP3 \t\t\t\n      DUP3 \t\t\t\n      SWAP1 \t\t\t\n      DUP2 \t\t\t\n      PUSH [tag] 141\t\t\t\n      SWAP2 \t\t\t\n      SWAP1 \t\t\t\n      PUSH [tag] 93\t\t\t\n      JUMP \t\t\t\n    tag 141\t\t\t\n      JUMPDEST \t\t\t\n      POP \t\t\t\n      SWAP2 \t\t\t\n      PUSH 1\t\t\t\n      ADD \t\t\t\n      SWAP2 \t\t\t\n      SWAP1 \t\t\t\n      PUSH 1\t\t\t\n      ADD \t\t\t\n      SWAP1 \t\t\t\n      PUSH [tag] 139\t\t\t\n      JUMP \t\t\t\n    tag 140\t\t\t\n      JUMPDEST \t\t\t\n    tag 138\t\t\t\n      JUMPDEST \t\t\t\n      POP \t\t\t\n      SWAP1 \t\t\t\n      POP \t\t\t\n      PUSH [tag] 142\t\t\t\n      SWAP2 \t\t\t\n      SWAP1 \t\t\t\n      PUSH [tag] 137\t\t\t\n      JUMP \t\t\t\n    tag 142\t\t\t\n      JUMPDEST \t\t\t\n      POP \t\t\t\n      SWAP1 \t\t\t\n      JUMP \t\t\t\n    tag 137\t\t\t\n      JUMPDEST \t\t\t\n    tag 143\t\t\t\n      JUMPDEST \t\t\t\n      DUP1 \t\t\t\n      DUP3 \t\t\t\n      GT \t\t\t\n      ISZERO \t\t\t\n      PUSH [tag] 144\t\t\t\n      JUMPI \t\t\t\n      PUSH 0\t\t\t\n      DUP2 \t\t\t\n      DUP2 \t\t\t\n      PUSH [tag] 145\t\t\t\n      SWAP2 \t\t\t\n      SWAP1 \t\t\t\n      PUSH [tag] 146\t\t\t\n      JUMP \t\t\t\n    tag 145\t\t\t\n      JUMPDEST \t\t\t\n      POP \t\t\t\n      PUSH 1\t\t\t\n      ADD \t\t\t\n      PUSH [tag] 143\t\t\t\n      JUMP \t\t\t\n    tag 144\t\t\t\n      JUMPDEST \t\t\t\n      POP \t\t\t\n      SWAP1 \t\t\t\n      JUMP \t\t\t\n    tag 146\t\t\t\n      JUMPDEST \t\t\t\n      POP \t\t\t\n      DUP1 \t\t\t\n      SLOAD \t\t\t\n      PUSH [tag] 147\t\t\t\n      SWAP1 \t\t\t\n      PUSH [tag] 62\t\t\t\n      JUMP \t\t\t\n    tag 147\t\t\t\n      JUMPDEST \t\t\t\n      PUSH 0\t\t\t\n      DUP3 \t\t\t\n      SSTORE \t\t\t\n      DUP1 \t\t\t\n      PUSH 1F\t\t\t\n      LT \t\t\t\n      PUSH [tag] 149\t\t\t\n      JUMPI \t\t\t\n      POP \t\t\t\n      PUSH [tag] 148\t\t\t\n      JUMP \t\t\t\n    tag 149\t\t\t\n      JUMPDEST \t\t\t\n      PUSH 1F\t\t\t\n      ADD \t\t\t\n      PUSH 20\t\t\t\n      SWAP1 \t\t\t\n      DIV \t\t\t\n      SWAP1 \t\t\t\n      PUSH 0\t\t\t\n      MSTORE \t\t\t\n      PUSH 20\t\t\t\n      PUSH 0\t\t\t\n      KECCAK256 \t\t\t\n      SWAP1 \t\t\t\n      DUP2 \t\t\t\n      ADD \t\t\t\n      SWAP1 \t\t\t\n      PUSH [tag] 150\t\t\t\n      SWAP2 \t\t\t\n      SWAP1 \t\t\t\n      PUSH [tag] 151\t\t\t\n      JUMP \t\t\t\n    tag 150\t\t\t\n      JUMPDEST \t\t\t\n    tag 148\t\t\t\n      JUMPDEST \t\t\t\n      POP \t\t\t\n      JUMP \t\t\t\n    tag 151\t\t\t\n      JUMPDEST \t\t\t\n    tag 152\t\t\t\n      JUMPDEST \t\t\t\n      DUP1 \t\t\t\n      DUP3 \t\t\t\n      GT \t\t\t\n      ISZERO \t\t\t\n      PUSH [tag] 153\t\t\t\n      JUMPI \t\t\t\n      PUSH 0\t\t\t\n      DUP2 \t\t\t\n      PUSH 0\t\t\t\n      SWAP1 \t\t\t\n      SSTORE \t\t\t\n      POP \t\t\t\n      PUSH 1\t\t\t\n      ADD \t\t\t\n      PUSH [tag] 152\t\t\t\n      JUMP \t\t\t\n    tag 153\t\t\t\n      JUMPDEST \t\t\t\n      POP \t\t\t\n      SWAP1 \t\t\t\n      JUMP \t\t\t\n    tag 154\t\t\t-License-Identifier: MIT\\nprag...\n      JUMPDEST \t\t\t-License-Identifier: MIT\\nprag...\n      PUSH 0\t\t\tolidit\n      PUSH 40\t\t\tAp\n      MLOAD \t\t\tPollsDApp\n      SWAP1 \t\t\t\\ncontract PollsDApp\n      POP \t\t\t\\ncontract PollsDApp\n      SWAP1 \t\t\t-License-Identifier: MIT\\nprag...\n      JUMP \t\t\t-License-Identifier: MIT\\nprag...\n    tag 155\t\t\tt Poll {\\n        address crea...\n      JUMPDEST \t\t\tt Poll {\\n        address crea...\n      PUSH 0\t\t\tr\n      DUP1 \t\t\td\n      REVERT \t\t\t6 rewardPerR\n    tag 156\t\t\t     uint256 maxResponses;\\n  ...\n      JUMPDEST \t\t\t     uint256 maxResponses;\\n  ...\n      PUSH 0\t\t\t \n      DUP1 \t\t\t \n      REVERT \t\t\tnses;\\n      \n    tag 157\t\t\tnds;\\n    }\\n\\n    uint256 pub...\n      JUMPDEST \t\t\tnds;\\n    }\\n\\n    uint256 pub...\n      PUSH 0\t\t\tunter;\\n\n      DUP2 \t\t\tollId\n      SWAP1 \t\t\t[] public pollId\n      POP \t\t\t[] public pollId\n      SWAP2 \t\t\tnds;\\n    }\\n\\n    uint256 pub...\n      SWAP1 \t\t\tnds;\\n    }\\n\\n    uint256 pub...\n      POP \t\t\tnds;\\n    }\\n\\n    uint256 pub...\n      JUMP \t\t\tnds;\\n    }\\n\\n    uint256 pub...\n    tag 158\t\t\tng(uint256 => Poll) public pol...\n      JUMPDEST \t\t\tng(uint256 => Poll) public pol...\n      PUSH [tag] 233\t\t\tuserPolls;\\n\\n    event Po\n      DUP2 \t\t\tent P\n      PUSH [tag] 157\t\t\tuserPolls;\\n\\n    event Po\n      JUMP \t\t\tuserPolls;\\n\\n    event Po\n    tag 233\t\t\tuserPolls;\\n\\n    event Po\n      JUMPDEST \t\t\tuserPolls;\\n\\n    event Po\n      DUP2 \t\t\trivat\n      EQ \t\t\t) private userPolls;\\n\\n    ev...\n      PUSH [tag] 234\t\t\t => Poll[]) private userPolls;...\n      JUMPI \t\t\t => Poll[]) private userPolls;...\n      PUSH 0\t\t\t5\n      DUP1 \t\t\tn\n      REVERT \t\t\tated(uint256\n    tag 234\t\t\t => Poll[]) private userPolls;...\n      JUMPDEST \t\t\t => Poll[]) private userPolls;...\n      POP \t\t\tng(uint256 => Poll) public pol...\n      JUMP \t\t\tng(uint256 => Poll) public pol...\n    tag 159\t\t\tss creator, string question);\\...\n      JUMPDEST \t\t\tss creator, string question);\\...\n      PUSH 0\t\t\tosed(\n      DUP2 \t\t\teatePo\n      CALLDATALOAD \t\t\t  function createPol\n      SWAP1 \t\t\tlId);\\n\\n    function createPo...\n      POP \t\t\tlId);\\n\\n    function createPo...\n      PUSH [tag] 236\t\t\t  string memory question,\\n   ...\n      DUP2 \t\t\t     \n      PUSH [tag] 158\t\t\t  string memory question,\\n   ...\n      JUMP \t\t\t  string memory question,\\n   ...\n    tag 236\t\t\t  string memory question,\\n   ...\n      JUMPDEST \t\t\t  string memory question,\\n   ...\n      SWAP3 \t\t\tss creator, string question);\\...\n      SWAP2 \t\t\tss creator, string question);\\...\n      POP \t\t\tss creator, string question);\\...\n      POP \t\t\tss creator, string question);\\...\n      JUMP \t\t\tss creator, string question);\\...\n    tag 15\t\t\tmory options,\\n        uint256...\n      JUMPDEST \t\t\tmory options,\\n        uint256...\n      PUSH 0\t\t\tnt256 \n      PUSH 20\t\t\t  \n      DUP3 \t\t\taxRespons\n      DUP5 \t\t\tuint256\n      SUB \t\t\t    uint256 maxResponse\n      SLT \t\t\t        uint256 maxResponses\\n...\n      ISZERO \t\t\ts,\\n        uint256 maxRespons...\n      PUSH [tag] 238\t\t\ts,\\n        uint256 maxRespons...\n      JUMPI \t\t\ts,\\n        uint256 maxRespons...\n      PUSH [tag] 239\t\t\texternal payable {\\n        re...\n      PUSH [tag] 155\t\t\texternal payable {\\n        re...\n      JUMP \t\t\texternal payable {\\n        re...\n    tag 239\t\t\texternal payable {\\n        re...\n      JUMPDEST \t\t\texternal payable {\\n        re...\n    tag 238\t\t\ts,\\n        uint256 maxRespons...\n      JUMPDEST \t\t\ts,\\n        uint256 maxRespons...\n      PUSH 0\t\t\tn\n      PUSH [tag] 240\t\t\t   Poll storage p = polls[poll...\n      DUP5 \t\t\t   p.cr\n      DUP3 \t\t\tr];\\n  \n      DUP6 \t\t\t[pollCoun\n      ADD \t\t\tolls[pollCounter];\\n   \n      PUSH [tag] 159\t\t\t   Poll storage p = polls[poll...\n      JUMP \t\t\t   Poll storage p = polls[poll...\n    tag 240\t\t\t   Poll storage p = polls[poll...\n      JUMPDEST \t\t\t   Poll storage p = polls[poll...\n      SWAP2 \t\t\t\");\\n\\n        Poll storage p ...\n      POP \t\t\t\");\\n\\n        Poll storage p ...\n      POP \t\t\t require(durationDays > 0, \"In...\n      SWAP3 \t\t\tmory options,\\n        uint256...\n      SWAP2 \t\t\tmory options,\\n        uint256...\n      POP \t\t\tmory options,\\n        uint256...\n      POP \t\t\tmory options,\\n        uint256...\n      JUMP \t\t\tmory options,\\n        uint256...\n    tag 160\t\t\t    p.question = question;\\n  ...\n      JUMPDEST \t\t\t    p.question = question;\\n  ...\n      PUSH 0\t\t\toptions\n      PUSH FFFFFFFFFFFFFFFFFFFFFFFFFFFFFFFFFFFFFFFF\t\t\tsponse = rewardPerResponse;\\n ...\n      DUP3 \t\t\trdPer\n      AND \t\t\trewardPerResponse = rewardPerR...\n      SWAP1 \t\t\t\\n        p.rewardPerResponse ...\n      POP \t\t\t\\n        p.rewardPerResponse ...\n      SWAP2 \t\t\t    p.question = question;\\n  ...\n      SWAP1 \t\t\t    p.question = question;\\n  ...\n      POP \t\t\t    p.question = question;\\n  ...\n      JUMP \t\t\t    p.question = question;\\n  ...\n    tag 161\t\t\txResponses;\\n        p.endTime...\n      JUMPDEST \t\t\txResponses;\\n        p.endTime...\n      PUSH 0\t\t\t.timest\n      PUSH [tag] 243\t\t\t1 days);\\n        p.isOpe\n      DUP3 \t\t\t.isOp\n      PUSH [tag] 160\t\t\t1 days);\\n        p.isOpe\n      JUMP \t\t\t1 days);\\n        p.isOpe\n    tag 243\t\t\t1 days);\\n        p.isOpe\n      JUMPDEST \t\t\t1 days);\\n        p.isOpe\n      SWAP1 \t\t\ttionDays * 1 days);\\n        p...\n      POP \t\t\ttionDays * 1 days);\\n        p...\n      SWAP2 \t\t\txResponses;\\n        p.endTime...\n      SWAP1 \t\t\txResponses;\\n        p.endTime...\n      POP \t\t\txResponses;\\n        p.endTime...\n      JUMP \t\t\txResponses;\\n        p.endTime...\n    tag 162\t\t\t      p.funds = msg.value;\\n\\n...\n      JUMPDEST \t\t\t      p.funds = msg.value;\\n\\n...\n      PUSH [tag] 245\t\t\tender].push(p);\\n\\n       \n      DUP2 \t\t\t     \n      PUSH [tag] 161\t\t\tender].push(p);\\n\\n       \n      JUMP \t\t\tender].push(p);\\n\\n       \n    tag 245\t\t\tender].push(p);\\n\\n       \n      JUMPDEST \t\t\tender].push(p);\\n\\n       \n      DUP3 \t\t\tmsg\n      MSTORE \t\t\trPolls[msg.sender].push(p);\\n\\...\n      POP \t\t\t      p.funds = msg.value;\\n\\n...\n      POP \t\t\t      p.funds = msg.value;\\n\\n...\n      JUMP \t\t\t      p.funds = msg.value;\\n\\n...\n    tag 163\t\t\tated(pollCounter, msg.sender, ...\n      JUMPDEST \t\t\tated(pollCounter, msg.sender, ...\n      PUSH 0\t\t\tlCount\n      DUP2 \t\t\tosePo\n      MLOAD \t\t\tion closePol\n      SWAP1 \t\t\t\\n    function closePol\n      POP \t\t\t\\n    function closePol\n      SWAP2 \t\t\tated(pollCounter, msg.sender, ...\n      SWAP1 \t\t\tated(pollCounter, msg.sender, ...\n      POP \t\t\tated(pollCounter, msg.sender, ...\n      JUMP \t\t\tated(pollCounter, msg.sender, ...\n    tag 164\t\t\tlId) external {\\n        Poll ...\n      JUMPDEST \t\t\tlId) external {\\n        Poll ...\n      PUSH 0\t\t\t= p.creator\n      DUP3 \t\t\t   req\n      DUP3 \t\t\t   \n      MSTORE \t\t\ttor\");\\n        requ\n      PUSH 20\t\t\t    \n      DUP3 \t\t\td\")\n      ADD \t\t\tlosed\");\\n     \n      SWAP1 \t\t\tpen, \"Already closed\");\\n     \n      POP \t\t\tpen, \"Already closed\");\\n     \n      SWAP3 \t\t\tlId) external {\\n        Poll ...\n      SWAP2 \t\t\tlId) external {\\n        Poll ...\n      POP \t\t\tlId) external {\\n        Poll ...\n      POP \t\t\tlId) external {\\n        Poll ...\n      JUMP \t\t\tlId) external {\\n        Poll ...\n    tag 165\t\t\tlock.timestamp >= p.endTime ||...\n      JUMPDEST \t\t\tlock.timestamp >= p.endTime ||...\n      DUP3 \t\t\t p.isO\n      DUP2 \t\t\t   \n      DUP4 \t\t\t;\\n\\n\n      MCOPY \t\t\tarly\");\\n\\n        p.isOp\n      PUSH 0\t\t\td\n      DUP4 \t\t\tPollCl\n      DUP4 \t\t\temi\n      ADD \t\t\t    emit PollClo\n      MSTORE \t\t\te;\\n        emit PollClosed(\n      POP \t\t\tlock.timestamp >= p.endTime ||...\n      POP \t\t\tlock.timestamp >= p.endTime ||...\n      POP \t\t\tlock.timestamp >= p.endTime ||...\n      JUMP \t\t\tlock.timestamp >= p.endTime ||...\n    tag 166\t\t\t}\\n\\n    function getOptions(u...\n      JUMPDEST \t\t\t}\\n\\n    function getOptions(u...\n      PUSH 0\t\t\t) exte\n      PUSH 1F\t\t\t r\n      NOT \t\t\t     re\n      PUSH 1F\t\t\t{\\n\n      DUP4 \t\t\temory\n      ADD \t\t\t[] memory) {\\n \n      AND \t\t\tring[] memory) {\\n        ret\n      SWAP1 \t\t\teturns (string[] memory) {\\n  ...\n      POP \t\t\teturns (string[] memory) {\\n  ...\n      SWAP2 \t\t\t}\\n\\n    function getOptions(u...\n      SWAP1 \t\t\t}\\n\\n    function getOptions(u...\n      POP \t\t\t}\\n\\n    function getOptions(u...\n      JUMP \t\t\t}\\n\\n    function getOptions(u...\n    tag 167\t\t\tllId].options;\\n    }\\n\\n    f...\n      JUMPDEST \t\t\tllId].options;\\n    }\\n\\n    f...\n      PUSH 0\t\t\tboo\n      PUSH [tag] 251\t\t\t      Poll storage p = polls[p...\n      DUP3 \t\t\tId];\\n\n      PUSH [tag] 163\t\t\t      Poll storage p = polls[p...\n      JUMP \t\t\t      Poll storage p = polls[p...\n    tag 251\t\t\t      Poll storage p = polls[p...\n      JUMPDEST \t\t\t      Poll storage p = polls[p...\n      PUSH [tag] 252\t\t\t.isOpen, p.endTime, p.totalRes...\n      DUP2 \t\t\tlPollI\n      DUP6 \t\t\tget\n      PUSH [tag] 164\t\t\t.isOpen, p.endTime, p.totalRes...\n      JUMP \t\t\t.isOpen, p.endTime, p.totalRes...\n    tag 252\t\t\t.isOpen, p.endTime, p.totalRes...\n      JUMPDEST \t\t\t.isOpen, p.endTime, p.totalRes...\n      SWAP4 \t\t\tturn (p.isOpen, p.endTime, p.t...\n      POP \t\t\tturn (p.isOpen, p.endTime, p.t...\n      PUSH [tag] 253\t\t\tnal view returns (uint256[] me...\n      DUP2 \t\t\tds;\\n  \n      DUP6 \t\t\tpol\n      PUSH 20\t\t\tretu\n      DUP7 \t\t\t     \n      ADD \t\t\t {\\n        retur\n      PUSH [tag] 165\t\t\tnal view returns (uint256[] me...\n      JUMP \t\t\tnal view returns (uint256[] me...\n    tag 253\t\t\tnal view returns (uint256[] me...\n      JUMPDEST \t\t\tnal view returns (uint256[] me...\n      PUSH [tag] 254\t\t\tuint256 pollId) external view\n      DUP2 \t\t\tal vie\n      PUSH [tag] 166\t\t\tuint256 pollId) external view\n      JUMP \t\t\tuint256 pollId) external view\n    tag 254\t\t\tuint256 pollId) external view\n      JUMPDEST \t\t\tuint256 pollId) external view\n      DUP5 \t\t\tPol\n      ADD \t\t\t getPoll(uint256 pollId) exter...\n      SWAP2 \t\t\tunction getPoll(uint256 pollId...\n      POP \t\t\tunction getPoll(uint256 pollId...\n      POP \t\t\t, uint256, uint256) {\\n       ...\n      SWAP3 \t\t\tllId].options;\\n    }\\n\\n    f...\n      SWAP2 \t\t\tllId].options;\\n    }\\n\\n    f...\n      POP \t\t\tllId].options;\\n    }\\n\\n    f...\n      POP \t\t\tllId].options;\\n    }\\n\\n    f...\n      JUMP \t\t\tllId].options;\\n    }\\n\\n    f...\n    tag 168\t\t\t      address creator,\\n      ...\n      JUMPDEST \t\t\t      address creator,\\n      ...\n      PUSH 0\t\t\ty opti\n      DUP2 \t\t\terRes\n      MLOAD \t\t\tewardPerResp\n      SWAP1 \t\t\t uint256 rewardPerResp\n      POP \t\t\t uint256 rewardPerResp\n      SWAP2 \t\t\t      address creator,\\n      ...\n      SWAP1 \t\t\t      address creator,\\n      ...\n      POP \t\t\t      address creator,\\n      ...\n      JUMP \t\t\t      address creator,\\n      ...\n    tag 169\t\t\t uint256 maxResponses,\\n      ...\n      JUMPDEST \t\t\t uint256 maxResponses,\\n      ...\n      PUSH 0\t\t\tuint256 fun\n      DUP3 \t\t\t stora\n      DUP3 \t\t\t Po\n      MSTORE \t\t\t        Poll storag\n      PUSH 20\t\t\trn (\n      DUP3 \t\t\t re\n      ADD \t\t\t     return (\\n\n      SWAP1 \t\t\tls[pollId];\\n        return (\\...\n      POP \t\t\tls[pollId];\\n        return (\\...\n      SWAP3 \t\t\t uint256 maxResponses,\\n      ...\n      SWAP2 \t\t\t uint256 maxResponses,\\n      ...\n      POP \t\t\t uint256 maxResponses,\\n      ...\n      POP \t\t\t uint256 maxResponses,\\n      ...\n      JUMP \t\t\t uint256 maxResponses,\\n      ...\n    tag 170\t\t\tp.creator,\\n            p.ques...\n      JUMPDEST \t\t\tp.creator,\\n            p.ques...\n      PUSH 0\t\t\tdPer\n      DUP2 \t\t\t   \n      SWAP1 \t\t\t           \n      POP \t\t\t           \n      PUSH 20\t\t\t p.e\n      DUP3 \t\t\t   \n      ADD \t\t\t          p.en\n      SWAP1 \t\t\tnses,\\n            p.en\n      POP \t\t\tnses,\\n            p.en\n      SWAP2 \t\t\tp.creator,\\n            p.ques...\n      SWAP1 \t\t\tp.creator,\\n            p.ques...\n      POP \t\t\tp.creator,\\n            p.ques...\n      JUMP \t\t\tp.creator,\\n            p.ques...\n    tag 171\t\t\t      p.isOpen,\\n            p...\n      JUMPDEST \t\t\t      p.isOpen,\\n            p...\n      PUSH 0\t\t\t);\\n    }\\n\\n}\n      DUP3 \t\t\t\n      DUP3 \t\t\t\n      MSTORE \t\t\t\n      PUSH 20\t\t\t\n      DUP3 \t\t\t\n      ADD \t\t\t\n      SWAP1 \t\t\t\n      POP \t\t\t\n      SWAP3 \t\t\t      p.isOpen,\\n            p...\n      SWAP2 \t\t\t      p.isOpen,\\n            p...\n      POP \t\t\t      p.isOpen,\\n            p...\n      POP \t\t\t      p.isOpen,\\n            p...\n      JUMP \t\t\t      p.isOpen,\\n            p...\n    tag 172\t\t\t\n      JUMPDEST \t\t\t\n      PUSH 0\t\t\t\n      PUSH [tag] 260\t\t\t\n      DUP3 \t\t\t\n      PUSH [tag] 163\t\t\t\n      JUMP \t\t\t\n    tag 260\t\t\t\n      JUMPDEST \t\t\t\n      PUSH [tag] 261\t\t\t\n      DUP2 \t\t\t\n      DUP6 \t\t\t\n      PUSH [tag] 171\t\t\t\n      JUMP \t\t\t\n    tag 261\t\t\t\n      JUMPDEST \t\t\t\n      SWAP4 \t\t\t\n      POP \t\t\t\n      PUSH [tag] 262\t\t\t\n      DUP2 \t\t\t\n      DUP6 \t\t\t\n      PUSH 20\t\t\t\n      DUP7 \t\t\t\n      ADD \t\t\t\n      PUSH [tag] 165\t\t\t\n      JUMP \t\t\t\n    tag 262\t\t\t\n      JUMPDEST \t\t\t\n      PUSH [tag] 263\t\t\t\n      DUP2 \t\t\t\n      PUSH [tag] 166\t\t\t\n      JUMP \t\t\t\n    tag 263\t\t\t\n      JUMPDEST \t\t\t\n      DUP5 \t\t\t\n      ADD \t\t\t\n      SWAP2 \t\t\t\n      POP \t\t\t\n      POP \t\t\t\n      SWAP3 \t\t\t\n      SWAP2 \t\t\t\n      POP \t\t\t\n      POP \t\t\t\n      JUMP \t\t\t\n    tag 173\t\t\t\n      JUMPDEST \t\t\t\n      PUSH 0\t\t\t\n      PUSH [tag] 265\t\t\t\n      DUP4 \t\t\t\n      DUP4 \t\t\t\n      PUSH [tag] 172\t\t\t\n      JUMP \t\t\t\n    tag 265\t\t\t\n      JUMPDEST \t\t\t\n      SWAP1 \t\t\t\n      POP \t\t\t\n      SWAP3 \t\t\t\n      SWAP2 \t\t\t\n      POP \t\t\t\n      POP \t\t\t\n      JUMP \t\t\t\n    tag 174\t\t\t\n      JUMPDEST \t\t\t\n      PUSH 0\t\t\t\n      PUSH 20\t\t\t\n      DUP3 \t\t\t\n      ADD \t\t\t\n      SWAP1 \t\t\t\n      POP \t\t\t\n      SWAP2 \t\t\t\n      SWAP1 \t\t\t\n      POP \t\t\t\n      JUMP \t\t\t\n    tag 175\t\t\t\n      JUMPDEST \t\t\t\n      PUSH 0\t\t\t\n      PUSH [tag] 268\t\t\t\n      DUP3 \t\t\t\n      PUSH [tag] 168\t\t\t\n      JUMP \t\t\t\n    tag 268\t\t\t\n      JUMPDEST \t\t\t\n      PUSH [tag] 269\t\t\t\n      DUP2 \t\t\t\n      DUP6 \t\t\t\n      PUSH [tag] 169\t\t\t\n      JUMP \t\t\t\n    tag 269\t\t\t\n      JUMPDEST \t\t\t\n      SWAP4 \t\t\t\n      POP \t\t\t\n      DUP4 \t\t\t\n      PUSH 20\t\t\t\n      DUP3 \t\t\t\n      MUL \t\t\t\n      DUP6 \t\t\t\n      ADD \t\t\t\n      PUSH [tag] 270\t\t\t\n      DUP6 \t\t\t\n      PUSH [tag] 170\t\t\t\n      JUMP \t\t\t\n    tag 270\t\t\t\n      JUMPDEST \t\t\t\n      DUP1 \t\t\t\n      PUSH 0\t\t\t\n    tag 271\t\t\t\n      JUMPDEST \t\t\t\n      DUP6 \t\t\t\n      DUP2 \t\t\t\n      LT \t\t\t\n      ISZERO \t\t\t\n      PUSH [tag] 273\t\t\t\n      JUMPI \t\t\t\n      DUP5 \t\t\t\n      DUP5 \t\t\t\n      SUB \t\t\t\n      DUP10 \t\t\t\n      MSTORE \t\t\t\n      DUP2 \t\t\t\n      MLOAD \t\t\t\n      PUSH [tag] 274\t\t\t\n      DUP6 \t\t\t\n      DUP3 \t\t\t\n      PUSH [tag] 173\t\t\t\n      JUMP \t\t\t\n    tag 274\t\t\t\n      JUMPDEST \t\t\t\n      SWAP5 \t\t\t\n      POP \t\t\t\n      PUSH [tag] 275\t\t\t\n      DUP4 \t\t\t\n      PUSH [tag] 174\t\t\t\n      JUMP \t\t\t\n    tag 275\t\t\t\n      JUMPDEST \t\t\t\n      SWAP3 \t\t\t\n      POP \t\t\t\n      PUSH 20\t\t\t\n      DUP11 \t\t\t\n      ADD \t\t\t\n      SWAP10 \t\t\t\n      POP \t\t\t\n      POP \t\t\t\n      PUSH 1\t\t\t\n      DUP2 \t\t\t\n      ADD \t\t\t\n      SWAP1 \t\t\t\n      POP \t\t\t\n      PUSH [tag] 271\t\t\t\n      JUMP \t\t\t\n    tag 273\t\t\t\n      JUMPDEST \t\t\t\n      POP \t\t\t\n      DUP3 \t\t\t\n      SWAP8 \t\t\t\n      POP \t\t\t\n      DUP8 \t\t\t\n      SWAP6 \t\t\t\n      POP \t\t\t\n      POP \t\t\t\n      POP \t\t\t\n      POP \t\t\t\n      POP \t\t\t\n      POP \t\t\t\n      SWAP3 \t\t\t\n      SWAP2 \t\t\t\n      POP \t\t\t\n      POP \t\t\t\n      JUMP \t\t\t\n    tag 176\t\t\t\n      JUMPDEST \t\t\t\n      PUSH [tag] 277\t\t\t\n      DUP2 \t\t\t\n      PUSH [tag] 157\t\t\t\n      JUMP \t\t\t\n    tag 277\t\t\t\n      JUMPDEST \t\t\t\n      DUP3 \t\t\t\n      MSTORE \t\t\t\n      POP \t\t\t\n      POP \t\t\t\n      JUMP \t\t\t\n    tag 177\t\t\t\n      JUMPDEST \t\t\t\n      PUSH 0\t\t\t\n      DUP2 \t\t\t\n      ISZERO \t\t\t\n      ISZERO \t\t\t\n      SWAP1 \t\t\t\n      POP \t\t\t\n      SWAP2 \t\t\t\n      SWAP1 \t\t\t\n      POP \t\t\t\n      JUMP \t\t\t\n    tag 178\t\t\t\n      JUMPDEST \t\t\t\n      PUSH [tag] 280\t\t\t\n      DUP2 \t\t\t\n      PUSH [tag] 177\t\t\t\n      JUMP \t\t\t\n    tag 280\t\t\t\n      JUMPDEST \t\t\t\n      DUP3 \t\t\t\n      MSTORE \t\t\t\n      POP \t\t\t\n      POP \t\t\t\n      JUMP \t\t\t\n    tag 18\t\t\t\n      JUMPDEST \t\t\t\n      PUSH 0\t\t\t\n      PUSH 120\t\t\t\n      DUP3 \t\t\t\n      ADD \t\t\t\n      SWAP1 \t\t\t\n      POP \t\t\t\n      PUSH [tag] 282\t\t\t\n      PUSH 0\t\t\t\n      DUP4 \t\t\t\n      ADD \t\t\t\n      DUP13 \t\t\t\n      PUSH [tag] 162\t\t\t\n      JUMP \t\t\t\n    tag 282\t\t\t\n      JUMPDEST \t\t\t\n      DUP2 \t\t\t\n      DUP2 \t\t\t\n      SUB \t\t\t\n      PUSH 20\t\t\t\n      DUP4 \t\t\t\n      ADD \t\t\t\n      MSTORE \t\t\t\n      PUSH [tag] 283\t\t\t\n      DUP2 \t\t\t\n      DUP12 \t\t\t\n      PUSH [tag] 167\t\t\t\n      JUMP \t\t\t\n    tag 283\t\t\t\n      JUMPDEST \t\t\t\n      SWAP1 \t\t\t\n      POP \t\t\t\n      DUP2 \t\t\t\n      DUP2 \t\t\t\n      SUB \t\t\t\n      PUSH 40\t\t\t\n      DUP4 \t\t\t\n      ADD \t\t\t\n      MSTORE \t\t\t\n      PUSH [tag] 284\t\t\t\n      DUP2 \t\t\t\n      DUP11 \t\t\t\n      PUSH [tag] 175\t\t\t\n      JUMP \t\t\t\n    tag 284\t\t\t\n      JUMPDEST \t\t\t\n      SWAP1 \t\t\t\n      POP \t\t\t\n      PUSH [tag] 285\t\t\t\n      PUSH 60\t\t\t\n      DUP4 \t\t\t\n      ADD \t\t\t\n      DUP10 \t\t\t\n      PUSH [tag] 176\t\t\t\n      JUMP \t\t\t\n    tag 285\t\t\t\n      JUMPDEST \t\t\t\n      PUSH [tag] 286\t\t\t\n      PUSH 80\t\t\t\n      DUP4 \t\t\t\n      ADD \t\t\t\n      DUP9 \t\t\t\n      PUSH [tag] 176\t\t\t\n      JUMP \t\t\t\n    tag 286\t\t\t\n      JUMPDEST \t\t\t\n      PUSH [tag] 287\t\t\t\n      PUSH A0\t\t\t\n      DUP4 \t\t\t\n      ADD \t\t\t\n      DUP8 \t\t\t\n      PUSH [tag] 176\t\t\t\n      JUMP \t\t\t\n    tag 287\t\t\t\n      JUMPDEST \t\t\t\n      PUSH [tag] 288\t\t\t\n      PUSH C0\t\t\t\n      DUP4 \t\t\t\n      ADD \t\t\t\n      DUP7 \t\t\t\n      PUSH [tag] 178\t\t\t\n      JUMP \t\t\t\n    tag 288\t\t\t\n      JUMPDEST \t\t\t\n      PUSH [tag] 289\t\t\t\n      PUSH E0\t\t\t\n      DUP4 \t\t\t\n      ADD \t\t\t\n      DUP6 \t\t\t\n      PUSH [tag] 176\t\t\t\n      JUMP \t\t\t\n    tag 289\t\t\t\n      JUMPDEST \t\t\t\n      PUSH [tag] 290\t\t\t\n      PUSH 100\t\t\t\n      DUP4 \t\t\t\n      ADD \t\t\t\n      DUP5 \t\t\t\n      PUSH [tag] 176\t\t\t\n      JUMP \t\t\t\n    tag 290\t\t\t\n      JUMPDEST \t\t\t\n      SWAP11 \t\t\t\n      SWAP10 \t\t\t\n      POP \t\t\t\n      POP \t\t\t\n      POP \t\t\t\n      POP \t\t\t\n      POP \t\t\t\n      POP \t\t\t\n      POP \t\t\t\n      POP \t\t\t\n      POP \t\t\t\n      POP \t\t\t\n      JUMP \t\t\t\n    tag 179\t\t\t\n      JUMPDEST \t\t\t\n      PUSH 0\t\t\t\n      DUP1 \t\t\t\n      REVERT \t\t\t\n    tag 180\t\t\t\n      JUMPDEST \t\t\t\n      PUSH 0\t\t\t\n      DUP1 \t\t\t\n      REVERT \t\t\t\n    tag 181\t\t\t\n      JUMPDEST \t\t\t\n      PUSH 4E487B7100000000000000000000000000000000000000000000000000000000\t\t\t\n      PUSH 0\t\t\t\n      MSTORE \t\t\t\n      PUSH 41\t\t\t\n      PUSH 4\t\t\t\n      MSTORE \t\t\t\n      PUSH 24\t\t\t\n      PUSH 0\t\t\t\n      REVERT \t\t\t\n    tag 182\t\t\t\n      JUMPDEST \t\t\t\n      PUSH [tag] 295\t\t\t\n      DUP3 \t\t\t\n      PUSH [tag] 166\t\t\t\n      JUMP \t\t\t\n    tag 295\t\t\t\n      JUMPDEST \t\t\t\n      DUP2 \t\t\t\n      ADD \t\t\t\n      DUP2 \t\t\t\n      DUP2 \t\t\t\n      LT \t\t\t\n      PUSH FFFFFFFFFFFFFFFF\t\t\t\n      DUP3 \t\t\t\n      GT \t\t\t\n      OR \t\t\t\n      ISZERO \t\t\t\n      PUSH [tag] 296\t\t\t\n      JUMPI \t\t\t\n      PUSH [tag] 297\t\t\t\n      PUSH [tag] 181\t\t\t\n      JUMP \t\t\t\n    tag 297\t\t\t\n      JUMPDEST \t\t\t\n    tag 296\t\t\t\n      JUMPDEST \t\t\t\n      DUP1 \t\t\t\n      PUSH 40\t\t\t\n      MSTORE \t\t\t\n      POP \t\t\t\n      POP \t\t\t\n      POP \t\t\t\n      JUMP \t\t\t\n    tag 183\t\t\t\n      JUMPDEST \t\t\t\n      PUSH 0\t\t\t\n      PUSH [tag] 299\t\t\t\n      PUSH [tag] 154\t\t\t\n      JUMP \t\t\t\n    tag 299\t\t\t\n      JUMPDEST \t\t\t\n      SWAP1 \t\t\t\n      POP \t\t\t\n      PUSH [tag] 300\t\t\t\n      DUP3 \t\t\t\n      DUP3 \t\t\t\n      PUSH [tag] 182\t\t\t\n      JUMP \t\t\t\n    tag 300\t\t\t\n      JUMPDEST \t\t\t\n      SWAP2 \t\t\t\n      SWAP1 \t\t\t\n      POP \t\t\t\n      JUMP \t\t\t\n    tag 184\t\t\t\n      JUMPDEST \t\t\t\n      PUSH 0\t\t\t\n      PUSH FFFFFFFFFFFFFFFF\t\t\t\n      DUP3 \t\t\t\n      GT \t\t\t\n      ISZERO \t\t\t\n      PUSH [tag] 302\t\t\t\n      JUMPI \t\t\t\n      PUSH [tag] 303\t\t\t\n      PUSH [tag] 181\t\t\t\n      JUMP \t\t\t\n    tag 303\t\t\t\n      JUMPDEST \t\t\t\n    tag 302\t\t\t\n      JUMPDEST \t\t\t\n      PUSH [tag] 304\t\t\t\n      DUP3 \t\t\t\n      PUSH [tag] 166\t\t\t\n      JUMP \t\t\t\n    tag 304\t\t\t\n      JUMPDEST \t\t\t\n      SWAP1 \t\t\t\n      POP \t\t\t\n      PUSH 20\t\t\t\n      DUP2 \t\t\t\n      ADD \t\t\t\n      SWAP1 \t\t\t\n      POP \t\t\t\n      SWAP2 \t\t\t\n      SWAP1 \t\t\t\n      POP \t\t\t\n      JUMP \t\t\t\n    tag 185\t\t\t\n      JUMPDEST \t\t\t\n      DUP3 \t\t\t\n      DUP2 \t\t\t\n      DUP4 \t\t\t\n      CALLDATACOPY \t\t\t\n      PUSH 0\t\t\t\n      DUP4 \t\t\t\n      DUP4 \t\t\t\n      ADD \t\t\t\n      MSTORE \t\t\t\n      POP \t\t\t\n      POP \t\t\t\n      POP \t\t\t\n      JUMP \t\t\t\n    tag 186\t\t\t\n      JUMPDEST \t\t\t\n      PUSH 0\t\t\t\n      PUSH [tag] 307\t\t\t\n      PUSH [tag] 308\t\t\t\n      DUP5 \t\t\t\n      PUSH [tag] 184\t\t\t\n      JUMP \t\t\t\n    tag 308\t\t\t\n      JUMPDEST \t\t\t\n      PUSH [tag] 183\t\t\t\n      JUMP \t\t\t\n    tag 307\t\t\t\n      JUMPDEST \t\t\t\n      SWAP1 \t\t\t\n      POP \t\t\t\n      DUP3 \t\t\t\n      DUP2 \t\t\t\n      MSTORE \t\t\t\n      PUSH 20\t\t\t\n      DUP2 \t\t\t\n      ADD \t\t\t\n      DUP5 \t\t\t\n      DUP5 \t\t\t\n      DUP5 \t\t\t\n      ADD \t\t\t\n      GT \t\t\t\n      ISZERO \t\t\t\n      PUSH [tag] 309\t\t\t\n      JUMPI \t\t\t\n      PUSH [tag] 310\t\t\t\n      PUSH [tag] 180\t\t\t\n      JUMP \t\t\t\n    tag 310\t\t\t\n      JUMPDEST \t\t\t\n    tag 309\t\t\t\n      JUMPDEST \t\t\t\n      PUSH [tag] 311\t\t\t\n      DUP5 \t\t\t\n      DUP3 \t\t\t\n      DUP6 \t\t\t\n      PUSH [tag] 185\t\t\t\n      JUMP \t\t\t\n    tag 311\t\t\t\n      JUMPDEST \t\t\t\n      POP \t\t\t\n      SWAP4 \t\t\t\n      SWAP3 \t\t\t\n      POP \t\t\t\n      POP \t\t\t\n      POP \t\t\t\n      JUMP \t\t\t\n    tag 187\t\t\t\n      JUMPDEST \t\t\t\n      PUSH 0\t\t\t\n      DUP3 \t\t\t\n      PUSH 1F\t\t\t\n      DUP4 \t\t\t\n      ADD \t\t\t\n      SLT \t\t\t\n      PUSH [tag] 313\t\t\t\n      JUMPI \t\t\t\n      PUSH [tag] 314\t\t\t\n      PUSH [tag] 179\t\t\t\n      JUMP \t\t\t\n    tag 314\t\t\t\n      JUMPDEST \t\t\t\n    tag 313\t\t\t\n      JUMPDEST \t\t\t\n      DUP2 \t\t\t\n      CALLDATALOAD \t\t\t\n      PUSH [tag] 315\t\t\t\n      DUP5 \t\t\t\n      DUP3 \t\t\t\n      PUSH 20\t\t\t\n      DUP7 \t\t\t\n      ADD \t\t\t\n      PUSH [tag] 186\t\t\t\n      JUMP \t\t\t\n    tag 315\t\t\t\n      JUMPDEST \t\t\t\n      SWAP2 \t\t\t\n      POP \t\t\t\n      POP \t\t\t\n      SWAP3 \t\t\t\n      SWAP2 \t\t\t\n      POP \t\t\t\n      POP \t\t\t\n      JUMP \t\t\t\n    tag 188\t\t\t\n      JUMPDEST \t\t\t\n      PUSH 0\t\t\t\n      PUSH FFFFFFFFFFFFFFFF\t\t\t\n      DUP3 \t\t\t\n      GT \t\t\t\n      ISZERO \t\t\t\n      PUSH [tag] 317\t\t\t\n      JUMPI \t\t\t\n      PUSH [tag] 318\t\t\t\n      PUSH [tag] 181\t\t\t\n      JUMP \t\t\t\n    tag 318\t\t\t\n      JUMPDEST \t\t\t\n    tag 317\t\t\t\n      JUMPDEST \t\t\t\n      PUSH 20\t\t\t\n      DUP3 \t\t\t\n      MUL \t\t\t\n      SWAP1 \t\t\t\n      POP \t\t\t\n      PUSH 20\t\t\t\n      DUP2 \t\t\t\n      ADD \t\t\t\n      SWAP1 \t\t\t\n      POP \t\t\t\n      SWAP2 \t\t\t\n      SWAP1 \t\t\t\n      POP \t\t\t\n      JUMP \t\t\t\n    tag 189\t\t\t\n      JUMPDEST \t\t\t\n      PUSH 0\t\t\t\n      DUP1 \t\t\t\n      REVERT \t\t\t\n    tag 190\t\t\t\n      JUMPDEST \t\t\t\n      PUSH 0\t\t\t\n      PUSH [tag] 321\t\t\t\n      PUSH [tag] 322\t\t\t\n      DUP5 \t\t\t\n      PUSH [tag] 188\t\t\t\n      JUMP \t\t\t\n    tag 322\t\t\t\n      JUMPDEST \t\t\t\n      PUSH [tag] 183\t\t\t\n      JUMP \t\t\t\n    tag 321\t\t\t\n      JUMPDEST \t\t\t\n      SWAP1 \t\t\t\n      POP \t\t\t\n      DUP1 \t\t\t\n      DUP4 \t\t\t\n      DUP3 \t\t\t\n      MSTORE \t\t\t\n      PUSH 20\t\t\t\n      DUP3 \t\t\t\n      ADD \t\t\t\n      SWAP1 \t\t\t\n      POP \t\t\t\n      PUSH 20\t\t\t\n      DUP5 \t\t\t\n      MUL \t\t\t\n      DUP4 \t\t\t\n      ADD \t\t\t\n      DUP6 \t\t\t\n      DUP2 \t\t\t\n      GT \t\t\t\n      ISZERO \t\t\t\n      PUSH [tag] 323\t\t\t\n      JUMPI \t\t\t\n      PUSH [tag] 324\t\t\t\n      PUSH [tag] 189\t\t\t\n      JUMP \t\t\t\n    tag 324\t\t\t\n      JUMPDEST \t\t\t\n    tag 323\t\t\t\n      JUMPDEST \t\t\t\n      DUP4 \t\t\t\n    tag 325\t\t\t\n      JUMPDEST \t\t\t\n      DUP2 \t\t\t\n      DUP2 \t\t\t\n      LT \t\t\t\n      ISZERO \t\t\t\n      PUSH [tag] 327\t\t\t\n      JUMPI \t\t\t\n      DUP1 \t\t\t\n      CALLDATALOAD \t\t\t\n      PUSH FFFFFFFFFFFFFFFF\t\t\t\n      DUP2 \t\t\t\n      GT \t\t\t\n      ISZERO \t\t\t\n      PUSH [tag] 328\t\t\t\n      JUMPI \t\t\t\n      PUSH [tag] 329\t\t\t\n      PUSH [tag] 179\t\t\t\n      JUMP \t\t\t\n    tag 329\t\t\t\n      JUMPDEST \t\t\t\n    tag 328\t\t\t\n      JUMPDEST \t\t\t\n      DUP1 \t\t\t\n      DUP7 \t\t\t\n      ADD \t\t\t\n      PUSH [tag] 330\t\t\t\n      DUP10 \t\t\t\n      DUP3 \t\t\t\n      PUSH [tag] 187\t\t\t\n      JUMP \t\t\t\n    tag 330\t\t\t\n      JUMPDEST \t\t\t\n      DUP6 \t\t\t\n      MSTORE \t\t\t\n      PUSH 20\t\t\t\n      DUP6 \t\t\t\n      ADD \t\t\t\n      SWAP5 \t\t\t\n      POP \t\t\t\n      POP \t\t\t\n      POP \t\t\t\n      PUSH 20\t\t\t\n      DUP2 \t\t\t\n      ADD \t\t\t\n      SWAP1 \t\t\t\n      POP \t\t\t\n      PUSH [tag] 325\t\t\t\n      JUMP \t\t\t\n    tag 327\t\t\t\n      JUMPDEST \t\t\t\n      POP \t\t\t\n      POP \t\t\t\n      POP \t\t\t\n      SWAP4 \t\t\t\n      SWAP3 \t\t\t\n      POP \t\t\t\n      POP \t\t\t\n      POP \t\t\t\n      JUMP \t\t\t\n    tag 191\t\t\t\n      JUMPDEST \t\t\t\n      PUSH 0\t\t\t\n      DUP3 \t\t\t\n      PUSH 1F\t\t\t\n      DUP4 \t\t\t\n      ADD \t\t\t\n      SLT \t\t\t\n      PUSH [tag] 332\t\t\t\n      JUMPI \t\t\t\n      PUSH [tag] 333\t\t\t\n      PUSH [tag] 179\t\t\t\n      JUMP \t\t\t\n    tag 333\t\t\t\n      JUMPDEST \t\t\t\n    tag 332\t\t\t\n      JUMPDEST \t\t\t\n      DUP2 \t\t\t\n      CALLDATALOAD \t\t\t\n      PUSH [tag] 334\t\t\t\n      DUP5 \t\t\t\n      DUP3 \t\t\t\n      PUSH 20\t\t\t\n      DUP7 \t\t\t\n      ADD \t\t\t\n      PUSH [tag] 190\t\t\t\n      JUMP \t\t\t\n    tag 334\t\t\t\n      JUMPDEST \t\t\t\n      SWAP2 \t\t\t\n      POP \t\t\t\n      POP \t\t\t\n      SWAP3 \t\t\t\n      SWAP2 \t\t\t\n      POP \t\t\t\n      POP \t\t\t\n      JUMP \t\t\t\n    tag 21\t\t\t\n      JUMPDEST \t\t\t\n      PUSH 0\t\t\t\n      DUP1 \t\t\t\n      PUSH 0\t\t\t\n      DUP1 \t\t\t\n      PUSH 0\t\t\t\n      PUSH A0\t\t\t\n      DUP7 \t\t\t\n      DUP9 \t\t\t\n      SUB \t\t\t\n      SLT \t\t\t\n      ISZERO \t\t\t\n      PUSH [tag] 336\t\t\t\n      JUMPI \t\t\t\n      PUSH [tag] 337\t\t\t\n      PUSH [tag] 155\t\t\t\n      JUMP \t\t\t\n    tag 337\t\t\t\n      JUMPDEST \t\t\t\n    tag 336\t\t\t\n      JUMPDEST \t\t\t\n      PUSH 0\t\t\t\n      DUP7 \t\t\t\n      ADD \t\t\t\n      CALLDATALOAD \t\t\t\n      PUSH FFFFFFFFFFFFFFFF\t\t\t\n      DUP2 \t\t\t\n      GT \t\t\t\n      ISZERO \t\t\t\n      PUSH [tag] 338\t\t\t\n      JUMPI \t\t\t\n      PUSH [tag] 339\t\t\t\n      PUSH [tag] 156\t\t\t\n      JUMP \t\t\t\n    tag 339\t\t\t\n      JUMPDEST \t\t\t\n    tag 338\t\t\t\n      JUMPDEST \t\t\t\n      PUSH [tag] 340\t\t\t\n      DUP9 \t\t\t\n      DUP3 \t\t\t\n      DUP10 \t\t\t\n      ADD \t\t\t\n      PUSH [tag] 187\t\t\t\n      JUMP \t\t\t\n    tag 340\t\t\t\n      JUMPDEST \t\t\t\n      SWAP6 \t\t\t\n      POP \t\t\t\n      POP \t\t\t\n      PUSH 20\t\t\t\n      DUP7 \t\t\t\n      ADD \t\t\t\n      CALLDATALOAD \t\t\t\n      PUSH FFFFFFFFFFFFFFFF\t\t\t\n      DUP2 \t\t\t\n      GT \t\t\t\n      ISZERO \t\t\t\n      PUSH [tag] 341\t\t\t\n      JUMPI \t\t\t\n      PUSH [tag] 342\t\t\t\n      PUSH [tag] 156\t\t\t\n      JUMP \t\t\t\n    tag 342\t\t\t\n      JUMPDEST \t\t\t\n    tag 341\t\t\t\n      JUMPDEST \t\t\t\n      PUSH [tag] 343\t\t\t\n      DUP9 \t\t\t\n      DUP3 \t\t\t\n      DUP10 \t\t\t\n      ADD \t\t\t\n      PUSH [tag] 191\t\t\t\n      JUMP \t\t\t\n    tag 343\t\t\t\n      JUMPDEST \t\t\t\n      SWAP5 \t\t\t\n      POP \t\t\t\n      POP \t\t\t\n      PUSH 40\t\t\t\n      PUSH [tag] 344\t\t\t\n      DUP9 \t\t\t\n      DUP3 \t\t\t\n      DUP10 \t\t\t\n      ADD \t\t\t\n      PUSH [tag] 159\t\t\t\n      JUMP \t\t\t\n    tag 344\t\t\t\n      JUMPDEST \t\t\t\n      SWAP4 \t\t\t\n      POP \t\t\t\n      POP \t\t\t\n      PUSH 60\t\t\t\n      PUSH [tag] 345\t\t\t\n      DUP9 \t\t\t\n      DUP3 \t\t\t\n      DUP10 \t\t\t\n      ADD \t\t\t\n      PUSH [tag] 159\t\t\t\n      JUMP \t\t\t\n    tag 345\t\t\t\n      JUMPDEST \t\t\t\n      SWAP3 \t\t\t\n      POP \t\t\t\n      POP \t\t\t\n      PUSH 80\t\t\t\n      PUSH [tag] 346\t\t\t\n      DUP9 \t\t\t\n      DUP3 \t\t\t\n      DUP10 \t\t\t\n      ADD \t\t\t\n      PUSH [tag] 159\t\t\t\n      JUMP \t\t\t\n    tag 346\t\t\t\n      JUMPDEST \t\t\t\n      SWAP2 \t\t\t\n      POP \t\t\t\n      POP \t\t\t\n      SWAP3 \t\t\t\n      SWAP6 \t\t\t\n      POP \t\t\t\n      SWAP3 \t\t\t\n      SWAP6 \t\t\t\n      SWAP1 \t\t\t\n      SWAP4 \t\t\t\n      POP \t\t\t\n      JUMP \t\t\t\n    tag 28\t\t\t\n      JUMPDEST \t\t\t\n      PUSH 0\t\t\t\n      PUSH 20\t\t\t\n      DUP3 \t\t\t\n      ADD \t\t\t\n      SWAP1 \t\t\t\n      POP \t\t\t\n      PUSH [tag] 348\t\t\t\n      PUSH 0\t\t\t\n      DUP4 \t\t\t\n      ADD \t\t\t\n      DUP5 \t\t\t\n      PUSH [tag] 176\t\t\t\n      JUMP \t\t\t\n    tag 348\t\t\t\n      JUMPDEST \t\t\t\n      SWAP3 \t\t\t\n      SWAP2 \t\t\t\n      POP \t\t\t\n      POP \t\t\t\n      JUMP \t\t\t\n    tag 34\t\t\t\n      JUMPDEST \t\t\t\n      PUSH 0\t\t\t\n      PUSH 20\t\t\t\n      DUP3 \t\t\t\n      ADD \t\t\t\n      SWAP1 \t\t\t\n      POP \t\t\t\n      DUP2 \t\t\t\n      DUP2 \t\t\t\n      SUB \t\t\t\n      PUSH 0\t\t\t\n      DUP4 \t\t\t\n      ADD \t\t\t\n      MSTORE \t\t\t\n      PUSH [tag] 350\t\t\t\n      DUP2 \t\t\t\n      DUP5 \t\t\t\n      PUSH [tag] 175\t\t\t\n      JUMP \t\t\t\n    tag 350\t\t\t\n      JUMPDEST \t\t\t\n      SWAP1 \t\t\t\n      POP \t\t\t\n      SWAP3 \t\t\t\n      SWAP2 \t\t\t\n      POP \t\t\t\n      POP \t\t\t\n      JUMP \t\t\t\n    tag 44\t\t\t\n      JUMPDEST \t\t\t\n      PUSH 0\t\t\t\n      PUSH 100\t\t\t\n      DUP3 \t\t\t\n      ADD \t\t\t\n      SWAP1 \t\t\t\n      POP \t\t\t\n      PUSH [tag] 352\t\t\t\n      PUSH 0\t\t\t\n      DUP4 \t\t\t\n      ADD \t\t\t\n      DUP12 \t\t\t\n      PUSH [tag] 162\t\t\t\n      JUMP \t\t\t\n    tag 352\t\t\t\n      JUMPDEST \t\t\t\n      DUP2 \t\t\t\n      DUP2 \t\t\t\n      SUB \t\t\t\n      PUSH 20\t\t\t\n      DUP4 \t\t\t\n      ADD \t\t\t\n      MSTORE \t\t\t\n      PUSH [tag] 353\t\t\t\n      DUP2 \t\t\t\n      DUP11 \t\t\t\n      PUSH [tag] 167\t\t\t\n      JUMP \t\t\t\n    tag 353\t\t\t\n      JUMPDEST \t\t\t\n      SWAP1 \t\t\t\n      POP \t\t\t\n      PUSH [tag] 354\t\t\t\n      PUSH 40\t\t\t\n      DUP4 \t\t\t\n      ADD \t\t\t\n      DUP10 \t\t\t\n      PUSH [tag] 176\t\t\t\n      JUMP \t\t\t\n    tag 354\t\t\t\n      JUMPDEST \t\t\t\n      PUSH [tag] 355\t\t\t\n      PUSH 60\t\t\t\n      DUP4 \t\t\t\n      ADD \t\t\t\n      DUP9 \t\t\t\n      PUSH [tag] 176\t\t\t\n      JUMP \t\t\t\n    tag 355\t\t\t\n      JUMPDEST \t\t\t\n      PUSH [tag] 356\t\t\t\n      PUSH 80\t\t\t\n      DUP4 \t\t\t\n      ADD \t\t\t\n      DUP8 \t\t\t\n      PUSH [tag] 176\t\t\t\n      JUMP \t\t\t\n    tag 356\t\t\t\n      JUMPDEST \t\t\t\n      PUSH [tag] 357\t\t\t\n      PUSH A0\t\t\t\n      DUP4 \t\t\t\n      ADD \t\t\t\n      DUP7 \t\t\t\n      PUSH [tag] 178\t\t\t\n      JUMP \t\t\t\n    tag 357\t\t\t\n      JUMPDEST \t\t\t\n      PUSH [tag] 358\t\t\t\n      PUSH C0\t\t\t\n      DUP4 \t\t\t\n      ADD \t\t\t\n      DUP6 \t\t\t\n      PUSH [tag] 176\t\t\t\n      JUMP \t\t\t\n    tag 358\t\t\t\n      JUMPDEST \t\t\t\n      PUSH [tag] 359\t\t\t\n      PUSH E0\t\t\t\n      DUP4 \t\t\t\n      ADD \t\t\t\n      DUP5 \t\t\t\n      PUSH [tag] 176\t\t\t\n      JUMP \t\t\t\n    tag 359\t\t\t\n      JUMPDEST \t\t\t\n      SWAP10 \t\t\t\n      SWAP9 \t\t\t\n      POP \t\t\t\n      POP \t\t\t\n      POP \t\t\t\n      POP \t\t\t\n      POP \t\t\t\n      POP \t\t\t\n      POP \t\t\t\n      POP \t\t\t\n      POP \t\t\t\n      JUMP \t\t\t\n    tag 50\t\t\t\n      JUMPDEST \t\t\t\n      PUSH 0\t\t\t\n      PUSH 60\t\t\t\n      DUP3 \t\t\t\n      ADD \t\t\t\n      SWAP1 \t\t\t\n      POP \t\t\t\n      PUSH [tag] 361\t\t\t\n      PUSH 0\t\t\t\n      DUP4 \t\t\t\n      ADD \t\t\t\n      DUP7 \t\t\t\n      PUSH [tag] 178\t\t\t\n      JUMP \t\t\t\n    tag 361\t\t\t\n      JUMPDEST \t\t\t\n      PUSH [tag] 362\t\t\t\n      PUSH 20\t\t\t\n      DUP4 \t\t\t\n      ADD \t\t\t\n      DUP6 \t\t\t\n      PUSH [tag] 176\t\t\t\n      JUMP \t\t\t\n    tag 362\t\t\t\n      JUMPDEST \t\t\t\n      PUSH [tag] 363\t\t\t\n      PUSH 40\t\t\t\n      DUP4 \t\t\t\n      ADD \t\t\t\n      DUP5 \t\t\t\n      PUSH [tag] 176\t\t\t\n      JUMP \t\t\t\n    tag 363\t\t\t\n      JUMPDEST \t\t\t\n      SWAP5 \t\t\t\n      SWAP4 \t\t\t\n      POP \t\t\t\n      POP \t\t\t\n      POP \t\t\t\n      POP \t\t\t\n      JUMP \t\t\t\n    tag 192\t\t\t\n      JUMPDEST \t\t\t\n      PUSH 0\t\t\t\n      DUP2 \t\t\t\n      MLOAD \t\t\t\n      SWAP1 \t\t\t\n      POP \t\t\t\n      SWAP2 \t\t\t\n      SWAP1 \t\t\t\n      POP \t\t\t\n      JUMP \t\t\t\n    tag 193\t\t\t\n      JUMPDEST \t\t\t\n      PUSH 0\t\t\t\n      DUP3 \t\t\t\n      DUP3 \t\t\t\n      MSTORE \t\t\t\n      PUSH 20\t\t\t\n      DUP3 \t\t\t\n      ADD \t\t\t\n      SWAP1 \t\t\t\n      POP \t\t\t\n      SWAP3 \t\t\t\n      SWAP2 \t\t\t\n      POP \t\t\t\n      POP \t\t\t\n      JUMP \t\t\t\n    tag 194\t\t\t\n      JUMPDEST \t\t\t\n      PUSH 0\t\t\t\n      DUP2 \t\t\t\n      SWAP1 \t\t\t\n      POP \t\t\t\n      PUSH 20\t\t\t\n      DUP3 \t\t\t\n      ADD \t\t\t\n      SWAP1 \t\t\t\n      POP \t\t\t\n      SWAP2 \t\t\t\n      SWAP1 \t\t\t\n      POP \t\t\t\n      JUMP \t\t\t\n    tag 195\t\t\t\n      JUMPDEST \t\t\t\n      PUSH [tag] 368\t\t\t\n      DUP2 \t\t\t\n      PUSH [tag] 157\t\t\t\n      JUMP \t\t\t\n    tag 368\t\t\t\n      JUMPDEST \t\t\t\n      DUP3 \t\t\t\n      MSTORE \t\t\t\n      POP \t\t\t\n      POP \t\t\t\n      JUMP \t\t\t\n    tag 196\t\t\t\n      JUMPDEST \t\t\t\n      PUSH 0\t\t\t\n      PUSH [tag] 370\t\t\t\n      DUP4 \t\t\t\n      DUP4 \t\t\t\n      PUSH [tag] 195\t\t\t\n      JUMP \t\t\t\n    tag 370\t\t\t\n      JUMPDEST \t\t\t\n      PUSH 20\t\t\t\n      DUP4 \t\t\t\n      ADD \t\t\t\n      SWAP1 \t\t\t\n      POP \t\t\t\n      SWAP3 \t\t\t\n      SWAP2 \t\t\t\n      POP \t\t\t\n      POP \t\t\t\n      JUMP \t\t\t\n    tag 197\t\t\t\n      JUMPDEST \t\t\t\n      PUSH 0\t\t\t\n      PUSH 20\t\t\t\n      DUP3 \t\t\t\n      ADD \t\t\t\n      SWAP1 \t\t\t\n      POP \t\t\t\n      SWAP2 \t\t\t\n      SWAP1 \t\t\t\n      POP \t\t\t\n      JUMP \t\t\t\n    tag 198\t\t\t\n      JUMPDEST \t\t\t\n      PUSH 0\t\t\t\n      PUSH [tag] 373\t\t\t\n      DUP3 \t\t\t\n      PUSH [tag] 192\t\t\t\n      JUMP \t\t\t\n    tag 373\t\t\t\n      JUMPDEST \t\t\t\n      PUSH [tag] 374\t\t\t\n      DUP2 \t\t\t\n      DUP6 \t\t\t\n      PUSH [tag] 193\t\t\t\n      JUMP \t\t\t\n    tag 374\t\t\t\n      JUMPDEST \t\t\t\n      SWAP4 \t\t\t\n      POP \t\t\t\n      PUSH [tag] 375\t\t\t\n      DUP4 \t\t\t\n      PUSH [tag] 194\t\t\t\n      JUMP \t\t\t\n    tag 375\t\t\t\n      JUMPDEST \t\t\t\n      DUP1 \t\t\t\n      PUSH 0\t\t\t\n    tag 376\t\t\t\n      JUMPDEST \t\t\t\n      DUP4 \t\t\t\n      DUP2 \t\t\t\n      LT \t\t\t\n      ISZERO \t\t\t\n      PUSH [tag] 378\t\t\t\n      JUMPI \t\t\t\n      DUP2 \t\t\t\n      MLOAD \t\t\t\n      PUSH [tag] 379\t\t\t\n      DUP9 \t\t\t\n      DUP3 \t\t\t\n      PUSH [tag] 196\t\t\t\n      JUMP \t\t\t\n    tag 379\t\t\t\n      JUMPDEST \t\t\t\n      SWAP8 \t\t\t\n      POP \t\t\t\n      PUSH [tag] 380\t\t\t\n      DUP4 \t\t\t\n      PUSH [tag] 197\t\t\t\n      JUMP \t\t\t\n    tag 380\t\t\t\n      JUMPDEST \t\t\t\n      SWAP3 \t\t\t\n      POP \t\t\t\n      POP \t\t\t\n      PUSH 1\t\t\t\n      DUP2 \t\t\t\n      ADD \t\t\t\n      SWAP1 \t\t\t\n      POP \t\t\t\n      PUSH [tag] 376\t\t\t\n      JUMP \t\t\t\n    tag 378\t\t\t\n      JUMPDEST \t\t\t\n      POP \t\t\t\n      DUP6 \t\t\t\n      SWAP4 \t\t\t\n      POP \t\t\t\n      POP \t\t\t\n      POP \t\t\t\n      POP \t\t\t\n      SWAP3 \t\t\t\n      SWAP2 \t\t\t\n      POP \t\t\t\n      POP \t\t\t\n      JUMP \t\t\t\n    tag 59\t\t\t\n      JUMPDEST \t\t\t\n      PUSH 0\t\t\t\n      PUSH 20\t\t\t\n      DUP3 \t\t\t\n      ADD \t\t\t\n      SWAP1 \t\t\t\n      POP \t\t\t\n      DUP2 \t\t\t\n      DUP2 \t\t\t\n      SUB \t\t\t\n      PUSH 0\t\t\t\n      DUP4 \t\t\t\n      ADD \t\t\t\n      MSTORE \t\t\t\n      PUSH [tag] 382\t\t\t\n      DUP2 \t\t\t\n      DUP5 \t\t\t\n      PUSH [tag] 198\t\t\t\n      JUMP \t\t\t\n    tag 382\t\t\t\n      JUMPDEST \t\t\t\n      SWAP1 \t\t\t\n      POP \t\t\t\n      SWAP3 \t\t\t\n      SWAP2 \t\t\t\n      POP \t\t\t\n      POP \t\t\t\n      JUMP \t\t\t\n    tag 199\t\t\t\n      JUMPDEST \t\t\t\n      PUSH 4E487B7100000000000000000000000000000000000000000000000000000000\t\t\t\n      PUSH 0\t\t\t\n      MSTORE \t\t\t\n      PUSH 22\t\t\t\n      PUSH 4\t\t\t\n      MSTORE \t\t\t\n      PUSH 24\t\t\t\n      PUSH 0\t\t\t\n      REVERT \t\t\t\n    tag 62\t\t\t\n      JUMPDEST \t\t\t\n      PUSH 0\t\t\t\n      PUSH 2\t\t\t\n      DUP3 \t\t\t\n      DIV \t\t\t\n      SWAP1 \t\t\t\n      POP \t\t\t\n      PUSH 1\t\t\t\n      DUP3 \t\t\t\n      AND \t\t\t\n      DUP1 \t\t\t\n      PUSH [tag] 385\t\t\t\n      JUMPI \t\t\t\n      PUSH 7F\t\t\t\n      DUP3 \t\t\t\n      AND \t\t\t\n      SWAP2 \t\t\t\n      POP \t\t\t\n    tag 385\t\t\t\n      JUMPDEST \t\t\t\n      PUSH 20\t\t\t\n      DUP3 \t\t\t\n      LT \t\t\t\n      DUP2 \t\t\t\n      SUB \t\t\t\n      PUSH [tag] 386\t\t\t\n      JUMPI \t\t\t\n      PUSH [tag] 387\t\t\t\n      PUSH [tag] 199\t\t\t\n      JUMP \t\t\t\n    tag 387\t\t\t\n      JUMPDEST \t\t\t\n    tag 386\t\t\t\n      JUMPDEST \t\t\t\n      POP \t\t\t\n      SWAP2 \t\t\t\n      SWAP1 \t\t\t\n      POP \t\t\t\n      JUMP \t\t\t\n    tag 200\t\t\t\n      JUMPDEST \t\t\t\n      PUSH 4E656564206174206C656173742032206F7074696F6E73000000000000000000\t\t\t\n      PUSH 0\t\t\t\n      DUP3 \t\t\t\n      ADD \t\t\t\n      MSTORE \t\t\t\n      POP \t\t\t\n      JUMP \t\t\t\n    tag 201\t\t\t\n      JUMPDEST \t\t\t\n      PUSH 0\t\t\t\n      PUSH [tag] 390\t\t\t\n      PUSH 17\t\t\t\n      DUP4 \t\t\t\n      PUSH [tag] 164\t\t\t\n      JUMP \t\t\t\n    tag 390\t\t\t\n      JUMPDEST \t\t\t\n      SWAP2 \t\t\t\n      POP \t\t\t\n      PUSH [tag] 391\t\t\t\n      DUP3 \t\t\t\n      PUSH [tag] 200\t\t\t\n      JUMP \t\t\t\n    tag 391\t\t\t\n      JUMPDEST \t\t\t\n      PUSH 20\t\t\t\n      DUP3 \t\t\t\n      ADD \t\t\t\n      SWAP1 \t\t\t\n      POP \t\t\t\n      SWAP2 \t\t\t\n      SWAP1 \t\t\t\n      POP \t\t\t\n      JUMP \t\t\t\n    tag 78\t\t\t\n      JUMPDEST \t\t\t\n      PUSH 0\t\t\t\n      PUSH 20\t\t\t\n      DUP3 \t\t\t\n      ADD \t\t\t\n      SWAP1 \t\t\t\n      POP \t\t\t\n      DUP2 \t\t\t\n      DUP2 \t\t\t\n      SUB \t\t\t\n      PUSH 0\t\t\t\n      DUP4 \t\t\t\n      ADD \t\t\t\n      MSTORE \t\t\t\n      PUSH [tag] 393\t\t\t\n      DUP2 \t\t\t\n      PUSH [tag] 201\t\t\t\n      JUMP \t\t\t\n    tag 393\t\t\t\n      JUMPDEST \t\t\t\n      SWAP1 \t\t\t\n      POP \t\t\t\n      SWAP2 \t\t\t\n      SWAP1 \t\t\t\n      POP \t\t\t\n      JUMP \t\t\t\n    tag 202\t\t\t\n      JUMPDEST \t\t\t\n      PUSH 496E76616C6964206475726174696F6E00000000000000000000000000000000\t\t\t\n      PUSH 0\t\t\t\n      DUP3 \t\t\t\n      ADD \t\t\t\n      MSTORE \t\t\t\n      POP \t\t\t\n      JUMP \t\t\t\n    tag 203\t\t\t\n      JUMPDEST \t\t\t\n      PUSH 0\t\t\t\n      PUSH [tag] 396\t\t\t\n      PUSH 10\t\t\t\n      DUP4 \t\t\t\n      PUSH [tag] 164\t\t\t\n      JUMP \t\t\t\n    tag 396\t\t\t\n      JUMPDEST \t\t\t\n      SWAP2 \t\t\t\n      POP \t\t\t\n      PUSH [tag] 397\t\t\t\n      DUP3 \t\t\t\n      PUSH [tag] 202\t\t\t\n      JUMP \t\t\t\n    tag 397\t\t\t\n      JUMPDEST \t\t\t\n      PUSH 20\t\t\t\n      DUP3 \t\t\t\n      ADD \t\t\t\n      SWAP1 \t\t\t\n      POP \t\t\t\n      SWAP2 \t\t\t\n      SWAP1 \t\t\t\n      POP \t\t\t\n      JUMP \t\t\t\n    tag 81\t\t\t\n      JUMPDEST \t\t\t\n      PUSH 0\t\t\t\n      PUSH 20\t\t\t\n      DUP3 \t\t\t\n      ADD \t\t\t\n      SWAP1 \t\t\t\n      POP \t\t\t\n      DUP2 \t\t\t\n      DUP2 \t\t\t\n      SUB \t\t\t\n      PUSH 0\t\t\t\n      DUP4 \t\t\t\n      ADD \t\t\t\n      MSTORE \t\t\t\n      PUSH [tag] 399\t\t\t\n      DUP2 \t\t\t\n      PUSH [tag] 203\t\t\t\n      JUMP \t\t\t\n    tag 399\t\t\t\n      JUMPDEST \t\t\t\n      SWAP1 \t\t\t\n      POP \t\t\t\n      SWAP2 \t\t\t\n      SWAP1 \t\t\t\n      POP \t\t\t\n      JUMP \t\t\t\n    tag 204\t\t\t\n      JUMPDEST \t\t\t\n      PUSH 0\t\t\t\n      DUP2 \t\t\t\n      SWAP1 \t\t\t\n      POP \t\t\t\n      DUP2 \t\t\t\n      PUSH 0\t\t\t\n      MSTORE \t\t\t\n      PUSH 20\t\t\t\n      PUSH 0\t\t\t\n      KECCAK256 \t\t\t\n      SWAP1 \t\t\t\n      POP \t\t\t\n      SWAP2 \t\t\t\n      SWAP1 \t\t\t\n      POP \t\t\t\n      JUMP \t\t\t\n    tag 205\t\t\t\n      JUMPDEST \t\t\t\n      PUSH 0\t\t\t\n      PUSH 20\t\t\t\n      PUSH 1F\t\t\t\n      DUP4 \t\t\t\n      ADD \t\t\t\n      DIV \t\t\t\n      SWAP1 \t\t\t\n      POP \t\t\t\n      SWAP2 \t\t\t\n      SWAP1 \t\t\t\n      POP \t\t\t\n      JUMP \t\t\t\n    tag 206\t\t\t\n      JUMPDEST \t\t\t\n      PUSH 0\t\t\t\n      DUP3 \t\t\t\n      DUP3 \t\t\t\n      SHL \t\t\t\n      SWAP1 \t\t\t\n      POP \t\t\t\n      SWAP3 \t\t\t\n      SWAP2 \t\t\t\n      POP \t\t\t\n      POP \t\t\t\n      JUMP \t\t\t\n    tag 207\t\t\t\n      JUMPDEST \t\t\t\n      PUSH 0\t\t\t\n      PUSH 8\t\t\t\n      DUP4 \t\t\t\n      MUL \t\t\t\n      PUSH [tag] 404\t\t\t\n      PUSH FFFFFFFFFFFFFFFFFFFFFFFFFFFFFFFFFFFFFFFFFFFFFFFFFFFFFFFFFFFFFFFF\t\t\t\n      DUP3 \t\t\t\n      PUSH [tag] 206\t\t\t\n      JUMP \t\t\t\n    tag 404\t\t\t\n      JUMPDEST \t\t\t\n      PUSH [tag] 405\t\t\t\n      DUP7 \t\t\t\n      DUP4 \t\t\t\n      PUSH [tag] 206\t\t\t\n      JUMP \t\t\t\n    tag 405\t\t\t\n      JUMPDEST \t\t\t\n      SWAP6 \t\t\t\n      POP \t\t\t\n      DUP1 \t\t\t\n      NOT \t\t\t\n      DUP5 \t\t\t\n      AND \t\t\t\n      SWAP4 \t\t\t\n      POP \t\t\t\n      DUP1 \t\t\t\n      DUP7 \t\t\t\n      AND \t\t\t\n      DUP5 \t\t\t\n      OR \t\t\t\n      SWAP3 \t\t\t\n      POP \t\t\t\n      POP \t\t\t\n      POP \t\t\t\n      SWAP4 \t\t\t\n      SWAP3 \t\t\t\n      POP \t\t\t\n      POP \t\t\t\n      POP \t\t\t\n      JUMP \t\t\t\n    tag 208\t\t\t\n      JUMPDEST \t\t\t\n      PUSH 0\t\t\t\n      DUP2 \t\t\t\n      SWAP1 \t\t\t\n      POP \t\t\t\n      SWAP2 \t\t\t\n      SWAP1 \t\t\t\n      POP \t\t\t\n      JUMP \t\t\t\n    tag 209\t\t\t\n      JUMPDEST \t\t\t\n      PUSH 0\t\t\t\n      PUSH [tag] 408\t\t\t\n      PUSH [tag] 409\t\t\t\n      PUSH [tag] 410\t\t\t\n      DUP5 \t\t\t\n      PUSH [tag] 157\t\t\t\n      JUMP \t\t\t\n    tag 410\t\t\t\n      JUMPDEST \t\t\t\n      PUSH [tag] 208\t\t\t\n      JUMP \t\t\t\n    tag 409\t\t\t\n      JUMPDEST \t\t\t\n      PUSH [tag] 157\t\t\t\n      JUMP \t\t\t\n    tag 408\t\t\t\n      JUMPDEST \t\t\t\n      SWAP1 \t\t\t\n      POP \t\t\t\n      SWAP2 \t\t\t\n      SWAP1 \t\t\t\n      POP \t\t\t\n      JUMP \t\t\t\n    tag 210\t\t\t\n      JUMPDEST \t\t\t\n      PUSH 0\t\t\t\n      DUP2 \t\t\t\n      SWAP1 \t\t\t\n      POP \t\t\t\n      SWAP2 \t\t\t\n      SWAP1 \t\t\t\n      POP \t\t\t\n      JUMP \t\t\t\n    tag 211\t\t\t\n      JUMPDEST \t\t\t\n      PUSH [tag] 413\t\t\t\n      DUP4 \t\t\t\n      PUSH [tag] 209\t\t\t\n      JUMP \t\t\t\n    tag 413\t\t\t\n      JUMPDEST \t\t\t\n      PUSH [tag] 414\t\t\t\n      PUSH [tag] 415\t\t\t\n      DUP3 \t\t\t\n      PUSH [tag] 210\t\t\t\n      JUMP \t\t\t\n    tag 415\t\t\t\n      JUMPDEST \t\t\t\n      DUP5 \t\t\t\n      DUP5 \t\t\t\n      SLOAD \t\t\t\n      PUSH [tag] 207\t\t\t\n      JUMP \t\t\t\n    tag 414\t\t\t\n      JUMPDEST \t\t\t\n      DUP3 \t\t\t\n      SSTORE \t\t\t\n      POP \t\t\t\n      POP \t\t\t\n      POP \t\t\t\n      POP \t\t\t\n      JUMP \t\t\t\n    tag 212\t\t\t\n      JUMPDEST \t\t\t\n      PUSH 0\t\t\t\n      SWAP1 \t\t\t\n      JUMP \t\t\t\n    tag 213\t\t\t\n      JUMPDEST \t\t\t\n      PUSH [tag] 418\t\t\t\n      PUSH [tag] 212\t\t\t\n      JUMP \t\t\t\n    tag 418\t\t\t\n      JUMPDEST \t\t\t\n      PUSH [tag] 419\t\t\t\n      DUP2 \t\t\t\n      DUP5 \t\t\t\n      DUP5 \t\t\t\n      PUSH [tag] 211\t\t\t\n      JUMP \t\t\t\n    tag 419\t\t\t\n      JUMPDEST \t\t\t\n      POP \t\t\t\n      POP \t\t\t\n      POP \t\t\t\n      JUMP \t\t\t\n    tag 214\t\t\t\n      JUMPDEST \t\t\t\n    tag 421\t\t\t\n      JUMPDEST \t\t\t\n      DUP2 \t\t\t\n      DUP2 \t\t\t\n      LT \t\t\t\n      ISZERO \t\t\t\n      PUSH [tag] 423\t\t\t\n      JUMPI \t\t\t\n      PUSH [tag] 424\t\t\t\n      PUSH 0\t\t\t\n      DUP3 \t\t\t\n      PUSH [tag] 213\t\t\t\n      JUMP \t\t\t\n    tag 424\t\t\t\n      JUMPDEST \t\t\t\n      PUSH 1\t\t\t\n      DUP2 \t\t\t\n      ADD \t\t\t\n      SWAP1 \t\t\t\n      POP \t\t\t\n      PUSH [tag] 421\t\t\t\n      JUMP \t\t\t\n    tag 423\t\t\t\n      JUMPDEST \t\t\t\n      POP \t\t\t\n      POP \t\t\t\n      JUMP \t\t\t\n    tag 215\t\t\t\n      JUMPDEST \t\t\t\n      PUSH 1F\t\t\t\n      DUP3 \t\t\t\n      GT \t\t\t\n      ISZERO \t\t\t\n      PUSH [tag] 426\t\t\t\n      JUMPI \t\t\t\n      PUSH [tag] 427\t\t\t\n      DUP2 \t\t\t\n      PUSH [tag] 204\t\t\t\n      JUMP \t\t\t\n    tag 427\t\t\t\n      JUMPDEST \t\t\t\n      PUSH [tag] 428\t\t\t\n      DUP5 \t\t\t\n      PUSH [tag] 205\t\t\t\n      JUMP \t\t\t\n    tag 428\t\t\t\n      JUMPDEST \t\t\t\n      DUP2 \t\t\t\n      ADD \t\t\t\n      PUSH 20\t\t\t\n      DUP6 \t\t\t\n      LT \t\t\t\n      ISZERO \t\t\t\n      PUSH [tag] 429\t\t\t\n      JUMPI \t\t\t\n      DUP2 \t\t\t\n      SWAP1 \t\t\t\n      POP \t\t\t\n    tag 429\t\t\t\n      JUMPDEST \t\t\t\n      PUSH [tag] 430\t\t\t\n      PUSH [tag] 431\t\t\t\n      DUP6 \t\t\t\n      PUSH [tag] 205\t\t\t\n      JUMP \t\t\t\n    tag 431\t\t\t\n      JUMPDEST \t\t\t\n      DUP4 \t\t\t\n      ADD \t\t\t\n      DUP3 \t\t\t\n      PUSH [tag] 214\t\t\t\n      JUMP \t\t\t\n    tag 430\t\t\t\n      JUMPDEST \t\t\t\n      POP \t\t\t\n      POP \t\t\t\n    tag 426\t\t\t\n      JUMPDEST \t\t\t\n      POP \t\t\t\n      POP \t\t\t\n      POP \t\t\t\n      JUMP \t\t\t\n    tag 216\t\t\t\n      JUMPDEST \t\t\t\n      PUSH 0\t\t\t\n      DUP3 \t\t\t\n      DUP3 \t\t\t\n      SHR \t\t\t\n      SWAP1 \t\t\t\n      POP \t\t\t\n      SWAP3 \t\t\t\n      SWAP2 \t\t\t\n      POP \t\t\t\n      POP \t\t\t\n      JUMP \t\t\t\n    tag 217\t\t\t\n      JUMPDEST \t\t\t\n      PUSH 0\t\t\t\n      PUSH [tag] 434\t\t\t\n      PUSH 0\t\t\t\n      NOT \t\t\t\n      DUP5 \t\t\t\n      PUSH 8\t\t\t\n      MUL \t\t\t\n      PUSH [tag] 216\t\t\t\n      JUMP \t\t\t\n    tag 434\t\t\t\n      JUMPDEST \t\t\t\n      NOT \t\t\t\n      DUP1 \t\t\t\n      DUP4 \t\t\t\n      AND \t\t\t\n      SWAP2 \t\t\t\n      POP \t\t\t\n      POP \t\t\t\n      SWAP3 \t\t\t\n      SWAP2 \t\t\t\n      POP \t\t\t\n      POP \t\t\t\n      JUMP \t\t\t\n    tag 218\t\t\t\n      JUMPDEST \t\t\t\n      PUSH 0\t\t\t\n      PUSH [tag] 436\t\t\t\n      DUP4 \t\t\t\n      DUP4 \t\t\t\n      PUSH [tag] 217\t\t\t\n      JUMP \t\t\t\n    tag 436\t\t\t\n      JUMPDEST \t\t\t\n      SWAP2 \t\t\t\n      POP \t\t\t\n      DUP3 \t\t\t\n      PUSH 2\t\t\t\n      MUL \t\t\t\n      DUP3 \t\t\t\n      OR \t\t\t\n      SWAP1 \t\t\t\n      POP \t\t\t\n      SWAP3 \t\t\t\n      SWAP2 \t\t\t\n      POP \t\t\t\n      POP \t\t\t\n      JUMP \t\t\t\n    tag 83\t\t\t\n      JUMPDEST \t\t\t\n      PUSH [tag] 438\t\t\t\n      DUP3 \t\t\t\n      PUSH [tag] 163\t\t\t\n      JUMP \t\t\t\n    tag 438\t\t\t\n      JUMPDEST \t\t\t\n      PUSH FFFFFFFFFFFFFFFF\t\t\t\n      DUP2 \t\t\t\n      GT \t\t\t\n      ISZERO \t\t\t\n      PUSH [tag] 439\t\t\t\n      JUMPI \t\t\t\n      PUSH [tag] 440\t\t\t\n      PUSH [tag] 181\t\t\t\n      JUMP \t\t\t\n    tag 440\t\t\t\n      JUMPDEST \t\t\t\n    tag 439\t\t\t\n      JUMPDEST \t\t\t\n      PUSH [tag] 441\t\t\t\n      DUP3 \t\t\t\n      SLOAD \t\t\t\n      PUSH [tag] 62\t\t\t\n      JUMP \t\t\t\n    tag 441\t\t\t\n      JUMPDEST \t\t\t\n      PUSH [tag] 442\t\t\t\n      DUP3 \t\t\t\n      DUP3 \t\t\t\n      DUP6 \t\t\t\n      PUSH [tag] 215\t\t\t\n      JUMP \t\t\t\n    tag 442\t\t\t\n      JUMPDEST \t\t\t\n      PUSH 0\t\t\t\n      PUSH 20\t\t\t\n      SWAP1 \t\t\t\n      POP \t\t\t\n      PUSH 1F\t\t\t\n      DUP4 \t\t\t\n      GT \t\t\t\n      PUSH 1\t\t\t\n      DUP2 \t\t\t\n      EQ \t\t\t\n      PUSH [tag] 444\t\t\t\n      JUMPI \t\t\t\n      PUSH 0\t\t\t\n      DUP5 \t\t\t\n      ISZERO \t\t\t\n      PUSH [tag] 445\t\t\t\n      JUMPI \t\t\t\n      DUP3 \t\t\t\n      DUP8 \t\t\t\n      ADD \t\t\t\n      MLOAD \t\t\t\n      SWAP1 \t\t\t\n      POP \t\t\t\n    tag 445\t\t\t\n      JUMPDEST \t\t\t\n      PUSH [tag] 446\t\t\t\n      DUP6 \t\t\t\n      DUP3 \t\t\t\n      PUSH [tag] 218\t\t\t\n      JUMP \t\t\t\n    tag 446\t\t\t\n      JUMPDEST \t\t\t\n      DUP7 \t\t\t\n      SSTORE \t\t\t\n      POP \t\t\t\n      PUSH [tag] 443\t\t\t\n      JUMP \t\t\t\n    tag 444\t\t\t\n      JUMPDEST \t\t\t\n      PUSH 1F\t\t\t\n      NOT \t\t\t\n      DUP5 \t\t\t\n      AND \t\t\t\n      PUSH [tag] 447\t\t\t\n      DUP7 \t\t\t\n      PUSH [tag] 204\t\t\t\n      JUMP \t\t\t\n    tag 447\t\t\t\n      JUMPDEST \t\t\t\n      PUSH 0\t\t\t\n    tag 448\t\t\t\n      JUMPDEST \t\t\t\n      DUP3 \t\t\t\n      DUP2 \t\t\t\n      LT \t\t\t\n      ISZERO \t\t\t\n      PUSH [tag] 450\t\t\t\n      JUMPI \t\t\t\n      DUP5 \t\t\t\n      DUP10 \t\t\t\n      ADD \t\t\t\n      MLOAD \t\t\t\n      DUP3 \t\t\t\n      SSTORE \t\t\t\n      PUSH 1\t\t\t\n      DUP3 \t\t\t\n      ADD \t\t\t\n      SWAP2 \t\t\t\n      POP \t\t\t\n      PUSH 20\t\t\t\n      DUP6 \t\t\t\n      ADD \t\t\t\n      SWAP5 \t\t\t\n      POP \t\t\t\n      PUSH 20\t\t\t\n      DUP2 \t\t\t\n      ADD \t\t\t\n      SWAP1 \t\t\t\n      POP \t\t\t\n      PUSH [tag] 448\t\t\t\n      JUMP \t\t\t\n    tag 450\t\t\t\n      JUMPDEST \t\t\t\n      DUP7 \t\t\t\n      DUP4 \t\t\t\n      LT \t\t\t\n      ISZERO \t\t\t\n      PUSH [tag] 451\t\t\t\n      JUMPI \t\t\t\n      DUP5 \t\t\t\n      DUP10 \t\t\t\n      ADD \t\t\t\n      MLOAD \t\t\t\n      PUSH [tag] 452\t\t\t\n      PUSH 1F\t\t\t\n      DUP10 \t\t\t\n      AND \t\t\t\n      DUP3 \t\t\t\n      PUSH [tag] 217\t\t\t\n      JUMP \t\t\t\n    tag 452\t\t\t\n      JUMPDEST \t\t\t\n      DUP4 \t\t\t\n      SSTORE \t\t\t\n      POP \t\t\t\n    tag 451\t\t\t\n      JUMPDEST \t\t\t\n      PUSH 1\t\t\t\n      PUSH 2\t\t\t\n      DUP9 \t\t\t\n      MUL \t\t\t\n      ADD \t\t\t\n      DUP9 \t\t\t\n      SSTORE \t\t\t\n      POP \t\t\t\n      POP \t\t\t\n      POP \t\t\t\n    tag 443\t\t\t\n      JUMPDEST \t\t\t\n      POP \t\t\t\n      POP \t\t\t\n      POP \t\t\t\n      POP \t\t\t\n      POP \t\t\t\n      POP \t\t\t\n      JUMP \t\t\t\n    tag 219\t\t\t\n      JUMPDEST \t\t\t\n      PUSH 4E487B7100000000000000000000000000000000000000000000000000000000\t\t\t\n      PUSH 0\t\t\t\n      MSTORE \t\t\t\n      PUSH 11\t\t\t\n      PUSH 4\t\t\t\n      MSTORE \t\t\t\n      PUSH 24\t\t\t\n      PUSH 0\t\t\t\n      REVERT \t\t\t\n    tag 87\t\t\t\n      JUMPDEST \t\t\t\n      PUSH 0\t\t\t\n      PUSH [tag] 455\t\t\t\n      DUP3 \t\t\t\n      PUSH [tag] 157\t\t\t\n      JUMP \t\t\t\n    tag 455\t\t\t\n      JUMPDEST \t\t\t\n      SWAP2 \t\t\t\n      POP \t\t\t\n      PUSH [tag] 456\t\t\t\n      DUP4 \t\t\t\n      PUSH [tag] 157\t\t\t\n      JUMP \t\t\t\n    tag 456\t\t\t\n      JUMPDEST \t\t\t\n      SWAP3 \t\t\t\n      POP \t\t\t\n      DUP3 \t\t\t\n      DUP3 \t\t\t\n      MUL \t\t\t\n      PUSH [tag] 457\t\t\t\n      DUP2 \t\t\t\n      PUSH [tag] 157\t\t\t\n      JUMP \t\t\t\n    tag 457\t\t\t\n      JUMPDEST \t\t\t\n      SWAP2 \t\t\t\n      POP \t\t\t\n      DUP3 \t\t\t\n      DUP3 \t\t\t\n      DIV \t\t\t\n      DUP5 \t\t\t\n      EQ \t\t\t\n      DUP4 \t\t\t\n      ISZERO \t\t\t\n      OR \t\t\t\n      PUSH [tag] 458\t\t\t\n      JUMPI \t\t\t\n      PUSH [tag] 459\t\t\t\n      PUSH [tag] 219\t\t\t\n      JUMP \t\t\t\n    tag 459\t\t\t\n      JUMPDEST \t\t\t\n    tag 458\t\t\t\n      JUMPDEST \t\t\t\n      POP \t\t\t\n      SWAP3 \t\t\t\n      SWAP2 \t\t\t\n      POP \t\t\t\n      POP \t\t\t\n      JUMP \t\t\t\n    tag 89\t\t\t\n      JUMPDEST \t\t\t\n      PUSH 0\t\t\t\n      PUSH [tag] 461\t\t\t\n      DUP3 \t\t\t\n      PUSH [tag] 157\t\t\t\n      JUMP \t\t\t\n    tag 461\t\t\t\n      JUMPDEST \t\t\t\n      SWAP2 \t\t\t\n      POP \t\t\t\n      PUSH [tag] 462\t\t\t\n      DUP4 \t\t\t\n      PUSH [tag] 157\t\t\t\n      JUMP \t\t\t\n    tag 462\t\t\t\n      JUMPDEST \t\t\t\n      SWAP3 \t\t\t\n      POP \t\t\t\n      DUP3 \t\t\t\n      DUP3 \t\t\t\n      ADD \t\t\t\n      SWAP1 \t\t\t\n      POP \t\t\t\n      DUP1 \t\t\t\n      DUP3 \t\t\t\n      GT \t\t\t\n      ISZERO \t\t\t\n      PUSH [tag] 463\t\t\t\n      JUMPI \t\t\t\n      PUSH [tag] 464\t\t\t\n      PUSH [tag] 219\t\t\t\n      JUMP \t\t\t\n    tag 464\t\t\t\n      JUMPDEST \t\t\t\n    tag 463\t\t\t\n      JUMPDEST \t\t\t\n      SWAP3 \t\t\t\n      SWAP2 \t\t\t\n      POP \t\t\t\n      POP \t\t\t\n      JUMP \t\t\t\n    tag 220\t\t\t\n      JUMPDEST \t\t\t\n      PUSH 0\t\t\t\n      DUP2 \t\t\t\n      SLOAD \t\t\t\n      SWAP1 \t\t\t\n      POP \t\t\t\n      PUSH [tag] 466\t\t\t\n      DUP2 \t\t\t\n      PUSH [tag] 62\t\t\t\n      JUMP \t\t\t\n    tag 466\t\t\t\n      JUMPDEST \t\t\t\n      SWAP1 \t\t\t\n      POP \t\t\t\n      SWAP2 \t\t\t\n      SWAP1 \t\t\t\n      POP \t\t\t\n      JUMP \t\t\t\n    tag 93\t\t\t\n      JUMPDEST \t\t\t\n      DUP2 \t\t\t\n      DUP2 \t\t\t\n      SUB \t\t\t\n      PUSH [tag] 468\t\t\t\n      JUMPI \t\t\t\n      POP \t\t\t\n      POP \t\t\t\n      PUSH [tag] 467\t\t\t\n      JUMP \t\t\t\n    tag 468\t\t\t\n      JUMPDEST \t\t\t\n      PUSH [tag] 469\t\t\t\n      DUP3 \t\t\t\n      PUSH [tag] 220\t\t\t\n      JUMP \t\t\t\n    tag 469\t\t\t\n      JUMPDEST \t\t\t\n      PUSH FFFFFFFFFFFFFFFF\t\t\t\n      DUP2 \t\t\t\n      GT \t\t\t\n      ISZERO \t\t\t\n      PUSH [tag] 470\t\t\t\n      JUMPI \t\t\t\n      PUSH [tag] 471\t\t\t\n      PUSH [tag] 181\t\t\t\n      JUMP \t\t\t\n    tag 471\t\t\t\n      JUMPDEST \t\t\t\n    tag 470\t\t\t\n      JUMPDEST \t\t\t\n      PUSH [tag] 472\t\t\t\n      DUP3 \t\t\t\n      SLOAD \t\t\t\n      PUSH [tag] 62\t\t\t\n      JUMP \t\t\t\n    tag 472\t\t\t\n      JUMPDEST \t\t\t\n      PUSH [tag] 473\t\t\t\n      DUP3 \t\t\t\n      DUP3 \t\t\t\n      DUP6 \t\t\t\n      PUSH [tag] 215\t\t\t\n      JUMP \t\t\t\n    tag 473\t\t\t\n      JUMPDEST \t\t\t\n      PUSH 0\t\t\t\n      PUSH 1F\t\t\t\n      DUP4 \t\t\t\n      GT \t\t\t\n      PUSH 1\t\t\t\n      DUP2 \t\t\t\n      EQ \t\t\t\n      PUSH [tag] 475\t\t\t\n      JUMPI \t\t\t\n      PUSH 0\t\t\t\n      DUP5 \t\t\t\n      ISZERO \t\t\t\n      PUSH [tag] 476\t\t\t\n      JUMPI \t\t\t\n      DUP3 \t\t\t\n      DUP8 \t\t\t\n      ADD \t\t\t\n      SLOAD \t\t\t\n      SWAP1 \t\t\t\n      POP \t\t\t\n    tag 476\t\t\t\n      JUMPDEST \t\t\t\n      PUSH [tag] 477\t\t\t\n      DUP6 \t\t\t\n      DUP3 \t\t\t\n      PUSH [tag] 218\t\t\t\n      JUMP \t\t\t\n    tag 477\t\t\t\n      JUMPDEST \t\t\t\n      DUP7 \t\t\t\n      SSTORE \t\t\t\n      POP \t\t\t\n      PUSH [tag] 474\t\t\t\n      JUMP \t\t\t\n    tag 475\t\t\t\n      JUMPDEST \t\t\t\n      PUSH 1F\t\t\t\n      NOT \t\t\t\n      DUP5 \t\t\t\n      AND \t\t\t\n      PUSH [tag] 478\t\t\t\n      DUP8 \t\t\t\n      PUSH [tag] 204\t\t\t\n      JUMP \t\t\t\n    tag 478\t\t\t\n      JUMPDEST \t\t\t\n      SWAP7 \t\t\t\n      POP \t\t\t\n      PUSH [tag] 479\t\t\t\n      DUP7 \t\t\t\n      PUSH [tag] 204\t\t\t\n      JUMP \t\t\t\n    tag 479\t\t\t\n      JUMPDEST \t\t\t\n      PUSH 0\t\t\t\n    tag 480\t\t\t\n      JUMPDEST \t\t\t\n      DUP3 \t\t\t\n      DUP2 \t\t\t\n      LT \t\t\t\n      ISZERO \t\t\t\n      PUSH [tag] 482\t\t\t\n      JUMPI \t\t\t\n      DUP5 \t\t\t\n      DUP10 \t\t\t\n      ADD \t\t\t\n      SLOAD \t\t\t\n      DUP3 \t\t\t\n      SSTORE \t\t\t\n      PUSH 1\t\t\t\n      DUP3 \t\t\t\n      ADD \t\t\t\n      SWAP2 \t\t\t\n      POP \t\t\t\n      PUSH 1\t\t\t\n      DUP6 \t\t\t\n      ADD \t\t\t\n      SWAP5 \t\t\t\n      POP \t\t\t\n      PUSH 20\t\t\t\n      DUP2 \t\t\t\n      ADD \t\t\t\n      SWAP1 \t\t\t\n      POP \t\t\t\n      PUSH [tag] 480\t\t\t\n      JUMP \t\t\t\n    tag 482\t\t\t\n      JUMPDEST \t\t\t\n      DUP7 \t\t\t\n      DUP4 \t\t\t\n      LT \t\t\t\n      ISZERO \t\t\t\n      PUSH [tag] 483\t\t\t\n      JUMPI \t\t\t\n      DUP5 \t\t\t\n      DUP10 \t\t\t\n      ADD \t\t\t\n      SLOAD \t\t\t\n      PUSH [tag] 484\t\t\t\n      PUSH 1F\t\t\t\n      DUP10 \t\t\t\n      AND \t\t\t\n      DUP3 \t\t\t\n      PUSH [tag] 217\t\t\t\n      JUMP \t\t\t\n    tag 484\t\t\t\n      JUMPDEST \t\t\t\n      DUP4 \t\t\t\n      SSTORE \t\t\t\n      POP \t\t\t\n    tag 483\t\t\t\n      JUMPDEST \t\t\t\n      PUSH 1\t\t\t\n      PUSH 2\t\t\t\n      DUP9 \t\t\t\n      MUL \t\t\t\n      ADD \t\t\t\n      DUP9 \t\t\t\n      SSTORE \t\t\t\n      POP \t\t\t\n      POP \t\t\t\n      POP \t\t\t\n    tag 474\t\t\t\n      JUMPDEST \t\t\t\n      POP \t\t\t\n      POP \t\t\t\n      POP \t\t\t\n      POP \t\t\t\n      POP \t\t\t\n      POP \t\t\t\n    tag 467\t\t\t\n      JUMPDEST \t\t\t\n      JUMP \t\t\t\n    tag 97\t\t\t\n      JUMPDEST \t\t\t\n      PUSH 0\t\t\t\n      PUSH 60\t\t\t\n      DUP3 \t\t\t\n      ADD \t\t\t\n      SWAP1 \t\t\t\n      POP \t\t\t\n      PUSH [tag] 486\t\t\t\n      PUSH 0\t\t\t\n      DUP4 \t\t\t\n      ADD \t\t\t\n      DUP7 \t\t\t\n      PUSH [tag] 176\t\t\t\n      JUMP \t\t\t\n    tag 486\t\t\t\n      JUMPDEST \t\t\t\n      PUSH [tag] 487\t\t\t\n      PUSH 20\t\t\t\n      DUP4 \t\t\t\n      ADD \t\t\t\n      DUP6 \t\t\t\n      PUSH [tag] 162\t\t\t\n      JUMP \t\t\t\n    tag 487\t\t\t\n      JUMPDEST \t\t\t\n      DUP2 \t\t\t\n      DUP2 \t\t\t\n      SUB \t\t\t\n      PUSH 40\t\t\t\n      DUP4 \t\t\t\n      ADD \t\t\t\n      MSTORE \t\t\t\n      PUSH [tag] 488\t\t\t\n      DUP2 \t\t\t\n      DUP5 \t\t\t\n      PUSH [tag] 167\t\t\t\n      JUMP \t\t\t\n    tag 488\t\t\t\n      JUMPDEST \t\t\t\n      SWAP1 \t\t\t\n      POP \t\t\t\n      SWAP5 \t\t\t\n      SWAP4 \t\t\t\n      POP \t\t\t\n      POP \t\t\t\n      POP \t\t\t\n      POP \t\t\t\n      JUMP \t\t\t\n    tag 99\t\t\t\n      JUMPDEST \t\t\t\n      PUSH 0\t\t\t\n      PUSH [tag] 490\t\t\t\n      DUP3 \t\t\t\n      PUSH [tag] 157\t\t\t\n      JUMP \t\t\t\n    tag 490\t\t\t\n      JUMPDEST \t\t\t\n      SWAP2 \t\t\t\n      POP \t\t\t\n      PUSH FFFFFFFFFFFFFFFFFFFFFFFFFFFFFFFFFFFFFFFFFFFFFFFFFFFFFFFFFFFFFFFF\t\t\t\n      DUP3 \t\t\t\n      SUB \t\t\t\n      PUSH [tag] 491\t\t\t\n      JUMPI \t\t\t\n      PUSH [tag] 492\t\t\t\n      PUSH [tag] 219\t\t\t\n      JUMP \t\t\t\n    tag 492\t\t\t\n      JUMPDEST \t\t\t\n    tag 491\t\t\t\n      JUMPDEST \t\t\t\n      PUSH 1\t\t\t\n      DUP3 \t\t\t\n      ADD \t\t\t\n      SWAP1 \t\t\t\n      POP \t\t\t\n      SWAP2 \t\t\t\n      SWAP1 \t\t\t\n      POP \t\t\t\n      JUMP \t\t\t\n    tag 221\t\t\t\n      JUMPDEST \t\t\t\n      PUSH 4E6F742063726561746F72000000000000000000000000000000000000000000\t\t\t\n      PUSH 0\t\t\t\n      DUP3 \t\t\t\n      ADD \t\t\t\n      MSTORE \t\t\t\n      POP \t\t\t\n      JUMP \t\t\t\n    tag 222\t\t\t\n      JUMPDEST \t\t\t\n      PUSH 0\t\t\t\n      PUSH [tag] 495\t\t\t\n      PUSH B\t\t\t\n      DUP4 \t\t\t\n      PUSH [tag] 164\t\t\t\n      JUMP \t\t\t\n    tag 495\t\t\t\n      JUMPDEST \t\t\t\n      SWAP2 \t\t\t\n      POP \t\t\t\n      PUSH [tag] 496\t\t\t\n      DUP3 \t\t\t\n      PUSH [tag] 221\t\t\t\n      JUMP \t\t\t\n    tag 496\t\t\t\n      JUMPDEST \t\t\t\n      PUSH 20\t\t\t\n      DUP3 \t\t\t\n      ADD \t\t\t\n      SWAP1 \t\t\t\n      POP \t\t\t\n      SWAP2 \t\t\t\n      SWAP1 \t\t\t\n      POP \t\t\t\n      JUMP \t\t\t\n    tag 114\t\t\t\n      JUMPDEST \t\t\t\n      PUSH 0\t\t\t\n      PUSH 20\t\t\t\n      DUP3 \t\t\t\n      ADD \t\t\t\n      SWAP1 \t\t\t\n      POP \t\t\t\n      DUP2 \t\t\t\n      DUP2 \t\t\t\n      SUB \t\t\t\n      PUSH 0\t\t\t\n      DUP4 \t\t\t\n      ADD \t\t\t\n      MSTORE \t\t\t\n      PUSH [tag] 498\t\t\t\n      DUP2 \t\t\t\n      PUSH [tag] 222\t\t\t\n      JUMP \t\t\t\n    tag 498\t\t\t\n      JUMPDEST \t\t\t\n      SWAP1 \t\t\t\n      POP \t\t\t\n      SWAP2 \t\t\t\n      SWAP1 \t\t\t\n      POP \t\t\t\n      JUMP \t\t\t\n    tag 223\t\t\t\n      JUMPDEST \t\t\t\n      PUSH 416C726561647920636C6F736564000000000000000000000000000000000000\t\t\t\n      PUSH 0\t\t\t\n      DUP3 \t\t\t\n      ADD \t\t\t\n      MSTORE \t\t\t\n      POP \t\t\t\n      JUMP \t\t\t\n    tag 224\t\t\t\n      JUMPDEST \t\t\t\n      PUSH 0\t\t\t\n      PUSH [tag] 501\t\t\t\n      PUSH E\t\t\t\n      DUP4 \t\t\t\n      PUSH [tag] 164\t\t\t\n      JUMP \t\t\t\n    tag 501\t\t\t\n      JUMPDEST \t\t\t\n      SWAP2 \t\t\t\n      POP \t\t\t\n      PUSH [tag] 502\t\t\t\n      DUP3 \t\t\t\n      PUSH [tag] 223\t\t\t\n      JUMP \t\t\t\n    tag 502\t\t\t\n      JUMPDEST \t\t\t\n      PUSH 20\t\t\t\n      DUP3 \t\t\t\n      ADD \t\t\t\n      SWAP1 \t\t\t\n      POP \t\t\t\n      SWAP2 \t\t\t\n      SWAP1 \t\t\t\n      POP \t\t\t\n      JUMP \t\t\t\n    tag 117\t\t\t\n      JUMPDEST \t\t\t\n      PUSH 0\t\t\t\n      PUSH 20\t\t\t\n      DUP3 \t\t\t\n      ADD \t\t\t\n      SWAP1 \t\t\t\n      POP \t\t\t\n      DUP2 \t\t\t\n      DUP2 \t\t\t\n      SUB \t\t\t\n      PUSH 0\t\t\t\n      DUP4 \t\t\t\n      ADD \t\t\t\n      MSTORE \t\t\t\n      PUSH [tag] 504\t\t\t\n      DUP2 \t\t\t\n      PUSH [tag] 224\t\t\t\n      JUMP \t\t\t\n    tag 504\t\t\t\n      JUMPDEST \t\t\t\n      SWAP1 \t\t\t\n      POP \t\t\t\n      SWAP2 \t\t\t\n      SWAP1 \t\t\t\n      POP \t\t\t\n      JUMP \t\t\t\n    tag 225\t\t\t\n      JUMPDEST \t\t\t\n      PUSH 546F6F206561726C790000000000000000000000000000000000000000000000\t\t\t\n      PUSH 0\t\t\t\n      DUP3 \t\t\t\n      ADD \t\t\t\n      MSTORE \t\t\t\n      POP \t\t\t\n      JUMP \t\t\t\n    tag 226\t\t\t\n      JUMPDEST \t\t\t\n      PUSH 0\t\t\t\n      PUSH [tag] 507\t\t\t\n      PUSH 9\t\t\t\n      DUP4 \t\t\t\n      PUSH [tag] 164\t\t\t\n      JUMP \t\t\t\n    tag 507\t\t\t\n      JUMPDEST \t\t\t\n      SWAP2 \t\t\t\n      POP \t\t\t\n      PUSH [tag] 508\t\t\t\n      DUP3 \t\t\t\n      PUSH [tag] 225\t\t\t\n      JUMP \t\t\t\n    tag 508\t\t\t\n      JUMPDEST \t\t\t\n      PUSH 20\t\t\t\n      DUP3 \t\t\t\n      ADD \t\t\t\n      SWAP1 \t\t\t\n      POP \t\t\t\n      SWAP2 \t\t\t\n      SWAP1 \t\t\t\n      POP \t\t\t\n      JUMP \t\t\t\n    tag 121\t\t\t\n      JUMPDEST \t\t\t\n      PUSH 0\t\t\t\n      PUSH 20\t\t\t\n      DUP3 \t\t\t\n      ADD \t\t\t\n      SWAP1 \t\t\t\n      POP \t\t\t\n      DUP2 \t\t\t\n      DUP2 \t\t\t\n      SUB \t\t\t\n      PUSH 0\t\t\t\n      DUP4 \t\t\t\n      ADD \t\t\t\n      MSTORE \t\t\t\n      PUSH [tag] 510\t\t\t\n      DUP2 \t\t\t\n      PUSH [tag] 226\t\t\t\n      JUMP \t\t\t\n    tag 510\t\t\t\n      JUMPDEST \t\t\t\n      SWAP1 \t\t\t\n      POP \t\t\t\n      SWAP2 \t\t\t\n      SWAP1 \t\t\t\n      POP \t\t\t\n      JUMP \t\t\t\n    .data\n"
}